:020000040800F2
:10000000D8120020D5000008DD000008DF0000083D
:1000100000000000000000000000000000000000E0
:10002000000000000000000000000000E1000008E7
:100030000000000000000000E3000008E5000008E8
:10004000E7000008E7000008A5460008E7000008F0
:10005000E7000008290F0008390F0008490F0008C1
:10006000E7000008E7000008E7000008190F000893
:10007000E7000008E7000008E7000008E7000008C4
:10008000E7000008E7000008E700000800000000A3
:10009000E7000008E7000008E7000008E7000008A4
:1000A000E7000008E7000008E7000008E700000894
:1000B000E70000089D46000800000000E700000877
:1000C0000348854600F0AAFC00480047D18A000892
:1000D000D81200200448804704480047FEE7FEE7A6
:1000E000FEE7FEE7FEE7FEE76D710008C1000008CD
:1000F00030B50B46014600202022012409E00D46C0
:10010000D5409D4205D31D469540491B2546954047
:1001100040191546521E002DF1DC30BD70B500248B
:100120002546002801DA01244042002901DA012590
:100130004942FFF7DDFFAC4200D04042002C00D026
:10014000494270BDF0B51FB40646002082B0054696
:100150004024019100901BE0019922460F46304651
:1001600000F046FB049A059B801A994110D3104673
:100170001946224600F02CFB361A8F410197224681
:1001800001200021009F00F023FB38184D41009012
:100190002046641E0028DFDC019B00982946324679
:1001A00007B0F0BDF0B51FB486B0002000900190FC
:1001B00002900698069980B204900798090C0204F0
:1001C0000014114307900027089D099806913E46A8
:1001D0003C4603900398A9B20204000C03900498D3
:1001E0002D0C154348430021224600F0F1FAC719AF
:1001F000714110340E46402CECDB3846029A00F078
:10020000E7FA009A019B80180090594102980191E9
:10021000103002904028CCDB00980BB0F0BD0346B4
:100220000B439B0703D009E008C9121F08C0042A2A
:10023000FAD203E00B780370401C491C521EF9D21D
:100240007047D2B201E00270401C491EFBD27047D9
:100250000022F6E710B513460A4604461946FFF792
:10026000F0FF204610BD421C0178401C0029FBD144
:10027000801A704730B505460020034600E05B1C3D
:10028000934205D2EC5CC85C201A01D1002CF6D157
:1002900030BD0321001D401E037812021A43491E7F
:1002A000F9D510467047F8B502464A40D40F4200CF
:1002B0004B0052085B089A4202D202460846114699
:1002C0004A0023D0C30D4A00DDB2120EAD1A202D14
:1002D00035DA49020126490AF6058A19002C00D0B0
:1002E000524220214F1B1146B9402A411018C20D1D
:1002F0009A4221D0002C17D0012D08DCDA05801A93
:10030000D20F8019D207DBB200F09EFAF8BDDA05F1
:10031000801A012340001B06C01880185A4280181A
:10032000CA0F1043490007E04908C2071143DA0524
:10033000801A80194008801800F07EFAF8BD61002C
:100340000122511A001BF7E70122D2075140AAE708
:100350000122D2075040A6E7F0B5074608465840AC
:1003600087B0C00F049048000E4659004008490865
:10037000BC1A884105D2384631461E4617460B4600
:1003800002465800400810434CD0300D0390400501
:100390005900400D490D0590401A0290402872DA2C
:1003A00018030121000B09050843019004980092ED
:1003B000002805D001995242002088410092019006
:1003C000029840210A1A0199009800F001FA0546A6
:1003D0000C466B4607CB00F01CFAC0197141039A1A
:1003E0000E0D0023D71756401A467A40164344D0C4
:1003F000049A002A2DD0029A012A039A15DC1205CC
:10040000C01A914101263605001C7141D20F059E8C
:10041000D2070093019202962A46234600F05AFA28
:1004200007B0F0BD38463146FAE71605224A0F46B6
:10043000B218C01AB74101210905001C4F4100182C
:100440007F41114618187941E20F10436D1964413C
:1004500013E0E2076D0815436408C2071443039ACA
:1004600001261205C01A91413605001C7141CE07C4
:10047000400830434908C01851412A46234600F03D
:100480001CFACDE7FFE7049801224000C117121AB9
:1004900000238B4104983146C417381AA141EEE776
:1004A00030B40124E407634030BC55E730B4012484
:1004B000E407614030BC4FE70000E0FFF0B51FB437
:1004C00088B00B990998002448400999C00F490049
:1004D00049080991C0070B990090490049080B9100
:1004E00009990898A64608431CD00B990A98084316
:1004F00018D0099801244000420D4800410D099888
:1005000024050003000B204309900B980003000B07
:1005100020430B9050181C494018002201901446AB
:10052000104605E0002001460DB0F0BD032801DAB9
:10053000034600E003239C46C11A0AAE0AE05F00AE
:1005400008ADED5B4F00F75B7D430027AA187C41A7
:10055000491C5B1E6145F2DD410004AB5A52210487
:10056000120C0A43240C401C0828DFDB019802907F
:100570000099704601910090059B049A079906988E
:1005800000F0A8F9D0E700000DFCFFFFF0B50C4625
:100590005C4085B0E40FE40703944C000026640837
:1005A00059009446490802460296224321D06246E9
:1005B0000A431ED06200570D4A000E032303550D57
:1005C000012402462C492405781B1B0B360B4018CE
:1005D00023432643614600901C46501AB44103D37E
:1005E0000098401C009002E0921800985B4100289F
:1005F00003DA0020014605B0F0BD00200121090505
:100600000746864611E064461D46141BB54106D3D5
:100610006546521BB341744607430C43A646CD07BB
:1006200040084908284392185B4105460D43EAD12A
:100630001046184313D06046194650407140084395
:1006400006D06046101AB34106D20122002306E00C
:1006500000220123DB0702E00122D243531000985D
:1006600074460105381C6141029C039D00196941D3
:1006700000F023F9BFE70000FD03000070B54B0058
:100680005B0803430BD04B005C0D002633466542EC
:10069000B341D417AD1AA34102DB0020014670BD5F
:1006A00012053018514170BD10B500229623114635
:1006B00000F0CAF810BD00000EB5C217C10F5040BF
:1006C000CA0740180021054B0293019200910A4687
:1006D0000B4600F0FFF803B000BD0000330400003B
:1006E0000EB505490291002100910A460B46019181
:1006F00000F0F0F803B000BD3304000070B5CD0F7A
:100700004A0009030123090B1B0519430B4BED0795
:100710000024520D9A4201DA002070BD074B343399
:100720009A4203DC9A1A00F063F802E00449511877
:1007300088402C43F1D0404270BD0000FF03000010
:10074000CDFBFFFF4A0009030123090B1B051943D9
:10075000094B10B5520D9A4201DA002010BD064B2C
:1007600034339A4203DC9A1A00F042F810BD034970
:100770005118884010BD0000FF030000CDFBFFFFB3
:10078000C20FD207400040080BD0C10D0723DB0188
:10079000C91840020905400A1143C2084007114325
:1007A000704700200146704710B5002904DB012482
:1007B000E40740428C412146002B04DB1C46012308
:1007C000DB075242A341994200D1904210BD000084
:1007D00010B5202A04DB0146203A9140002010BDCC
:1007E000914020239C1A0346E3401943904010BDDA
:1007F00010B5202A04DB0846203AD040002110BD65
:100800000B46D340D0402024A21A914008431946F9
:1008100010BD10B5202A06DBCB170846203A104140
:10082000C1170B4306E00B461341D0402024A21A07
:1008300091400843194610BD002904DA401C4900C4
:1008400001D140084000704770B40024050C05D168
:100850001024000402D1002921D01124050E01D159
:1008600000020834050F01D10001241D850F01D1BC
:100870008000A41C002801DB4000641C002908D073
:1008800020252E1B0D46F540A14000D00121294313
:10089000084301061B1B000ADB1D02D5002070BCAB
:1008A0007047DB05181880180029F8DA401C490049
:1008B000F5D170BC40084000704710B5002B08DA35
:1008C0000024401C614192185B411A4301D1400849
:1008D000400010BDF0B51FB482B005460C0003D037
:1008E000084607F001F802E006F0FEFF203002465D
:1008F000009021462846FFF76BFF049B059A0446AB
:100900000F4618431143084314D0184610431BD018
:10091000009840210A1A18460599FFF769FF054615
:100920000E46009A05990498FFF752FF084305D038
:10093000012004E02046394607B0F0BD0020C11771
:1009400005430E432C43374300990E986305401A24
:100950007905E40A00220C43FD0A0A3002D5002082
:100960000146E9E70105101969410C9C0D9D00192C
:100970006941FFF7A2FFDFE7F8B5054648004008E8
:100980000C46284304D06000184A400D904201DD17
:100990002846F8BD15493539884210DC88420BDB02
:1009A000290D200308432903014305D0E00F104916
:1009B000C00741180020F8BD00200146F8BD161AF6
:1009C0004020821B28462146FFF702FF0746009180
:1009D000284621463246FFF70BFF3A46009BFFF7B9
:1009E0006CFF3246FFF7F4FEF8BD00003304000050
:1009F0000000F03F10B5002904DB0124E407404269
:100A00008C412146002B04DB1C460123DB075242AC
:100A1000A3418B4200D1824210BD0000064C01254B
:100A2000064E05E0E36807CC2B430C3C9847103496
:100A3000B442F7D3FFF748FB30AF000850AF0008CF
:100A400070B58C180578401C6B075B0F01D10378DB
:100A5000401C2A1106D10278401C03E006780E7073
:100A6000401C491C5B1EF9D12B0705D40023521EE4
:100A70000DD40B70491CFAE70378401CCB1A921C6A
:100A800003E01D780D70491C5B1C521EF9D5A14274
:100A9000D8D3002070BDF0B589B00C4607461022AF
:100AA0000021684608F04CF869462246084606F0E0
:100AB00066FF6846007887260106684600290FDA37
:100AC00000214318425C5B785200DB091A43425410
:100AD000491C0F29F5DBC17B0246490071400DE03E
:100AE00000214318425C5B785200DB091A434254F0
:100AF000491C0F29F5DBC17B02464900D173E21D79
:100B0000F9325169102912D0017809061BD500214C
:100B10004518435C6D785B00ED092B434354491C39
:100B20000F29F5DBC17B03464900714019E0002124
:100B30006218FF3201325378455C491C6B40537098
:100B40001029F5DB26E000214518435C6D785B0039
:100B5000ED092B434354491C0F29F5DBC17B0346A8
:100B60004900D973E11D55698023FA316B54002582
:100B700000E05D5453695B1C5361102BF9D30021D5
:100B80006218FF3201325378455C491C6B40537048
:100B90001029F5DB002162181046FF32E0300132E7
:100BA000437C5278491C534043741029F3DB21469F
:100BB0001022F13104A807F0ABFF2246394604A801
:100BC00006F0DDFE10220021684607F0B9FF09B0EB
:100BD000F0BD10B5044610220021F13007F0B0FF3F
:100BE000FF20002115300151F022204607F0A8FF18
:100BF00010BD0B4610B502461021184606F0EAFE5D
:100C000010BDF0B50446FF308BB00F4601300890A0
:100C1000E11D4069FA31009110391546079100280D
:100C200043D010210E1AAE4200D316460099B2B23C
:100C30004018394607F06CFF0898089940698019F8
:100C4000486110283AD3B54238D0002162181046C6
:100C5000FF32E0300132437C5278491C53404374E8
:100C60001029F3DB07992246084606F088FEBF19D3
:100C7000AD1B1AE000202118E0314A7C3B5C401C8F
:100C80005A404A741028F6DB102202A8079907F090
:100C90003FFF02A92246084606F071FE102202A973
:100CA000079807F035FF103D1037102DE2D8AAB293
:100CB0003946009807F02CFF089845610BB0F0BD4D
:100CC000F7B523498022497A214B511ACDB2197ABE
:100CD0005B7A8026F31A0A46DEB2871E491C01247D
:100CE000C9B2761E3B0006F02EFE09060C060C1259
:100CF0000C06062B3000164BAA4224D2154CA054E9
:100D000003E0134BB24215DB1DE019720DE0104EEB
:100D1000AD1EAA4217DA0F4B985401985854491C3B
:100D2000C8B202991954401C3072002408480121AD
:100D3000C17108E0074CA05401986054491CE4E7D5
:100D4000034BAA42F6D32046FEBD0220FEBD0000A2
:100D5000080100203A09002010B508F081FC08F0D5
:100D600007FD10BD70B5144E0025144C0DE000F0C9
:100D70004DF92168012870540CD00D280FD00A2895
:100D80000DD07F2913D0491C216001F06DF9012895
:100D9000EDD070BD0620256007F0B2FC70BD0029C3
:100DA000F3D07554044807F0E1FF2560EDE7042017
:100DB000256007F0A5FCE8E7DF0400204C000020D8
:100DC0003EB50D4C6946E2780A70227D8A70C87083
:100DD000606B06F02BFC0190E06B0290E07D6946B1
:100DE0004870207C03F08EFC218CE06B4143081A94
:100DF000A16D4018A0653EBD08010020FFB5002090
:100E000085B00090054606460190002477000798BB
:100E10000121C05BA14008422FD028190C22039069
:100E20005043089A1258002A27D0059A002A01D167
:100E3000490722D00899411808200291085602114A
:100E400000070117069840B203F06BFE002814D08B
:100E50000298407A01010E980818C068002804D052
:100E60000198401CC0B2019007E0009A0F990398C6
:100E700088540098401CC0B20090641CE4B2102C4E
:100E8000C5D31035761CEDB2F6B2102DBDD3109936
:100E900001980870009809B0F0BD000030B587B027
:100EA00001240320194D0F21039001946A46090380
:100EB0000294284600F088FA00222103284600F018
:100EC000A3FB00226103284600F09EFB0022A10341
:100ED000284600F099FB0022E103284600F094FB2D
:100EE0000B48A105426B0A434263406B08400590E2
:100EF0000848416821434160416802221143416032
:100F0000416804221143416007B030BD0004005025
:100F1000001002400058014010B508F0E5FA10BD7D
:100F200010B500F091FD10BD10B5012000F024FABD
:100F3000022000F021FA10BD10B5042000F01CFAC8
:100F4000082000F019FA10BD10B5102000F014FAB6
:100F5000202000F011FA402000F00EFA802000F06E
:100F60000BFAFF20013000F007FA0120400200F0E8
:100F700003FA0120800200F0FFF90120C00200F016
:100F8000FBF90120000300F0F7F90120400300F015
:100F9000F3F90120800300F0EFF90120C00300F015
:100FA000EBF910BD01A008F0FFFBFEE74572726F80
:100FB000725F48616E646C65720A0D0006498000BC
:100FC00009580648091803D0C14203D000207047D1
:100FD0000120704702207047A09F0008702FFCFF7F
:100FE00010B5094A0021CB00D458844207D89B1879
:100FF0009B68834203D9C8008018007910BD491C42
:10100000C9B21529EFD3FEE7E0990008EFF310818C
:1010100072B6054AD368D05C5B1C5B075B0F81F33B
:101020001088D36070470000F0050020C106C90E8B
:1010300001208840014908607047000000E100E09D
:1010400010B502F0E7F910BD08B506490968484334
:101050000549FFF74DF800E0401E00900028FBD145
:1010600008BD00003800002040420F0008484068DA
:101070000168C907C90F07D08168C907C90F03D024
:1010800080688007C00F01D00020704701207047A2
:10109000DC00002070B52A4CA068A0681025C006AE
:1010A000002804DB606800F0EFFF002802D0A06891
:1010B000284343E0A068FF2101318843A060A06875
:1010C0002843A060FFF7D2FF00280BD16068012100
:1010D00002698907920092080A430261C1681822D6
:1010E0009143C160174A01211068490688430843AB
:1010F000106060688168C900C90F06D18168124A12
:1011000011400122120711438160C1680F4A11404A
:10111000891CC1600169C907C90F03D00169490869
:1011200049000161426907218A430A434261A0687C
:1011300002218843A060A06801210843A06070BD1F
:10114000DC00002008270140E8FFFF7F1902FEFFB6
:10115000F8B51F4C6068C1682025C907002903D075
:10116000A0682843A060F8BD01684907C90FFBD0FB
:10117000606800F089FF0028FAD1A06801214902C7
:101180000843A0606068C16804260905890F00292A
:101190000BD1016801270907C90F06D000F074FFC1
:1011A000002805D0A0682843A06060680660F8BDEC
:1011B000606841680822914341604168B1434160E1
:1011C000A06851018843A060A0683843ECE70000A4
:1011D000DC000020F8B51A4E044600252F46706842
:1011E00000F052FF002804D0B06820210843B0600E
:1011F000F8BD7068816A6203520B11438162114825
:10120000092104401048C9062040884202D1012526
:10121000ED050A270D48044011208006844202D1C2
:101220000120800505430A4908680322920590437E
:1012300028430860002FDBD03846FFF705FFF8BDD4
:10124000DC0000200000C07C000004C8000002C4D4
:101250000827014070B5194C606800F015FF0028A0
:101260000DD1FFF703FF164D002815D16068816886
:10127000EA43114204D1A06810210843A06070BD68
:1012800081682940491C81600120FFF7DDFE60680C
:101290000168C907C90FFBD0A0680A490840A060CF
:1012A000A068FF2101310843A06060681C21016033
:1012B00081682940091D816070BD0000DC000020AC
:1012C000E8FFFF7FFEF1FFFFF8B5264C07462178C7
:1012D0000020012945D14D02284600F0EDFE2248AC
:1012E00041680907C90FFBD0606800F0D1FE606853
:1012F0008168C90FFCD040210091491E0091FCD1AA
:1013000081681A4E3140491C81600168C907C90FC4
:10131000FBD000F0B9FE002804D0A06820210843CB
:10132000A06008E06068816A816211490868032250
:101330009205904308603846FFF74CFFFFF78AFF9D
:10134000FFF706FF6168086C8A6880B23240921C21
:101350008A6002220A6001220A6006494A6BAA4397
:101360004A63F8BDDC00002000700040E8FFFF7F0A
:10137000082701400010024010B504494A690242A2
:1013800002D0486100F0D8F810BD00000004014010
:10139000014600200A0A00D00820084A114201D064
:1013A00004221043064A114201D002221043054A8A
:1013B000114201D00121084370470000F0F0000005
:1013C000CCCC0000AAAA0000F8B505460B200C46BC
:1013D0000007174629180BD001208002091A09D0EE
:1013E000091A0DD0814201D1082004E0802002E0DA
:1013F000012000E0022000F0C5FE2E4600250AE094
:101400000420F8E7E00704D03A462946304600F0C9
:1014100005F864086D1C002CF4D1F8BDF8B5012363
:101420008B4054689BB2022C0CD1CC10A40027181E
:101430003C6A4D07EE0E0F25B540AC431569B5402B
:1014400025433D6201248C40A4B264436500566884
:101450006519012E01D0022E08D1D768866867432E
:10146000AE433E43866046689E43466057680668C2
:101470006743AE433E4306609768C6687C43AE430D
:101480002643C6605268D20044D5234A0124556BD6
:1014900025435563526B2240009205221207904269
:1014A00001D1002219E01D4A904201D1012214E02D
:1014B0001B4A904201D102220FE01A4A904201D108
:1014C00003220AE0184A904201D1042205E0174A9B
:1014D000904201D1052200E006228807000B891006
:1014E000084301068C0D124961188C68050C0F2009
:1014F000A8408443AA4014438C600E4801681943F5
:101500000160416899434160816819438160C16805
:101510009943C160F8BD0000001002400004005073
:1015200000080050000C005000100050001C00503B
:10153000000001400004014010B5FFF729FF8100C1
:1015400002484058002800D0804710BD60050020A8
:1015500070B51E4615460C460846FFF719FF204990
:10156000002E38D080000E50FF2101318C4208DA65
:10157000082C1DD005DC012C18D0022C16D0042C10
:1015800016D00720A907FF22090E002812DA034609
:10159000083B9C08134BA400E418E3698507ED0E93
:1015A000AA409343A9400B43E3610FE00520E9E71C
:1015B0000620E7E784080C4BA400E418236885079D
:1015C000ED0EAA409343A9400B43236001218140C3
:1015D0000648016070BD002280000A5070BD000006
:1015E0006005002000ED00E000E400E000E100E024
:1015F000002A01D08161704781627047002A01D0C2
:101600008161704781627047002A01D08161704713
:1016100081627047002A01D0816170478162704702
:1016200070B500240E48FFF74FFE0E4E0E4D010020
:1016300013D00E483246008B5043FEF759FDB0429E
:1016400001D9FE2409E0A84207D3401BFE214843EC
:101650004B210901FEF74CFDC4B2204670BD0000CD
:10166000000002C4B80B0000080700006000F81F6B
:1016700003494A690869496A504048407047000078
:101680004000F81F70B51148FFF71EFE104C010016
:101690001AD0208B0F4A5043FEF72AFD05460E480C
:1016A000FFF712FE68430B49FEF722FD618B05220E
:1016B000401A12035043E28B511AFEF72FFD0F21FF
:1016C0004902401880B270BD0025E8E7000004C858
:1016D0006000F81FB80B00000000044809490B69BE
:1016E0004A69496A59180B0EC3710B0C83710B0AB6
:1016F00043710171110EC170110C8170110A41709A
:10170000027070474000F81F10B586B0142168467B
:10171000FEF79EFD032001900020029005206A46FE
:1017200010490007FFF750FE0F4C6A4621460F484C
:10173000FFF74AFE6A4621460D48FFF745FE6A4616
:1017400021460C48FFF740FE012000F013FD022067
:1017500000F010FD042000F00DFD802000F00AFDD7
:1017600006B010BDFF9F0000FFFF00000004005006
:1017700000080050001C005070B5114C6078002823
:101780001DD120780126002811D175022670284627
:1017900000F092FCFFF77EFC606800F079FC606866
:1017A0008168C90FFCD00748416BA94341630648D3
:1017B0000068804700F0F2FB00F0D8F9667070BD59
:1017C000DC00002000100240909A000808B5124882
:1017D00001680222114301601049C2038B6B13435D
:1017E0008B63896B114000910D490A6810239A435D
:1017F0000A600A6843151A430A6003680822134303
:10180000036003689343036008680A151043086087
:10181000FFF77AFF08BD00000020024000100240E0
:101820000070004070B50120000700F039FC00F0A6
:10183000F5FC14480168C905C90FFBD012480169BD
:1018400003221204012311401B04994219D001699B
:1018500005699143DC00254305610569A5430561E0
:10186000016189050DD501698905FCD50649403915
:101870000C6803252D05AC430C60016991431943A5
:10188000016170BD007000404010024010B500F0D2
:101890005FFC002808D1012000F062FC00F058FC39
:1018A000012801D0FFF77EFB194CE068F021884346
:1018B000E06000F00FFD002801D1FFF773FB03206B
:1018C00000F010FD00F0DCFC0C28FBD100F040FC27
:1018D000002808D0012000F043FC00F039FC01286A
:1018E00001D0FFF75FFBE068072109028843E06051
:1018F000E068C9008843E06002F0B2FEE168054A92
:101900000906090F515CC8400349086010BD00007A
:1019100000100240F89A000838000020F8B50027AF
:10192000164901252D07896B3E462846884303D07A
:10193000284600F0B5FB0127114C2068C005C00FF8
:1019400006D100F06BFC01262068C005C00FFBD05B
:101950000A484030026981150A4302610269920512
:10196000FCD5002E02D0206888432060002F03D0D1
:101970000248816BA9438163F8BD0000001002405A
:101980000070004010B500F07BFC1B4C04280CD00C
:101990000C2804D1E06801210904084205D000F0B8
:1019A00077FC20684007C00FFBD060681F21090248
:1019B0008843012109030843606000F061FC0C28A2
:1019C00017D02068012109068843206000F082FCBE
:1019D0000028FBD1E068FD21090488431121C904D6
:1019E0000843E06000F06CFC00F074FC0028FBD0C1
:1019F00010BDFFF7D7FA10BD0010024001090A22FE
:101A000000075143000F0818C0B2704710B50A21F3
:101A1000FEF76EFB00010843C0B210BD0948CA21A1
:101A200041625321416281688215914381608168DE
:101A3000821491438160C168C907C90FFBD0FF219F
:101A4000416270470028004070B5410EC0017D2200
:101A50000023FEF777FB054600F080F8044600E01F
:101A600000BF00F07BF8001BA842F9D370BD000056
:101A7000F8B505462C480C46816A06684768826AB4
:101A80008A42F9D188B2A060B002800EFFF7B6FF9B
:101A900020717004400EFFF7B1FF60717006400EB8
:101AA000FFF7ACFFA0710120800506403804400F0D
:101AB00026602870F804C00EFFF7A0FF6870B80613
:101AC000800EFFF79BFFA8703802000EFFF796FF0D
:101AD000FF216E31C21C41439208E87051186A78A8
:101AE0000023561E03E0114FFF5C79185B1C9E42D9
:101AF000F9D8800702D1032A00D3491CA878491ECF
:101B0000401821791822504308183C214843617934
:101B1000074A40183C214843A1794018A168800237
:101B2000511A4018F8BD000000280040309F0008FE
:101B3000FF03000003207047014800687047000061
:101B4000A00500201FB5694603A8FFF791FF0249D1
:101B5000096804B0401A10BDA00500201FB56946F1
:101B600003A8FFF785FF04B010BD000010B5064CB8
:101B70002078002807D100F041F8FFF74FFF00F070
:101B8000ABF80120207010BD5000002010B50021DE
:101B9000042000F011FE0848C168C905C90F0AD029
:101BA000C16880221140FF398239C1600349900227
:101BB000486105F05DFD10BD0028004000040140B3
:101BC00070B50446FFF7BEFF211A0B4D0220285EB8
:101BD000C01C814201D9002100E00121042000F055
:101BE000EBFD00F0C1FD012802D10220285E241A7D
:101BF000204600F07DF870BD50000020F8B5FFF7DA
:101C00008DFEFFF70FFE2C4801690122920411435B
:101C100001612A490868FF2702263A0490430860B8
:101C2000274904200860274CCA2060625320606264
:101C3000204600F061FBA06840218843A060A068B6
:101C4000032149058843A060A068F1048843A0608F
:101C50001D492069C00BC0030843206120697F2112
:101C6000090488431F210904084320618025ED43AE
:101C7000E560E06CB043E064E06C40084000E06484
:101C8000204600F039FB11496068114A10400843B2
:101C9000606020680F4908402060E560A068800609
:101CA000C00F02D1204600F04DFBA0682021084360
:101CB000A0606762F8BD00004010024000E400E050
:101CC00000E100E000280040FF03000001C1000027
:101CD000C00000FF808080FF10B5044C2046211D0D
:101CE0001030FFF7C5FE206010BD0000A0050020E9
:101CF000F0B504467B4889B0011D0EC903AD0EC581
:101D00000069029000F014F90120774940038861CE
:101D100076490598A205081A920D101880B206900F
:101D20006A46734BA00A977A5A4202E0C0187F1C99
:101D3000BFB29042FAD26A46167CE122120102E05A
:101D4000801A761CB6B29042FAD26A46557C02E0FE
:101D50006D1CADB23C383C28FAD2927C101880B28F
:101D600001900120800206E0121A92B20692019AB6
:101D7000521C92B20192069A8242F5D204E03C389B
:101D800080B26D1CADB2019001983C28F7D203E0FF
:101D90003C3D761CADB2B6B23C2DF9D203E0183E04
:101DA0007F1CB6B2BFB2182EF9D26B465A7A514890
:101DB000DB7A105C9B0706D1022A04D1401CC0B21A
:101DC00001E03A1A97B28742FBD84B4CCA206062B6
:101DD00053206062A068A2159043A060E068802252
:101DE0001040FF388238E060E068C007C00FFBD0C9
:101DF0003E490698081A616CC90BC9030143616426
:101E0000606C0F2109068843052149060843606478
:101E1000039AF0B20892FFF7F9FD0790E8B2FFF7D6
:101E2000F5FD00900198C0B2FFF7F0FD0799089A00
:101E300009041143009A120211430143E0692F4A39
:101E400010400843E061E069D1058843E061F8B2E1
:101E5000FFF7DCFDE1693F221206914300060143D2
:101E6000E161E06926490840E061A0680121890438
:101E70008843A060A06889120843A060A068090197
:101E80000843A0601F48490102680A430260826853
:101E90000A438260FF20606203A902A8FFF7E8FD01
:101EA00012480599401A7D21C9004843800A0090D4
:101EB0006846837C427C017C13A007F075FC7D2181
:101EC0000698C9004843800A00902A46314613A06C
:101ED000019B07F069FC012003494003886209B0B7
:101EE000F0BD0000A005002000040050FF0300002A
:101EF00080AEFEFF2F9F000800280040808080FFFA
:101F00007F7F7F7F00040140697427732025643A36
:101F100025643A25643A2564200000005755402086
:101F200025643A25643A25643A25640A0D000000C8
:101F300010B50548C16880221140FF398239C1605F
:101F4000FFF76CFD10BD00000028004010B57D219A
:101F500005F0E1FC4906C009084310BD10B5410E6B
:101F6000C0017D220023FEF7EDF810BD0A490A6882
:101F70005206D20F03D10A6840231A430A6008733D
:101F80008868C007C00FFBD0C868C0B28A68120654
:101F9000D20FFBD1704700000030014000B5184857
:101FA0000121426B8BB009030A434263406B164A1E
:101FB00008400A900020FF21053101910121009085
:101FC000490205910290039004900E4B014612685D
:101FD00003E05208491C072901D29A42F9D8C900E6
:101FE0000790069108906946084800F0E5F9012835
:101FF00001D0FEF7D7FF00F00BF80BB000BD0000DA
:102000000010024080969800380000200030014007
:1020100030B585B00220019002900320039000208B
:1020200004906A4608210F48FFF7CEF905242407DB
:102030006A4640212046FFF7C7F96A4680212046BC
:10204000FFF7C2F901210191CD0302916A462946A9
:102050002046FFF7B9F9012229462046FFF7DAFAB0
:1020600005B030BD00040050EFF3108172B6054892
:102070008268C068824201D0012000E0002081F324
:1020800010887047F005002080684007C00F704737
:10209000816817229143D207114381607047000085
:1020A00008B504498A6B02438A63896B0140009139
:1020B00008BD00000010024008B504494A6B024305
:1020C0004A63496B0140009108BD000000100240C6
:1020D000F8B5D46893685569234314692C432343A6
:1020E00094692343D4692343946A2343104C6418AE
:1020F000203CE67F85590F4F3D401D438551E57FCC
:1021000003460C33EF585668EE50E67F1B1FF75816
:102110001568F550E47F031DE658156A360C360441
:102120002E43E650526A00F007F80120F8BD000087
:10213000199B00080F80FFFF10B589000F24091FAD
:102140008C408030836A8A40A3431343836210BD6E
:1021500002480068C007C00F70470000002002401E
:1021600003490A685208520002430A60704700009F
:10217000002002400249CA6A8243CA6270470000D6
:102180000010024008B50449CA6A0243CA62C96A1B
:102190000140009108BD00000010024002480169A2
:1021A000042291430161704700ED00E070B50446E0
:1021B00000680E460025C007C00F2AD1F16870687C
:1021C000226808433169144B1A40114308432060C8
:1021D000B16860680322120390430843606071692C
:1021E000A068121190430843A060900000F01EF810
:1021F00000280ED03268002A0BD0010E06025008CB
:102200000023301801255941FDF79CFF0003000B06
:10221000E060284670BD0000F3E9FFEF0248016866
:1022200082151143016070470070004010B51249DB
:102230000024C968014001208002091A12D0091A3D
:1022400014D0814207D100F033F8002801D00124D6
:10225000E403204610BD02F0E1F902F0C5F902F0F6
:10226000D1F901E002F0DAF90446F2E700F018F8DB
:102270000028EED0014CECE7401002400024F400AE
:102280000248C0680C21084070470000001002405E
:1022900002480168012211430160704700100240AA
:1022A000024800684007C00F70470000001002405D
:1022B000024800698005C00F7047000040100240CE
:1022C00003480168012212061143016070470000B3
:1022D00000100240024800688001C00F70470000F3
:1022E000001002400349CA68920892000243CA6083
:1022F000704700000010024018B57D21C900009110
:10230000C16801224906C90F15D1491EC160C168C3
:102310000B4B4906C90F0CE01969C903C90F02D05C
:102320000099491E0091C168009C4906C90F002C04
:1023300003D00029F0D0104618BD0022FBE70000B2
:1023400000E000E038B57D24E4000094C26801217B
:1023500080231A40A13AC260C268164B9206D20F7F
:102360000CE01A69D203D20F02D0009A521E0092DA
:10237000C268009D9206D20F002D18D0002AF0D11D
:10238000002912D00094C2689206D20F0BE01A699D
:10239000D203D20F01D0621E0092C268009C920646
:1023A000D20F002C03D0002AF1D0084638BD0021FE
:1023B000FBE7000000E000E010B5036800225B06C8
:1023C000DB0F25D10CC94C681A430B6823431A4311
:1023D0008B681A43CB681A430B691A434B691A433B
:1023E0008B691A4303680E4C23401A43026042680B
:1023F00004239A43CB681B0C1A43426001238A6969
:102400005B0308399A4202D1898C89B201610122A9
:10241000C1690123DB029943C161104610BD000070
:102420004000FFFF10B503A1095C03A007F0BCF951
:1024300010BD0000414243007377697463682074E3
:102440006F20636C61737320256320646F6E650A6F
:102450000D00000070470000F8B52E4C6160E06090
:10246000264610368168B01C88470220401C082888
:10247000FCDB0320401C0828FCDB0320401C102848
:10248000FCDBE068C068804706F0FAFD22490020C6
:1024900006F056FD20600320401C0828FCDB0320CA
:1024A000401C1028FCDB0320401C1028FCDB1C48CF
:1024B0001A4901601B4941601B498160E068154968
:1024C0000068083108600522154800F0C7F9144D6E
:1024D00002200C352870606800782871284600F0CA
:1024E00085FC07202870606880782871284600F0F5
:1024F0007DFC00272F702F71284600F077FC01200B
:1025000000F022FF77706068417802485030017314
:10251000F8BD000054000020FFFFFF0177330008E2
:10252000C405002079330008D533000830B52348AE
:10253000224D01780020103D85B0012928D0204C83
:10254000032121706060204600F050FC04202070C0
:1025500028686060204600F049FC0520207028466D
:1025600032306060204600F041FC06202070284692
:1025700042306060204600F039FC0120207020715C
:10258000204600F033FCE8684069804705B030BD64
:10259000694608700948801C019008300290083094
:1025A00003906868C078087401A91EC904481C38E3
:1025B0001EC0684600F068FDE8E7000064000020E7
:1025C000D005002070B586B00E46044605F076FFB3
:1025D0000025ED43002822D1207904A900F058FEFF
:1025E000024600211548002A04D06A461170029163
:1025F00091811FE0002E15D0012269460A70627990
:102600000A7122798A812168029108226946CA7377
:10261000007B8873684600F0C5FA002800D0284681
:1026200006B070BD6A46117061791171217991818E
:1026300021680291007B9073ECE70000A400002069
:1026400010B50B480168002904D000F015F800F01F
:1026500066F810BD4068002804D000F019F800F0BA
:102660005FF810BD00F006F800F058F810BD00004B
:10267000F40100207047000010B504480168890883
:1026800089000160FFF78AFD30BF10BD0070004077
:1026900030B585B0EFF3108472B614216846FDF7AB
:1026A000D7FD03200190002005252D0702906A46E2
:1026B00080212846FEF788FE6A4640212846FEF71C
:1026C00083FE6A4608211148FEF77EFE01216A4614
:1026D000C9032846FEF778FE0D48406880470D483C
:1026E000016804221143016084F31088016801230A
:1026F0008908890019430160074801691143016194
:1027000030BFFFF74BFD05B030BD000000040050A6
:10271000909A00080070004000ED00E0704770479C
:1027200010B5EFF3108472B6FFF7B2FD0C480168E4
:102730004907C90FFBD0FFF7C3FDFFF7CBFD00280A
:10274000FBD00320FFF7CEFDFFF79AFD0C28FBD14D
:10275000FFF75EFC03480068804784F3108810BDD3
:1027600000100240909A0008EFF3108172B60748FB
:102770000268002A01D0002005E04068002801D04E
:10278000012000E0022081F310887047F40100204E
:1027900010B5EFF3108272B6064B00295C6803D0C7
:1027A000012903D1044300E084435C6082F3108874
:1027B00010BD0000F401002010B5EFF3108272B6D6
:1027C000064B00291C6803D0012903D1044300E013
:1027D00084431C6082F3108810BD0000F4010020C7
:1027E000F8B5174605460A461948069C089E0799FB
:1027F000447183711C0AC4711C0C04721B0E437259
:1028000081720B0AC3720B0C0373090E4173D4B2AD
:10281000C4731048FEF7DDF939460E48FEF7E9F9B2
:1028200010220B490B48FEF7ECF9224629460948CD
:10283000FEF7E7F90749C81FFD38FEF72CF9064CEB
:10284000601CFDF726FD2178000208433060F8BDCA
:1028500074010020A00C00209C0B0020F8B50E464F
:10286000050017467ED028680028FBD0686800283D
:10287000F8D0A8680028F5D0104602F05DFE0028C8
:1028800071D0774C00212666E565224627741A32FE
:10289000117002226274A163217601266676E174CA
:1028A0006165A1650B216A4611703846694602F0E0
:1028B00032FE002800D001202075082168460170F2
:1028C0006946207C02F027FE664D05212870684687
:1028D00001706946207C02F01EFE68700C2168467B
:1028E00001706946207C02F016FEE8600D21684602
:1028F00001706946207C02F00EFE28610E216846B8
:1029000001706946207C02F006FE68610F2168466E
:1029100001706946207C02F0FEFDA8611021684626
:1029200001706946207C02F0F6FDE86113216846DB
:1029300001706946207C02F0EEFD2F46203778704A
:102940001421684601706946207C02F0E4FD68624B
:102950001521684601706946207C02F0DCFD387262
:102960001A2101E077E078E0684601706946207C32
:1029700002F0D1FD38731B21684601706946207C46
:1029800002F0C9FD78731C21684601706946207CFD
:1029900002F0C1FD28631D21684601706946207C54
:1029A00002F0B9FD68630021207C02F0BEFD3E709C
:1029B0000A2206216A60284629723838426001726C
:1029C000E968C1602969016169694161A969816139
:1029D000E969C1612030067002F034FE28462249C0
:1029E000383004F02FFE7D212846C900383004F02D
:1029F00091FE28461D49683004F024FE28461C49F3
:102A00007C3004F01FFE28461A49903004F01AFE6C
:102A100028461949CC3004F015FE04F001FE60632D
:102A2000284616494C3001601549816015490161FD
:102A3000154941601549164DC160A9688847E86984
:102A4000804706F01DFBA674296E30468847686BE8
:102A500080470020F8BD0320F8BD0A20F8BD000023
:102A600008010020740A0020E93400088D3F0008A6
:102A7000713E0008013F000859340008293D000854
:102A800065370008613C0008353E0008C13C00087D
:102A9000909A0008F8B504461D4617460E460D48A4
:102AA000FEF797F839460B48FEF7A3F8F2B2214635
:102AB0000848FEF7A6F80749C81FFD38FDF7EBFFE9
:102AC000054C601CFDF7E5FB2178000208432860F7
:102AD000F8BD0000A00C00209C0B0020FFB585B0C5
:102AE0000F46044607ADF02200211D480E9E06F059
:102AF00027F81B4A1021204604F06CFF1022002109
:102B0000684606F01DF80121684601700622394624
:102B10006C46401C05F0FCFF02222946E01D05F032
:102B2000F7FF0F4A6846089904F029FF1022002198
:102B3000684606F005F8022168460170062239460B
:102B4000601C05F0E5FF02222946E01D05F0E0FFCC
:102B5000034A3146684604F012FF09B0F0BD000098
:102B6000AC0B0020F8B517460E4605461C46F02271
:102B700000210B4805F0E4FF094A1021384604F013
:102B800029FF074A2146284604F0F9FE102E06D3F5
:102B900021462846024A1031103004F0F0FEF8BDFC
:102BA000AC0B0020F0B5044687B047A006F0FCFD52
:102BB00002200490002006460190002C78D04A485C
:102BC000816BCA0701D1C80602D5012007B0F0BD4C
:102BD00000206946087201461422444805F0B0FFFF
:102BE000424801214170404841732278002A04D0B4
:102BF000012A0AD0032A26D118E001736B461A7AFB
:102C00000126D206D20E403207E0E27B02736B4609
:102C10001A7A0126D206D20E80321A7222790192D5
:102C2000A26800920E25A78965570CE001736B46D8
:102C30001A7AE0231A436B461A72626801260092E0
:102C40000A252789655701216A4611752849069189
:102C5000097B9175244805A9007C02F05CFCA84220
:102C600000D3054668B2002E1FD01F4D29790029D8
:102C700010D16946087306980422007B887303A963
:102C8000287C02F0D4FC002812D019496846007B49
:102C9000203948703B4602A8009A019904F05EF979
:102CA0000490002806D00020687104988EE7FFE7A2
:102CB00003208BE70D48217801700B4801221A3060
:102CC000017811430170F0E70A0D2A2A2A204C6F7F
:102CD00052614D61634D63707352657175657374B4
:102CE000202A2A0A0D000000080100206C0B002099
:102CF0005C0A0020F8B500250446002818D03949A0
:102D0000277837480E463836027C3B0004F01BFE1D
:102D10001E121417191B1E2023252729303B394268
:102D200046484A4C4E50525654585A5C5E60626453
:102D30000320F8BD407C00E0C07820714DE00079B0
:102D4000FBE7C06C00E0006D606046E02648FBE7F2
:102D500025481030F8E7807CEFE7C07CEDE71920CC
:102D600012E020492039486C896CA160606034E031
:102D70001C49203908467C30C96F40686160A060FA
:102D80002BE0172000E0162069460870104602F07C
:102D9000C2FBD9E7134820300078CEE7C868D3E7F4
:102DA0000869D1E74869CFE78869CDE7C869CBE70B
:102DB0007078C2E74878C0E73078BEE70878BCE7AB
:102DC000806AC1E7C06ABFE7406ABDE74868BBE701
:102DD000087AB2E7486BB7E702252846F8BD00003D
:102DE000080100203C0A00201C070020F0B5002448
:102DF00089B00746002806D0954D288FC00704D01B
:102E0000012009B0F0BD0320FBE7934E3A7830462D
:102E100020300290407B03908D488E49007C130047
:102E200004F091FD1E102124272A2D333C41FA4441
:102E3000849B97A7AEB1B4B7BABDCCE8D9FDF8FA78
:102E4000F7F6F5FA38796874002804D0012804D020
:102E5000022802D102E0486B8047F6E0002068714A
:102E600001F04EF8F1E03879E870EEE03879287139
:102E7000EBE07868E864E8E078682865E5E0796880
:102E8000002975D01022754805E079680029F8D02E
:102E900072481022103005F03BFED6E03879A87455
:102EA000096E8847D1E03879E874CEE0397A6A460D
:102EB000117103995171062201A902F0B8FB002893
:102EC000DFD06548BA682038796882644164687CDC
:102ED0000228C2D1E8780028BFD05F4F0298F037AF
:102EE000009708214156327A7368287C01F021FE50
:102EF000687D3870706A78600298407B3874E87C2E
:102F000078740120F874B87455A006F04DFC3A4668
:102F10002C323946287C02F03FFB00287DD0B87C5B
:102F2000F16802F019FCF87CE8738EE0397A6A46A1
:102F3000117103995171062201A902F078FB002852
:102F40006BD04548BB6820387A688021C2670B5037
:102F50007BE079680691012102E079680691002101
:102F60006A46117706A901F0D4FB002855D06CE021
:102F700053E03879411E0E294FD80299087064E059
:102F80007868F06061E0786830615EE07868706170
:102F90005BE07868B06158E07868F06155E03A79B4
:102FA00069460A71052201A902F041FB002834D0CC
:102FB0006846017928483830417046E039796A46D8
:102FC0001171042201A902F032FB002825D06846C5
:102FD0000079707039E03A7969460A71082201A9CE
:102FE00002F025FB002818D0684601791A483830CD
:102FF00001702AE039796A461171072201A902F0AD
:1030000016FB002809D06846007930701DE018E0F2
:1030100011E00AE006E002E016E0032415E078681B
:10302000A86212E07868E8620FE00B4879683830EF
:103030004160716009E008483979383001723172B5
:1030400003E07868706300E002242046D9E60000BF
:1030500008010020909A00083C0A00201C0700206C
:103060000A0D2A2A2A204C6F52614D61634D696214
:1030700053657452657175657374436F6E666972DA
:103080006D202A2A0A0D0000F0B50446022085B002
:103090000090002C36D04748008FC00718D10C2272
:1030A0000021454805F04CFD434E01207070414D14
:1030B000207808271A35002806D001285DD002287C
:1030C00066D0032850D16BE03A48018FC90602D57B
:1030D000012005B0F0BD6168002913D0A168002966
:1030E00010D0E16800290DD0217C00290AD06A4661
:1030F000117330481E2203A9007C02F098FA0028C0
:1031000002D00AE00320E4E71F2168460174294841
:1031100004A9007C02F0FFF920742878694638433E
:10312000287020783070234E60683064A068706426
:10313000E068B064207C707600203076087102F080
:1031400081FA307E6946401C088102A9307C01F07A
:10315000BCFA1A49002348701A46194601A803F020
:10316000FDFE0090002806D0124900204871287802
:10317000F721084028700098ABE7287800223843F0
:1031800028702078307011460220FDF799FDE8E79D
:103190003070287838432870A08803F07FFFE0E77C
:1031A0003070287838432870227BA088A16803F00B
:1031B0009FFFD6E708010020800B00203C0A00207A
:1031C000FEB508AF70CF6F4670C700F001F8FEBDC6
:1031D000FFB50D46002681B01F460124F02231467E
:1031E000294805F0ADFC284A1021039804F0F2FBB1
:1031F00026480A9941718771390AC171390C0172E7
:10320000390E41720B9981720B991F4F090AC172D5
:103210000B99090C01730B99090E4173203F18E0BB
:103220001A48194AC473641C1146A4B2203904F028
:10323000A6FB00203118019A3B5C525C401C5A40AE
:103240000C9B80B25A541028F4D3103D1036ADB206
:10325000F6B2102DE4D2002D13D00B4A0B481146C4
:10326000C473203904F08BFB002008E0019A311868
:10327000525C3B5C5A400C9B401C5A5480B2A842A2
:10328000F4D305B0F0BD0000AC0B00208401002099
:10329000F3B52B4887B00E46427869460A7100782C
:1032A000284C0876207A617A4018C5B2002E32D0B8
:1032B00000216846017221794172206B20490390F8
:1032C00038394A78684602741D4F09784174183FAE
:1032D000397B817420463030009006AB01AA02A9E8
:1032E000207C01F0E3F9397B6846817501794175ED
:1032F00009210175E07C002802D00A206946087582
:1033000005A9207C02F007F9C0B27070A84205D36D
:10331000401B307006E0032009B0F0BD307000257E
:10332000257265726846042141562A46079804F0C2
:103330006BFA002801D00020EEE70820ECE700003F
:10334000740A00200801002038B504466846054D7F
:1033500004700B226946287C02F069F9002800D02D
:103360002C7538BD0801002010B50279016840793C
:1033700005F040FE10BD70471CB50446407800289B
:103380001DD105F09BF8002801D005F085F8607B81
:10339000012814D1E078E02812D069464871227BD8
:1033A0000A71A168009805F0B3FB0848E1894180E3
:1033B000217C01715038C0680169684688471CBD8E
:1033C0000349204605F080F81CBD0000A400002041
:1033D000B405002010B50446007800280CD0012860
:1033E00009D16078002806D105F068F8002802D0DD
:1033F000204605F059F810BD6078002802D0FFF78C
:1034000095F810BD0248C0684069804710BD0000B3
:10341000540000208307FF22DB0E9A408907090E23
:10342000994000280BDA0007000F08388308084885
:103430009B001818C36993430B43C361704783080B
:1034400004489B001B181868904308431860704795
:1034500000ED00E000E400E010B50DA006F0A4F9D6
:10346000144804F0A1F914484179002905D001213C
:103470008173816B042291438163407C022805D1D2
:103480000D4810221A3001781143017010BD000060
:103490000A0D2A2A2A204F6E41636B54696D656FAD
:1034A000757454696D65724576656E74202A2A0AB2
:1034B0000D000000400B0020080100200EB507A001
:1034C0000068029002A80090012168460171E02185
:1034D00041710021FFF776F80EBD000001000000E9
:1034E00010B505F0BBF810BDF8B58BA006F05CF97F
:1034F0000027934804F058F9924D934C2878C10660
:1035000073D5A16B4A0604D540229143490849006E
:10351000A1638B490207D4310026002A01DBC207D0
:1035200011D0874AC0325378022B02D04B78022B3D
:1035300009D1A36B5B085B00A3632672637B5371A5
:1035400016710127966062793A437D4F503F002AF9
:1035500031D1020702D4C10703D12CE00A78002A36
:1035600006D03978A27A91420ED9810712D41DE093
:10357000227E8A724978002903D0617E8A4210D265
:1035800014E0A662A6720CE0800703D42672206BBA
:10359000401C2063A6726078002802D1A06A401CFB
:1035A000A062A06B40084000A06304E0EF21084047
:1035B000287000F0EBFC2878800717D56048C030F1
:1035C0000179012903D0617B227B91420ED9A67338
:1035D00066716178002902D1A16A491CA162617BF0
:1035E0004171A06B40084000A0634FE0A07B002821
:1035F0004CD0208FC00649D4A673607B217B8842C3
:1036000031D208282FD8401C6073C0070DD020216C
:1036100068460170397B4A4F8170703F79784170FC
:103620006946207C01F077FF787003F0FFFB0028EB
:1036300014D043480921C03041702672A16B49085B
:103640004900A16366710671617B41713C49703923
:10365000497881706078002815D017E02878EF212C
:103660000840287012E00121207C01F05EFFA06B71
:1036700040084000A063324826726671C03006716F
:10368000617B4171E6E7A06A401CA062A06B8107E4
:1036900002D502218843A06300280ED07D21C900F5
:1036A000274804F037F8264804F046F828788007C1
:1036B00031D5607C022820D021E024A006F074F8E7
:1036C0002878C00708D0E06D01681D48C0308847E1
:1036D00028784008400028702878000708D5E06D59
:1036E00081681748D43088472878F7210840287027
:1036F0002878EF2108402870D8E700F001FC2878EE
:10370000400704D4E06D41680D48A8308847287808
:10371000F92108402870F8BD0A0D2A2A2A203120F4
:103720004F6E4D61635374617465436865636B5498
:10373000696D65724576656E74202A2A0A0D00004F
:10374000AC0A002022010020080100200A0D2A2ACC
:103750002A204C4F52414D41435F49444C45202A59
:103760002A0A0D00FFB5064697B017460C46F9A089
:1037700006F01AF8002011900146099005460C90B9
:10378000FB48079010300E90002013901290F948DB
:1037900001711838C7811A9A0274F74AD27B4274B1
:1037A000C1708170417181600173417381744161A5
:1037B0000170F248406B8047EE48683803F0F4FF30
:1037C0003078694608704109601E0290201FEC4F56
:1037D0001491109001291CD003297DD005297BD09C
:1037E00007297AD039460120F831487000F070FD81
:1037F000E14810221A30017811430170E04801219C
:10380000503003F087FFDE48503003F095FF1BB0C7
:10381000F0BDD948C178002903D0D6490120183914
:103820004FE1D5480299D74D826C89B26B1C701C50
:10383000FFF798F9684600782870109809AB81B2B4
:10384000CD48826C2846FFF725F928192038417F9A
:10385000027F09021143827FC07F12040A430006DF
:1038600009991043884249D1C148C34E1030009095
:10387000BF4BF28B691CB06CFFF730F9687929797E
:1038800000020843A97909040143F164297AE8791F
:1038900009020143687A00040843A97A0906014332
:1038A0003165E87A4106490F00077970000F3872D8
:1038B000287BB54D0007000F286101D10120286148
:1038C0007D21C9004843286140186861AD480D302A
:1038D00004906846113C01E015E0A6E1047504A9D6
:1038E000307C00F0FBFEA349002014314870012019
:1038F000F070A34818304078687079E79D48072138
:103900001430417074E7797B6846817399489A4F07
:10391000183801796846417309210173F87C002841
:1039200002D00A206946087303A9387C01F0F3FD30
:10393000014620460D3800B2002800DA00208842F7
:1039400000D96AE7B078717800020843F1780A0478
:103950000243307901061143874A0691126D052012
:103960009142854917D04D6A0CE02A6806998A422F
:1039700007D101211391291D079110310E916F6A12
:103980000AE0AD6A002DF0D10B217A481838417059
:1039900000F09EFC3BE7CF6A315C6A461170401C28
:1039A0000B91335C401C305C02020807000F0830AA
:1039B0000A9030191A432038017F0C9B1943437F2A
:1039C0001B020B43817FC07F090419430006084393
:1039D0000C90D01B81B20122D20309A80D91914213
:1039E00012D27F180197029001211098009181B2A4
:1039F0003046069B079AFEF7F3FE09990C98884219
:103A00001AD10120129017E009B20122791812048C
:103A1000891815910191029010980122009281B2AB
:103A20003046069B079AFEF7DBFE09990C98884200
:103A300002D10120159F12901120694608734E484B
:103A400003A9007C01F067FD0D99884205D849481B
:103A50000A211838417047619AE71298002877D0F8
:103A60004449002018394870139A8A700B9A414BC8
:103A7000D206D20F4A71886008734F613E49587070
:103A800008634872139800280CD018460221183891
:103A90000170696AB94203D1002901D0082176E793
:103AA0006F621FE0149805280DD033483149002279
:103AB000827118390A70C06AB84211D100280FD03B
:103AC0000820487064E72C482A4A01218171183A7D
:103AD0001170C06AB84203D1002801D001201190B2
:103AE0002548C76223480078012802D10B98800638
:103AF00002D52149002008720A98201A001F0028C8
:103B000061DD0A9D0A986D1C611B091F305CC9B2FA
:103B10000F9118491839C87000280B9836D0000743
:103B200007D01A980821C3B2681EC2B2304600F00E
:103B3000FFFB01200090134C019702947019069B23
:103B40000E9A0F99FFF73CFB1198002834D05EE0E5
:103B500069E000000A0D2A2A2A204F6E526164692A
:103B60006F5278446F6E65202A2A0A0D000000000B
:103B70001C0700206C0B002008010020909A000810
:103B80005C0A00203B0800203C0A0020000702D00D
:103B9000012011903BE02F480121029001970091F4
:103BA0007019069B079A0F99FFF70AFB1A980021D4
:103BB000C3B228480F9A0EE0274884600F9901731A
:103BC000012141730CE00B98000706D01A980821D8
:103BD000C3B230460A9A00F0ABFB1198002816D108
:103BE0000B98800606D51C49012018310871183938
:103BF000887408E018490020183108711748417B83
:103C0000007B814203D91448143803F0CDFD1349D9
:103C100002221A3108781043FB221040119A9200B8
:103C200010430870E4E50C21AFE6711C22460948F8
:103C300004F06EFF0848032101700021417005491E
:103C4000816002990173054802211A3002780A4303
:103C50000270CDE53B080020540B00200801002035
:103C600070B5144C607C022803D01348406B804729
:103C700001E000F045F911480E4DE27B01461A358E
:103C8000102614316379002A05D00622002B00D0BB
:103C900042704A700AE00522002B00D042704A7040
:103CA000606D03F0C3FCA16E884202D328783043D4
:103CB000287070BD08010020909A00086C0B00204D
:103CC00070B5164C607C022803D01548406B8047C5
:103CD00001E000F015F91348104DE27B01461A355A
:103CE000102614316379002A08D00422002B00D05A
:103CF00042704A70607C02280BD170BD0322002BF9
:103D000000D042704A70606D03F090FCA16E884252
:103D1000F3D328783043287070BD000008010020DC
:103D2000909A00086C0B0020FEB538A005F03CFD11
:103D300003F076FC3C4C0646607C022803D03B48EE
:103D4000406B804701E000F0DBF8374DA0781A3572
:103D5000002700282AD03648616E03F0DBFC344887
:103D600003F0EAFC607C02280ED03148A16E1430CA
:103D700003F0D0FC2E48143003F0DEFC607C0228F7
:103D800002D06079002820D012206946087202A96A
:103D9000207C01F0C0FBA16E41182548503003F093
:103DA000B9FC2348503003F0C7FC0EE02048042142
:103DB0007C304770143041702878002801D10120F0
:103DC0002870C0B21021084328702878000704D555
:103DD000174890300078002815D0E775607DA075F1
:103DE00069460870E07848700196207C01F0FBFB82
:103DF00066656079002805D10D487C304770A07A4F
:103E0000401CA072FEBD0120E075E7E70A0D2A2ADA
:103E10002A204F6E526164696F5478446F6E65203A
:103E20002A2A0A0D0000000008010020909A0008CC
:103E3000F00A002010B50B48407C022803D00A4845
:103E4000406B804701E000F05BF8084902204870B1
:103E500014314870034810221A3001781143017060
:103E600010BD000008010020909A00086C0B002093
:103E700070B517A005F098FC1E4803F095FC1E4C89
:103E800000211C4DE173607D283528702846BC3820
:103E90004278EA70407B2874E07C6874A974E97405
:103EA000607C022802D11548806B804708A005F08D
:103EB0007BFC104A207C68321146403901F06CFBD3
:103EC0000C48B438C168A87C01F046FC70BD000005
:103ED0000A0D2A2A2A204F6E527857696E646F772E
:103EE0003154696D65724576656E74202A2A0A0D13
:103EF00000000000F00A002008010020909A00084D
:103F000070B517A005F050FC1E4803F04DFC1D4D88
:103F10001D4C2835607D2E462870F03E706A686022
:103F20002846D038407B2874E07C68740120E8740F
:103F3000617C022900D00020A87409A005F034FC9F
:103F4000104A207C543211462C3901F025FB002800
:103F500005D0A87CF16801F0FFFBE87CE07370BD40
:103F60000A0D2A2A2A204F6E527857696E646F779D
:103F70003254696D65724576656E74202A2A0A0D81
:103F800000000000040B0020080100201FB51948A4
:103F900003F00AFC184C1021A06B8843A063204654
:103FA0001A300078000721D51248A4300078002884
:103FB0001CD101F047FB207E6946401C888103A983
:103FC000207C00F082FB0B49A03948700020694634
:103FD000087121790246C9010A4369460A720346FB
:103FE0000246009002A901A800F032F802F01EFF7C
:103FF0001FBD0000DC0A002008010020F0B50646C5
:1040000000242046002E01D0002A1ED10020F0BD41
:10401000355DAF1E3B0003F096FC09161416061220
:10402000140E16061600641C1554E4B2401CC0B2EF
:10403000335D135400E01554401CC0B203E0A41CCF
:1040400000E0641CE4B2641CE4B28C42E0D3F0BD36
:10405000F0B50C4687B08446002198480C9D069127
:1040600081831E1E1746417100D10025EAB20270FD
:104070006146934D097829700121009161460978C4
:10408000490908D002293FD004293BD007297DD017
:10409000022007B0F0BD009904468183681C082205
:1040A000616C04F040FDA08B0822083080B2A08330
:1040B0002818216C04F037FDA08B0830A0838148BC
:1040C000C06980470146E083A08B06AB2954401CA1
:1040D00080B2090A2954401CA083C1B27848A26C5E
:1040E000FEF7D8FCA08B06992954401C80B20A0A1E
:1040F0002A54401C80B20A0C2A54401C80B2090E7B
:104100002954D7E001214171C178002969D00122E9
:1041100069460A7321786948CA0969464A736A4A36
:10412000006B049050780875107848751046203060
:10413000007B88756148134630300090303803A901
:10414000007C521C00F0B2FA81012078BF2210409E
:1041500008435A4920708979002905D0574A00211F
:1041600091712021084320705448016D54480A0A77
:10417000417082700A0CC270090E01712178417180
:104180004E49098D8171090AC17100E088E04B49EF
:10419000FF30097AFF304018484908254A7A4A49D1
:1041A000823904F0B5FC4548017A407A0818C1B25A
:1041B0004248002E01721FD00278002A1CD0C2791A
:1041C000002A22D00F291DD820783D4A0309401823
:1041D0001B010007000F03432370537100203B4C69
:1041E00007E0072055E7235C53556D1C401CEDB2DA
:1041F00080B28842F7D308E03048002905D0C27960
:10420000002A02D0314E017000272C4C00202F4A8A
:10421000E07180322D48FFF7F1FE6072002801D076
:104220000120E071002E14D02178002911D02448FB
:1042300047556D1CEDB2002F27D0A36A002240190C
:104240000092019302901E4A236D103A3046FEF709
:10425000BFFF207806AB2918A18300206E46A26A12
:104260000DC6174A1648203A236DFEF7B9FA144ACC
:10427000A18B06985054030A52185370030C000E79
:104280009370D070091DA18316E000222272A36AE8
:10429000401900920A4A01930290203A236DD5E713
:1042A000002B09D00446002A06D0681C314604F0D1
:1042B0002FFC2078401CA0830020EAE608010020A3
:1042C0003C070020909A00083C0A00203A09002090
:1042D00010B50DA005F068FA13484022816B114318
:1042E00081634079002801D0FFF7B6F80E49122209
:1042F0001A3108781043087001210C4803F00AFABB
:104300000A4803F019FA10BD0A0D2A2A2A20507211
:1043100065706172655278446F6E6541626F727448
:10432000202A2A0A0D00000008010020AC0A002003
:10433000FFB505468BB0A84816460C46099024E107
:10434000285D641C801EE4B2030003F0FCFA090639
:10435000115E6AA1AED6EFEDEC00A04900204870D6
:10436000285D0872641CE0B22A5C4A72401C4AE074
:1043700000206946087708A9087069460872087322
:104380002819401E0490301B401C08759448924F19
:1043900002798A750999203F0A7B69464A757A78BD
:1043A000CA753A780A76099908AB0A7869464A7656
:1043B00003AA02A90192009107AA04A9007C01F0B6
:1043C000C1F80090C043400709D16846007F78706B
:1043D00008A8007838706846017A099801700027AB
:1043E00006E0002203200099FCF76AFC7F1CFFB264
:1043F00068460521007BFBF77BFEB842F1D8684692
:10440000007B2018401EC4B2BFE0285D7449641CC4
:104410000122C87282400A840022E4B211460420BC
:10442000B1E0285D4006410F68464170285D641C7C
:104430000107090F68460170E0B2295C401CC0B258
:1044400001912A5C401C12021143C0B201912A5C06
:10445000401C12041143C4B2084664214843019031
:104460005F486946007C01F0B5F80146C843400743
:104470000BD168460278099802725748019A203891
:1044800042626846427809984270002205207AE02C
:104490005348FF21006E002804D00068002801D096
:1044A0008047014606200E9A6DE0285D6946087433
:1044B000641CE0B20391295C401CC0B200912A5CEC
:1044C000401C12021143C0B200912A5C401C12042D
:1044D000114364225143009100210191C0B22A5C32
:1044E000401C6946C4B20A723D4803A9007C01F031
:1044F0003AF800220146072045E0285D641C0007C9
:10450000000FE4B2002800D101207D21C9004843FA
:1045100031497D222039D20008618018002248618B
:10452000114608202FE033E034E0FFE7285D00214A
:104530006A46641C11705170E4B2810601D50121F4
:104540005170C10601D5012111700007000F907054
:1045500023481146007C01F061F8401C15D06846E4
:104560000178099801736846417809984173684653
:1045700080781C49085CFCF797F81749002220391D
:10458000086311460920FCF79BFBB44200D2D7E632
:104590000FB0F0BD285D69460870641CE0B2295C6C
:1045A000401CC0B201912A5C401C12021143C0B2EF
:1045B00001912A5C401C12041143C4B208466421D4
:1045C0004843019006486946007C00F0BFFA00228B
:1045D00001460A20D7E700005C0A0020800B00207B
:1045E00008010020789F00080449C968F0221140A2
:1045F000034A0909515CC84070470000001002409E
:10460000F89A00080349C968034A4905490F515CF3
:10461000C840704700100240119B000810B50C49BB
:10462000CA680C2002400B4805D0042A09D0082A89
:1046300009D00C2A09D049680904490F491C88404F
:1046400010BD054810BD054810BD00F009F810BDAB
:1046500000100240008000000024F40000127A00E4
:1046600010B50B48C16801231B040A4A194002D047
:10467000994200D15210C168C0680902890F8002B6
:10468000054B000F185C491C5043FBF731FD10BD72
:10469000001002400024F400089B000810B504F04C
:1046A00053FF10BD10B5FDF771FA10BD70B51C4673
:1046B000049B15460E46052801D0002070BD2246F9
:1046C0002946304600F04CFA70BD10B5052801D0DF
:1046D000002010BD084600F07FFA10BD10B5052877
:1046E00002D1084600F098FA10BD70B514460D4688
:1046F000052801D0D0B270BD1A462146284600F0E8
:10470000C5FA70BD10B5052802D1084600F0C6FAFA
:1047100010BD10B5052801D0002010BD084600F0DE
:10472000D9FA10BD30B502460168C07A0C2358434F
:104730000930095C50680B01C45A00250C33C55080
:10474000507A002809D0907A012805D110690146D5
:104750006143081A5168C85030BDD06800F002F9B2
:10476000844200D92046917A002902D1117A002989
:1047700003D011694843401AECE75068C55030BD7A
:1047800010B50B0914099C4201D3914201D30020BA
:1047900010BD5A000C07835A240F0121A1408B43FE
:1047A0008352012010BD30B500280AD0002908D05E
:1047B000002304E05C000D5B5B1C0553DBB29342FD
:1047C000F8D330BDFFB50E461946099A029800F09D
:1047D000A8F9002824D0002425461DE000236F00FE
:1047E000F15B0120984001420ED0E0180C214843B3
:1047F0000A994018007A01060A0F0107090F02986A
:1048000000F08FF901280BD05B1CDBB2102BE7D333
:1048100010346D1CE4B2EDB200988442DED3002067
:1048200004B0F0BDFEB5054614460E465800FBF731
:1048300057FF009060000F460838FBF73DFF2A46FF
:104840003346FBF73BFE3B46009AFBF785FD2A46C5
:104850003346FBF79BFE03F0BBFDFBF773FFA04263
:1048600000D90446099804600898FBF739FF0090C6
:1048700001912046FBF734FF2A463346FBF71EFE24
:104880000022D243FBF7FAFE0C46074602222846D6
:104890003146FBF7F3FE3A462346FBF701FE019B48
:1048A000009AFBF7FDFD03F093FDFBF727FF0A9944
:1048B0000860FEBD10B5FBF713FF02460B46002053
:1048C0000149FBF763FE10BD0000204070B50646AD
:1048D0000846FBF705FF054601200C46B040FBF7F4
:1048E000EBFE2A462346FBF751FE0022014BFBF765
:1048F000E5FD70BD00408F4070B514460D46400088
:10490000FBF7D2FE2946FBF723FD2146FBF71CFDF2
:10491000FBF736FF03F0E6FFFBF7F0FE40B270BD99
:10492000F0B58446964600206246002A01D0012256
:1049300015E00020F0BD4C0063461F5B10260024EC
:10494000234615469D40BD4301D1641CE4B25B1C67
:10495000DBB2B342F5D32018491CC0B2C9B27145CD
:10496000E9D3F0BD0649884201D264207047054969
:10497000884202D27D20C000704703487047000083
:1049800080EE3600803F5C0210270000FFB5044631
:104990000678022083B02056029003250427617810
:1049A0006557E75700290BD10F2801D10F2D02D0F1
:1049B00000260727E7570520205606250290655751
:1049C000002E25D0112020566169019100901023FE
:1049D000E356207AE168029AFFF7F4FE002801D13D
:1049E000FD20064018221921A2566156284600F0E3
:1049F00098F8002807D119202056A84201DD054665
:104A000001E0FB200640072E02D1002F00D1A7575E
:104A1000049902980870059805700698077030464A
:104A200007B0F0BD03780022032B14D1427813079E
:104A30001B0F12068B70120F4A7082788A80C3781F
:104A40001B021A438A8000794206520F0007CA707F
:104A5000000F087005221046704700288A6000D1B8
:104A60004A607047FFB50024E44381B01F4600252B
:104A700052E0019800280FD00298002844D00398F3
:104A800029010E18B06802F0D1FD0146F06881429C
:104A90002BD30020F0603DE0039829010818009016
:104AA000406802F0C3FD06460298002803D0009833
:104AB000806802F0BBFD864202D90098406804E09D
:104AC0000298002803D00098806802F0AFFD00999A
:104AD000C968814202D8002000991AE0002919D043
:104AE000081AA04216D2044614E0002812D0B0687A
:104AF00002F09CFDF168081AA0420BD2B06802F0E7
:104B000095FDF1680C1A05E0002403992A0120465E
:104B10005118C8606D1CEDB2BD42AAD3204605B045
:104B2000F0BD884203DB904201DC01207047002089
:104B3000704770B51C46049B15460E46052804D1E7
:104B400022462946304600F061F970BD10B50528AF
:104B500001D0002010BD084600F08AF910BD000009
:104B6000FFB504460F460820092681B02056A657F7
:104B70006168196061780025012925D100280BD0D2
:104B80006168402901D30125002660291CD3C9068C
:104B9000C90E012903D017E00021196014E020227A
:104BA00069460A704870A07A8870684600F07EF9FD
:104BB00040B2002808D121780025012904D10549F7
:104BC00007230A881A430A8038700398067028461B
:104BD00005B0F0BD9401002070B505880024302197
:104BE0002846FBF785FA00290CD0E8060CD01821DE
:104BF0002846FBF77DFA002908D0280708D0680767
:104C000008D00524204670BD0124FBE70224F9E703
:104C10000324F7E70424F5E7F0B587B007465020F2
:104C200069460872387910282ED1002403252646BB
:104C300001E0082D19D23868611C005D00903A68C7
:104C4000515C0902084300903A68A11C515C01962E
:104C5000090408436421484300900AD06846039041
:104C6000057403A800F04CF808E068460096067248
:104C700001966846057505A800F0B0F8E41C6D1CA7
:104C8000EDB2E4B2102DD4D307B0F0BD881A40B213
:104C9000002800DA0020C0B27047000000B585B0DF
:104CA0000A4900910A490191427869460A720278DC
:104CB0004A7282788A72C278CA72416803918068A7
:104CC00004906846FFF72EFD05B000BDB80D00202A
:104CD0009801002010B50179002903D0012905D0E1
:104CE000002010BD01680122044803E00168034868
:104CF0000122801CFFF757FD012010BD9401002008
:104D0000F8B505460020694608702E790446074626
:104D1000102E01D30320F8BD28680722007A002155
:104D200000070017FFF7FDFE002800D101242868C6
:104D300008214156072208110021FFF7F2FE002842
:104D400000D101242968082008560107091702111B
:104D5000914200DD0124032E12D2002900DD01243E
:104D6000001107220521FFF7DCFE002800D10124F5
:104D70002868184902680C207043085882420AD1FA
:104D800028686946006802F063FD002803D03C42B1
:104D900003D00620F8BD0127F9E7002C01D005203B
:104DA000F8BD002F01D00420F8BD0C20314641434E
:104DB00008482B6808180ECB0EC0694609780C38D5
:104DC0004172054801220188B24011430180002050
:104DD000F8BD0000B80D00209401002010B5017846
:104DE000032901D2002010BD0C22064B4A430020AB
:104DF000D21810605060906010220348FFF7C0FC8A
:104E000010BD0000B80D002094010020FFB583B054
:104E10001C461646072800DB07206070FCF7CEF81A
:104E2000A07001202056104A072819D0810013468F
:104E300018335958105CFFF749FD05460B480F46DB
:104E4000406E804721460C31083402910090334671
:104E5000019428463946049AFFF7E4FC07B0F0BDF8
:104E6000105CFFF727FDE8E7889F0008909A00088C
:104E700038B505460020694608700324686802F0CA
:104E8000E7FC002800D1022429780C204143064881
:104E90004258002A01D1FD221440032C02D10818E7
:104EA0006A684260204638BDB80D002070B50246E1
:104EB00015787D21C90000204C002B0002F043FD35
:104EC000211A1A1A1A1A1A1A1A1A1B1F2527292BFD
:104ED0002D2F31341A391A3B3D40421A1A444749A2
:104EE00049121A00012010560021002801D0401E4E
:104EF000C1B248B270BD01201056174903E001202D
:104F0000154910560831085C70BD012070BD13486A
:104F100070BD084670BD204670BD114870BD114877
:104F200070BD0120800370BD0F4804F009F800191E
:104F300070BD0E4870BD0E4870BD0D48801C70BD20
:104F4000102070BD0B4870BD8320C00570BD0A489D
:104F500070BD302070BD0000909F0008B80B0000AD
:104F6000881300007017000018FCFFFF08E6D33319
:104F700094010020B80D00209A99094070B5104A9C
:104F8000002807D0012804D1901E018812881143FF
:104F9000018070BD0B480C490346383338CB38C10B
:104FA0000346443338CB38C1503019C819C10720E3
:104FB000108003490122881EFFF7F5FB70BD000039
:104FC00096010020889F0008B80D0020FFB5072536
:104FD0008FB0044600266846374606803AE02068CF
:104FE00002A98019FFF71EFD002836D03018C6B27E
:104FF000694688890880CA7A0725104304D0501E64
:10500000042801D9072A01D3062523E00020062A17
:105010000CD06B4601211B888140194216D00C210F
:105020002E4B4143595800290ED00FE00C212B4B39
:1050300041435958002909D06B4601211B88814002
:1050400019436B46198001E06D086D00401CC0B229
:105050001028DCD32079B042C1D8012069460871FC
:105060006079887101A8FFF721FF69460D74A27964
:105070004A744A7A8A748A7ACA740A7A0A75E27910
:105080004A75227A8A75627ACA7510220A76079161
:1050900008A90870072048701049099108A90872EA
:1050A0004F7202AB9A1C173904A8FFF76FFC072850
:1050B00003D10B496A4612880A8069464A7A1099D8
:1050C0000A7069468A7A11990A7069460A7A1299B1
:1050D0000A7018990E7013B0F0BD0000B80D0020D2
:1050E000940100203EB5016803240A68002A0DD00F
:1050F00000910079694608716846FFF701FE0028B3
:1051000012D004280BD005280DD10AE00079694699
:10511000087202A8FFF762FE002804D004E002240F
:1051200002E0012400E0002420463EBDFFB589B026
:10513000044600256846057316461F4604950595E6
:1051400006950122294625480795FFF7E9FB002827
:1051500004D122480722018811430180606802F0CF
:1051600065FA2168884220D33D601C4AA17A607AA2
:105170000523121DFFF776FC0746184803AA04A969
:10518000001D6B4607C3217A607A154B134AFBF763
:1051900035FE002812D0411E002003F0D1FE04A9E4
:1051A000095C0A98017035600DE06946087B401C77
:1051B0000873606802F03AFA21680F1A6846007BAB
:1051C000002803D0376001200DB0F0BD034807224E
:1051D00001881143018000203560F5E7940100202B
:1051E000B80D0020F3B50125374F044645574668F2
:1051F000F8688DB08047002802D000200FB0F0BDC5
:10520000E07C002809D121780C2041432F484658E2
:1052100008184068002800D006462D4840570B90DB
:10522000294841693046884700200121072D2DD0AB
:1052300001220A92A27C07AB069007C32189059040
:1052400089B20291082103900490019100901E48B8
:105250000123076AA17818460B9AB847607C012899
:105260002ED01B480830405D0D30C1B21648C26DCB
:105270000A98904717A004F097FA2A46314617A0DB
:1052800004F092FA0E9805700120B7E700220A9206
:10529000A27C06900790099208902289059192B20B
:1052A00002920521144A019100927D210B9AC900B6
:1052B0004A430549039004900F6A00230F49CCE745
:1052C00003481030CFE70000909A0008B80D002086
:1052D000889F000867617572617600005258206FE0
:1052E0006E206672657120256420487A20617420E2
:1052F00044522025640A0D008545010050C300007A
:1053000070B50F490546896A072440688847002818
:1053100000D106240020285607220021FFF701FCB7
:10532000002801D1FD20044001202856052200213B
:10533000FFF7F7FB002801D1FB200440204670BD99
:10534000909A000810B501780C235943054B426828
:10535000C918497A044B0901C9184078FFF77DFB49
:1053600010BD0000B80D00209801002070B5022289
:105370000446825601780C200B4B4143C818407AF2
:105380000A4D0001451902202856824200DD1046D0
:105390005D58A2686168FFF7AFFA01460448A28928
:1053A000436C2846984770BDB80D00209801002036
:1053B000909A0008F7B5044622780C23354E5A43DC
:1053C0000120921920563249527A334B0F5612015E
:1053D0000221D2180225615655578CB0A94200DD32
:1053E0000D46FBF7EBFD0B902846A2686168FFF7BE
:1053F00083FA0A9020780C2148432649274E085802
:105400007169884761780020254B012207292BD03C
:1054100001210991014605900690079010460893D6
:10542000082201900097029203910490776A0B9BE7
:1054300000220A99B84720780C21484315490122D7
:105440000958A25617A004F0AFF9F26D217B099814
:105450009047F26A217B099890470E9908600D9851
:10546000057001200FB0F0BD0021099107900521C2
:1054700002917D2106900893C90005900190049245
:105480004F4303900097776A0D4A0B9BD1E70000CA
:10549000889F0008B80D002098010020909A00080D
:1054A000B80B00005458206F6E206672657120257D
:1054B0006420487A2061742044522025640A0D003B
:1054C000A86100000020C043704710B507290ED026
:1054D00006DC04290BD005290DD0062919D106E0D8
:1054E000082904D00B290FD01E2912D10EE0002369
:1054F000C356072202E00023C356052200211846A6
:10550000FFF70FFB002800D0012010BD00783028E5
:10551000FAD2002010BD10B50022052801D0104697
:1055200010BD0846FFF7C2FC10BD10B5052802D11A
:105530000846FFF723FD10BD052801D00020704765
:1055400001207047F8B51C460E46069B0799154684
:10555000052801D00020F8BD00912246294630469A
:10556000FFF734FDF8BD10B5052801D0002010BDAF
:105570000846FFF7B7FD10BD70B51C46049B1546E5
:105580000E46052801D0002070BD2246294630462F
:10559000FFF7CCFD70BD000070B5044615460E4601
:1055A00005A004F001F9052C01D0002070BD2946AA
:1055B0003046FFF717FE70BD0A0D2A2A2A205265D1
:1055C00067696F6E5278436F6E666967202A2A0A90
:1055D0000D00000010B5052801D0002010BD0846C0
:1055E000FFF78EFE10BD10B5052802D10846FFF763
:1055F000A9FE10BD10B5052802D10846FFF7B6FE7A
:1056000010BD70B514460D46052801D0002070BDB0
:105610001A4621462846FFF7CDFE70BD10B5052875
:1056200001D0002010BD0846FFF74CFF10BD10B59B
:105630000B46052801D0002010BD11461846FFF783
:1056400044FF10BDF0B51D480021C1708162C162E8
:10565000016381720122027342738173C1720284F9
:10566000017241728270164A13461478383B1C70DE
:1056700054785C7014462034657820335D7015468C
:10568000583D2E4637467C37F66F7F68AF646E64B0
:10569000257B1D73647B5C73203B146B1C63536B15
:1056A000383A536341718171C171426A01E05162BC
:1056B000926A002AFBD141758175F0BD0801002076
:1056C000740A002070B5092000F00BFD0546062085
:1056D00000F007FD0404072000F003FD000204436E
:1056E000082000F0FEFC0443200A0102184A611A57
:1056F000514380315043090A46180021092001F026
:1057000067FB3B2000F0EDFC4024204301463B209A
:1057100001F05EFB3B2000F0E4FC8006FAD40D486B
:1057200000F02EFE3B2000F0DCFC204301463B2035
:1057300001F04EFB3B2000F0D4FC8006FAD4294651
:10574000092001F045FB304600F01AFE70BD000054
:10575000093D000000A1BC3370B504460D4607A00A
:1057600004F022F80C48002C03D0C16B00208847BD
:1057700070BDC26B2846904770BD00000A0D2A2AF2
:105780002A20527857696E646F775365747570205C
:105790002A2A0A0D00000000909A0008014948607A
:1057A0007047000000000020012070470E2801D93A
:1057B000802070470020704710B50348406840685B
:1057C0008047801C10BD00000000002001480079C7
:1057D00070470000FC020020F3B5024600206D492E
:1057E0008BB0002A0BD0012A7ED10024486C2546BC
:1057F000072854D0082855D0092858D155E06548C5
:10580000C069FAF76DFF074600910C98FAF768FF38
:1058100006900E46302000F064FC4007800F02D056
:1058200000245D4D01E000242546272000F059FCAE
:1058300058494007400F098C401C4018FAF750FFA8
:10584000544A203209929278012A21D00022524BE8
:10585000FAF782FD22462B46FAF77EFD3346069A7A
:10586000FAF77AFD099A1279012A14D00022134618
:10587000FAF772FD0322FAF701FF3A46009BFAF7A6
:1058800085FE0022454BFAF719FE03F065FB7DE02B
:1058900000221346DCE7002201239B07E8E70024EF
:1058A0003F4D04E000243F4D01E03F4D00248F6C4C
:1058B0000120B840FAF700FF02460B462046294671
:1058C000FAF764FE02460B4600203349FAF75EFE03
:1058D000304E044640360D46F089FAF701FF0022AB
:1058E000324BFAF739FD00E052E022462B46FAF738
:1058F000E5FD07910890707B001DFAF7F1FE059118
:105900000690307B002800D00220381A8000FAF779
:10591000E7FE04900C980391C000B900401AB17CD6
:1059200009014018317C002900D01421401A1C3094
:10593000FAF7D6FE039B049AFAF728FE02F048FD18
:10594000059B069AFAF7BAFD002207460E46134653
:10595000FAF72AFF02D23846314601E0002001461C
:105960000022134BFAF7F8FC22462B46FAF7A6FD65
:10597000079B089AFAF7F0FC0022084BFAF79EFD05
:105980000C4A0D4BFAF7E8FC02F0ACFFFAF7DAFE2E
:105990000DB0F0BDFC0200200000F03F00408F4041
:1059A0008084FE4080840E4180841E4100001140AE
:1059B000000020402B8716D9CEF7EF3F0520704717
:1059C000F8B51E4D1E4928601E4801F03BFE1D48DB
:1059D0001B49143001F036FE1A481949283001F0ED
:1059E00031FE686801680120884700F0CDFBFFF7B1
:1059F00069FE002000F03CFD686881682846083098
:105A00008847114E002460002718F05D00F0F8FC74
:105A1000B8198178407801F0DBF9641CE4B2102CED
:105A2000F1D3002000F0ECFC064900206839087131
:105A3000686840688047801CF8BD000000000020B6
:105A4000DD5F000864030020B099000810B586B03F
:105A500014216846FAF7FCFB0D48019000200D4C1C
:105A600002906A4610212046FBF7AEFC6A460221EE
:105A70002046FBF7A9FC6A4601212046FBF7A4FC5F
:105A800001216A4649030448FBF79EFC06B010BD9D
:105A900000001110000400500008005030B585B01F
:105AA00014216846FAF7D4FB1448FFF777FE144830
:105AB00001900320134D0124039002946A461021A3
:105AC0002846FBF781FC6A4602212846FBF77CFC4E
:105AD0006A4601212846FBF777FC6A4661030A48BB
