:020000040800F2
:1000000020120020D5000008DD000008DF000008F5
:1000100000000000000000000000000000000000E0
:10002000000000000000000000000000E1000008E7
:100030000000000000000000E30000081D6200084E
:10004000E7000008E70000084B600008E700000830
:10005000E7000008E7000008E70000083118000882
:10006000E7000008E7000008E7000008E7000008D4
:10007000E7000008E700000800000000E7000008B3
:1000800000000000E7000008000000000000000081
:10009000E700000800000000E7000008E700000893
:1000A000E7000008E7000008E7000008D168000842
:1000B000E7000008E7000008E7000008E700000884
:1000C0000348854600F04CFE004800473181000897
:1000D000201200200448804704480047FEE7FEE75E
:1000E000FEE7FEE7FEE7FEE7E9620008C100000860
:1000F00030B50B46014600202022012409E00D46C0
:10010000D5409D4205D31D469540491B2546954047
:1001100040191546521E002DF1DC30BD70B500248B
:100120002546002801DA01244042002901DA012590
:100130004942FFF7DDFFAC4200D04042002C00D026
:10014000494270BDF0B51FB40646002082B0054696
:100150004024019100901BE0019922460F46304651
:1001600000F0B8FC049A059B801A994110D3104600
:100170001946224600F09EFC361A8F41019722460E
:1001800001200021009F00F095FC38184D4100909F
:100190002046641E0028DFDC019B00982946324679
:1001A00007B0F0BD03460B439B0703D009E008C925
:1001B000121F08C0042AFAD203E00B780370401C17
:1001C000491C521EF9D27047D2B201E00270401CA5
:1001D000491EFBD270470022F6E710B513460A46C7
:1001E00004461946FFF7F0FF204610BD421C017877
:1001F000401C0029FBD1801A704730B5044600200E
:10020000034600E05B1C934203D2E05CCD5C401BE4
:10021000F8D030BDF7B5054600200E46044600E094
:10022000641C02998C420BD2285D00F077FC0746D3
:10023000305D00F073FC381A02D1295D0029EFD13E
:10024000FEBD00000FB400B58DB009900B9010A951
:1002500000200091C0430A9000200C9006480690B0
:10026000064807906A4609A80F9900F073FC0DB084
:1002700008BC04B018470000750B0008950B000877
:10028000FFB50027FF4383B000205C6801909E68A3
:100290001D46A9697F1C049888470090296A8847F1
:1002A0000028F6D10098401C0CD003204002844363
:1002B000002E19DD600614D500982B2809D02D28B2
:1002C0000FD103E00020C04307B0F0BD0120800241
:1002D0000443A9697F1C04988847761E0090002E6D
:1002E00002DD0098302803D00598002825D035E09D
:1002F000012040020443A969761E7F1C04988847A8
:100300000090002E03DD782805D0582803D00598EA
:10031000002810D022E00598002801D010281DD117
:10032000012040028443A969761E7F1C04988847F7
:100330000090102002E0082000E00A2005900DE067
:10034000012149020C43059A0199761E5143081870
:100350000190A9697F1C049888470090002E05DD54
:100360000599009800F0E0FB0028E9DAE9690498B3
:100370008847A00502D40120C043A5E7E00722D1A9
:10038000600611D56005019800D5404229680A1D14
:100390002A600968220501D5087014E0220701D5FA
:1003A000088010E008600EE02868011D29600068E0
:1003B000210502D50199017005E02107019901D5B8
:1003C000018000E0016038467EE7FFB5002083B081
:1003D000009050680190916914460026976804982F
:1003E000884705460C990698084305D009E0A1699D
:1003F000761C049888470546216A284688470028C5
:10040000F5D1681C03D00198C00704D017E0002084
:10041000C04307B0F0BD2068011D21600068009056
:100420000DE00198C00704D1009805700098401CA9
:100430000090A169761C7F1E049888470546002F0E
:100440001CDD681C1AD0069800280FD0E817C00ED3
:10045000401941118A0006994009511840012A1A91
:100460000968012090400142DBD107E00C98002888
:10047000D7D1216A284688470028D2D0E16904985C
:1004800088470C98002807D1002E05DD0198C00789
:1004900002D1009800210170A068B84204DD0C98D8
:1004A000002804D0002F02D00120C043B1E730461D
:1004B000AFE7F8B502464A40D40F42004B0052085D
:1004C0005B089A4202D20246084611464A0023D0EF
:1004D000C30D4A00DDB2120EAD1A202D35DA4902E5
:1004E0000126490AF6058A19002C00D05242202123
:1004F0004F1B1146B9402A411018C20D9A4221D013
:10050000002C17D0012D08DCDA05801AD20F8019D3
:10051000D207DBB200F058FBF8BDDA05801A0123E0
:1005200040001B06C01880185A428018CA0F10439A
:10053000490007E04908C2071143DA05801A80190B
:100540004008801800F038FBF8BD61000122511A04
:10055000001BF7E70122D2075140AAE70122D20788
:100560005040A6E7024670B54A40D30FDB07400073
:100570002DD04A002AD0010E140E000212020919D1
:10058000400A520A8418E50104465443000A120A3C
:100590002E045043A4194219200CC543AA18120C6A
:1005A0000125AD03521C521912047F39240400D0D6
:1005B000521C104301D44000491EC2B20C06C009AF
:1005C0002018401C4008802A02D003E0002070BDA3
:1005D00040084000002900DA0020184370BD70B5C3
:1005E00002464A40D50F40004A00ED074008520835
:1005F000002814D0002A12D0C40DD30D41020120CE
:10060000C0055202490A520AE41A091812187D3428
:10061000914201D3641C00E04900002C01DA002063
:1006200070BD0023914201D3891A03434008490059
:100630000028F7D100290AD0914202D10121C9072F
:1006400005E0914201D2012101E00121C943E00509
:10065000C018401900F0B0FA70BD420005D0420049
:10066000120E52428A4201DB00207047C905081869
:1006700070470000F0B507460846584087B0C00FE5
:10068000049048000E46590040084908BC1A8841A9
:1006900005D2384631461E4617460B4602465800DC
:1006A000400810434CD0300D039040055900400DD8
:1006B000490D0590401A0290402872DA1803012172
:1006C000000B09050843019004980092002805D00A
:1006D00001995242002088410092019002984021E5
:1006E0000A1A0199009800F0E5F905460C466B4698
:1006F00007CB00F000FAC0197141039A0E0D0023D8
:10070000D71756401A467A40164344D0049A002A16
:100710002DD0029A012A039A15DC1205C01A9141C4
:1007200001263605001C7141D20F059ED2070093A9
:10073000019202962A46234600F08CFA07B0F0BDDB
:1007400038463146FAE71605224A0F46B218C01A53
:10075000B74101210905001C4F4100187F41114696
:1007600018187941E20F10436D19644113E0E20754
:100770006D0815436408C2071443039A0126120545
:10078000C01A91413605001C7141CE074008304324
:100790004908C01851412A46234600F04EFACDE7D9
:1007A000FFE7049801224000C117121A00238B4171
:1007B00004983146C417381AA141EEE730B4012439
:1007C000E407634030BC55E730B40124E4076140DE
:1007D00030BC4FE70000E0FFF0B51FB488B00B99C4
:1007E0000998002448400999C00F49004908099117
:1007F000C0070B990090490049080B910999089886
:10080000A64608431CD00B990A98084318D00998AB
:1008100001244000420D4800410D099824050003C1
:10082000000B204309900B980003000B20430B9012
:1008300050181C494018002201901446104605E04B
:10084000002001460DB0F0BD032801DA034600E0A8
:1008500003239C46C11A0AAE0AE05F0008ADED5BB7
:100860004F00F75B7D430027AA187C41491C5B1EA3
:100870006145F2DD410004AB5A522104120C0A43D7
:10088000240C401C0828DFDB019802900099704678
:1008900001910090059B049A0799069800F0DAF9F7
:1008A000D0E700000DFCFFFFF0B50C465C4085B0C2
:1008B000E40FE40703944C000026640859009446B2
:1008C000490802460296224321D062460A431ED0BE
:1008D0006200570D4A000E032303550D0124024602
:1008E0002C492405781B1B0B360B40182343264349
:1008F000614600901C46501AB44103D30098401C36
:10090000009002E0921800985B41002803DA002072
:10091000014605B0F0BD00200121090507468646C5
:1009200011E064461D46141BB54106D36546521BB3
:10093000B341744607430C43A646CD074008490817
:10094000284392185B4105460D43EAD110461843EF
:1009500013D06046194650407140084306D06046A7
:10096000101AB34106D20122002306E0002201231F
:10097000DB0702E00122D2435310009874460105C0
:10098000381C6141029C039D0019694100F055F932
:10099000BFE70000FD030000C217C10F504010B5B3
:1009A0004018CA079623002100F00EF910BD10B5BB
:1009B00000229623114600F007F910BDC20F410036
:1009C00040020123400ADB05D207090EC0187F2927
:1009D00001DA00207047962903DC9623591AC84093
:1009E00001E096398840002AF4D040427047410027
:1009F00040020122400AD205090E80187F2901DA3F
:100A000000207047962903DC9622511AC84070478F
:100A100096398840704700004A0009030123090BFA
:100A20001B051943094B10B5520D9A4201DA0020FB
:100A300010BD064B34339A4203DC9A1A00F04AF890
:100A400010BD03495118884010BD0000FF0300008D
:100A5000CDFBFFFFC20FD207400040080BD0C10DF5
:100A60000723DB01C91840020905400A1143C208E7
:100A7000400711437047002001467047CB0FDB074A
:100A8000490010B5490802460A4307D00A0D072459
:100A90000903E401090B121B002A01DC002010BD30
:100AA000C900440F0C43C100E018D205801800F0C3
:100AB00083F810BD10B5202A04DB0146203A91408E
:100AC000002010BD914020239C1A0346E3401943A7
:100AD000904010BD10B5202A04DB0846203AD040D3
:100AE000002110BD0B46D340D0402024A21A9140D3
:100AF0000843194610BD10B5202A06DBCB1708465F
:100B0000203A1041C1170B4306E00B461341D04079
:100B10002024A21A91400843194610BD01464139CC
:100B2000192900D8203070473A2800D230382023C5
:100B300002469A43412A01D310463738884201D3EE
:100B40000020C0437047000002681378511801600C
:100B50001846704710B5D1600449516104491162CB
:100B600000211161114600F015F910BD490B000874
:100B7000850D00084268002A08D001680B78491CDE
:100B8000002B03D0521E06C0184670470121C160D9
:100B9000881E70474268002A0BD0C3680168002B8A
:100BA00007D183688B4204D0491E521C06C0002026
:100BB00070470020C0437047002904DA401C4900F8
:100BC00001D140084000704770B40024050C05D1E5
:100BD0001024000402D1002921D01124050E01D1D6
:100BE00000020834050F01D10001241D850F01D139
:100BF0008000A41C002801DB4000641C002908D0F0
:100C000020252E1B0D46F540A14000D0012129438F
:100C1000084301061B1B000ADB1D02D5002070BC27
:100C20007047DB05181880180029F8DA401C4900C5
:100C3000F5D170BC40084000704710B5002B08DAB1
:100C40000024401C614192185B411A4301D14008C5
:100C5000400010BDF0B51FB482B005460C0003D0B3
:100C6000084605F061FE02E005F05EFE2030024617
:100C7000009021462846FFF71DFF049B059A044675
:100C80000F4618431143084314D0184610431BD095
:100C9000009840210A1A18460599FFF71BFF0546E0
:100CA0000E46009A05990498FFF704FF084305D003
:100CB000012004E02046394607B0F0BD0020C117EE
:100CC00005430E432C43374300990E986305401AA1
:100CD0007905E40A00220C43FD0A0A3002D50020FF
:100CE0000146E9E70105101969410C9C0D9D0019A9
:100CF0006941FFF7A2FFDFE74A0009030123090B5F
:100D00001B0519430A4B10B5520D9A4202DA002016
:100D1000014610BD064B34339A4203DC9A1AFFF7A2
:100D2000D9FE10BD034BD218FFF7C4FE10BD000062
:100D3000FF030000CDFBFFFF10B5002904DB0124F9
:100D4000E40740428C412146002B04DB1C46012372
:100D5000DB075242A341994200D1904210BD0000EE
:100D6000064C0125064E05E0E36807CC2B430C3CFE
:100D700098471034B442F7D3FFF7A6F9088B000860
:100D8000288B000810B50F21C0B2490200F09EF96F
:100D900010BD0000F3B58DB000200A9001200B902B
:100DA000002608460C300C4609906269012109981A
:100DB0009047051E2ED0252D2DD0216A884700286A
:100DC00018D06269012109989047216A8847002854
:100DD000F7D1411E62690998904700E0761CA1692D
:100DE0000D988847216A88470028F7D1E1690D9856
:100DF0008847DAE7A1690D9888470746A84201D1DC
:100E0000761CD2E7E1690D9888477F1C02D10A98C9
:100E1000002877D049E1002762693D4639460998A4
:100E200090472A280CD16269012109989047012531
:100E300006E00A214F433F18303FEBD41020054312
:100E40006269012109989047014630390A2903D285
:100E50009B498F42DEDCECE7E90600D4994F6C2811
:100E60000AD04C2810D0682824D06A282ED07428A4
:100E70000CD07A280AD00DE06269012109989047C8
:100E80006C2823D004211CE0202005436269012145
:100E900009989047A760656065284FD026DC5828E0
:100EA00039D01ADC452849D012DC252834D0412815
:100EB000B0D143E06269012109989047682802D0C7
:100EC00008210D43E6E70120C002DEE70220DCE74F
:100ED000462833D047282CD130E05B2870D06128D9
:100EE0002CD063286CD0642823D161E06F284FD0C8
:100EF00009DC662822D0672820D0692826D06E28F1
:100F000017D12EE0CDE070284DD073286FD0752812
:100F10004ED078280DD154E0A1690D988847054638
:100F2000252800D16CE7E1690D9888476D1C00D138
:100F30006DE7BAE00A224CE00A2252E00120234683
:100F40006A46C0430D99C046C046A3E028464021EA
:100F500008436060A807234601D5002239E000223B
:100F60003FE0E80700D020E72068011D216000680D
:100F7000290501D5067018E7290701D5068014E771
:100F8000A90703D5F117066041600EE706600CE77C
:100F90002846402108436060A807234601D508225F
:100FA00017E008221DE0484928460840606016E026
:100FB0002846402108436060A8072346BCD5B9E70E
:100FC00015E02846402108436060A80707D523465E
:100FD00010220120C0430D99C046C0465AE0234666
:100FE00010220120C0430D99FFF74AF952E0002179
:100FF0000C910B460091632802D05B2807D043E098
:10100000E80601D40120A060012000903CE0626964
:101010000121099890475E2805D101200C900146D6
:101020006269099890472169002906D10B4601AAF7
:101030008F00491CD3510829FADB002835D02169DB
:1010400000290ED1C117C90E09184A11930001AA2F
:101050009A1849094901411A01201368884003433D
:10106000136062690121099890475D28E5D10C98C9
:10107000002808D0002001AB81005A58401CD24300
:101080005A500828F8DB01AB01202246C0430D99D5
:10109000FFF79BF900280ADA401C06D10B980028BC
:1010A00003D00020C0430FB0F0BD0A98FBE7E9076A
:1010B00002D10A99491C0A91361800200B9074E657
:1010C000CCCCCC0CFFFFFF7FF1F7FFFF7F2801D9CD
:1010D000002207E0054B42089A5CC00700D11209C4
:1010E0001207120F0120904008407047A0850008A9
:1010F00070B58C180578401C6B075B0F01D1037825
:10110000401C2A1106D10278401C03E006780E70BC
:10111000401C491C5B1EF9D12B0705D40023521E2D
:101120000DD40B70491CFAE70378401CCB1A921CB3
:1011300003E01D780D70491C5B1C521EF9D5A142BD
:10114000D8D3002070BD000070B5054605F02EF81C
:1011500001281CD01248BC210170BE21417000241E
:101160008470C4700471012141710E4906460E4A13
:10117000083616C60D4B0A1F136014C12860C168DB
:101180000968002904D08847012807D0002070BDD5
:101190001421FFF720F801202C6070BD2868F7E7C4
:1011A000480D00202803002054000020BC0000202F
:1011B00070B5054604F0FAFF01281DD01348BC2184
:1011C0000170BE21417000248470C470047101213B
:1011D00041710146064650310D4A083616C60E4A80
:1011E0000C4B136014C12860C1680968002904D041
:1011F0008847012807D0002070BD1421FEF7EBFFBF
:1012000001202C6070BD2868F7E70000B00D0020B9
:1012100088000020BC0000203C03002010B50028FE
:101220000AD0C268002907D09269002A04D09047EA
:10123000012800D0002010BD012010BD10B50022F3
:1012400008460A60FFF780FF012800D0002010BD8B
:1012500010B5002808D0C1688968002904D08847E3
:10126000012800D0002010BD012010BDF8B54400B9
:10127000064D074F8600295BB859002200F06DFC2F
:10128000295BB85900F0FEFAF8BD0000248300087D
:1012900020020020F0B5012287B0002806D10E49B7
:1012A000CB6A1343CB62C96A114000910B4D4400D5
:1012B000295B0191002103910321094F04910292BE
:1012C0008600B85901A900F087FB295BB8590022B4
:1012D00000F043FC07B0F0BD00100240248300087A
:1012E0002002002010B5054A4100515A044A8000EE
:1012F0001058002200F031FC10BD000024830008CB
:101300002002002010B5054A4100515A044A8000CD
:101310001058012200F021FC10BD000024830008B9
:101320002002002070B5054604F040FF012827D0B8
:101330001849B1200872BA2048720220887200242D
:10134000CC720C73012048732C3108464C38016371
:1013500011494163114981631248114901600D49E6
:101360001C314C610861084614382860C16809685E
:10137000002906D08847012809D003F067FC002027
:1013800070BD1421FEF727FF01202C6070BD286876
:10139000F7E700007C0D0020C0000020280100209D
:1013A000A00100203803002070B51D4C0546E07FE9
:1013B00001282CD004F0FAFE012828D0B120207793
:1013C000BA2060770320A07700262046E6772030F9
:1013D00006700121417001462831403841641149AD
:1013E00081641149C16412481049016021463031BD
:1013F000CE618861084614382860C16809680029F0
:1014000006D08847012809D003F020FC002070BDD9
:101410001421FEF7E0FE01202E6070BD2868F7E77A
:10142000D00D0020F400002064010020A001002065
:1014300048030020F8B507461420264C78430019CD
:10144000C0780E4601283CD004F0B0FE012838D008
:1014500020460121BD223C301F4B0025002F02D029
:10146000012F25D10FE02270BA226270A570E570BD
:10147000257161712746083729C71949174A0A603B
:1014800022C0346014E02275B8226275A175E5753A
:10149000257661760F491C3444312AC40F4A10491D
:1014A000121D091D0A60C56081600A481430306051
:1014B0003068C1680968002904D08847012807D02E
:1014C0000020F8BD1421FEF786FE01203560F8BD2E
:1014D0003068F7E75C0D0020A80100201002002012
:1014E00030030020F8B507461420294C7843001932
:1014F000C0780E46012842D004F058FE01283ED0A4
:1015000020460121BD225030224B0025012F03D05F
:10151000022F14D030682AE02275BA226275A175B4
:10152000E575257661761A491C3458312AC41B4961
:10153000194A0A60C56081601548143016E0144FDE
:10154000303420373A72B8227A720222BA72FD72AF
:101550003D737973394640312AC40F4A0F49121D31
:10156000091D0A6045610161384608303060C16874
:101570000968002904D08847012807D00020F8BD59
:101580001421FEF728FE01203560F8BD3068F7E72A
:10159000B00D0020DC0100201002002040030020DC
:1015A00030B587B0040007D11648C36A042213433C
:1015B000C362C06A10400590134A6000105A009040
:1015C000012200200392A200104B0290002913D0A8
:1015D00001290FD10E4801909858694600F0FCF996
:1015E000094D00222D1F28570F2100F0EDFC285730
:1015F00000F0E0FC07B030BD01909858694600F05B
:10160000EBF9F7E7001002402683000824020020CF
:101610000000211010B500280AD0C268002907D0A8
:101620009269002A04D09047012800D0002010BD04
:10163000012010BD10B50C460021216000280DD0FE
:10164000012810D00228204610D0FFF76BFE012899
:1016500010D12146FFF7EEFE01280BD121460020D4
:10166000FFF7E8FE04E021460120F9E7FFF75AFE04
:10167000012800D0002010BD10B5002808D0C16896
:101680008968002904D08847012800D0002010BDB7
:10169000012010BD10B500280AD0C268002907D06B
:1016A0009269002A04D09047012800D0002010BD84
:1016B000012010BD10B50C460021216000281AD071
:1016C000012813D002281AD0032820461AD0FFF789
:1016D0006BFE01281AD121460220FFF703FF0128E3
:1016E00014D12046FFF764FD01280FD121460120C7
:1016F000FFF7F8FE08E02046FFF75AFD04E0214618
:101700000220F5E7FFF750FE012800D0002010BDB1
:1017100010B5002808D0C1688968002904D088471E
:10172000012800D0002010BD012010BD10B50D49CA
:101730000020FFF783FD0B490020091DFFF7BAFFCA
:10174000084900200831C043FFF774FF054C241FEF
:101750006068FFF77DFDA068FFF7DAFFE068FFF73C
:101760008BFF10BD080000203EB5044600200D4D43
:1017700000900190029069466868FFF74FFD01A94B
:10178000A868FFF787FF02A9E868FFF743FF009802
:10179000A06001986060029820600348E060034800
:1017A00020613EBD040000200D093E00AB03050092
:1017B00030B587B014216846FEF70DFD1A4CE16A7A
:1017C00002200143E162E16A184D014001200190CD
:1017D00002900320039005910F20000300906946BA
:1017E000284600F0F9F80022A114284600F0B5F9C7
:1017F000012100224903284600F0AFF90022290107
:10180000284600F0AAF900226901284600F0A5F94F
:10181000606B29030843606300F01CF800F02AF8AD
:1018200000F020F807B030BD001002400004005066
:1018300010B50120400300F0C3F810BD01A005F071
:101840004FF8FEE74572726F725F48616E646C65B7
:10185000720A0D000248416801221143416070473D
:10186000005801400248416804221143416070471A
:10187000005801400248416802221143416070470C
:1018800000580140F0B500235DE001249C40224651
:101890000A4057D006685F000325BD402E43AC4682
:1018A0000660DD08AD002D182E6AAE465D07EF0E0E
:1018B0000F25BD40AE4375462E6286686546AE4331
:1018C00086604568A5434560C4686546AC43C4600E
:1018D0009D081F4CAD002D19AF689C07260F0F24E3
:1018E000B440A4463C4005273F07B84201D1002739
:1018F00014E0184FB84201D101270FE0164FB8424B
:1019000001D102270AE0154FB84201D1032705E0B3
:10191000134FB84201D1052700E00627B740A74280
:1019200010D1AE686446A643AE600E4C2568954360
:101930002560656895436560A5689543A560E56881
:101940009543E5605B1C0A46DA409ED1F0BD00007D
:10195000000001400004005000080050000C00503E
:10196000001C00500004014010B50A2002F02EF9BE
:10197000012149030E4802F0D1F8002816D10D4C80
:101980002078002807D004F0C1FA0020FFF76EFC91
:1019900000202070FEE704F0C5FABFF34F8F07491F
:1019A0000548C860BFF34F8F00BFFDE710BD0000C2
:1019B000000800503C0000200400FA0500ED00E0A3
:1019C00010B504494A69024202D04861FFF7CCFFD2
:1019D00010BD000000040140F8B500230124A2E07E
:1019E00027469F403A4070D04D68022D01D0122DFD
:1019F00014D1DD08AD002D1800952D6A5E07AC46A8
:101A0000F50E0F26AE46AE406546B543AC460E69B0
:101A10007546AE4065462E43009D2E624D68012DF1
:101A200005D0022D03D0112D01D0122D16D18568BD
:101A30000326AC465D00AE46AE406546B543AC46B7
:101A4000CE687546AE4065462E43866046680D7981
:101A5000BE43ED06ED0F9D403543456006685F00CF
:101A60000325BD40AE46AE430D79B446AE07B60F72
:101A7000BE4065462E430660C6687546AE438D6817
:101A8000BD403543C5604D68ED004BD5294D6E6BAB
:101A900026436E639E08284DB6007519AC46AD68A6
:101AA0009E07360F0F27B740BD4305273F07B842B3
:101AB00001D1002715E0214FB84201D1012710E0E4
:101AC0001F4FB84202D102270BE02BE01D4FB84256
:101AD00001D1032705E01C4FB84201D1052700E0E2
:101AE0000627B7402F436546AF60184D2E684F68F4
:101AF0009643FF0300D516432E606E684F689643E9
:101B0000BF0300D516436E60AE684F689643FF0270
:101B100000D51643AE60EE684F689643BF0200D50D
:101B20001643EE605B1C0A681546DD4000D057E79F
:101B3000F8BD000000100240000001400004005009
:101B400000080050000C0050001C00500004014030
:101B50000069084000D001207047002A01D081614F
:101B600070478162704700000148006870470000BC
:101B70001802002070B5040014D024212046403003
:101B80000546417020680168490849000160204607
:101B900000F0BEF90021616469702163A9702970A9
:101BA000084670BD012070BD40304078704700008D
:101BB00070B5040006D02546403568780026002818
:101BC00002D005E0012070BD2E70204600F0A1F982
:101BD00024206870206801684908490001600F21CD
:101BE0006068090688432168086121688A680120C5
:101BF000C00382438A60E1680129A16808D02122DC
:101C00009202114322689160E168022902D005E046
:101C10000143F7E701212268C902516021684A683F
:101C20000F4B1A434A602168CA688243CA606169DF
:101C300020690843A169090208432168C860216A34
:101C4000E0690843216808602068016801221143A7
:101C500001606664202068702663AE70002070BD4D
:101C600000800002FFB5054604464035687883B021
:101C7000202873D10C98002871D00D9800286ED0C0
:101C8000287801286AD001202870FFF76DFF0746E9
:101C9000012200901923D103204602F08FFB002877
:101CA00076D1222068704020A870002666640C98C7
:101CB00060620D98608566630E980090019704A994
:101CC0000EC9204602F0FEFA002804D0606C2E7087
:101CD000042860D05CE0618D09208002FF2905D9CD
:101CE000FF22228501231B06009006E0618D2185DD
:101CF0000090208D0123C2B25B062046049902F0B9
:101D00004BFB00970022042120460E9B02F056FB5D
:101D100000283DD12068416A606A421C62620170FD
:101D2000208D401E81B22185608D401E6085002976
:101D300021D1608D00281ED00097002280212046EE
:101D40000E9B02F03BFB002822D1608DFF2807D9B3
:101D5000FF22228501231B06009608E02AE01AE0F4
:101D6000608D20850096208D0123C2B25B0620463F
:101D7000049902F011FB608D0028C2D13A4620463A
:101D80000E9902F03FFB002807D0606C042802D0B7
:101D9000032007B0F0BD0120FBE721682020C861C7
:101DA00021684A68044B1A404A606870AE702E7011
:101DB0000020EEE70220ECE700E800FEFFB5054654
:101DC00004464035687883B0202876D10C980028E6
:101DD00074D00D98002871D0287801286DD001208A
:101DE0002870FFF7C1FE0746012200901923D10396
:101DF000204602F0E3FA002853D1212068704020E9
:101E0000A870002666640C9860620D986085666311
:101E10000E980090019704A90EC9204602F087FA97
:101E2000002804D0606C2E7004286AD039E0608DE0
:101E3000FF2805D9FF22228501231B06009606E014
:101E4000608D20850096208D0123C2B25B0620465E
:101E5000049902F0A1FA3A4620460E9902F0F9FAE6
:101E6000002803D0606C04284BD01AE0606A411C43
:101E70006162216800788862608D401E6085208DD7
:101E8000401E0004000C208524D1608D002821D044
:101E900000970022802120460E9B02F08FFA002836
:101EA00002D0032007B0F0BD608DFF2807D9FF22C4
:101EB000228501231B06009608E024E021E0608DC6
:101EC00020850096208D0123C2B25B06204604992E
:101ED00002F062FA608D0028BDD13A4620460E9984
:101EE00002F090FA0028BDD120682021C16120684D
:101EF0004268064B1A4042606970AE702E70002036
:101F0000D0E70120CEE70220CCE7000000E800FE89
:101F10007047704702480168491C01607047000023
:101F20001802002010B506480168402211430160E4
:101F3000002000F007F800F019F8002010BD0000A4
:101F40000020024010B5044607487D21C900006802
:101F5000FEF7CEF801F094F800222146501E00F062
:101F600033F8002010BD00001C02002010B50A4804
:101F7000816B02041143816300F03AF800F030F8FD
:101F80000648026808210A43026002688A43026028
:101F900000F01EF810BD00000010024000200240BA
:101FA000C106C90E01208840014908607047000041
:101FB00080E100E0C106C90E0120884001490860A7
:101FC0007047000000E100E010B503F0B5FF10BD60
:101FD000024801680215914301607047007000409B
:101FE00002480168421511430160704700700040CB
:101FF0000248016810229143016070470070004060
:10200000094B1A689208920002431A600748026955
:1020100004239A430261012903D040BF20BF20BF9F
:10202000704730BF704700000070004000ED00E0D6
:102030000A4B1A689208920002431A600848036922
:10204000042213430361012906D040BF20BF20BFF3
:10205000016991430161704730BFF9E700700040AA
:1020600000ED00E0F8B501265E490746F6020020C3
:1020700035015B4B5B4A4031102F6ED011DC012FD4
:102080006FD0022F6BD0042F6AD0082F1CD1C968E3
:1020900003242403214073D0BD026C10A94274D0E4
:1020A00097E0514C202F03D0402F2FD0B7420BD1B7
:1020B0000B69096903263604012731403F04B94200
:1020C00003D1990559E02846F8BD01256D04A942C0
:1020D00003D19907F8D54548F8BDB142FCD1116844
:1020E0008903F9D51168032000050140012000058E
:1020F000091A09D0091A05D0814201D13C48F8BD1E
:102100002046F8BD3B48F8BD3B48F8BDC9680125ED
:10211000AD06294006D0A942F7D191688907F4D5C8
:102120003648F8BD11688901FBD5D068D1688002B6
:10213000334D000F2D5C0802810FD068491CC0038D
:1021400006D41068C00601D5204602E0184600E01B
:102150002C486843FDF7CCFFF8BD3DE001E01CE0F2
:1021600029E0CC68A407A40F0CD0022C0DD0012CC0
:1021700010D0032CF0D1096989050029A3DBEBE716
:1021800016E002E000F0D6F9E6E711684907E3D56A
:102190001846E1E700F0DEF9DEE7CC680C263440B3
:1021A00006D0082CF1D0042CF4D00C2CE3D0D3E7CB
:1021B00000F0B0F9D0E7CC680327BF023C40F7D06D
:1021C000B442E2D0012292029442E3D0BC42D2D087
:1021D000C2E7A142DED0BFE7916B4902E8D4BBE77A
:1021E0000024F4000010024000093D008890000027
:1021F00020A1070040420F0080841E00006CDC021A
:102200001083000800127A00F8B504460068614D9A
:10221000810601D400057DD55E4E0027403EB06B9F
:10222000C00004D4B06B31040843B06301275A489E
:102230000168C90511D40168821511430160FFF7D7
:1022400093FC009005E0FFF78FFC0099401A64288A
:1022500044D851480068C005F5D531680320000511
:10226000626801401040884205D10323A0681B0525
:102270001840884208D09003800F032804D13068AA
:10228000800301D50120F8BD286903210904084015
:1022900029D00A40824202D02278920606D4A2684F
:1022A0000A4082421FD0208800051CD528692A696F
:1022B00088430121C9040A432A612A698A432A61A1
:1022C0002861C0050FD5FFF74FFC009008E0FFF72D
:1022D0004BFC0099411A3148814201D90320F8BDD5
:1022E00028698005F3D561688803800F032805D12C
:1022F00032680005824301400A43326028690322A4
:1023000061681204114008432861002F06D0B16BA8
:10231000012000E002E000078143B1632078C0079C
:1023200005D0E868E168800880000843E86020780C
:10233000800705D5E8680C21884321690843E860D7
:102340002078400706D5E86803218902884361693F
:102350000843E8602078000706D5E86803210903F0
:102360008843A1690843E8602078400606D5E868FC
:10237000012189068843216A0843E8602078000625
:1023800006D5E868032189048843E1690843E860C9
:102390000020F8BD4010024000700040881300008B
:1023A000F8B5054653480E460068C007C00FB04256
:1023B0000AD2504801684908490031430160006869
:1023C000C007C00FB0426FD128784B4C800705D5AD
:1023D000E068F0218843A9680843E0602878C007D6
:1023E00052D06868022817D0032818D02168012825
:1023F00018D08905002957DAE16889088900014366
:10240000E160FFF7B1FB69680746022912D0032992
:102410001CD0012926D033E021688903EAE721682E
:102420008901E7E74907E5E7FFF79EFBC11B334852
:10243000814223D8E0680007800F0228F4D123E00E
:10244000FFF792FBC11B2D48814217D8E0680007B7
:10245000800F0328F4D117E0FFF786FBC11B274844
:1024600081420BD8E0680007800F0128F4D10BE00F
:10247000FFF77AFBC11B2148814201D90320F8BD37
:10248000E0680007800FF3D11A480168C907C90F37
:10249000B1420BD901684908490031430160006825
:1024A000C007C00FB04201D00120F8BD2878400716
:1024B00006D5E068072109028843E9680843E0601F
:1024C0002878000707D5E0680721C90288432969F1
:1024D000C9000843E06000F03DF8E168084A0906D9
:1024E000090F515CC840074908600020FFF72AFD2A
:1024F0000020F8BD002002400010024088130000B8
:10250000008300081C02002001480068704700009A
:102510001C020020044805490068C968044A4905AE
:10252000490F515CC84070471C0200200010024057
:1025300019830008044805490068C968044A8904E9
:10254000490F515CC84070471C0200200010024037
:102550001983000810B5184AD1680C2008400428D7
:102560000BD0082810D00C2810D050680004410F60
:102570000120C003491C884010BD1068C00601D569
:102580000E4810BD0E4810BD0E4810BD88020E4BFF
:10259000000F185C0902D368890F491CDB0301D5C1
:1025A000084A05E01268D20601D5044A00E0044A50
:1025B0005043FDF79DFD10BD0010024000093D0095
:1025C0000024F40000127A0010830008F8B50446D5
:1025D0000078FE4DC0074AD0E8680007800F022847
:1025E00007D0E8680007800F032809D1E868C00316
:1025F00006D5286880033AD56068002873D036E095
:10260000012062680004824203D1296801432960E5
:1026100011E0052301211B0489049A422A6802D192
:102620000A432A60F1E782432A602A680240009246
:10263000286888432860606800280CD0FFF794FA67
:10264000064604E0FFF790FA801B64287ED82868CD
:102650008003F7D50BE0FFF787FA064604E0FFF7A3
:1026600083FA801B6428F1D828688003F7D4207887
:10267000800741D5E8681F270007800F3F02012827
:1026800007D0E8680007800F032809D1E868C00375
:1026900006D42868400717D5E068012823D113E045
:1026A000E068002817D02968092291430143296076
:1026B000FFF75AFA064604E0FFF756FA801B022895
:1026C000C4D828684007F7D568682169B84309026B
:1026D0000843686010E02868400840002860FFF761
:1026E00043FA064605E095E0FFF73EFA801B022814
:1026F000ACD828684007F7D42078C00672D5E868BF
:10270000B34E0007800F0AD0E06900282868B1495D
:102710005AD008432860FFF727FA074644E02868A4
:10272000800502D5E069002874D0606A696831408C
:10273000884212D903F022FC0028AFD16868616A90
:10274000B043084368606868000200E0DCE0218C68
:10275000000A0906084368600FE06968B143014355
:1027600069606868218C0002000A090608436860F5
:10277000606A03F003FC002890D1606A410B0120DD
:10278000C003491C8840E96809060A0F9249895C20
:10279000C840924908600020FFF7D4FB22E0FFF711
:1027A000E3F9C01B02288BD828688005F7D5686834
:1027B000616AB043084368606868218C0002000ABF
:1027C0000906084368600DE088432860FFF7CCF9EC
:1027D000064604E0FFF7C8F9801B022888D828685D
:1027E0008005F7D420787E4E000723D56069002845
:1027F000306910D0012108433061FFF7B5F9074671
:1028000004E0FFF7B1F9C01B02287DD830698007CA
:10281000F7D50FE001E1400840003061FFF7A4F96F
:10282000074604E0FFF7A0F9C01B02286CD8306906
:102830008007F7D42078400760D5A86B0027C00038
:1028400005D4A86B012109070843A863012765483F
:102850000168C90511D40168821511430160FFF7B1
:1028600083F9009005E0FFF77FF90099401A64288A
:102870004AD85C480068C005F5D55648A26882422F
:1028800003D131690143316111E001218902002A3C
:1028900007D005231B029A4203D132690A433261F1
:1028A000EFE7326982433261306988433061A06862
:1028B00000280ED0FFF758F9009006E0FFF754F912
:1028C0000099411A484881421ED830698005F5D5E3
:1028D0000DE0FFF749F9009006E0FFF745F9009990
:1028E000411A414881420FD830698005F5D4002F44
:1028F00004D0A96B012000078143A96320788006DA
:1029000030D53A48421400E080E0A169002916D091
:10291000AB6801210B43AB606B6B0B436B63016ACC
:1029200011430162FFF720F9064604E0FFF71CF9A6
:10293000801B02286AD8A8688007F7D512E0A9682A
:1029400049084900A960016A91430162FFF70CF947
:10295000064604E0FFF708F9801B022856D8A8684D
:102960008007F7D4A06A002855D0E9680907890FC5
:10297000032952D0012636060228286805D0B04324
:102980002860FFF7F1F8044642E0B0432860FFF703
:10299000EBF8074604E0FFF7E7F8C01B022835D83C
:1029A00028688001F7D4216BE06AEA680843616B0C
:1029B000FD231B049A4311430843E8602868304311
:1029C0002860FFF7D1F8044617E00000001002402D
:1029D00000E0000000010000008300081C0200204D
:1029E00040100240007000408813000000000140C9
:1029F000FFF7BAF8001B022808D828688001F7D52D
:102A000009E0FFF7B1F8001B022801D90320F8BD47
:102A100028688001F5D40020F8BD0120F8BD30B54C
:102A2000014620310A78012A15D001220A700223BA
:102A30004B700468CA2363620468532363620368AB
:102A40009C6820252C439C600068FF2343624A70E9
:102A50000020087030BD022030BD10B503F096FC98
:102A600010BDF8B5054604462035287801281DD04C
:102A700001202870022068702268CA2050622268F3
:102A800053205062FF2001300026FF2781421CD1D5
:102A900021688A6882438A60206881680122120363
:102AA00091438160FFF760F8009009E00220F8BDD3
:102AB000FFF75AF80099411A7D20C00081421BD8C7
:102AC0002068C068C007F3D020E020688168012238
:102AD00052029143816020688168120191438160B4
:102AE000FFF742F800900DE0FFF73EF80099411A19
:102AF0007D20C000814205D92068476203206870AC
:102B00002E70F8BD2068C0688007EDD52068476248
:102B1000012068702E700020F8BD10B500680B46CB
:102B20004068C021C94301400002000ECC04D870A7
:102B3000E40E5C708C06A40E0904490F9C70197099
:102B4000002A0AD103F052FAD870587803F04EFAEE
:102B50005870987803F04AFA9870002010BD000071
:102B600030B50B460168896A5960016809694904F2
:102B7000490C9960006804680F48214601408802AA
:102B80004D04800E18706D0E49065D70490E9970E7
:102B90006102490E40242140D970002A0AD103F075
:102BA00025FA1870587803F021FA5870987803F0D5
:102BB0001DFA9870002030BD7F7F7F0070B5040043
:102BC00005D0254620356878002802D006E001208F
:102BD00070BD00202870204600F042F80220687086
:102BE0002168CA204862216853204862204603F0C9
:102BF00010FAFF210028206803D041620420687089
:102C0000E5E78268154B1A40826022689068636825
:102C1000A669184323693343184390602268E0682B
:102C200010612068026923891B041A43026120682D
:102C3000C26880239A43C2602068C26C92089200E6
:102C4000C264E269606902432068C36C1A43C264CB
:102C50002068416201206870002070BDBFFF8FFFB7
:102C600000B597B00420009000200A90FF200130AA
:102C700002906846FFF7AAFC002803D010A003F0DA
:102C80002FFEFEE720200E90C0020F900EA8FFF747
:102C9000BBFA002803D00AA003F022FEFEE70C488E
:102CA00001690122920411430161002211460220B0
:102CB000FFF78AF90220FFF77DF917B000BD000089
:102CC0004572726F725F48616E646C65720A0D00C6
:102CD00040100240FEB506460446203630780B46CA
:102CE000012842D0012030700220707020681D46FB
:102CF000002720358068002A39D0400655D518783D
:102D000003F074F9287803F071F9197898780904B8
:102D100008435978DA7809021204114308432978E4
:102D200009060843D9690843596908430546996962
:102D30005868084300902168CA20486221685320DF
:102D40004862FF205A6A0130802182424AD12268BB
:102D50009368834393602268D0680840FF388238C4
:102D6000D060FEF701FF019029E00220FEBD400681
:102D700000D4DF70187803F041F90204587803F0AA
:102D80003DF900020243987803F038F90243D878FD
:102D900000040243287803F031F900060243D869A1
:102DA0000243586902431546C1E7DF70AAE7FEF700
:102DB000DBFE0199411A7D20C00081422AD820689B
:102DC000C068C007F3D02068C561216800984864D6
:102DD00020688168FF220132114381602068816888
:102DE000120130E02068826801235B029A4382600E
:102DF0002068C2680A401D495118C160FEF7B4FE40
:102E000001900EE0FEF7B0FE0199411A7D20C0004E
:102E1000814206D92168FF20486203207070377014
:102E2000FEBD2068C0688007ECD520680562216877
:102E300000988864206881680122520211438160F1
:102E400020688168120111438160094802680121EC
:102E500049040A43026082680A4382602168FF20B5
:102E600048620120707037700020FEBD7FFDFFFFBB
:102E700000040140F8B505460446203528780B4685
:102E8000012815D001202870022068705878002A87
:102E900010D003F0ABF8987803F0A8F8D8789E78B3
:102EA000000406435878197800024903084316E0E5
:102EB0000220F8BDC10603D5EF2108400A30587042
:102EC000D87803F09BF80604587803F097F80002CE
:102ED0000643987803F092F80643187840030643B7
:102EE0002168CA204862216853204862204603F0C6
:102EF00090F80027002811D110480640206846604D
:102F00002068C16880229143C16020688068800683
:102F10000CD4204600F08CF8002807D02168FF2050
:102F20004862042068702F700120F8BD2168FF20DE
:102F30004862012068702F700020F8BD3FFFFF003D
:102F4000F8B506460446203630780D4601280ED0E6
:102F50000120307002207070206800278068002AED
:102F600007D040061AD5287803F040F817E0022071
:102F7000F8BD400600D4EF70287803F03FF8020453
:102F8000687803F03BF800020243A87803F036F8B3
:102F90000243E8780004024300920BE0EF702978C6
:102FA000A878090408436978EA78090212041143F1
:102FB000084300902168CA20486221685320486273
:102FC000204603F026F800281FD118490098084031
:102FD0002168086020688168012292049143816021
:102FE0002969E868084321688A6810438860206876
:102FF000C16880229143C1602068806880060CD43B
:10300000204600F015F8002807D02168FF2048620C
:103010000420707037700120F8BD2168FF204862DD
:103020000120707037700020F8BD00007F7F7F00A6
:1030300070B504460068C168A0229143C160FEF7E4
:1030400093FD7D260546F60006E0FEF78DFD401B4C
:10305000B04201D9032070BD2068C0688006F4D555
:10306000002070BD042204490428086902D090435E
:10307000086170471043FBE700E000E07047000084
:10308000094910B5401E884201D9012010BD074CE6
:1030900060610321081F02F04FFF0020A06107209C
:1030A0002061002010BD0000FFFFFF0000E000E0F5
:1030B00010B5FFF7E3FF10BD70B5040019D024214F
:1030C0002046603006464172206801684908490080
:1030D00001602068002505602068456020688560E3
:1030E000204600F03FF8E5667572B5723572002033
:1030F00070BD012070BD70B5040005D02546603557
:10310000687A002802D006E0012070BD00202872F5
:10311000204600F05BF824206872206801684908A6
:1031200049000160606A002802D0204603F0FAF9E5
:10313000204603F08DFA0128E7D020684168092273
:10314000D20291434160206881682A2291438160C4
:1031500020680168012211430160204603F048FA0B
:1031600070BD000010B50268154B05201549000719
:1031700086B09A420DD14A6B01239B039A434A635E
:1031800003214902FEF77EFB1B20FEF709FF06B074
:1031900010BD0D4B9A42FAD18A6B01235B049A430E
:1031A0008A630C210446FEF76DFB0420009000208A
:1031B00001900120029069462046FEF70DFCE6E7EB
:1031C000003801400010024000440040F0B5224F9A
:1031D00006680525002021490223012404222D0729
:1031E00085B0BE421ED14E6B17033E434E63491558
:1031F0000091029003940193049269462846FEF7D9
:10320000EBFBA0020090694602942846FEF7E4FB1F
:10321000002211461B20FEF7D7FE1B20FEF7CAFE38
:1032200005B0F0BD0E4FBE42FAD18E6B01277F0470
:103230003E438E6302900092694603940193049288
:103240002846FEF7C9FB08200090694602942846EC
:10325000FEF7C2FBE4E70000003801400010024026
:1032600000440040F0B5034660339C7A202C44D1E2
:1032700000290BD0002A09D0012584682D03AC4217
:1032800006D10669002E03D1CE0701D00120F0BD82
:103290001E7A012E31D001261E7241650146403151
:1032A0000A834A83FF27AC4204D10269002A12D163
:1032B000134A0EE07F22002C08D001252D07AC42D6
:1032C0000AD10469002C04D03F2202E00469002CDA
:1032D00001D08A8300E08F830021C16622229A7286
:1032E000197201688A6832438A6000680168FF22A7
:1032F0002132114301600020F0BD0220F0BD00002A
:10330000FF010000FFB5064604466036707A83B0C0
:103310000D46202858D1002D0CD00598002809D042
:103320000120A1680003814207D12069002804D14F
:10333000E80702D0012007B0F0BD307A012843D061
:10334000012030720020E06621207072FEF70CFC34
:10335000019027464037059838820598788218E012
:10336000788A401E788206980090002280212046AC
:10337000019B03F07BFA002818D10120A16800030B
:10338000814202D12069002812D021682878886201
:103390006D1C788A0028E3D1069800900022402115
:1033A0002046019B03F062FA002808D00320C2E700
:1033B00028882168C005C00D8862AD1CE9E720207F
:1033C000707200203072B6E70220B4E738B50446C8
:1033D0006B460122202100F024FA00280CD16A4615
:1033E00011788020014311706B4601222021204674
:1033F00000F05EFB002800D0012038BD38B504463F
:10340000002069460870204600F046F9012805D0E2
:10341000694620780978884201D0012038BD002013
:1034200038BD38B504466B460122202100F0F9F979
:1034300000280DD1684600786B464106490E684663
:10344000017001222021204600F032FB002800D02C
:10345000012038BD38B514460D466B4601222721A0
:1034600000F0DFF9002801D0012038BD684600785F
:103470008007C00F287068460078C007C00F207012
:10348000002038BD10B50B4601220F2100F0C9F90C
:10349000002800D0012010BDF3B583B007466B466D
:1034A0000222302100F0BDF9002824D168460078BE
:1034B0006B46450868464078022240080290362153
:1034C000384600F0AEF9002815D168460024045FA4
:1034D0006B4602223A21384600F0A3F900280AD1AF
:1034E00068460026865F6B4602222821384600F097
:1034F00098F9002802D0012005B0F0BD68460027E9
:10350000C75F2846FDF748FA0190301BFDF744FAE3
:1035100006460298401BFDF73FFA0546381BFDF7AB
:103520003BFA2946FDF71EF83146FDF758F8019998
:10353000FCF7BFFF0A49FDF715F80A49884202DD8A
:103540007D20C00008E0FF21C905C84201D300204A
:1035500002E0FDF74CFA80B2049908800020CBE726
:103560000000204100007A4438B50C46694600F05E
:103570001FF801280CD06846007800280BD00128DD
:1035800007D002280AD003280AD00648206001206C
:1035900038BD7F20C0052060002038BD0248FAE712
:1035A0000248F8E7000080BF0000E040000048410A
:1035B00038B50C466B460122202100F032F9002874
:1035C00001D0012038BD694608788007800F087057
:1035D0002070002038BD0000F3B585B007466B466B
:1035E0000222322100F01DF900282BD101AB01226B
:1035F0003521384600F015F9002823D16A461179A3
:1036000012788807800D10430C2211406A465278C8
:1036100089011143C510C81003906B4604223C2158
:10362000384600F0FEF800280CD168460024022637
:10363000045F865F6B4602222A21384600F0F1F8CB
:10364000002802D0012007B0F0BD68460027C75F00
:103650002846FDF7A1F90290301BFDF79DF90646BB
:103660000398401BFDF798F90546381BFDF794F9C0
:103670002946FCF777FF3146FCF7B1FF0299FCF7CA
:1036800018FF0449FCF76EFFFDF798F906990880CA
:103690000020D8E70000204110B5FFF7F3FE012815
:1036A00000D0002010BD10B5FFF7A8FE10BD10B56A
:1036B00004468068006800684078002804D12046ED
:1036C00000F056F8012805D0A168002009680968B3
:1036D0000870E07010BD1CB50C4601AA6946FFF7E2
:1036E000B9FE012806D068460078002803D00128DA
:1036F00001D001201CBD207000201CBD38B50D4636
:10370000002469460C80FFF7C7FE012808D06846F0
:103710000088FDF74CF90349FCF761FF286020465B
:1037200038BD00000000204110B5FFF71DFF10BD9F
:1037300010B5FFF7B1FF10BD10B5044680680068F2
:1037400000684078002804D1204600F051F8012894
:1037500006D0A1680120096809680870E07000209F
:1037600010BD10B500F06BF8012800D0002010BD8E
:1037700010B504460079002810D0A06800680068E1
:10378000C078002804D1204600F062F8012805D056
:10379000A1680020096809688870207110BD10B503
:1037A00004460079012806D0A06800680068C07847
:1037B000002802D006E0002010BD204600F04FF89F
:1037C0000128F9D0A1680120096809688870207172
:1037D000F1E710B500F072F810BD10B500F082F8F6
:1037E00010BD10B500F072F9012800D0002010BD06
:1037F00010B50446FFF702FE012811D02046FFF75E
:1038000010FE01280CD00121204600F02FF80128DD
:1038100006D00021204600F051F8012800D00020F9
:1038200010BD10B51C46012A01D980231943134647
:10383000224602F0C3FC002800D0012010BD10B5C4
:1038400013460122FFF7EDFF012800D0002010BD34
:1038500010B5FFF7E6FD012800D0002010BD10B51F
:10386000FFF7B4FD012800D0002010BD38B50C468C
:103870000546012905D0002C03D00E490E4800F062
:103880002FF96B4601222021FFF7CBFF00280FD133
:1038900069460978FB200140A0000843694608708A
:1038A0006B4601222021284600F002F9002800D0B2
:1038B000012038BD630200007486000810B50B00BB
:1038C00003F061F80504060606060D00012100E07C
:1038D000032100F01DF8012800D0002010BD0120B8
:1038E00010BD00007F2210B5D205914201DC0121FC
:1038F00005E0064A914201DC022100E0032100F0CC
:1039000007F8012800D0002010BD00000000E040B2
:1039100038B50C00054609D0012C07D0022C05D083
:10392000032C03D00D490E4800F0DAF86B46012253
:103930002021FFF776FF00280DD1694608786B46F5
:10394000800880002043087001222021284600F0D2
:10395000AFF8002800D0012038BD0000BA020000F6
:103960007486000810B5FFF749FD10BD10B5044678
:103970008068006800680078002804D1204600F0C4
:1039800057F8012805D0A168002009680968487027
:10399000E07010BD1CB50C466A4601A9FFF75AFD40
:1039A000012806D068460078002803D0012801D0FD
:1039B00001201CBD207000201CBD10B5FFF7D4FDF8
:1039C00010BD000038B50D46002469460C80FFF795
:1039D00003FE012808D06946085FFCF7DDFF0349B4
:1039E000FCF7FDFD2860204638BD000000002041A6
:1039F00010B5FFF751FE10BD10B504468068006891
:103A000000680078002804D12046FFF7F1FE012865
:103A100006D0A1680120096809684870E07000209C
:103A200010BD10B5FFF70BFF012800D0002010BD1E
:103A300010B504460079002810D0A068006800681E
:103A40008078002804D12046FFF702FF012805D026
:103A5000A168002009680968C870207110BD10B500
:103A600004460079012806D0A068006800688078C4
:103A7000002802D006E0002010BD2046FFF7EFFE30
:103A80000128F9D0A168012009680968C87020716F
:103A9000F1E710B5FFF712FF10BD10B5FFF722FFD9
:103AA00010BD10B500F012F8012800D0002010BDA4
:103AB00010B51C46012A01D980231943134622461A
:103AC00002F094FB002800D0012010BD07B502AB26
:103AD0000122FFF7EDFF012800D000200EBD0000FD
:103AE0000A46014601A002F0FBFEFEE757726F6E28
:103AF0006720706172616D65746572732076616CA8
:103B000075653A2066696C65202573206F6E206CA0
:103B1000696E652025640D0A0000000010B5FEF7EF
:103B200017F810BD30B5194C87B0E06A0121084381
:103B3000E062E06A08400590E06A02252843E062FE
:103B4000E06A28400590E16A04200143E162E16AED
:103B5000014005910E480090032001900020029042
:103B600069460C48FDF738FF0B4800900520694670
:103B70000007FDF731FF0948009069460848FDF746
:103B80002BFFE06AA843E06207B030BD001002409E
:103B9000FF13000000080050D39F0000FFFF00004B
:103BA0000004005010B5084C607800280BD102F0DA
:103BB000B9F900F09DF8FDF7B9FD01210020FDF7EE
:103BC000EFFC0120607010BD1400002070B5410EA4
:103BD000C0017D220023FCF7B5FA054600F080F80D
:103BE000044600E000BF00F07BF8001BA842F9D3B8
:103BF00070BD0000F8B5064600240D462246274851
:103C0000FEF7AEFF0022314624486F68FEF785FFBD
:103C1000002229462148FEF7A3FF6868B842F1D187
:103C200000201F4A1F4BF17803E087070AD0E418F1
:103C3000401C8142F9D8880706D0707800211A4AC2
:103C4000401E14E0A418F3E7174A707800210C32E4
:103C5000401E04E0535C154F7B431C19491C8842ED
:103C6000F8D806E0535C114F7B431C19491C88426D
:103C7000F8D86878A9783C2250430A182878E121BE
:103C800009014843B178094B594340181018084AB4
:103C9000696800198002511A4018F8BD50030020CD
:103CA0000085E2018033E101E882000880510100D3
:103CB000FF030000032070470148006870470000C0
:103CC0009C03002000B587B0694605A8FFF792FF66
:103CD0000249096807B0401A00BD00009C0300209B
:103CE00000B587B0694605A8FFF784FF07B000BD9F
:103CF00010B5084C207800280AD100F04BF8FF21BD
:103D000001310548FEF7ADFE00F074F80120207087
:103D100010BD0000000000205003002010B50C4C26
:103D20000021042000F06EFC21688868C0040ED5D4
:103D3000C868C0050BD5C86880221040FF3882389B
:103D4000C8600449900248612046FEF786FE10BD17
:103D5000500300200004014070B50446FFF7B2FF95
:103D6000211A0B4D0220285EC01C814201D900217E
:103D700000E00121042000F045FC00F01BFC0128BC
:103D800002D10220285E241A204600F03FF870BDC0
:103D90000000002010B51449144886B0002412C059
:103DA0001F21016084600461114944614160083849
:103DB000FEF704FF10206946C87501204875887514
:103DC0000875002205A90948FFF754F800940194EA
:103DD00004940022694605480394FFF7B1F80348AC
:103DE000FEF71DFE06B010BD002800405003002065
:103DF000FF03000010B5044C2046211D1830FFF7CA
:103E0000F9FE206010BD00009C030020F0B587B0D3
:103E100004461422534902A8FCF7C4F9514850380B
:103E2000406E019000F0BCF801204F4940038861CA
:103E30004E4803994E4A401AA105890D081887B2C9
:103E4000A10A68468079534202E08918401C80B27A
:103E50009942FAD26A46157AE122120102E0891AE1
:103E60006D1CADB29142FAD26A46547A02E0641CEB
:103E7000A4B23C393C29FAD2927A51188EB201216F
:103E8000890203E07A1A761C97B2B6B28F42F9D251
:103E900003E03C3E641CB6B2A4B23C2EF9D203E06F
:103EA0003C3C6D1CA4B2ADB23C2CF9D203E0183DF1
:103EB000401CADB280B2182DF9D26946C979890784
:103EC00069464A794AD02B49491E515C814202D247
:103ED000FCF70EF908462549CA1B22492C394A60CD
:103EE000052252068A618E704C700A460D7020328F
:103EF00010706846C07AC8700020C861FF2248610F
:103F00000132C8604A620861024608462438FEF75A
:103F1000E1FE02A901A8FFF76DFE14480399401ABB
:103F20007D21C90048430004800E00906846837AD2
:103F3000427A017A10A002F0D3FC7D20C0004743F2
:103F4000B80A009033462246294610A002F0C8FC69
:103F5000012005494003886207B0F0BD05490C31D6
:103F6000B2E70000A003002000040050FF0300009F
:103F700080AEFEFFE8820008697427732025643A4A
:103F800025643A25643A25642000000057554020F6
:103F900025643A25643A25643A25640A0000000045
:103FA00010B506480168C86880221040FF38823882
:103FB000C86051000148FEF754FD10BD50030020B9
:103FC00010B57D2102F0C7FC4906C009084310BDA9
:103FD00010B5410EC0017D220023FCF7B3F810BDDF
:103FE000EFF3108172B6054BD81F5A68F938105C90
:103FF000521CD2B281F310885A607047B805002075
:10400000F8B504460068C6690168009181682546D4
:104010000027F2026035002A0FDA49020DD501218E
:10402000090501620121102000F0ECFA21680A68FC
:10403000202002430A606872A872B0062AD5009850
:10404000800627D5A87A2228206804D08169082212
:1040500011438161F8BD416A606D421C6265017067
:104060000021102000F0CEFA20464030418B491E3E
:104070000904090C41830DD120680168FF22213217
:1040800091430160206881684908490081602020CF
:10409000A87201273007000F0CD0216801200862A8
:1040A0002168022008622168082008622168042033
:1040B000086201E0002FCDD0606D2038C17F064836
:1040C000C21F0368F93A995401784268491CC9B281
:1040D0008A42BFD00160F8BDB8050020F8B5194D7F
:1040E0000024AC60EC602C61AC61EC6106460C27EE
:1040F0002C6213486F616C6241C51248083DFEF79F
:10410000FAFF002801D0FDF799FB0E480E497030E8
:104110008460C46004618461C46104624761446274
:1041200042C00838FEF7E7FF002801D0FDF786FB04
:10413000286801682022114301600020F8BD0000BA
:1041400000380140C405002000440040EFF3108116
:1041500072B6054805C8824201D0012000E0002067
:1041600081F3108870470000B805002010B503489F
:10417000FDF700FD00F004F810BD0000B0070020BE
:1041800010B50E48FDF710FD00280DD10B480C4965
:104190004160332181600121C1600A49016000F062
:1041A00013F80648FDF704FD0448FDF7FDFC202840
:1041B00001D0012010BD002010BD0000B00700207C
:1041C0002E11B1000054004010B5164C86B0E16AC3
:1041D00002200143E162E16A03900140059103215D
:1041E0000902002000910290122104200191049004
:1041F00069460D48FDF7F0FBA16B01204005014326
:10420000A163A16A0143A162A16A8143A162002264
:1042100011461720FDF7D8FE1720FDF7CBFE06B09C
:1042200010BD0000001002400004005001688A69BF
:10423000D243920701D400228A6200688169C9438F
:10424000C90703D0816901221143816170470000D1
:10425000F7B5044600680E468069C043C0062CD4FA
:1042600020272546403520688069C04380060FD549
:10427000701CF8D0002E05D0FDF776FC0299401A8C
:10428000B042F0D96F700020A87028700320FEBDE6
:1042900021681020C8612068C7612046FFF7C6FF6B
:1042A00020684168064A11404160042060646F70D4
:1042B0000020A87028700120FEBD0020FEBD000077
:1042C00000E800FEF8B504460120164640031D46EE
:1042D000DAB20090079F0023204600F05DF83A46CE
:1042E0002046069900F0B5F8002803D0606C042839
:1042F0001BD018E02846F5B2012809D02168300A01
:1043000088623A462046069900F0A3F80028EDD1CD
:10431000206885620097002240212046069B00F01D
:104320004DF8002800D00320F8BD0120F8BDF8B5F5
:1043300004460120164640031D46DAB2C30200902F
:10434000079F204600F028F83A462046069900F0DC
:1043500080F8002803D0606C04281BD018E02846A1
:10436000F5B2012809D02168300A88623A46204611
:10437000069900F06EF80028EDD12068856200975C
:10438000002280212046069B00F018F8002800D06B
:104390000320F8BD0120F8BD70B50568049C68686D
:1043A0008905890D1204044E1143194330402143FD
:1043B0000143696070BD0000009800FCF8B51C4620
:1043C00017460E46054611E0601C0FD0002C05D0A4
:1043D000FDF7CAFB0699401AA04207D920204035B4
:1043E00068700020A87028700320F8BD28688169D3
:1043F0003046884304D00020B842E5D00020F8BD04
:104400000120F9E770B516460D4604461AE032461B
:1044100029462046FFF71CFF002801D0012070BD6F
:10442000002D04D0FDF7A0FB801BA8420AD9616CC7
:10443000202001436164403460700020A07020702F
:10444000032070BD20688069C0438006DFD400204F
:1044500070BD70B516460D4604461CE0324629462E
:104460002046FFF7F5FE002801D0012070BD681C32
:1044700011D0002D04D0FDF777FB801BA8420AD98C
:10448000616C202001436164403460700020A070A2
:104490002070032070BD20688069C0438007DDD490
:1044A000002070BD10B50B480168002904D000F051
:1044B00014F800F04CF810BD4068002804D000F05B
:1044C00013F800F045F810BD00F006F800F03EF8D3
:1044D00010BD000030020020704710B501210020FF
:1044E000FDF78EFD10BD000010B5EFF3108472B61D
:1044F0001048FEF7E1FD1048FEF7DEFD01F006FD75
:10450000032109020D48FDF7BDF90D48FDF732FB07
:104510000C4801680422114301600B480168202205
:104520009143016084F3108801210846FDF780FD66
:1045300010BD0000C4050020340600200004005017
:10454000B0070020007000400038014070477047FD
:1045500070B5EFF3108572B6154C20680121084341
:10456000206020684007FCD5206801210906084327
:10457000206020688001FCD5E06803210843E060EA
:10458000E0680007800F0328FAD1FFF7CBFA00207C
:10459000FCF780FE01F0C6FC01204005A062A16A84
:1045A0008143A162FDF7C2F885F3108870BD000059
:1045B00000100240EFF3108172B607480268002A2B
:1045C00001D0002005E04068002801D0012000E073
:1045D000022081F3108870473002002010B5EFF3FD
:1045E000108272B6064B00295C6803D0012903D102
:1045F000044300E084435C6082F3108810BD000037
:104600003002002010B5EFF3108272B6064B00297D
:104610001C6803D0012903D1044300E084431C60DB
:1046200082F3108810BD00003002002038B5044627
:10463000002069460870204600F016FA012805D0CF
:10464000694620780978884201D0012038BD0020D1
:1046500038BD70B51446054600F080F9012806D033
:104660002146284600F0D4F9012800D0002070BD72
:104670001CB50C46694600F0F9F8012803D06846DD
:104680004078207000201CBD1CB50C46694600F027
:10469000EDF8012803D068460079207000201CBD89
:1046A0001CB50C46694600F0E1F8012803D06846C5
:1046B0008078207000201CBD38B50C46694600F09B
:1046C000C2F8012803D0684600782070002038BD69
:1046D0001CB50C46694600F0C9F8012803D06846AD
:1046E0000078207000201CBD1CB50C46694600F007
:1046F000BDF8012803D06846C078207000201CBD9A
:1047000010B500F0D6F8012800D0002010BD10B57B
:10471000002905D0012907D0022909D0012010BDA8
:10472000002100F0CDFA06E0002100F0E4FA02E0FA
:10473000002100F0FBFA0128F1D0002010BD10B5D7
:10474000002905D0012907D0022909D0012010BD78
:10475000012100F0B5FA06E0012100F0CCFA02E0F8
:10476000012100F0E3FA0128F1D0002010BD10B5BE
:1047700060290DD006DC00290AD0202908D0402964
:1047800004D105E0802903D0E02901D0012010BD2B
:1047900000F0E7FA0128FAD0002010BD10B500F0B3
:1047A00015FB012800D0002010BD10B5002903D052
:1047B000012901D0012010BD00F022FB0128FAD010
:1047C000002010BD10B5002903D0012901D001201F
:1047D00010BD00F0E0FA0128FAD0002010BD10B59D
:1047E000002903D0012901D0012010BD00F008FBF1
:1047F0000128FAD0002010BD38B50C466B460122C6
:10480000272100F002FA002801D0012038BD6846B7
:104810000078C107C90F6170022108402070684606
:1048200000788106C90FC006A170C00FE07000209B
:1048300038BD10B50B4601220F2100F0E6F9002823
:1048400000D0012010BD38B50C466B460122142162
:1048500000F0DBF9002801D0012038BD6946087856
:104860004009400108702070002038BD38B50C4662
:104870006B460122262100F0C8F9002801D0012052
:1048800038BD684600780022C10921714106C90F70
:10489000E1708006800E01212070002803D0627034
:1048A000202804D000E06170A270002038BDA17003
:1048B000FBE710B50C460B460122142100F0A5F9C8
:1048C000002801D0012010BD2078C006C00E207045
:1048D000002010BD38B50C46694600F02DF80128BF
:1048E00012D068460078302816D006DC00280ED09A
:1048F00010280AD0202804D10CE040280ED05028DF
:104900000ED008482060012038BD7F20C0052060FF
:10491000002038BD0448FAE70448F8E70448F6E701
:104920000448F4E7000080BF000020410000C841B7
:10493000000048420000964238B50C466B46012202
:10494000102100F062F9002801D0012038BD68462E
:104950000078702108402070002038BD38B50C4622
:1049600000210091694600F00DF8012807D0009859
:10497000FCF712F80249FBF732FE2060002038BD38
:104980000000C84238B50C46694600F00EF8002811
:1049900001D0012038BD009864214843C117090D9A
:1049A000081800132060002038BD38B50D460024DB
:1049B0006B460322282100F028F9002801D00120AD
:1049C00038BD002069460A5CC3009A40401C14436D
:1049D000C0B20328F7D3200202D5FF20000604430B
:1049E00000202C6038BD38B50C466B4602222B21C6
:1049F00000F00BF9002801D0012038BD684640784E
:104A000001026846007808182080002038BD0000A8
:104A100038B50C4600216A461180694600F010F84E
:104A2000012809D069460020085EFBF7B5FF03495D
:104A3000FBF7D5FD2060002038BD000000002041BC
:104A400038B50C466946FFF7CEFF002801D001209B
:104A500038BD69460020085E0A2148436421FBF7FF
:104A60005DFB2080002038BD10B5FFF7E2FE012875
:104A700000D0002010BD000070B50C460546FFF7C1
:104A8000D5FD012826D0144860600121284600F099
:104A9000ABFA01281ED00021284600F08AFA01282E
:104AA00018D00021284600F0C6F9012812D00021B4
:104AB000284600F0DBF901280CD00221284600F03E
:104AC000E2F8012806D00021284600F0C1F80128AC
:104AD00000D0002070BD00000000C84110B5FFF7F5
:104AE000A5FD10BD70B50546806800680468607853
:104AF000002804D1284600F038F8012802D0002010
:104B00002070E87070BD38B50C466946FFF774FE3A
:104B1000012803D0684640782070002038BD10B5C9
:104B2000FFF7D8FE10BD10B5FFF718FF10BD10B588
:104B3000FFF79AFF10BD70B50546806800680468ED
:104B40006078002805D121462846FFF795FF012807
:104B500003D001202070E870002070BD10B500F077
:104B60006CF8012800D0002010BD70B504468068A4
:104B700000680568207900280BD0E878002805D166
:104B80000021204600F015FA012802D00020A8706C
:104B9000207170BD70B5054680680068046828798A
:104BA000012809D022462846616800F095F90128BD
:104BB00003D00120A0702871002070BD10B582685C
:104BC00003791268012B126805D000F0B1F90128B1
:104BD00000D0002010BD00F0CBF9F8E710B58268D6
:104BE00003791268012B126805D000F05BF90128E7
:104BF00000D0002010BD00F06FF9F8E710B500F00C
:104C0000BCFA012800D0002010BDFFB581B01E46BF
:104C100015460F4600240CE03819C1B232190123A1
:104C2000019801F0CBFA002802D0012005B0F0BDB8
:104C3000641CAC42F0DB0020F8E710B513460122FB
:104C4000FFF7E3FF012800D0002010BD00207047CF
:104C500038B50C4605466B4601221121FFF7D5FFFA
:104C600000280ED169460A78EF2002402001104347
:104C700008706B4601221121284600F066FA0028D0
:104C800000D0012038BD38B50C4605466B460122E0
:104C90001021FFF7BAFF002801D0012038BD684677
:104CA0000178FD2001402143684601706B460122D6
:104CB0001021284600F049FA0028EFD0002038BD26
:104CC00038B50C4605466B4601221221FFF79DFFC1
:104CD00000280ED169460A78EF20024020011043D7
:104CE00008706B4601221221284600F02EFA002897
:104CF00000D0012038BD38B50C4605466B46012270
:104D00001221FFF782FF00280ED169460A78DF20C2
:104D100002406001104308706B46012212212846B0
:104D200000F013FA002800D0012038BD38B50C4639
:104D300005466B4601221221FFF767FF00280ED1BE
:104D400069460A78F7200240E000104308706B467D
:104D500001221221284600F0F8F9002800D0012095
:104D600038BD38B50C4605466B4601221421FFF7C5
:104D70004CFF00280DD1694608786B46C006C00E6E
:104D80002043087001221421284600F0DEF9002893
:104D900000D0012038BD38B50C4605466B460122CF
:104DA0001121FFF732FF00280ED169460A78BF2093
:104DB0000240A001104308706B46012211212846D1
:104DC00000F0C3F9002800D0012038BD38B50C46EA
:104DD00005466B4601221421FFF717FF00280DD16D
:104DE000694608786B46400940012043087001225B
:104DF0001421284600F0A9F9002800D0012038BD70
:104E000038B50C4605466B4601221121FFF7FDFE21
:104E100000280ED169460A78DF2002406001104365
:104E200008706B4601221121284600F08EF90028F7
:104E300000D0012038BD38B50C4605466B4601222E
:104E40001021FFF7E2FE00280ED169460A78F7200C
:104E50000240E000104308706B46012210212846F2
:104E600000F073F9002800D0012038BD38B50C4699
:104E700005466B4601221021FFF7C7FE00280ED120
:104E800068460178FB2001402143684601706B466B
:104E900001221021284600F058F9002800D00120F6
:104EA00038BD00007F20C005814209DD06488142EF
:104EB00006DD0648814203DD0548814200DD0548E4
:104EC0005060002070470000000020410000C841F1
:104ED000000048420000964270B505467F20C0059C
:104EE0001446814201DC10210FE00E48814201DCB2
:104EF00020210AE00C48814201DC302105E00B480A
:104F0000814201DC402100E05021284600F051F8A8
:104F1000012806D0211D2846FFF7DCFC012800D01F
:104F2000002070BD000020410000C8410000484240
:104F300000B50B0001F027FD0504070B0D0F110054
:104F40007F20C00500E006485060002000BD0548F5
:104F5000FAE70548F8E70548F6E7012000BD00003C
:104F6000000020410000C841000048420000964275
:104F700070B5144605460B0001F005FD0504060852
:104F80000A0C1900102106E0202104E0302102E083
:104F9000402100E0502100F00CF8012806D0211D2E
:104FA0002846FFF797FC012800D0002070BD0120A3
:104FB00070BD38B50C4605466B4601221021FFF73F
:104FC00024FE00280ED1684601788F20014021433D
:104FD000684601706B4601221021284600F0B5F8A2
:104FE000002800D0012038BD38B50C4605466B4678
:104FF00001221A21FFF709FE00280DD16946087821
:105000006B46400840002043087001221A212846C0
:1050100000F09BF8002800D0012038BD10B5FFF744
:1050200005FB10BD70B505468068006804682078EF
:10503000002804D1284600F038F8012802D00020CA
:105040006070E87070BD38B50C466946FFF7D4FB58
:10505000012803D0684600782070002038BD10B5C4
:10506000FFF738FC10BD10B5FFF7D2FC10BD10B52E
:10507000FFF7FAFC10BD70B505468068006804684B
:105080002078002805D121462846FFF7F5FC0128A5
:1050900003D001206070E870002070BD10B5FFF7EC
:1050A000CCFD012800D0002010BD70B504468068FA
:1050B00000680568207900280BD0A878002805D161
:1050C00000212046FFF775FF012802D00020E8707C
:1050D000207170BD70B50546806800680468287945
:1050E000012809D0224628466168FFF7F5FE01280D
:1050F00003D00120E0702871002070BD10B58268D7
:1051000003791268012B126805D0FFF711FF0128FF
:1051100000D0002010BDFFF72BFFF8E710B5826824
:1051200003791268012B126805D0FFF7BBFE012836
:1051300000D0002010BDFFF7CFFEF8E710B500F05B
:105140001CF8012800D0002010BDFFB581B01E461C
:1051500015460F4600240CE03819C1B2321901235C
:10516000019801F043F8002802D0012005B0F0BDFD
:10517000641CAC42F0DB0020F8E707B502AB01226B
:10518000FFF7E3FF012800D000200EBD10B501217C
:1051900000F0B2FA002800D0012010BD38B5044656
:1051A000002069460870204600F0D1F8012805D09B
:1051B000694620780978884201D0012038BD002056
:1051C00038BD10B5002100F097FA002800D001206A
:1051D00010BD38B50C466B460122272100F086F938
:1051E000002801D0012038BD68460078C007C00FF4
:1051F0002070684600788107C90F6170C106C90F29
:105200008006A170C00FE070002038BD10B50B46BD
:1052100001220F2100F06AF9002800D0012010BD02
:1052200038B50C46694600F027F8012810D06846CA
:105230000078202812D004DC00280CD0102804D1DB
:1052400007E030280CD040280CD00748206001200F
:1052500038BD7F20C0052060002038BD0348FAE734
:105260000348F8E70348F6E7000080BF0000E0408D
:10527000000048410000C84138B50C466B46012289
:10528000202100F033F9002801D0012038BD684604
:105290000078702108402070002038BD38B50C46D9
:1052A000694600F00EF8002801D0012038BD0098B2
:1052B00064214843C117090D08180013206000201D
:1052C00038BD38B50D4600246B460322282100F076
:1052D0000DF9002801D0012038BD002069460A5C84
:1052E000C3009A40401C1443C0B20328F7D32002E5
:1052F00002D5FF200006044300202C6038BD38B5DD
:105300000C466B4602222B2100F0F0F8002801D059
:10531000012038BD684640780102684600780818C8
:105320002080002038BD38B50C466946FFF7E7FFFE
:10533000002801D0012038BD6A4600203021105ECF
:10534000FAF7ECFEFF30AA302080002038BD10B5FF
:10535000FFF75CFF012800D0002010BD10B5044607
:10536000FFF71CFF012824D02046FFF72AFF012861
:105370001FD00021204600F061F9012819D0012139
:10538000204600F033F9012813D00421204600F014
:1053900007F901280DD00121204600F0D3F901289A
:1053A00007D004220121204600F0C6F8012800D0D1
:1053B000002010BD10B5FFF7F1FE10BD10B504467A
:1053C0008068006800684078002804D1204600F01A
:1053D0004DF8012805D0A168002009680968087007
:1053E000E07010BD38B50C466946FFF7F2FE0128A3
:1053F00003D0684640782070002038BD10B5FFF714
:105400000FFF10BD38B50D46002469460094FFF724
:1054100045FF012807D00098FBF7BEFA0249FBF7C9
:10542000DEF82860204638BD0000C84210B5FFF7FE
:105430008EFF10BD10B50446806800680068407893
:10544000002804D12046FFF789FF012806D0A16873
:105450000120096809680870E070002010BD10B5CF
:1054600000F052F8012800D0002010BD10B504460D
:105470000079002810D0A06800680068C078002873
:1054800004D1204600F049F8012805D0A168002089
:10549000096809688870207110BD10B5044600794C
:1054A000012806D0A06800680068C078002802D0F3
:1054B00006E0002010BD204600F036F80128F9D0A3
:1054C000A16801200968096888702071F1E710B5AA
:1054D00000F0B4F810BD10B500F0C6F810BD10B55E
:1054E00000F000FA012800D0002010BD10B51C46C5
:1054F000012A01D9802319431346224600F05EFE9B
:10550000002800D0012010BD10B513460122FFF77E
:10551000EDFF012800D0002010BD10B5FFF751FEAF
:10552000012800D0002010BD10B5FFF72FFE012884
:1055300000D0002010BD0000F8B514000D4606464E
:1055400007D0042C05D0082C03D00C2C01D0A521A9
:1055500008E0002D09D0012D07D0022D05D0032D24
:1055600003D0A6210D4800F0C7F96B460122102197
:10557000FFF7BCFF00280FD1684600786B46010991
:105580000901294321436846017001221021304658
:1055900000F09AF9002800D00120F8BDB886000874
:1055A00038B50C00054606D0042C04D0FF21773115
:1055B0000D4800F0A1F96B4601222021FFF796FF6C
:1055C00000280ED168460178FB200140214368463F
:1055D00001706B4601222021284600F075F9002851
:1055E00000D0012038BD0000B886000838B50C4650
:1055F0000546012906D0002C04D0FF21A1310E4818
:1056000000F07AF96B4601222021FFF76FFF002896
:105610000FD169460978F7200140E0000843694648
:1056200008706B4601222021284600F04DF9002821
:1056300000D0012038BD0000B886000810B50B006E
:1056400001F0A1F90504060808080F00102102E086
:10565000302100E0402100F023F8012800D0002094
:1056600010BD012010BD00007F2210B5D20591426F
:1056700001DC10210AE0084A914201DC202105E00A
:10568000064A914201DC302100E0402100F008F898
:10569000012800D0002010BD0000E040000048417B
:1056A00038B50C0005460CD0102C0AD0202C08D0A0
:1056B000302C06D0402C04D0FF2131310D4800F0B1
:1056C0001BF96B4601222021FFF710FF00280ED1A5
:1056D000684601788F2001402143684601706B467F
:1056E00001222021284600F0EFF8002800D00120F8
:1056F00038BD0000B886000838B50C00054606D055
:10570000012C04D0FF215C310D4800F0F5F86B4608
:1057100001222021FFF7EAFE00280FD16946087810
:105720006B464106490EE0010843694608700122B4
:105730002021284600F0C8F8002800D0012038BDFC
:10574000B886000838B50C00054606D0012C04D0F8
:10575000FF21E3310C4800F0CFF86B4601222021F5
:10576000FFF7C4FE00280DD1694608786B46400853
:1057700040002043087001222021284600F0A4F8B0
:10578000002800D0012038BDB886000810B5FFF70A
:1057900005FD10BD10B504468068006800680078FB
:1057A000002804D1204600F04FF8012805D0A16858
:1057B0000020096809684870E07010BD38B50C46D3
:1057C0006946FFF706FD012803D06846007820707F
:1057D000002038BD10B5FFF723FD10BD38B50D46CC
:1057E000002469460C80FFF79EFD012808D0694619
:1057F000085FFBF7D1F80349FAF7F1FE286020466D
:1058000038BD00000000204110B5FFF7A0FD10BD1D
:1058100010B504468068006800680078002804D14C
:105820002046FFF79BFD012806D0A16801200968EA
:1058300009684870E070002010BD10B5FFF764FEE5
:10584000012800D0002010BD10B5044600790028C2
:1058500010D0A068006800688078002804D1204635
:10586000FFF75BFE012805D0A168002009680968E0
:10587000C870207110BD10B504460079012806D00B
:10588000A068006800688078002802D006E0002048
:1058900010BD2046FFF748FE0128F9D0A16801207D
:1058A00009680968C8702071F1E710B5FFF7C6FEF6
:1058B00010BD10B5FFF7D8FE10BD10B500F012F8FE
:1058C000012800D0002010BD10B51C46012A01D9C6
:1058D000802319431346224600F088FC002800D09C
:1058E000012010BD07B502AB0122FFF7EDFF012833
:1058F00000D000200EBD00000A46014601A000F0C5
:10590000EFFFFEE757726F6E6720706172616D6521
:105910007465727320746D703A2066696C65202519
:1059200073206F6E206C696E652025640D0A00007F
:1059300010B50446084A0A21022000F09BFA002113
:10594000032808D1044A4C3A53181B7B6354491C62
:10595000C9B20829F8D310BDF006002070B504467E
:10596000084A0621022000F085FA0021032808D108
:10597000044A2C3A535C8D00491CC9B26351042976
:10598000F8D370BDD006002010B50446084A0521A2
:10599000022000F06FFA0021032808D1044A4C3A93
:1059A00053181B796354491CC9B20829F8D310BD98
:1059B000F006002010B502460A21012000F05AFA34
:1059C00010BD10B502460521012000F053FA10BDAC
:1059D00010B5034A916050600020FBF75BFC10BDDE
:1059E0001800002070B5044602463121022000F064
:1059F00041FA054606281DD10F4810490068884223
:105A000001DDFE2014E00E49884201DC01200FE098
:105A1000FBF720F80B4A0C4BFAF7D0FE00220B4B99
:105A2000FAF742FF00220A4BFAF7D6FEFAF7F4FF24
:105A30002060284670BD0000A40600203333534088
:105A40006666E63FCDCCCCCCCCCCFC3F0000F83F2A
:105A500000C06F40002210B51146104600F00AFA4F
:105A6000022801D0012010BD002010BDF0B5002497
:105A700087B000286AD0012866D100220321104691
:105A800000F0F8F9044600F059FC0546002C5BD004
:105A90002F4C20780D2801D00E2840D12D4E2E4FAE
:105AA00001F06AFE3068002804D1284600F04CFC62
:105AB000B842F5D9FF252D352946254802F0BAF917
:105AC00008282CD1207804282CD00B2803D00F28AC
:105AD00003D0102826D10B2020702946684602F0FA
