:020000040800F2
:1000000058090020D50000089D2B0008612A00082F
:1000100000000000000000000000000000000000E0
:10002000000000000000000000000000572F000842
:100030000000000000000000352D000825460008E3
:10004000E7000008E7000008072E0008E7000008A6
:10005000E7000008F9080008090900081909000864
:10006000E7000008E7000008E7000008E7000008D4
:10007000E7000008E7000008E7000008E7000008C4
:10008000E7000008E7000008E700000800000000A3
:10009000E7000008E7000008E7000008E7000008A4
:1000A000E7000008E7000008E7000008E700000894
:1000B000B34C0008E700000800000000E70000085B
:1000C0000348854600F090FB00480047C1570008F0
:1000D000580900200448804704480047FEE7FEE72F
:1000E000FEE7FEE7FEE7FEE7B9460008C1000008AC
:1000F00030B50B46014600202022012409E00D46C0
:10010000D5409D4205D31D469540491B2546954047
:1001100040191546521E002DF1DC30BDF0B51FB45C
:100120000646002082B005464024019100901BE065
:10013000019922460F46304600F060FA049A059B6A
:10014000801A994110D310461946224600F046FA0B
:10015000361A8F410197224601200021009F00F0AE
:100160003DFA38184D4100902046641E0028DFDC1F
:10017000019B00982946324607B0F0BD03460B4369
:100180009B0703D009E008C9121F08C0042AFAD24D
:1001900003E00B780370401C491C521EF9D27047D3
:1001A000D2B201E00270401C491EFBD2704700220F
:1001B000F6E710B513460A4604461946FFF7F0FF66
:1001C000204610BD30B505460020034600E05B1C0C
:1001D000934205D2EC5CC85C201A01D1002CF6D108
:1001E00030BD0000F0B507460846584087B0C00F44
:1001F000049048000E46590040084908BC1A88413E
:1002000005D2384631461E4617460B460246580070
:10021000400810434CD0300D039040055900400D6C
:10022000490D0590401A0290402872DA1803012106
:10023000000B09050843019004980092002805D09E
:100240000199524200208841009201900298402179
:100250000A1A0199009800F0C1F905460C466B4650
:1002600007CB00F0DCF9C0197141039A0E0D002391
:10027000D71756401A467A40164344D0049A002AAB
:100280002DD0029A012A039A15DC1205C01A914159
:1002900001263605001C7141D20F059ED20700933E
:1002A000019202962A46234600F0D9F907B0F0BD24
:1002B00038463146FAE71605224A0F46B218C01AE8
:1002C000B74101210905001C4F4100187F4111462B
:1002D00018187941E20F10436D19644113E0E207E9
:1002E0006D0815436408C2071443039A01261205DA
:1002F000C01A91413605001C7141CE0740083043B9
:100300004908C01851412A46234600F09BF9CDE721
:10031000FFE7049801224000C117121A00238B4105
:1003200004983146C417381AA141EEE730B40124CD
:10033000E407634030BC55E730B40124E407614072
:1003400030BC4FE70000E0FFF0B51FB488B00B9958
:100350000998002448400999C00F490049080991AB
:10036000C0070B990090490049080B91099908981A
:10037000A64608431CD00B990A98084318D0099840
:1003800001244000420D4800410D09982405000356
:10039000000B204309900B980003000B20430B90A7
:1003A00050181C494018002201901446104605E0E0
:1003B000002001460DB0F0BD032801DA034600E03D
:1003C00003239C46C11A0AAE0AE05F0008ADED5B4C
:1003D0004F00F75B7D430027AA187C41491C5B1E38
:1003E0006145F2DD410004AB5A522104120C0A436C
:1003F000240C401C0828DFDB01980290009970460D
:1004000001910090059B049A0799069800F027F93E
:10041000D0E700000DFCFFFFF0B50C465C4085B056
:10042000E40FE40703944C00002664085900944646
:10043000490802460296224321D062460A431ED052
:100440006200570D4A000E032303550D0124024696
:100450002C492405781B1B0B360B401823432643DD
:10046000614600901C46501AB44103D30098401CCA
:10047000009002E0921800985B41002803DA002007
:10048000014605B0F0BD002001210905074686465A
:1004900011E064461D46141BB54106D36546521B48
:1004A000B341744607430C43A646CD0740084908AC
:1004B000284392185B4105460D43EAD11046184384
:1004C00013D06046194650407140084306D060463C
:1004D000101AB34106D20122002306E000220123B4
:1004E000DB0702E00122D243531000987446010555
:1004F000381C6141029C039D0019694100F0A2F87B
:10050000BFE70000FD03000070B54B005B0803432C
:100510000BD04B005C0D002633466542B341D41727
:10052000AD1AA34102DB0020014670BD1205301850
:10053000514170BD0EB5C217C10F5040CA074018D7
:100540000021054B0293019200910A460B4600F0F0
:1005500086F803B000BD0000330400000EB5054965
:100560000291002100910A460B46019100F077F8B4
:1005700003B000BD330400004A0009030123090B46
:100580001B051943094B10B5520D9A4201DA0020A0
:1005900010BD064B34339A4203DC9A1A00F02EF851
:1005A00010BD03495118884010BD0000FF03000032
:1005B000CDFBFFFF10B5002904DB0124E407404216
:1005C0008C412146002B04DB1C460123DB075242F1
:1005D000A341994200D1904210BD000010B5202ADD
:1005E00004DB0146203A9140002010BD91402023B9
:1005F0009C1A0346E3401943904010BD10B5202AD1
:1006000004DB0846203AD040002110BD0B46D34001
:10061000D0402024A21A91400843194610BD10B5BD
:10062000202A06DBCB170846203A1041C1170B439E
:1006300006E00B461341D0402024A21A9140084303
:10064000194610BD10B5002B08DA0024401C61418A
:1006500092185B411A4301D14008400010BDF0B52B
:100660001FB482B005460C0003D0084604F038FBE6
:1006700002E004F035FB2030024600902146284677
:10068000FFF7ACFF049B059A04460F46184311433D
:10069000084314D0184610431BD0009840210A1A72
:1006A00018460599FFF7AAFF05460E46009A0599D8
:1006B0000498FFF793FF084305D0012004E020468B
:1006C000394607B0F0BD0020C11705430E432C4347
:1006D000374300990E986305401A7905E40A002211
:1006E0000C43FD0A0A3002D500200146E9E7010566
:1006F000101969410C9C0D9D00196941FFF7A2FF7B
:10070000DFE70000F8B50546480040080C462843DE
:1007100004D06000184A400D904201DD2846F8BD23
:1007200015493539884210DC88420BDB290D20033E
:1007300008432903014305D0E00F1049C0074118C1
:100740000020F8BD00200146F8BD161A4020821B8B
:1007500028462146FFF742FF0746009128462146DA
:100760003246FFF74BFF3A46009BFFF76BFF3246DE
:10077000FFF734FFF8BD0000330400000000F03F35
:100780004A0009030123090B1B0519430A4B10B545
:10079000520D9A4202DA0020014610BD064B343356
:1007A0009A4203DC9A1AFFF729FF10BD034BD218B7
:1007B000FFF714FF10BD0000FF030000CDFBFFFF9B
:1007C00010B5002904DB0124E40740428C41214696
:1007D000002B04DB1C460123DB075242A3418B4262
:1007E00000D1824210BD0000064C0125064E05E0F6
:1007F000E36807CC2B430C3C98471034B442F7D342
:10080000FFF762FC205E0008405E000810B502227F
:100810001449012386B000281ED0012804D00228E4
:100820001AD0032807D117E0CA6A1A43CA62C96AF4
:10083000C907C90F059141000B4A8000515A009128
:100840000021029103210391084901930858694648
:1008500000F0B4F906B010BDCC6A1443CC62C96A8A
:100860001140E7E700100240D45D00083C00002082
:1008700010B5054A4100515A044A80001058002220
:1008800000F062FA10BD0000D45D00083C000020BA
:1008900010B5044A4100515A034A8000105800F034
:1008A0004FFA10BDD45D00083C00002030B585B083
:1008B00003200190002002900320400300900520B7
:1008C0006946000700F07AF9084C606B0125AD0518
:1008D0002843606300F04AF900F058F900F04EF93F
:1008E000606BA843606305B030BD0000001002409B
:1008F00010B501F02BFE10BD10B5012000F052F92B
:10090000022000F04FF910BD10B5042000F04AF9A4
:10091000082000F047F910BD10B5102000F042F992
:10092000202000F03FF9402000F03CF9802000F04A
:1009300039F9FF20013000F035F90120400200F0C4
:1009400031F90120800200F02DF90120C00200F0F1
:1009500029F90120000300F025F90120400300F0EF
:1009600021F90120800300F01DF90120C00300F0EF
:1009700019F910BDFEE7000010B5094A0021CB00AF
:10098000D458844207D89B189B68834203D9C80077
:100990008018007910BD491CC9B21529EFD3FEE7B4
:1009A000B85C000870B5040006D0A06D264600258E
:1009B0004036002802D006E0012070BDE56535759F
:1009C000204600F0D1F8A06DC00603D421688868E5
:1009D000400705D5A06D10210843A0653575EBE7EC
:1009E000A06DFF220132904302221043A065886867
:1009F0008207920F5A48012A02D10A68D2072BD1E6
:100A0000032362689B079A4205D05B429A4202D058
:100A10005B009A4209D10A69920092080A61216832
:100A20000A6963681A430A610CE00A699200920835
:100A30000A6181680F229204914381608168626833
:100A4000114381602168CA6818239A43CA602168EB
:100A5000CA68A3681A43CA6081680122520691439A
:100A600081608168228F520611438160206881680D
:100A7000C90004D4816801221207114381602068F3
:100A8000C168384A1140C1602169E068022923D059
:100A900000210843216A226B490352001143084395
:100AA000616B0843A16989030843E169C9030843ED
:100AB0002168CA681043C860A06A0146FF39C2397C
:100AC00005D0E16A08432168CA681043C860606ABB
:100AD0000121012802D00BE00421DAE7206A002876
:100AE00023D0A06D20221043A065E06D0843E0658F
:100AF000206C012820681FD00169C90703D0016953
:100B000049084900016120684169C908C90041617B
:100B100020684169E26B11434161E565A06D800881
:100B20008000401CA065002070BD2068C2680123C1
:100B30001B041A43C260DBE70269FF239B009A4350
:100B4000026120680269636CE66C1A43A36C33434C
:100B50001A430261206802690A430261D3E7000078
:100B6000002701401902FEFF70470000024841685B
:100B700049084900416070470058014002484168F7
:100B80000422914341607047005801400248416887
:100B900002229143416070470058014010B501F0B6
:100BA00081FC10BD10B504494A69024202D0486177
:100BB000FFF7F4FF10BD000000040140F8B500236A
:100BC0000124A7E027469F403A4070D04D68022D8F
:100BD00001D0122D14D1DD08AD002D1800952D6A1D
:100BE0005E07AC46F50E0F26AE46AE406546B543F1
:100BF000AC460E697546AE4065462E43009D2E629A
:100C00004D68012D05D0022D03D0112D01D0122DDC
:100C100016D185680326AC465D00AE46AE406546FB
:100C2000B543AC46CE687546AE4065462E438660F9
:100C300046680D79BE43ED06ED0F9D403543456096
:100C400006685F000325BD40AE46AE430D79B4464D
:100C5000AE07B60FBE4065462E430660C6687546B1
:100C6000AE438D68BD403543C5604D68ED0050D53D
:100C70002B4D6E6B26436E639E082A4DB600751988
:100C8000AC46AD689E07360F0F27B740BD4305271A
:100C90003F07B84201D100271AE0234FB84201D1E3
:100CA000012715E0214FB84202D1022710E030E0C1
:100CB0001F4FB84201D103270AE01E4FB84201D1AD
:100CC000042705E01C4FB84201D1052700E00627A4
:100CD000B7402F436546AF60184D2E684F68964366
:100CE000FF0300D516432E606E684F689643BF031E
:100CF00000D516436E60AE684F689643FF0200D57C
:100D00001643AE60EE684F689643BF0200D51643A7
:100D1000EE605B1C0A681546DD4000D052E7F8BD66
:100D20000010024000000140000400500008005084
:100D3000000C005000100050001C00500004014046
:100D400042694A4042617047002A01D08161704780
:100D50008162704701480068704700005000002021
:100D600002480168491C01607047000050000020E3
:100D700010B506480168022211430160032000F00B
:100D800007F800F007F8002010BD00000020024026
:100D90000020704710B500F03FF800F035F8044827
:100DA000016808221143016000F026F810BD000020
:100DB00000200240C106C90E012088400149086098
:100DC0007047000080E200E0C106C90E01208840A3
:100DD000014908607047000000E100E0C106C90E4B
:100DE00001208840014908607047000000E200E0EF
:100DF00010B501F0D5FE10BD02480168021511437F
:100E000001607047007000400248016842151143BC
:100E10000160704700700040024801681022914351
:100E20000160704700700040094B1A6892089200F8
:100E300002431A600748026904239A4302610129A8
:100E400003D040BF20BF20BF704730BF70470000B5
:100E50000070004000ED00E00A4B1A689208920012
:100E600002431A60084803690422134303610129FD
:100E700006D040BF20BF20BF016991430161704788
:100E800030BFF9E70070004000ED00E0F8B56649BA
:100E9000074601250020ED03624B634A4031102FC5
:100EA0006FD011DC012F77D0022F6CD0042F6BD0C4
:100EB000082F24D1C9680324240321407BD0BD021C
:100EC0006C10A9427CD0A0E00326584C3604202F99
:100ED0000BD0402F35D0FF3F012F10D1C9683140D2
:100EE00069D07C04A1426BD096E00B6909690127A7
:100EF00031403F04B94203D1990559E02846F8BD75
:100F000001256D04A94203D19907F8D54848F8BDD9
:100F1000B142FCD111688903F9D51168032000059D
:100F2000014001200005091A09D0091A05D08142A3
:100F300001D14048F8BD2046F8BD3F48F8BD3F48C4
:100F4000F8BDC9680125AD06294006D0A942F7D1F0
:100F500091688907F4D53A48F8BD11688901FBD535
:100F6000D068D1688002374D000F2D5C0802810FD8
:100F7000D068491CC0030AD41068C00605D52046B5
:100F800006E045E008E023E030E0184600E02E48A7
:100F90006843FFF7ADF8F8BDCC68A407A40F0CD0E8
:100FA000022C0DD0012C10D0032CF4D10969890535
:100FB0000029A3DBF8BD16E002E000F0D1F9F9E763
:100FC00011684907F6D51846F4E700F0D9F9F1E7BA
:100FD000CC680C26344006D0082CF1D0042CF4D078
:100FE0000C2CE3D0E6E700F0ABF9E3E7CC6803268E
:100FF000B6023440F7D00127FF02BC42E0D07A109D
:101000009442E2D0B442D1D0D4E7A142DDD0D1E7BE
:10101000916B4902E7D4CDE7012212049142D4D06A
:10102000C8E700000024F4000010024000093D0061
:101030008890000020A1070040420F0080841E001D
:10104000006CDC02EC5D000800127A00F8B5044682
:1010500000785E4D800672D55C4E0027403EB06B36
:10106000C00004D4B06BA9050843B06301275848F9
:101070000168C90511D40168821511430160FFF7A9
:1010800069FE009005E0FFF765FE0099401A6428AC
:1010900037D84F480068C005F5D5326803210905E7
:1010A00060680A400140914208D08103890F0329FA
:1010B00004D13168890301D50120F8BD2A690321D3
:1010C00009040A4022D0084090421FD020788006B0
:1010D0001CD528692A6988430121C9040A432A6169
:1010E0002A698A432A612861C0050FD5FFF732FEBD
:1010F000009008E0FFF72EFE0099411A3548814222
:1011000001D90320F8BD28698005F3D561688803FB
:10111000800F032805D132680005824301400A434D
:101120003260286903226168120411400843286173
:10113000002F04D0B06B012109078843B0632078E9
:10114000C00705D0E868A168800880000843E8600F
:101150002078800705D5E8680C218843E1680843BA
:10116000E8602078400706D5E868032189028843B3
:1011700021690843E8602078000706D5E868032164
:101180000903884361690843E8602088C00506D5E3
:10119000E868032109048843A1690843E8602078CE
:1011A000400606D5E868012189068843216A08437C
:1011B000E8602078000606D5E868032189048843A2
:1011C000E1690843E8600020F8BD000040100240DB
:1011D0000070004088130000F8B5054653480E46DD
:1011E0000068C007C00FB0420AD2504801684908E1
:1011F0004900314301600068C007C00FB0426FD1A1
:1012000028784B4C800705D5E068F0218843A96811
:101210000843E0602878C00752D06868022817D0D9
:10122000032818D02168012818D08905002957DA29
:10123000E168890889000143E160FFF78BFD696877
:101240000746022912D003291CD0012926D033E0F9
:1012500021688903EAE721688901E7E74907E5E7AB
:10126000FFF778FDC11B3348814223D8E0680007AF
:10127000800F0228F4D123E0FFF76CFDC11B2D483D
:10128000814217D8E0680007800F0328F4D117E0E7
:10129000FFF760FDC11B274881420BD8E0680007BB
:1012A000800F0128F4D10BE0FFF754FDC11B21484A
:1012B000814201D90320F8BDE0680007800FF3D117
:1012C0001A480168C907C90FB1420BD9016849081A
:1012D0004900314301600068C007C00FB04201D02F
:1012E0000120F8BD2878400706D5E06807210902EB
:1012F0008843E9680843E0602878000707D5E0687C
:101300000721C90288432969C9000843E06000F049
:1013100037F8E168084A0906090F515CC8400749D7
:1013200008600320FFF734FD0020F8BD00200240D4
:101330000010024088130000DC5D00084C00002013
:10134000044805490068C968044A4905490F515CC9
:10135000C84070474C00002000100240F55D0008B6
:10136000044805490068C968044A8904490F515C6A
:10137000C84070474C00002000100240F55D000896
:1013800010B5184AD1680C20084004280BD0082852
:1013900010D00C2810D050680004410F0120C00369
:1013A000491C884010BD1068C00601D50E4810BD0C
:1013B0000E4810BD0E4810BD88020E4B000F185C81
:1013C0000902D368890F491CDB0301D5084A05E0EF
:1013D0001268D20601D5044A00E0044A5043FEF7E1
:1013E00087FE10BD0010024000093D000024F400FB
:1013F00000127A00EC5D0008F8B504460078FF4D55
:10140000C0074CD0E8680007800F022807D0E868C2
:101410000007800F032809D1E868C00306D52868B3
:1014200080033CD56068002875D038E001206268F0
:101430000004824203D129680143296011E0052399
:1014400001211B0489049A422A6802D10A432A60B6
:10145000F1E782432A602A680240009228688843A4
:101460002860606800280DD0FFF774FC0646E44F42
:1014700004E0FFF76FFC801BB8427DD8286880032A
:10148000F7D50CE0FFF766FC0646DD4F04E0FFF7FA
:1014900061FC801BB842F0D828688003F7D420781C
:1014A000800741D5E8681F270007800F3F02012809
:1014B00007D0E8680007800F032809D1E868C00357
:1014C00006D42868400717D5E068012823D113E027
:1014D000E068002817D02968092291430143296058
:1014E000FFF738FC064604E0FFF734FC801B0228B7
:1014F000C3D828684007F7D568682169B84309024E
:101500000843686010E02868400840002860FFF742
:1015100021FC064605E090E0FFF71CFC801B02283A
:10152000ABD828684007F7D42078C00676D5E8689D
:10153000B44E0007800F0BD0E06900285DD028680A
:10154000FF21013108432860FFF704FC074644E00F
:101550002868800502D5E06900286ED0606A696855
:101560003140884212D901F0E7FB0028AED168680B
:10157000616AB043084300E0E4E068606868218C79
:101580000002000A0906084368600FE06968B14379
:10159000014369606868218C0002000A090608435B
:1015A0006860606A01F0C8FB00288FD1606A410B57
:1015B0000120C003491C8840E968934A0906090FC5
:1015C000515CC840914908600320FFF7E1FB25E02A
:1015D000FFF7C0FBC01B02288AD828688005F7D512
:1015E0006868616AB043084368606868218C0002DB
:1015F000000A09060843686010E02968FF200130EE
:1016000081432960FFF7A6FB064604E0FFF7A2FB33
:10161000801B022884D828688005F7D420787C4E67
:10162000000723D560690028306910D001210843E4
:101630003061FFF78FFB074605E009E1FFF78AFB02
:10164000C01B02287ED830698007F7D50EE040081D
:1016500040003061FFF77EFB074604E0FFF77AFBAE
:10166000C01B02286ED830698007F7D42078400765
:1016700061D5A86B0027C00005D4A86B012109071C
:101680000843A863012763480168C90511D40168AC
:10169000821511430160FFF75DFB009005E0FFF745
:1016A00059FB0099401A64284CD85A480068C00574
:1016B000F5D5FF20A2680130824203D13169014390
:1016C000316111E001218902002A07D005231B02A4
:1016D0009A4203D132690A433261EFE732698243A9
:1016E0003261306988433061A06800280ED0FFF76E
:1016F00031FB009006E0FFF72DFB0099411A4048AE
:1017000081421FD830698005F5D50DE0FFF722FB37
:10171000009006E0FFF71EFB0099411A384881420D
:1017200010D830698005F5D4002F04D0A96B0120B2
:1017300000078143A9632078800630D53649A06927
:101740004A1400E07DE0002816D0AB680120034376
:10175000AB606B6B03436B63086A10430862FFF76F
:10176000F9FA064604E0FFF7F5FA801B022868D86C
:10177000A8688007F7D512E0A86840084000A86074
:10178000086A90430862FFF7E5FA064604E0FFF7AF
:10179000E1FA801B022854D8A8688007F7D4A06A11
:1017A000002853D0E9680907890F032950D0012682
:1017B00036060228286805D0B0432860FFF7CAFA29
:1017C000044640E0B0432860FFF7C4FA074604E04F
:1017D000FFF7C0FAC01B022833D828688001F7D46D
:1017E000216BE06AEA680843616BFD231B049A439E
:1017F00011430843E860286830430FE000100240BE
:101800008813000000E00000DC5D00084C000020B0
:101810004010024000700040000001402860FFF7C7
:1018200099FA044604E0FFF795FA001B022808D84D
:1018300028688001F7D509E0FFF78CFA001B022821
:1018400001D90320F8BD28688001F5D40020F8BD37
:101850000120F8BD30B5014620310A78012A15D0A3
:1018600001220A7002234B700468CA236362046871
:101870005323636203689C6820252C439C600068A6
:10188000FF2343624A700020087030BD022030BD43
:1018900010B502F063FF10BDF8B5054604462035CB
:1018A000287801281DD00120287002206870226845
:1018B000CA205062226853205062FF200130002667
:1018C000FF2781421CD121688A6882438A60206890
:1018D00081680122120391438160FFF73BFA009077
:1018E00009E00220F8BDFFF735FA0099411A7D2082
:1018F000C00081421BD82068C068C007F3D020E038
:1019000020688168012252029143816020688168C9
:10191000120191438160FFF71DFA00900DE0FFF77F
:1019200019FA0099411A7D20C000814205D920682A
:101930004762032068702E70F8BD2068C068800779
:10194000EDD520684762012068702E700020F8BD38
:1019500010B500680B464068C021C9430140000231
:10196000000ECC04D870E40E5C708C06A40E090442
:10197000490F9C701970002A0AD101F015FAD8702D
:10198000587801F011FA5870987801F00DFA9870B3
:10199000002010BD30B50B460168896A59600168A6
:1019A00009694904490C9960006804680F48214698
:1019B000014088024D04800E18706D0E49065D705E
:1019C000490E99706102490E40242140D970002AC5
:1019D0000AD101F0E9F91870587801F0E5F958706A
:1019E000987801F0E1F99870002030BD7F7F7F008A
:1019F00070B5040005D0254620356878002802D04F
:101A000006E0012070BD00202870204600F042F85A
:101A1000022068702168CA20486221685320486209
:101A2000204601F0D4F9FF210028206803D041624C
:101A300004206870E5E78268154B1A4082602268CE
:101A400090686368A669184323693343184390601C
:101A50002268E06810612068026923891B041A4328
:101A600002612068C26880239A43C2602068C26C09
:101A700092089200C264E269606902432068C36C04
:101A80001A43C2642068416201206870002070BD62
:101A9000BFFF8FFF00B597B00420009000200A9090
:101AA000FF20013002906846FFF7A6FC002801D015
:101AB000FEF760FF20200E90C0020F900EA8FFF7E7
:101AC000C5FA002801D0FEF755FF08480169012238
:101AD000920411430161002211460220FFF788F9A8
:101AE0000220FFF771F917B000BD0000401002405E
:101AF000FEB506460446203630780B46012842D013
:101B0000012030700220707020681D4600272035AB
:101B10008068002A39D0400655D5187801F044F97C
:101B2000287801F041F91978987809040843597820
:101B3000DA78090212041143084329780906084398
:101B4000D9690843596908430546996958680843A3
:101B500000902168CA204862216853204862FF2013
:101B60005A6A0130802182424AD1226893688343B5
:101B700093602268D0680840FF388238D060FFF751
:101B8000E9F8019029E00220FEBD400600D4DF7094
:101B9000187801F011F90204587801F00DF90002EB
:101BA0000243987801F008F90243D8780004024310
:101BB000287801F001F900060243D8690243586908
:101BC00002431546C1E7DF70AAE7FFF7C3F80199A2
:101BD000411A7D20C00081422AD82068C068C00711
:101BE000F3D02068C5612168009848642068816846
:101BF000FF2201321143816020688168120130E0C8
:101C00002068826801235B029A4382602068C26870
:101C10000A401D495118C160FFF79CF801900EE081
:101C2000FFF798F80199411A7D20C000814206D93A
:101C30002168FF204862032070703770FEBD206865
:101C4000C0688007ECD52068056221680098886428
:101C500020688168012252021143816020688168F6
:101C600012011143816009480268012149040A43B5
:101C7000026082680A4382602168FF204862012076
:101C8000707037700020FEBD7FFDFFFF0004014033
:101C9000F8B505460446203528780B46012815D0AE
:101CA00001202870022068705878002A10D001F0B6
:101CB0007BF8987801F078F8D8789E78000406438D
:101CC0005878197800024903084316E00220F8BD4D
:101CD000C10603D5EF2108400A305870D87801F0CA
:101CE0006BF80604587801F067F80002064398780C
:101CF00001F062F806431878400306432168CA20C1
:101D00004862216853204862204601F060F80027AD
:101D1000002811D110480640206846602068C1683C
:101D200080229143C1602068806880060CD42046E0
:101D300000F08CF8002807D02168FF2048620420BA
:101D400068702F700120F8BD2168FF2048620120D3
:101D500068702F700020F8BD3FFFFF00F8B5064601
:101D60000446203630780D4601280ED00120307010
:101D700002207070206800278068002A07D0400683
:101D80001AD5287801F010F817E00220F8BD4006B7
:101D900000D4EF70287801F00FF80204687801F0A1
:101DA0000BF800020243A87801F006F80243E87835
:101DB0000004024300920BE0EF702978A878090430
:101DC00008436978EA780902120411430843009035
:101DD0002168CA204862216853204862204600F0EA
:101DE000F6FF00281FD118490098084021680860B4
:101DF0002068816801229204914381602969E86822
:101E0000084321688A68104388602068C16880227E
:101E10009143C1602068806880060CD4204600F0A1
:101E200015F8002807D02168FF2048620420707050
:101E300037700120F8BD2168FF20486201207070D2
:101E400037700020F8BD00007F7F7F0070B504462A
:101E50000068C168A0229143C160FEF77BFF7D2628
:101E60000546F60006E0FEF775FF401BB04201D9BB
:101E7000032070BD2068C0688006F4D5002070BDC6
:101E800070B5040012D0022120464030054641744E
:101E900020680168402291430160204600F04AF822
:101EA0000021616569742974084670BD012070BD08
:101EB00070B5040006D025464035687C0026002811
:101EC00002D005E0012070BD2E74204600F033F8EA
:101ED0000220687420680168402291430160A16873
:101EE000606822690843E16811430843616901227F
:101EF0000843A169520211400843E1690843216A7D
:101F00000843A16A084321680860A0690421000C05
:101F10000840616A0843216848602168E06A0861F6
:101F20002068C16992009143C161666501206874AF
:101F3000002070BD70477047F8B50446002768461A
:101F4000078026464036707C012802D0707C22280B
:101F50007ED100290CD0002A0AD0002B08D0307C7A
:101F6000012875D001203074707C012802D003E074
:101F70000120F8BD322070746765A263A387E387F0
:101F80002163A386E386A764E7640125A06A6D0345
:101F9000A84207D120680168A94301602068016850
:101FA0002943016020680168490603D40168402282
:101FB000114301600121FF20E268C90205308A4215
:101FC000616866D1002904D081420CD1E08E0128DD
:101FD00009D1206B21680088C860206B801C2063B9
:101FE000E08E401EE086E08E002843D1A06AA84221
:101FF00046D12068016801221203114301603FE0CD
:102000002068C068A16B0880A06B801CA063B0E052
:10201000002202212046069B00F044FF00287DD1CB
:10202000206B21680088C860206B801C2063E08ED4
:10203000401EE086E08E002808D1A06AA84205D1A3
:10204000206801680122120311430160002200E0B0
:10205000CCE001212046069B00F024FF00287FD120
:102060002068C068A16B0880A06B801CA063E08F13
:10207000401EE087E08E0028CAD1606800287BD12E
:10208000002201212046069B00F00CFF002867D1AA
:10209000B6E7002904D081420BD1E08E012808D197
:1020A000206B411C216321680078C860E08E401ECF
:1020B000E086E08E002845D1A06AA84205D12068BC
:1020C0000168012212031143016000220121204610
:1020D000069B00F0E7FE002842D12068C068A16B93
:1020E000087046E0002202212046069B00F0DAFE3E
:1020F000002835D1206B411C216321680078C8601D
:10210000E08E401EE086E08E00280AD1A06AA84238
:1021100007D1206802680121090300E020E00A439A
:102120000260002201212046069B00F0BBFE002831
:1021300016D12068C268A06B411CA1630270E08FB9
:10214000401EE087E08E0028CCD16068002813D1C3
:10215000002201212046069B00F0A4FE002802D0A8
:102160000320F8BD08E02068C168A06B421CA26390
:102170000170E08F401EE087A06AA8420FD10022C4
:1021800001212046069B00F08DFE002802D0606DE4
:1021900002210EE02068C068694608800888012294
:1021A00080212046069B00F07DFE002804D0606D53
:1021B000202108436065D3E701207074A06AA8421B
:1021C00011D120688168C943C9060CD4616D02220F
:1021D000114361650168A9430160206801682943D2
:1021E00001603774C4E637740020BAE70220B8E70C
:1021F00070B5040019D02421204660300646417293
:1022000020680168490849000160206800250560D0
:102210002068456020688560204600F03EF8E5664D
:102220007572B5723572002070BD012070BD70B539
:10223000040005D025466035687A002802D006E003
:10224000012070BD00202872204600F02BF82420C9
:10225000687220680168490849000160606A0028C6
:1022600002D0204602F046FB204602F0D9FB0128AE
:10227000E7D0206841680922D2029143416020687A
:1022800081682A22914381602068016801221143FC
:102290000160204602F094FB70BD10B503F034FCE1
:1022A00010BD000010B50448816B01225204114397
:1022B000816303F053FC10BD00100240FFB50646D9
:1022C00004466036707A83B00D46202858D1002D20
:1022D0000CD00598002809D00120A1680003814294
:1022E00007D12069002804D1E80702D0012007B0F7
:1022F000F0BD307A012843D0012030720020E06622
:1023000021207072FEF726FD019027464037059880
:1023100038820598788218E0788A401E788206987C
:102320000090002280212046019B02F091FC0028B1
:1023300018D10120A1680003814202D12069002840
:1023400012D02168287888626D1C788A0028E3D131
:1023500006980090002240212046019B02F078FC64
:10236000002808D00320C2E728882168C005C00DD6
:102370008862AD1CE9E72020707200203072B6E759
:102380000220B4E710B5184886B00178002929D199
:102390000121017016480024144A04640260C461DB
:1023A000032284619207846042608163C460046296
:1023B00044620222C462C263016104210463416178
:1023C0000C48416B4215114341630948FEF7EAFA94
:1023D00003200190039005206A4610210294000713
:1023E00000F036F806B010BD620000200024014065
:1023F000F40400200010024010B500F065FA044813
:102400004068804703F056FB02490020487010BD29
:10241000685D000862000020014600200A0A00D022
:102420000820084A114201D004221043064A1142F2
:1024300001D002221043054A114201D00121084374
:1024400070470000F0F00000CCCC0000AAAA000009
:1024500038B50B231B07C518114B0FD01C152D1BAE
:1024600018D02D1B19D0A542DD6A05D108242543BB
:10247000DD62DB6A234007E08024F8E7DC6A01259F
:102480002C43DC62DB6A2B40009311601146FEF79F
:1024900095FB38BDDD6A0224E9E7DD6A0424E6E73E
:1024A0000010024010B5FFF7B7FF81000248405806
:1024B000002800D0804710BD1402002070B51C46D3
:1024C00015460E460846FFF7A7FF0A49002C0DD017
:1024D00080000C50304600F049FB0446002229469B
:1024E000FEF786FC2046FEF76FFC70BD00228000E0
:1024F0000A5070BD1402002010B5D2B2FEF724FCC1
:1025000010BD000010B50F4C6078002818D1FFF7FF
:1025100039FF0D480068804700F034FA00F09AF85F
:1025200003F0D0FA0020FEF771F90120FEF76EF9F2
:102530000220FEF76BF90320FEF768F901206070B6
:1025400010BD000062000020685D000870B5410EFB
:10255000C0017D220023FDF7E1FD054600F072F881
:10256000044600E000BF00F06DF8001BA842F9D35C
:1025700070BD000070B505460C4600222048FFF7EC
:1025800009FA002229461E486668FFF7E1F9002291
:1025900021461B48FFF7FEF96068B042F1D1E878A8
:1025A000184A01465043C01C8308880726D01649A4
:1025B00068783D220646504302463C3A7000801E31
:1025C000C1408807D10F8918800F4910081AC01818
:1025D000A978401E08180D493C2248436178E12340
:1025E000514322781B015A438918A2781018081801
:1025F000074A61688002511A401870BD0549D7E743
:1026000054020020B5050000A0AA990080510100E5
:10261000FF03000050554400032070470148006844
:1026200070470000A002002000B587B0694605A8E9
:10263000FFF7A0FF0249096807B0401A00BD00007B
:10264000A002002000B587B0694605A8FFF792FFF9
:1026500007B000BD10B5084C207800280AD100F062
:102660004BF8FF2101310548FFF716F900F074F827
:102670000120207010BD00005400002054020020F2
:1026800010B50C4C0021042000F05CFA2168886829
:10269000C0040ED5C868C0050BD5C868802210409C
:1026A000FF388238C8600449900248612046FFF72D
:1026B000EFF810BD540200200004014070B504463C
:1026C000FFF7B2FF211A0B4D0220285EC01C814289
:1026D00001D9002100E00121042000F033FA00F0CC
:1026E0001DFA012802D10220285E241A204600F09B
:1026F0003FF870BD5400002010B51449144886B04E
:10270000002412C01F2101608460046111494461EA
:1027100041600838FFF76CF96946CC7501204875AF
:1027200088750875002205A90948FFF7B1FA0094D9
:10273000019404940022694605480394FFF70EFBB8
:102740000348FFF787F806B010BD000000280040DE
:1027500054020020FF03000010B5044C2046211D48
:102760001830FFF707FF206010BD0000A002002016
:10277000F0B587B0044614223F4901A8FDF7FEFCDE
:102780003D485038406E009000F07EF83B4802997A
:102790003B4A401AA105890D081887B2A10A68466C
:1027A0008078534202E08918401C80B29942FAD2E4
:1027B0006A461579E122120102E0891A6D1CADB258
:1027C0009142FAD26A46547902E0641CA4B23C39C0
:1027D0003C29FAD2927951188EB20121890203E084
:1027E0007A1A761C97B2B6B28F42F9D203E03C3E19
:1027F000641CB6B2A4B23C2EF9D203E03C3C6D1C82
:10280000A4B2ADB23C2CF9D203E0183D401CADB2ED
:1028100080B2182DF9D26946C978890769464A7885
:1028200027D01849491E515C814202D2FDF760FC55
:1028300008461249CA1B10492C394A600522520623
:102840008A618E704C700A460D7020321070684696
:10285000C079C8700020C861FF2248610132C86099
:102860004A620861024608462438FFF741F907B07A
:10287000F0BD04490C31D5E7A4020020FF0300009D
:1028800080AEFEFFFD5D000810B506480168C8680F
:1028900080221040FF388238C86051000148FEF79E
:1028A000FBFF10BD5402002010B57D2102F02FFA6D
:1028B0004906C009084310BD10B5410EC0017D2274
:1028C0000023FDF72BFC10BD70B586B014216846BF
:1028D000FDF76DFC2048FFF7D3FA2048426A8114C7
:1028E0000A434262426A8A43426205260124002565
:1028F00036076A468021304602950194FFF7A8FD0D
:10290000002280213046FFF7F7FD022002906A4640
:1029100040213046FFF79CFD002240213046FFF762
:10292000EBFD02950E4D6A4608212846FFF790FD03
:10293000002208212846FFF7DFFD0294E4036A46DF
:1029400021463046FFF784FD012221463046FFF73D
:10295000D3FD06B070BD0000BC0200200010024094
:102960000004005001B582B00020C0430090012354
:1029700001AA02A90248FFF7DFFA684680880EBD67
:10298000BC02002030B585B014216846FDF70FFC6D
:102990002E482D4901602F4A2D4B0021126803E07B
:1029A0005208491C072901D29A42F9D84A078B07D5
:1029B000D20FDB0F52011B011A43C90700D00821B7
:1029C0000024846004610A434461FF21C46005312E
:1029D00084624160012149020346183316C34462F0
:1029E0001D48416B8214114341631848FFF760FA98
:1029F000002801D0FDF7BEFF0220019002900320C5
:102A000003906A46082104941448FFF721FD052429
:102A100024076A4640212046FFF71AFD6A468021B6
:102A20002046FFF715FD01210191CD0302916A4671
:102A300029462046FFF70CFD012229462046FFF7D4
:102A40005BFD05B030BD000000300140BC0200203D
:102A5000809698004C0000200010024000040050B6
:102A600000BFFDE710B50B480168002904D000F055
:102A700014F800F02EF810BD4068002804D000F0D3
:102A800013F800F027F810BD00F006F800F020F869
:102A900010BD000064000020704710B50121002027
:102AA000FEF7C2F910BD000010B5EFF3108472B646
:102AB000FFF7A2FC0548016804221143016084F37A
:102AC000108801210846FEF7C7F910BD00700040CC
:102AD0007047704710B5EFF3108472B60E48016866
:102AE00001221143016001684907FCD501680122F8
:102AF00012061143016001688901FCD5C1680322F7
:102B00001143C160C1680907890F0329FAD1FFF792
:102B1000F9FC84F3108810BD00100240EFF310811F
:102B200072B607480268002A01D0002005E040681C
:102B3000002801D0012000E0022081F310887047B6
:102B40006400002010B5EFF3108272B6064B002926
:102B50001C6803D0012903D1044300E084431C60B6
:102B600082F3108810BD000064000020FF220132B3
:102B7000811A90420CD009DC08280DD008DC01280D
:102B800008D0022806D0042802D105E00F22120244
:102B900007207047052070470620704770470000E7
:102BA0008307FF22DB0E9A408907090E994000280F
:102BB0000BDA0007000F0838830808489B00181834
:102BC000C36993430B43C3617047830804489B0068
:102BD0001B181868904308431860704700ED00E028
:102BE00000E400E0F8B507460C481E46406B154669
:102BF0000C46804722460A4C3946A2800948FDF718
:102C0000BDFA6570A6700120207007A002F0FEFFDB
:102C10003246294607A002F0F9FFF8BD685D0008BA
:102C200058000020140300204F6E5278446F6E65E8
:102C30000A0D00005273736956616C75653D256419
:102C40002064426D2C20536E7256616C75653D2573
:102C5000640A0D0010B50548406B80470449032005
:102C6000087004A002F0D2FF10BD0000685D0008EB
:102C7000580000204F6E52784572726F720A0D0034
:102C800010B50548406B804704490220087004A035
:102C900002F0BCFF10BD0000685D00085800002075
:102CA0004F6E527854696D656F75740A0D0000009F
:102CB00010B50548406B804704490420087004A003
:102CC00002F0A4FF10BD0000685D0008580000205D
:102CD0004F6E5478446F6E650A0D000010B50548BC
:102CE000406B804704490520087004A002F08EFF65
:102CF00010BD0000685D0008580000204F6E547839
:102D000054696D656F75740A0D00000010B50220DE
:102D1000FDF7BEFD0120FDF7BBFD0320FDF7B8FD6B
:102D20000020FDF7B5FD024801F07CFD10BD00005C
:102D3000540300207047000070B517490023CA688B
:102D40001206120F18D18A6B154CD500134A02D502
:102D50001268224009E08E6B01252D072E438E63F9
:102D600012688E6B2240AE438E63A24204D10321CF
:102D70008903884200D101230A48016849084900B3
:102D8000194301600068C007C00F984201D00120BC
:102D900070BD002070BD00000010024000700040B7
:102DA000001800000020024001090A2200075143D8
:102DB000000F4018C0B27047002102E00A38C0B2CC
:102DC000491C0A28FAD20907090E0843704770B552
:102DD00004460068C168490613D40021C943C16094
:102DE000FDF7B8FF7D260546F60006E0FDF7B2FFC9
:102DF000401BB04201D9032070BD2068C068400666
:102E0000F4D5002070BD10B5FFF73AFC10BD0000EE
:102E100070B5092000F061FD0546062000F05DFD5B
:102E20000404072000F059FD00020443082000F0CC
:102E300054FD0443200A0102184A611A51438031AB
:102E40005043090A46180021092001F0BDFB3B2030
:102E500000F043FD4024204301463B2001F0B4FB39
:102E60003B2000F03AFD8006FAD40D4800F084FEC5
:102E70003B2000F032FD204301463B2001F0A4FB43
:102E80003B2000F02AFD8006FAD42946092001F0F3
:102E90009BFB304600F070FE70BD0000093D000055
:102EA00000A1BC33F8B51D4616460F460446FDF793
:102EB00051FF314626464036009000291ED043E09F
:102EC000681C1BD0002D05D0FDF744FF0099401A67
:102ED000A84213D920684168E022914341602068EC
:102EE000026840218A43026023E021680A68824325
:102EF0000A6021680A6802430A601FE0206881684E
:102F000038468843DCD124E0681C1DD0002D06D053
:102F1000FDF720FF01460098081AA84214D920683E
:102F20004268E0218A434260206801684022914360
:102F300001600120A16A40038142D6D00120707453
:102F4000002030740320F8BD20688168384688432B
:102F5000DAD00020F8BD7047014948607047000092
:102F600000000020012070470E2801D98020704702
:102F70000020704710B50348406840688047801CB7
:102F800010BD0000000000200148007970470000DB
:102F900070010020F3B5024600206D498BB0002A75
:102FA0000BD0012A7ED10024486C2546072854D036
:102FB000082855D0092858D155E06548C069FDF763
:102FC000CDFA074600910C98FDF7C8FA06900E4618
:102FD000302000F082FC4007800F02D000245D4DBD
:102FE00001E000242546272000F077FC58494007DF
:102FF000400F098C401C4018FDF7B0FA544A2032AB
:1030000009929278012A21D00022524BFDF7EAF86A
:1030100022462B46FDF7E6F83346069AFDF7E2F81E
:10302000099A1279012A14D000221346FDF7DAF822
:103030000322FDF769FA3A46009BFDF7EDF90022FD
:10304000454BFDF781F902F0E7FC7DE000221346D5
:10305000DCE7002201239B07E8E700243F4D04E062
:1030600000243F4D01E03F4D00248F6C0120B8400B
:10307000FDF760FA02460B4620462946FDF7CCF9DB
:1030800002460B4600203349FDF7C6F9304E044690
:1030900040360D46F089FDF761FA0022324BFDF70C
:1030A000A1F800E052E022462B46FDF74DF90791CA
:1030B0000890707B001DFDF751FA05910690307B5A
:1030C000002800D00220381A8000FDF747FA04904B
:1030D0000C980391C000B900401AB17C0901401856
:1030E000317C002900D01421401A1C30FDF736FA3B
:1030F000039B049AFDF790F902F09AFA059B069A51
:10310000FDF722F9002207460E461346FDF752FA54
:1031100002D23846314601E0002001460022134B1E
:10312000FDF760F822462B46FDF70EF9079B089A3B
:10313000FDF758F80022084BFDF706F90C4A0D4B35
:10314000FDF750F802F0D8FAFDF716FA0DB0F0BD11
:10315000700100200000F03F00408F408084FE405E
:1031600080840E4180841E410000114000002040F8
:103170002B8716D9CEF7EF3F05207047F8B51E4DC7
:103180001E4928601E4801F0D3FA1D481B4914301F
:1031900001F0CEFA1A481949283001F0C9FA6868D6
:1031A00001680120884700F0EBFBFFF731FE0020AB
:1031B00000F05AFD68688168284608308847114E3B
:1031C000002460002718F05D00F016FDB819817822
:1031D000407801F0F9F9641CE4B2102CF1D300201E
:1031E00000F00AFD064900206839087168684068E7
:1031F0008047801CF8BD000000000020D537000883
:10320000D8010020885C000810B586B014216846FB
:10321000FCF7CDFF0D48019000200D4C02906A464E
:1032200010212046FFF714F96A4602212046FFF7D5
:103230000FF96A4601212046FFF70AF901216A4683
:1032400049030448FFF704F906B010BD000011104F
:10325000000400500008005030B585B014216846C5
:10326000FCF7A5FF1448FFF777FE144801900320F0
:10327000134D0124039002946A4610212846FFF75B
:10328000E7F86A4602212846FFF7E2F86A4601217C
:103290002846FFF7DDF86A4661030A48FFF7D8F8C9
:1032A0000020029005206A46210301940007FFF7E1
:1032B000CFF805B030BD0000200000200000111044
:1032C000000400500008005070B50E4D044603681D
:1032D000002210212846FFF7F1F80022022128469B
:1032E0006368FFF7EBF8002201212846A368FFF787
:1032F000E5F80121002249030348E368FFF7DEF8FF
:1033000070BD00000004005000080050FFB581B0FF
:103310001D4617460E460124019800F06DFC30460C
:1033200000F02AFC052000F09FFC0120FDF7E0FAE8
:1033300001F0ECF9064606E0019800F0FFFAB84209
:1033400001DD002404E0304601F0E6F9A842F3D3A1
:1033500000F058FF204605B0F0BD0000F8B5002091
:1033600069460870924C2079012809D0022859D169
:103370002046683001F08EFA607901287ED104E1A0
:103380006079002818D001284CD14021122001F08A
:103390001BF9122000F0A1FA694608700878844DE4
:1033A0008006403500286ADA2021122001F00CF94D
:1033B000A87D002879D088E07D4D402620352879E9
:1033C000012837D13F2000F088FA69460870087854
:1033D00080072FD40B213E2001F0F6F810213F206A
:1033E00001F0F2F828465C3001F054FAA879002880
:1033F00019D00D2000F071FA304301460D2001F084
:10340000E3F82846703001F00DFA6A480068002899
:1034100003D00069002800D0804700202874687419
:10342000A0876087F8BD6248903001F033FA002031
:103430002071EAE7618F604F00290AD1A08F002830
:1034400007D1A878002831D0322000F046FA6087F2
:10345000618FA08F091AC9B2C01900F067FA608F96
:10346000A08753487C3001F015FAA879002823D0B2
:103470000D2000F032FA3043014601E089E031E0EE
:103480000D2001F0A1F84A48903001F0CBF94948ED
:1034900000680028C1D08668002EBED01222AA562D
:1034A000618F00234448B047B7E70CE04048012152
:1034B0003A3000F03BFACBE7002020713C489030D6
:1034C00001F0E8F9E3E70020207139487C3001F091
:1034D000E1F9384800680028A4D000690028A1D08C
:1034E0008047F8BD192000F0F8F9314E40B260363F
:1034F0003070010605D5C043401C0006800E4742CF
:1035000001E00006870E1A2000F0E7F92B49A268B7
:10351000002F09DA8A4203D901110818C01907E0FF
:1035200001110818C01907E08A4203D901110818CF
:103530009D3802E001110818A4386884132000F0B7
:10354000CCF93071102000F0C8F901460D2001F0CF
:103550003BF83179184800F0E9F9A87D002800D13E
:10356000207113487C3001F095F91248006800285A
:10357000B7D08468002CB4D000232222F356AA5E70
:1035800031790D48A0470EA00EE00821122001F06D
:103590001BF800202071074800680028A1D00068AF
:1035A00000289ED0804709A002F030FBF8BD000043
:1035B00070010020000000207000002040DD4A1F44
:1035C0007278446F6E650A0D000000007478446FD5
:1035D0006E650A0D0000000070B5304C2546237959
:1035E000E61F6A79698FA88FF93E2035012B11D02B
:1035F000022B28D1002A26D10A1A23469B8FE97F65
:10360000304618188A4243DD01F005F8A08FE97FA3
:1036100040183BE0002A17D0012A14D11F487C3003
:1036200001F038F98021122000F0CEFF0020207137
:103630001B480068002806D0C068002803D08047D7
:1036400018A002F0E3FA70BD002908D1002806D1C5
:10365000A87800280FD0322000F03FF96087618FF2
:10366000A08F0A1AA97F8A420BDD801900F05EF94B
:10367000A08FA97FCCE7094801213A3000F056F924
:10368000EDE7D1B2801900F051F904E0A08770BDD8
:10369000D1B200F0C0FF608FF8E700007001002099
:1036A00000000020727854696D654F75740A0D0032
:1036B00070B5294D294C294608462A794030497968
:1036C000C07C012A04D0022A01D1002902D170BD98
:1036D000002916D00129FAD10128F8D1022112209F
:1036E00000F072FF20680028F1D040690028EED079
:1036F0001C2000F0F2F8216880064969800E884796
:1037000070BD154C012620342674607C0028F7D14A
:103710002046703001F0BEF86674112000F0DDF82C
:1037200040084042A0741B2000F0D7F806021C207D
:1037300000F0D3F80643300A0102094A711A5143D6
:1037400080315043090A401868630C2000F0C5F826
:103750004009207670BD00007001002000000020AC
:10376000093D000010B51248407900281FD00128FB
:103770001DD1122000F0B1F80E4CC0070BD005216E
:10378000122000F021FF2068002810D08169002954
:103790000DD001200AE00421122000F015FF20685E
:1037A000002804D08169002901D00020884710BD7D
:1037B000700100200000002005484079002806D153
:1037C00003482030017C002901D101210174704798
:1037D00070010020F8B52E4D287901282BD0022841
:1037E00028D100F0CDF8FFF713FB002000F03CFAE1
:1037F000284E002460002718F05D00F0FDF9B8198C
:103800008178407800F0E0FE641CE4B2102CF1D323
:10381000002000F0F1F91E484030007F00F052FA1D
:10382000002028711C480068002803D04068002848
:1038300000D08047F8BD6879002816D1144E0024C6
:10384000203634747474AC876C870B213E2000F0F2
:10385000BBFE10213F2000F0B7FEB07901280AD04E
:1038600030462C71703001F015F80B4800680028C4
:10387000E0D0C068DBE70D2000F02FF840210143C5
:103880000D2000F0A1FE0248903000F0CBFFECE7E5
:1038900070010020885C00080000002070B5002541
:1038A000012000F0A9F9FF21112000F08DFE052074
:1038B00000F0DAF900240120FDF71AF82C2000F0BE
:1038C0000CF8C007C00FA040641C0543E4B2202CD4
:1038D000F1D300F097FC284670BD08B50122694677
:1038E00000F003F86846007808BDF8B504460127E3
:1038F00015460E46FF030520002239460007FEF755
:10390000FBFD6006400EFFF72DF8002405E00020C7
:10391000FFF728F83055641CE4B2AC42F7D3052019
:10392000012239460007FEF7E7FDF8BD0A4610B54B
:1039300001460020FFF7D9FF10BD000010B5002898
:1039400004D0012808D00020C04310BD1120FFF78B
:10395000C4FF4008404210BD0748084980688842BB
:1039600004D91B20FFF7B9FF9D3810BD1B20FFF7BE
:10397000B4FFA43810BD00007001002040DD4A1FD4
:1039800030B585B014216846FCF711FC0120019088
:1039900003200E4D0024039002946A46012128461C
:1039A000FEF756FD002201212846FEF7A5FD012065
:1039B000FCF79EFF6A46012128460194FEF748FD68
:1039C0000620FCF795FF05B030BD00000008005050
:1039D00073B5394C064661790020002902D00129CF
:1039E00066D128E00020A0876846334D01796187C1
:1039F0002035A878002809D0322000F0E5FD68467F
:103A00000279501E3F2806D8EA770AE0012101A872
:103A100000F001FEF3E73146284801F0F1FF2020D5
:103A2000E877E97F304600F0F6FDA08FE97F401887
:103A3000A087A06A3CE02048BE254030407D012898
:103A400021D03320FFF749FF2840411C332000F0EC
:103A5000BBFD1D213B2000F0B7FD684601791648EB
:103A600060300171222000F0AFFD00210E2000F037
:103A7000ABFD00210D2000F0A7FD0120FFF72DFF79
:103A800040070AD00EE03320FFF727FF2840014609
:103A9000332000F099FD1921DCE700F0C5FB01207F
:103AA000FCF726FF68460179304600F0B4FDA06DB2
:103AB00000F0CCFB7CBD00007001002070000020F5
:103AC00070B504460920FFF708FF0C4D032C08D001
:103AD000002028700520012202210007FEF70CFDBE
:103AE00070BDC109064802D00122022101E0012275
:103AF0000421FEF701FD0120287070BD7001002037
:103B000000080050F0B50525002703242D07194EA5
:103B100085B0002826D014216846FCF748FB0194A4
:103B20006A460221284602970394FEF791FC002280
:103B300002212846FEF7E0FC6A4602213046FEF7E5
:103B400087FC002202213046FEF7D6FC6A4604219B
:103B50003046FEF77DFC002204213046FEF7CCFC07
:103B600005B0F0BD14216846FCF721FB012001904F
:103B7000D6E700000008005070B505461048114E09
:103B8000856031462846FCF7B3FA04463046604368
:103B9000281A0002711040183146FCF7A9FA2102D8
:103BA00044182002010E062000F00EFD2004010E34
:103BB000072000F009FDE1B2082000F005FD70BD0E
:103BC00070010020093D000070B50D46044600F06C
:103BD00013F8002C04D0012C0AD12946232005E03B
:103BE00004488078002803D12946322000F0ECFCFC
:103BF00070BD00009001002010B504460120FFF7C1
:103C00006CFE0106174801D5012100E00021417139
:103C1000C9B2A14224D04471012C0FD000F0F2FAB5
:103C20000120FFF75AFE4106490E012000F0CCFCAE
:103C30000021402000F0C8FC30210EE000F0E2FA44
:103C40000120FFF74AFE80210143012000F0BCFC67
:103C50000021402000F0B8FC0021412000F0B4FC1D
:103C600010BD00007001002070B5154C050015D086
:103C70006068016801208847606801690020884702
:103C800060684169284688470120FFF726FEC10881
:103C9000C9002943012000F097FC70BD0120FFF707
:103CA0001CFEC108C900012000F08EFC606801699B
:103CB00001208847606801680020884770BD0000C7
:103CC0000000002010B504460120FFF795FF0548CD
:103CD000002C047701D0342100E01221392000F0BB
:103CE00073FC10BDB001002070B504460920FFF739
:103CF000F4FD06464D20FFF7F0FD0546E0B2FFF764
:103D000033F97106490E084370210843C1092AD0CE
:103D1000112C02DD07210D4302E0ED08ED002D1D01
:103D2000E943490703D0022C0CDA02240DE0052CEC
:103D300001DA052402E0142C00DD14240109090134
:103D4000641F05E0112C00DD112401090901A41EE6
:103D50002007000F0143092000F036FC29464D20C2
:103D600000F032FC70BD0021C9438C4201DA0C46E0
:103D700002E00E2C00DD0E2401090901641CE7E7B6
:103D8000F8B5764C064660790027002802D0012855
:103D900025D125E0714D40202035AF79FFF79DFDFD
:103DA0008107890F40200C3100F00EFC4120FFF705
:103DB00094FD3E2108400146C131412000F004FC41
:103DC0003520FFF78AFD8006800EA8771E210D2082
:103DD00000F0FAFB002028746874A08760877DE0FB
:103DE0005E4D4035687D012825D03320FFF775FDF5
:103DF000BE210840411C332000F0E6FB1D213B2082
:103E000000F0E2FB606C09287ED23120FFF765FDEF
:103E10004106490E312000F0D7FB0021302000F090
:103E2000D3FB606C030000F08AFF0910171E252CDD
:103E3000333D3D3D41003320FFF74FFD412101431C
:103E4000332000F0C1FB1921D9E748212F2000F0D1
:103E5000BBFB4349A06821E044212F2000F0B4FBC4
:103E60004049A0681AE044212F2000F0ADFB3E49F4
:103E7000A06813E044212F2000F0A6FB3B49A06876
:103E80000CE044212F2000F09FFB3949A06805E099
:103E900044212F2000F098FB3649A0684018FFF716
:103EA0006BFE03E040212F2000F08EFBE87CAF7D0D
:103EB000012835D01F21112000F086FB4020FFF79C
:103EC0000CFD8106890E402000F07EFB00210F20B2
:103ED00000F07AFB00210D2000F076FBFF2101317C
:103EE0002548FCF764F901202071002E08D01B48FA
:103EF00031467C3000F084FC18487C3000F092FCA5
:103F00006079002816D000E003E0002F21D00520C2
:103F100020E03120FFF7E1FC802101433120C3E79D
:103F20001D21112000F050FB4020FFF7D6FC33216B
:103F30000140C8E70520FFF797FE002F08D107488A
:103F4000E16A903000F05CFC0448903000F06AFCBC
:103F5000F8BD0620FFF788FEF8BD000070010020C4
:103F6000821E0000B4280000043D00005E510000E5
:103F7000127A0000C6A2000070000020FFB587B0D2
:103F800017460C460546139EFFF736FE11999848D2
:103F9000090A0691002D04D0012D7AD1022C7AD97C
:103FA000FEE7C761054644611098A861904820303B
:103FB00086701499C17015990171189941711999F8
:103FC0008171119828843846FCF7C8FA07460B46D9
:103FD00001913A4600208749FCF71EFA0322FCF7BC
:103FE00093FA049005911298FCF7B8FA059B049A8D
:103FF000FCF7AAF90022804BFCF7A6F9FCF7BCFA03
:10400000E8623A4600207D49019BFCF705FAFCF77F
:10401000B3FA85B2290A022000F0D6FAE9B20320E9
:1040200000F0D2FA2046FCF7A7FC0146122000F06F
:10403000CBFA1098FCF7A0FC0146132000F0C4FA5C
:104040002520069900F0C0FA1198C1B2262000F090
:10405000BBFA002E01D0149900E0FF21322000F0BD
:10406000B3FA3020FFF739FC6F210840002E01D051
:10407000002100E080210843159909010143302007
:1040800000F0A2FA3120FFF728FC40210143312043
:104090009FE0A0E0FFE75648E41D554D8764446467
:1040A00040350A9868731198E8812E7414986874E2
:1040B0001598A8741698E874179828751898687554
:1040C0001998A8750C2F01D90C2702E0062F00D2F1
:1040D0000627072C02D0082C02D003E00B2F45D076
:1040E0000C2F43D0002028731D20FFF7F6FB0A9900
:1040F0002001490008433043C1B21D2000F064FA9A
:104100001E20FFF7EAFB08210840390108431599F2
:104110008900084312998905890F0843C1B21E20FE
:1041200000F052FA2620FFF7D8FBF7210840297B40
:10413000C9000843C1B2262000F046FA1298C1B265
:104140001F2000F041FA2020069900F03DFA119856
:10415000C1B2212000F038FA002E03D02220149999
:1041600000F032FAE87C012802D00DE00120BAE725
:104170004420FFF7B2FB80210143442000F024FAE1
:10418000297D242000F020FA092C02D003213620BA
:1041900010E017481A498068884205D90221362064
:1041A00000F012FA642104E00221362000F00CFA3B
:1041B0007F213A2000F008FA062F0ED03120FFF7B9
:1041C0008CFBC108C9003120C91C00F0FDF90A218F
:1041D000372000F0F9F90BB0F0BD3120FFF77DFB7F
:1041E000C108C9003120491D00F0EEF90C21EFE7AC
:1041F000700100200000F03F00408F4080847E412D
:1042000040DD4A1F10B5074800F044FB054814384C
:1042100000F040FB0020FFF727FD024900207C3919
:10422000087110BDEC01002010B5074800F032FB0A
:104230000548143800F02EFB0120FFF715FD024958
:1042400000207C39087110BDEC01002010B501463A
:10425000264800F0D5FA254C683C6079002802D049
:1042600001282CD119E04020FFF737FB8107890F87
:104270004020103100F0A8F94120FFF72EFB3E212D
:104280000140412000F0A0F93520FFF726FB810610
:104290001648890E4838817711E014482838C07CC8
:1042A000012815D0F721112000F08EF94020FFF7EA
:1042B00014FB8106890E4020403100F085F9022070
:1042C00020710A4800F0AEFA0320FFF7CDFC10BDC4
:1042D000F521112000F078F94020FFF7FEFA332194
:1042E0000840014640314020E7E70000D8010020A7
:1042F000FFB581B01E460C460C9F0A9D0198FFF742
:104300007BFC76484068C168204688473A0A019994
:1043100073480092002908D0012973D1224604462F
:1043200040342270022E57D9FEE704730399466188
:10433000C56101616A49078420310D9A8A700E9A1D
:104340000A71119A4A71129981620398FCF706F971
:104350000022644BFCF760F8FCF70EF984B2210AE6
:10436000042000F031F9E1B2052000F02DF92846D3
:10437000FCF7F4F80B46024600205B49FCF74CF8CA
:10438000FCF7FAF884B2210A022000F01DF9E1B22C
:10439000032000F019F92520009900F015F9F9B271
:1043A000262000F011F93020FFF797FA6F2108401E
:1043B0000D99002901D0002100E0802108430E99C9
:1043C00009010143302000F0FFF83120FFF785FAA2
:1043D00040210143312071E0F61D466485640B994C
:1043E0006173E7810D9921740F99E174109A227518
:1043F0000E9AA274119A6275129A82650C2D02D9D6
:104400000C2503E05CE0062D00D20625072E02D025
:10441000082E02D003E00B2D06D00C2D04D0002076
:104420002073012902D00DE00120F9E74420FFF7B5
:1044300054FA80210143442000F0C6F8217D242055
:1044400000F0C2F81D20FFF748FA0B99300149002F
:1044500008430D990843C1B21D2000F0B5F81E2095
:10446000FFF73BFA0B210840290108430E99890008
:104470000843C1B21E2000F0A7F82620FFF72DFA4E
:10448000F7210840217BC9000843C1B2262000F073
:104490009BF82020009900F097F8F9B2212000F055
:1044A00093F8062D0ED03120FFF717FAC108C90086
:1044B0003120C91C00F088F80A21372000F084F868
:1044C00005B0F0BD3120FFF708FAC108C90031205E
:1044D000491D00F079F80C21EFE7000000000020F2
:1044E0007001002080844E4080847E4130B50D46AE
:1044F0007D211446C90089B04C43FFF73DFB0020E5
:104500000790069003900590019004904B200521A0
:10451000800100230291009008941A46294618460B
:10452000FFF7E6FE3120FFF7D8F9BF210140312027
:1045300000F04AF8F021402000F046F8A021412088
:1045400000F042F82146074800F05AF905490220D8
:1045500068390871034800F065F90320FFF784FB10
:1045600009B030BDD80100200121052310B5090391
:104570001B07012804D000221846FDF7BDFF10BD1F
:1045800001221846FDF7B8FF0520FCF7B1F910BD70
:1045900010B50C4C6079002812D0012810D1FA21F6
:1045A000112000F011F84020FFF797F981088900E9
:1045B000402000F009F8032020710720FFF754FB8A
:1045C00010BD00007001002013B5012201A900F008
:1045D00001F81CBDF8B50446012715460E46FF0339
:1045E0000520002239460007FDF786FF204680217E
:1045F0000843FEF7B7F9002404E0305DFEF7B2F996
:10460000641CE4B2AC42F8D305200122394600070D
:10461000FDF772FFF8BD0A4610B501460020FFF70E
:10462000D9FF10BD10B5FCF79BFB10BD10B594B0C1
:1046300014210EA8FBF7BBFD38216846FBF7B7FD38
:104640000220009001210A90039180040C90002424
:104650000001019410210D900B9404916846FCF721
:10466000CBFE002801D0FCF785F91148816B0204CC
:10467000114381630F4801680322D2029143C2149F
:10468000891801604168C943C906FBD50F200E9007
:1046900003200F9010941194012112940EA8FCF79E
:1046A0009BFD002801D0FCF765F914B010BD000097
:1046B000001002400070004010480168821511434C
:1046C0000160C1680E4A1140C16001680D4A114085
:1046D00001608168490849008160016801229204F3
:1046E00091430160C168FD2212049143C160002121
:1046F00001610549C0038860704700000010024056
:104700000C40FF88F6FFF6FE00ED00E010B5FDF767
:1047100099FFFEF7C9F810BD70B50546FDF792FF89
:1047200004462846FEF7C8F8201AFEF7BDF870BD0B
:1047300000220260426002720261C16070470000A4
:1047400010B5054A1168002901D000230B720161E0
:10475000106000F03FF810BD6C00002070B5FDF750
:104760005DFF0446FDF7F8FF031B194C2068002885
:104770002DD00146002507E016689E4202D9F61AA0
:10478000166000E0156009690A69002AF4D1002862
:104790001DD001692160C068002800D1FEE7804774
:1047A0002068002813D0FDF73FFF0146206802680B
:1047B000914205D901692160C0680028EFD1FEE768
:1047C000002804D0017A002901D100F003F870BD5F
:1047D0006C00002070B50446FDF71EFF0546012061
:1047E0002072FDF721FF21684019884201D8084650
:1047F00003E0FDF719FF40192060FDF75FFF70BD72
:1048000070B505460846FEF757F80446284600F0FE
:1048100041F8FDF701FF844200D204462C606C6031
:1048200070BD0000F8B50400EFF3108572B62CD00F
:10483000174F3868014602E0A04226D000690028E0
:10484000FAD1002660682060267200290CD0FDF79E
:10485000EBFE21680918216038680268914206D28F
:104860002046FFF76DFF10E0FDF776FFF8E70169DE
:10487000002908D022680B689A4201D90846F6E759
:104880000461216101E00461266185F31088F8BDAF
:104890006C00002070B5EFF3108572B6144C2168DF
:1048A0000A1E21D000281FD081421BD1087A002681
:1048B0000128086903D000280AD0206014E00028ED
:1048C00004D00E722060FFF785FF0DE0FDF7DCFFDE
:1048D000266009E0814203D108691061002803E0E5
:1048E0000A4609690029F5D185F3108870BD0000DA
:1048F0006C00002010B5818CC90707D001684A6898
:1049000001235B049A43836A1A434A60818C8907B6
:1049100007D501684A6801231B049A43C36A1A43F6
:104920004A60818C490707D501684A6801239B04C6
:104930009A43036B1A434A60818C090707D50168C3
:104940004A680123DB039A43436B1A434A60818C14
:10495000C90607D50268916801231B039943836B3D
:1049600019439160818C890607D501688A68012303
:104970005B039A43C36B1A438A60818C490612D544
:1049800003685A6801210905046C8A4322435A606E
:10499000026C8A4207D10268516803235B05994380
:1049A000436C19435160818C090607D501684A6838
:1049B0000123DB04806C9A4302434A6010BD00006F
:1049C000F8B500260446C666FCF7C4F9054620681B
:1049D0000068124F000709D501212B460022490526
:1049E0002046009700F034F900280DD120680068B7
:1049F00040070BD501212B46002289052046009750
:104A000000F026F9002801D00320F8BD20206034F2
:104A10006072A07226720020F8BD0000FFFFFF0147
:104A2000FEB50446016880682269E3691043626943
:104A3000102700261A4310430A683546784B1A405F
:104A400002430A6020684168032212039143E2682E
:104A500011434160734A2168A069914201D0226AE2
:104A600010438A680B231B029A4302438A606E4AF2
:104A700020686E4990420CD1C8688007800F06D02C
:104A8000012843D002283FD0032826D124E0012763
:104A900023E0674A90420AD1C8680C21084031D00F
:104AA000042833D008282FD00C2816D114E0614AEE
:104AB000904227D0604A904224D05A4A90420CD16A
:104AC000C9680320800201401CD01015091A1DD0AE
:104AD000091A19D0814200D108270220FCF7D6F923
:104AE0000190504B514922684039D81300929A42A4
:104AF00035D1002F0CD0022F0DD0042F12D0082F4B
:104B00001CD113E00027E8E70227E6E70427E4E7E3
:104B1000FCF716FC08E00868C00601D5474805E028
:104B2000474803E0FCF72CFC002873D06268510072
:104B30005118814202D81103814201D2012569E056
:104B4000010E06025008002330185941FBF7E6FA1F
:104B5000032109023B4A411A914259D9EEE7E26921
:104B600082422DD13B0000F0EAF80906080B241917
:104B70002424241F2400019812E0FCF7F1FB0FE02D
:104B800008686168C00602D548082F4A01E02F4A2C
:104B900048088018FBF7ACFA86B20BE0FCF7F0FB94
:104BA000616840004A08F4E761680122480812047D
:104BB000EFE70125310909013007400F084327E0DD
:104BC0003B0000F0BCF809070A0D061D0606062981
:104BD0000600B3E7FCF7B4FB14E0FCF7C1FB11E0FF
:104BE00008686168C00602D54A08144801E0144804
:104BF0004A081018FBF77CFA81B20098C16009E0FE
:104C0000FCF7BEFB61684A088018FBF771FA80B2B6
:104C10002168C8602846FEBD61684A08E9E70000CF
:104C2000F369FFEF004800400038014040100240A7
:104C300000440040004C00400050004000093D008E
:104C40000024F400FFFC0F0000127A000048E80185
:104C5000FFB581B017460E4604460A9D1DE0681C4C
:104C60001BD0002D05D0FCF775F80499401AA84216
:104C700013D920680168FF22A132914301602068A6
:104C80008168490849008160202060346072A07208
:104C900000202072032005B0F0BD2068C1693046B5
:104CA000884304D00020B842D9D00020F3E7012087
:104CB000F9E710B500F080FF10BD000037B51446CD
:104CC0000846064B6A46214600F010F9044669463C
:104CD000002000F0A7FC20463EBD0000255600083D
:104CE0002021020C01D010211046020A01D01046EA
:104CF0000839020901D01046091F820801D0104668
:104D0000891E420801D0881E7047081A7047F8B5FE
:104D1000040C8BB2264682B25E430D0C1046370C53
:104D20005843360480190021794116466E43370CEA
:104D300036048019794126466E438919F8BD30B48E
:104D40007446641E2578641CAB4200D21D46635D28
:104D50005B00E31830BC184702E008C8121F08C106
:104D6000002AFAD170477047002001E001C1121FEC
:104D7000002AFBD170470000F0B51FB486B0099837
:104D8000089A030D0021024314D05148514A1818C3
:104D9000504305141198012810981AD0281A401C65
:104DA00000264D4F4D49009601910490002812DADB
:104DB000444211E01198012449A3012801D110981F
:104DC000C1430698119A84600360C26041600BB0D1
:104DD000F0BD4042E4E70446210500203F4A001CA4
:104DE00051410391029012E0E00707D032463B4662
:104DF00001990098FBF7A8FA0191009032463B46D2
:104E000010461946FBF7A0FA06460F466410002C20
:104E1000EAD10498039B0028029A0999089806DAB7
:104E2000FBF792FA019B009AFBF78EFA05E0FBF77D
:104E3000F3FA019B009AFBF7EFFA04460E460022B4
:104E4000284BFBF7B7FB03D80020C043014607E01F
:104E50000022254B20463146FBF7C4F9FBF790FCB6
:104E6000102409E0002C0ADB0A220023FBF756F984
:104E7000079B30321A55641E02460A43F2D11122B2
:104E8000641C079B121B1C19119B012B03D00123CF
:104E900008430ED10AE0084304D0112010900020EE
:104EA000119077E71098151A6D1E0BE0109882424A
:104EB00002DD00236D1C03E0824201DA00236D1E37
:104EC000002BEED0069811998260C16030C07EE759
:104ED00001FCFFFF104D0000000014400000F03FF7
:104EE000300000000000F0430000E03FFFB597B045
:104EF0000646002518E2252877D100242746FD49DB
:104F0000049400E00443761C32780120203A90405B
:104F10000842F7D130782A280ED002223078014694
:104F20003039092916D804990A23594330394018D1
:104F30001443761C0490F1E7189802C80491189065
:104F4000002904DA0120400304434842049002206F
:104F50000443761C30782E2814D104200443707842
:104F6000761C2A2809D11898761C80C8189009E068
:104F70000A214F43303FC719761C3078014630393B
:104F80000929F5D930786C2810D006DC4C281AD0C5
:104F900068280ED06A2817D104E0742813D07A2824
:104FA00012D110E00120400504430CE00121090565
:104FB00001E0032109050C437178814203D10120EE
:104FC00000052418761C761C3078119066280BD0CA
:104FD00013DC58287DD009DC00287BD04528F6D08A
:104FE0004628F4D047281AD1A5E118E0632835D027
:104FF000642870D0652812D19DE170286CD008DC3F
:105000006728F1D069287BD06E280DD06F2806D193
:10501000BAE073282ED0752871D0782859D01A9A02
:10502000199990476D1C7EE16002400F022809D05B
:1050300003280DD00428189801680DD00D60001DBC
:10504000189070E11898EA1701680D604A60F6E759
:10505000189801680D80F2E70D70F0E718986A461D
:1050600001781172001D18900020507202A8009063
:10507000012005E0189802C8189000200091C04354
:1050800061070DD5002101E00199491C0191B94248
:1050900012DA8142F8DB009A515C0029F4D10BE06E
:1050A000002101E00199491C01918142FADB019A3A
:1050B0000099895C0029F5D1019904981A9B471A37
:1050C00021463846199A00F097FA01994019451877
:1050D0000BE04FE02CE113E04EE0009800990078DF
:1050E000491C00911A9A199990470198401E019005
:1050F000401CF2D1214638461A9B199A10E137E03C
:105100000A200021009001916002410F022907D07E
:10511000189A01CA1892C2179446032908D00AE0C7
:105120001898C01DC108C90005C91891944607E028
:1051300000B2C2179446042902D140B2C1178C466E
:1051400000226146944506DA0A4600214042914118
:105150008C462D2102E0210504D52B216A461173CE
:10516000012103E0E10701D02021F7E7029155E09A
:105170000A200AE0102008E01020009000210420FE
:1051800004430191082703E00820002101910090C9
:105190006002410F022907D0189A01CA1892002212
:1051A0009446032908D008E01898C01DC108C9001A
:1051B00005C91891944603E080B2042900D1C0B219
:1051C00000210291210729D51199702906D0009A52
:1051D0001021019B4A401A4305D00EE040216A4647
:1051E0001173012108E06146014306D030216A466F
:1051F00011731199517302210291009A0821019BA8
:105200004A401A430AD16146014301D1610705D5DD
:1052100030216A46117301217F1E0291119958298C
:1052200004D035A10E910DA90D910DE037A1F9E73C
:105230006146019B009AFAF771FF0E9B8C469B5CBE
:105240000D9A521E0D92137061460143F0D10D98D4
:1052500005A9081A20300190600703D50120000439
:10526000844300E001270198874201DD381A00E0FD
:105270000020019900904118029809180498401ADA
:105280000490E00306D421461A9B199A049800F072
:10529000B3F94519002706E003A81A9AC05D1999C9
:1052A00090476D1C7F1C02988742F5DBE0030CD50C
:1052B00021461A9B199A049800F09EF9451904E0BA
:1052C0001A9A3020199990476D1C0099481E009039
:1052D0000029F5DC08E00D980D990078491C0D9126
:1052E0001A9A199990476D1C0199481E019000293E
:1052F000F1DC63E1092801003031323334353637CF
:105300003839616263646566000000003031323311
:1053100034353637383941424344454600000000B1
:1053200000F05AF94519761C3078002800D0E2E5E3
:1053300028461BB0F0BD600700D406271898C01D92
:10534000C108C90048680A680831C30FDB07189113
:10535000190001D09CA108E0210501D59BA104E022
:10536000E10701D09AA100E09AA1430011985B08DF
:10537000109165280CD006DC452809D046281DD0A0
:10538000472841D141E0662818D067283CD13CE04D
:105390000021112F01DB112000E0781C0191009009
:1053A00008A911A8FFF7E8FC139905910021119AAB
:1053B00015927F1C12980197009150E00120C007C0
:1053C00003900120019008A9009711A8FFF7D4FCD1
:1053D000139A149905920022119B0092129815932A
:1053E000059A0192002901D0104602E0791C40186C
:1053F0000190381A01D5019804E04042401E009007
:10540000781C0190C01B029043E0012F00DA0127B5
:105410000021112F01DD112000E03846019100909C
:1054200008A911A8FFF7A8FC13990591119A00216A
:10543000129815920091019721070CD40599B94251
:1054400001DB019900E00191012904DD159A491E53
:10545000515C302906D0B84201DA011D05DA01217C
:10546000029115E00199491EEDE7002805DC00993D
:10547000411800910199091A03E0019A411C9142D7
:1054800000DD01910099401A401C02900120C007E4
:105490000390200706D402990198814202DB002084
:1054A000C043029000206946C87707AF01210398E6
:1054B0000337C907884224D0022011902B20129074
:1054C000039800280CDA404203902D20129007E048
:1054D0000A210398FAF70CFE30317F1E03903970D1
:1054E0001199481E11900029F2DC03980028EFD191
:1054F000791E129808703078202108404530BF1E70
:10550000387006A8C01BC01D0390109800780028B2
:1055100000D00120019941180298C017091803987A
:1055200009180498401A401E0490E00306D421464E
:105530001A9B199A049800F05FF8451910980078A2
:10554000002803D01A9A199990476D1CE00324D5BE
:1055500021461A9B199A049800F04EF845191CE050
:105560000098002807DB00990598884203DD15980C
:10557000405C199901E0199930201A9A90470098D7
:105580006D1C401C00900298401E0290002804D11F
:105590001A9A2E20199990476D1C0199481E019066
:1055A0000029DDDC05E038781A9A7F1C19999047AC
:1055B0006D1C0399481E03900029F4DC21461A9BB8
:1055C000199A0498ACE600002D0000002B000000A2
:1055D0002000000000000000F8B5044600251E462B
:1055E0001746880404D405E039462020B0476D1CD6
:1055F000641EF9D52846F8BDFFB50446002581B0E4
:105600001E46C80301D5302700E02027880404D5B2
:1056100005E038460399B0476D1C641EF9D528464D
:1056200005B0F0BD0A68531C0B6010707047000095
:10563000F8B54A002B4B520DD6182B4A0C4605469E
:10564000142E2BDA002E12DA284BFAF7CBFD0022AB
:105650001346FAF7AFFF40D2002C03DA0124E40727
:1056600000253AE02046284337D0214C14E0214F52
:105670000B46F7403B402B4331D01C4BFAF7B2FDB1
:1056800000221346FAF796FF27D2002C03DD0120F3
:105690000005F0400419BC4300251EE0332E1EDC3B
:1056A00033460027143BFF43DF40384217D00F4BEF
:1056B000FAF742FE00221346FAF77CFF0DD2002CC7
:1056C0000ADD142E0CD03420811B012088404019A3
:1056D000A84200D2641C0546BD4321462846F8BDB9
:1056E000641CF9E701FCFFFF9C7500883CE4377EF1
:1056F0000000F03FFFFF0F00F8B54A002B4B520DA2
:10570000D6182B4A0C460546142E2BDA002E12DA38
:10571000284BFAF767FD00221346FAF74BFF40D2F9
:10572000002C02DB002425463BE0600040082843B3
:1057300037D0214C14E0214F0B46F7403B402B4320
:1057400031D01C4BFAF74EFD00221346FAF732FF18
:1057500027D2002C03DA01200005F0400419BC43D5
:1057600000251EE0332E1EDC33460027143BFF438A
:10577000DF40384217D00F4BFAF7DEFD0022134608
:10578000FAF718FF0DD2002C0ADA142E0CD03420B0
:10579000811B012088404019A84200D2641C0546A4
:1057A000BD4321462846F8BD641CF9E701FCFFFF14
:1057B0009C7500883CE4377E0000F0BFFFFF0F00BF
:1057C0008CB001200A90FBF7D3FAFEF72FFFFBF70E
:1057D0006DF8FCF797FE78497848FEF7A9FFC821D5
:1057E0007648FFF70DF87548FFF71CF873487449C1
:1057F0001430016073498160734941607349C1602D
:105800007349744D0161A96888476969724888477E
:1058100000247248069401260890059407940820F5
:1058200002A9019651C1072000906F6A23462246C3
:105830000E213046B84707940520029008200694B0
:10584000089409960596039404940094019001230A
:1058500007222E6A00211846B0477D20E96BC00060
:105860008847564F5E4E403F30780300FFF767FA97
:105870000679047E7E9B9B790A980028B08839D0EF
:1058800000286DD04D48042256494038FAF79AFC5A
:1058900000280BD0534949480422491F4038FAF7E1
:1058A00091FC002800D001200A907CE04348FEF7DC
:1058B000F1FF0220FAF7DCFF0020FAF7D9FF012000
:1058C000FAF7D6FF0320FAF7E3FF5020387049209B
:1058D00078704E20B8704720F8700420B28803E03A
:1058E000011F3954401CC0B29042F9D33EA000F0D1
:1058F0008DF94FE0002833D03A4930480422491F3F
:105900004038FAF75FFC0028CDD12C48FEF7C2FFE3
:105910000120FAF7ADFF0320FAF7AAFF0020FAF7FB
:10592000A7FF0220FAF7B4FF502038704F2078709C
:105930004E20B8704720F8700420B28803E0011FA1
:105940003954401CC0B29042F9D30120FAF7D0FF7D
:105950001A482A6B31794038904726A000F056F952
:10596000347072B63078002822D023E00A980028DC
:1059700019D050203870492078704E20B8704720D8
:10598000F8700420B28803E0011F3954401CC0B2F3
:105990009042F9D30120FAF7ABFF08482A6B31791E
:1059A00040389047DCE77D20E96BC0008847D7E7A7
:1059B000FDF758F862B657E70D2D00085403002094
:1059C000B12C0008E52B0008DD2C0008812C000814
:1059D000552C0008685D000800A1BC33C0C62D002E
:1059E000580000201A5E00082E2E2E50494E470AFD
:1059F0000D0000002E2E2E504F4E470A0D000000C5
:105A000003E00B780370401C491C1346521E92B2EF
:105A1000002BF6D170470000F0B513B4064601998B
:105A2000FAF770FE04460D4602460B4630460199D1
:105A3000FAF77CFC064601981B4B0F4600280CDA4F
:105A400000223046FAF7BCFE0CD90022174B304634
:105A50003946FAF7AFFD1DD214E000223046FAF7BE
:105A6000AFFE08D20022124B20462946FAF75EFC10
:105A700004460D460EE000220C4B30463946FAF73C
:105A800099FD07D800220A4B20462946FAF7AAFBBF
:105A900004460D46019A69004908D20FD2072046F4
:105AA000114303B0F0BD00000000E0BF0000E03F84
:105AB0000000F03F10B50248FCF79AFB10BD000053
:105AC0008404002010B50F480D490160E12149020E
:105AD000416000218160C160016181610C214161EF
