:020000040800F2
:1000000040090020D5000008012B0008C529000880
:1000100000000000000000000000000000000000E0
:100020000000000000000000000000000D2E00088D
:100030000000000000000000812C000817420008AA
:10004000E7000008E7000008532D0008E70000085B
:10005000E700000859080008690800087908000846
:10006000E7000008E7000008E7000008E7000008D4
:10007000E7000008E7000008E7000008E7000008C4
:10008000E7000008E7000008E700000800000000A3
:10009000E7000008E7000008E7000008E7000008A4
:1000A000E7000008E7000008E7000008E700000894
:1000B000A7480008E7000008E7000008E70000087C
:1000C0000348854600F090FB00480047B553000800
:1000D000400900200448804704480047FEE7FEE747
:1000E000FEE7FEE7FEE7FEE7AD420008C1000008BC
:1000F00030B50B46014600202022012409E00D46C0
:10010000D5409D4205D31D469540491B2546954047
:1001100040191546521E002DF1DC30BDF0B51FB45C
:100120000646002082B005464024019100901BE065
:10013000019922460F46304600F060FA049A059B6A
:10014000801A994110D310461946224600F046FA0B
:10015000361A8F410197224601200021009F00F0AE
:100160003DFA38184D4100902046641E0028DFDC1F
:10017000019B00982946324607B0F0BD03460B4369
:100180009B0703D009E008C9121F08C0042AFAD24D
:1001900003E00B780370401C491C521EF9D27047D3
:1001A000D2B201E00270401C491EFBD2704700220F
:1001B000F6E710B513460A4604461946FFF7F0FF66
:1001C000204610BD30B505460020034600E05B1C0C
:1001D000934205D2EC5CC85C201A01D1002CF6D108
:1001E00030BD0000F0B507460846584087B0C00F44
:1001F000049048000E46590040084908BC1A88413E
:1002000005D2384631461E4617460B460246580070
:10021000400810434CD0300D039040055900400D6C
:10022000490D0590401A0290402872DA1803012106
:10023000000B09050843019004980092002805D09E
:100240000199524200208841009201900298402179
:100250000A1A0199009800F0C1F905460C466B4650
:1002600007CB00F0DCF9C0197141039A0E0D002391
:10027000D71756401A467A40164344D0049A002AAB
:100280002DD0029A012A039A15DC1205C01A914159
:1002900001263605001C7141D20F059ED20700933E
:1002A000019202962A46234600F0D9F907B0F0BD24
:1002B00038463146FAE71605224A0F46B218C01AE8
:1002C000B74101210905001C4F4100187F4111462B
:1002D00018187941E20F10436D19644113E0E207E9
:1002E0006D0815436408C2071443039A01261205DA
:1002F000C01A91413605001C7141CE0740083043B9
:100300004908C01851412A46234600F09BF9CDE721
:10031000FFE7049801224000C117121A00238B4105
:1003200004983146C417381AA141EEE730B40124CD
:10033000E407634030BC55E730B40124E407614072
:1003400030BC4FE70000E0FFF0B51FB488B00B9958
:100350000998002448400999C00F490049080991AB
:10036000C0070B990090490049080B91099908981A
:10037000A64608431CD00B990A98084318D0099840
:1003800001244000420D4800410D09982405000356
:10039000000B204309900B980003000B20430B90A7
:1003A00050181C494018002201901446104605E0E0
:1003B000002001460DB0F0BD032801DA034600E03D
:1003C00003239C46C11A0AAE0AE05F0008ADED5B4C
:1003D0004F00F75B7D430027AA187C41491C5B1E38
:1003E0006145F2DD410004AB5A522104120C0A436C
:1003F000240C401C0828DFDB01980290009970460D
:1004000001910090059B049A0799069800F027F93E
:10041000D0E700000DFCFFFFF0B50C465C4085B056
:10042000E40FE40703944C00002664085900944646
:10043000490802460296224321D062460A431ED052
:100440006200570D4A000E032303550D0124024696
:100450002C492405781B1B0B360B401823432643DD
:10046000614600901C46501AB44103D30098401CCA
:10047000009002E0921800985B41002803DA002007
:10048000014605B0F0BD002001210905074686465A
:1004900011E064461D46141BB54106D36546521B48
:1004A000B341744607430C43A646CD0740084908AC
:1004B000284392185B4105460D43EAD11046184384
:1004C00013D06046194650407140084306D060463C
:1004D000101AB34106D20122002306E000220123B4
:1004E000DB0702E00122D243531000987446010555
:1004F000381C6141029C039D0019694100F0A2F87B
:10050000BFE70000FD03000070B54B005B0803432C
:100510000BD04B005C0D002633466542B341D41727
:10052000AD1AA34102DB0020014670BD1205301850
:10053000514170BD0EB5C217C10F5040CA074018D7
:100540000021054B0293019200910A460B4600F0F0
:1005500086F803B000BD0000330400000EB5054965
:100560000291002100910A460B46019100F077F8B4
:1005700003B000BD330400004A0009030123090B46
:100580001B051943094B10B5520D9A4201DA0020A0
:1005900010BD064B34339A4203DC9A1A00F02EF851
:1005A00010BD03495118884010BD0000FF03000032
:1005B000CDFBFFFF10B5002904DB0124E407404216
:1005C0008C412146002B04DB1C460123DB075242F1
:1005D000A341994200D1904210BD000010B5202ADD
:1005E00004DB0146203A9140002010BD91402023B9
:1005F0009C1A0346E3401943904010BD10B5202AD1
:1006000004DB0846203AD040002110BD0B46D34001
:10061000D0402024A21A91400843194610BD10B5BD
:10062000202A06DBCB170846203A1041C1170B439E
:1006300006E00B461341D0402024A21A9140084303
:10064000194610BD10B5002B08DA0024401C61418A
:1006500092185B411A4301D14008400010BDF0B52B
:100660001FB482B005460C0003D0084604F032F9EE
:1006700002E004F02FF9203002460090214628467F
:10068000FFF7ACFF049B059A04460F46184311433D
:10069000084314D0184610431BD0009840210A1A72
:1006A00018460599FFF7AAFF05460E46009A0599D8
:1006B0000498FFF793FF084305D0012004E020468B
:1006C000394607B0F0BD0020C11705430E432C4347
:1006D000374300990E986305401A7905E40A002211
:1006E0000C43FD0A0A3002D500200146E9E7010566
:1006F000101969410C9C0D9D00196941FFF7A2FF7B
:10070000DFE70000F8B50546480040080C462843DE
:1007100004D06000184A400D904201DD2846F8BD23
:1007200015493539884210DC88420BDB290D20033E
:1007300008432903014305D0E00F1049C0074118C1
:100740000020F8BD00200146F8BD161A4020821B8B
:1007500028462146FFF742FF0746009128462146DA
:100760003246FFF74BFF3A46009BFFF76BFF3246DE
:10077000FFF734FFF8BD0000330400000000F03F35
:100780004A0009030123090B1B0519430A4B10B545
:10079000520D9A4202DA0020014610BD064B343356
:1007A0009A4203DC9A1AFFF729FF10BD034BD218B7
:1007B000FFF714FF10BD0000FF030000CDFBFFFF9B
:1007C00010B5002904DB0124E40740428C41214696
:1007D000002B04DB1C460123DB075242A3418B4262
:1007E00000D1824210BD0000064C0125064E05E0F6
:1007F000E36807CC2B430C3C98471034B442F7D342
:10080000FFF762FCDC590008FC59000830B585B0E0
:100810000320019000200290032040030090052057
:100820006946000700F07AF9084C606B0125AD05B8
:100830002843606300F04AF900F058F900F04EF9DF
:10084000606BA843606305B030BD0000001002403B
:1008500010B501F02FFE10BD10B5012000F052F9C7
:10086000022000F04FF910BD10B5042000F04AF945
:10087000082000F047F910BD10B5102000F042F933
:10088000202000F03FF9402000F03CF9802000F0EB
:1008900039F9FF20013000F035F90120400200F065
:1008A00031F90120800200F02DF90120C00200F092
:1008B00029F90120000300F025F90120400300F090
:1008C00021F90120800300F01DF90120C00300F090
:1008D00019F910BDFEE7000010B5094A0021CB0050
:1008E000D458844207D89B189B68834203D9C80018
:1008F0008018007910BD491CC9B21529EFD3FEE755
:100900008058000870B5040006D0A06D264600256A
:100910004036002802D006E0012070BDE56535753F
:10092000204600F0D1F8A06DC00603D42168886885
:10093000400705D5A06D10210843A0653575EBE78C
:10094000A06DFF220132904302221043A065886807
:100950008207920F5A48012A02D10A68D2072BD186
:10096000032362689B079A4205D05B429A4202D0F9
:100970005B009A4209D10A69920092080A612168D3
:100980000A6963681A430A610CE00A6992009208D6
:100990000A6181680F2292049143816081686268D4
:1009A000114381602168CA6818239A43CA6021688C
:1009B000CA68A3681A43CA6081680122520691433B
:1009C00081608168228F52061143816020688168AE
:1009D000C90004D481680122120711438160206894
:1009E000C168384A1140C1602169E068022923D0FA
:1009F00000210843216A226B490352001143084336
:100A0000616B0843A16989030843E169C90308438D
:100A10002168CA681043C860A06A0146FF39C2391C
:100A200005D0E16A08432168CA681043C860606A5B
:100A30000121012802D00BE00421DAE7206A002816
:100A400023D0A06D20221043A065E06D0843E0652F
:100A5000206C012820681FD00169C90703D00169F3
:100A600049084900016120684169C908C90041611C
:100A700020684169E26B11434161E565A06D800822
:100A80008000401CA065002070BD2068C268012362
:100A90001B041A43C260DBE70269FF239B009A43F1
:100AA000026120680269636CE66C1A43A36C3343ED
:100AB0001A430261206802690A430261D3E7000019
:100AC000002701401902FEFF7047000002484168FC
:100AD0004908490041607047005801400248416898
:100AE0000422914341607047005801400248416828
:100AF00002229143416070470058014010B501F057
:100B000091FC10BD10B504494A69024202D0486107
:100B1000FFF7F4FF10BD000000040140F8B500230A
:100B20000124A7E027469F403A4070D04D68022D2F
:100B300001D0122D14D1DD08AD002D1800952D6ABD
:100B40005E07AC46F50E0F26AE46AE406546B54391
:100B5000AC460E697546AE4065462E43009D2E623A
:100B60004D68012D05D0022D03D0112D01D0122D7D
:100B700016D185680326AC465D00AE46AE4065469C
:100B8000B543AC46CE687546AE4065462E4386609A
:100B900046680D79BE43ED06ED0F9D403543456037
:100BA00006685F000325BD40AE46AE430D79B446EE
:100BB000AE07B60FBE4065462E430660C668754652
:100BC000AE438D68BD403543C5604D68ED0050D5DE
:100BD0002B4D6E6B26436E639E082A4DB600751929
:100BE000AC46AD689E07360F0F27B740BD430527BB
:100BF0003F07B84201D100271AE0234FB84201D184
:100C0000012715E0214FB84202D1022710E030E061
:100C10001F4FB84201D103270AE01E4FB84201D14D
:100C2000042705E01C4FB84201D1052700E0062744
:100C3000B7402F436546AF60184D2E684F68964306
:100C4000FF0300D516432E606E684F689643BF03BE
:100C500000D516436E60AE684F689643FF0200D51C
:100C60001643AE60EE684F689643BF0200D5164348
:100C7000EE605B1C0A681546DD4000D052E7F8BD07
:100C80000010024000000140000400500008005025
:100C9000000C005000100050001C005000040140E7
:100CA000002A01D081617047816270470148006865
:100CB000704700003C00002002480168491C0160A8
:100CC000704700003C00002010B506480168022271
:100CD00011430160032000F007F800F007F800203E
:100CE00010BD0000002002400020704710B500F049
:100CF0003FF800F035F8044801680822114301600C
:100D000000F026F810BD000000200240C106C90E08
:100D100001208840014908607047000080E200E03F
:100D2000C106C90E012088400149086070470000D3
:100D300000E100E0C106C90E0120884001490860B9
:100D40007047000000E200E010B501F0DBFE10BDCE
:100D500002480168021511430160704700700040AD
:100D6000024801684215114301607047007000405D
:100D700002480168102291430160704700700040F2
:100D8000094B1A689208920002431A6007480269E8
:100D900004239A430261012903D040BF20BF20BF32
:100DA000704730BF704700000070004000ED00E069
:100DB0000A4B1A689208920002431A6008480369B5
:100DC000042213430361012906D040BF20BF20BF86
:100DD000016991430161704730BFF9E7007000403D
:100DE00000ED00E0F8B5684C074601210020C9037A
:100DF000644E654A4034102F73D011DC012F75D03A
:100E0000022F70D0042F6FD0082F21D1E168032367
:100E10001B03194069D0BC026310A1427AD09EE046
:100E200003255A4B2D04202F08D0402F32D0FF3FEE
:100E30007F1E6BD007263602B74209D12669246986
:100E400001272C403F04BC4203D1B2055AE00846BA
:100E5000F8BD012149048C4203D1B107F8D54C48B3
:100E6000F8BDAC42FCD111688903F9D510680321A3
:100E70000905084001210905401A09D0401A05D08A
:100E8000884201D14348F8BD1846F8BD4248F8BD34
:100E90004248F8BDE1680124A406214006D0A142E1
:100EA000F7D191688907F4D53D48F8BD11688901EB
:100EB000FBD5D068D16880023A4C000F245C080250
:100EC000810FD068491CC00306D41068C00601D544
:100ED000184602E0304600E033486043FFF708F967
:100EE000F8BD3FE002E01DE02AE026E0E3689B0752
:100EF0009B0F0CD0022B0DD0012B10D0032BEFD168
:100F000022699205002AA2DBEAE703E02EE000F066
:100F1000E7F9E5E711684907E2D53046E0E700F078
:100F2000EFF9DDE7E3680C252B4006D0082BF1D064
:100F3000042BF4D00C2BE3D0D2E700F0C1F9CFE7BB
:100F4000E3680325AD022B40F7D00127FF02BB4227
:100F5000E0D07A109342E2D0AB42D1D0C0E79942C0
:100F6000DDD0BDE7916B4902E7D4B9E7E1682940DC
:100F7000E3D001235B049942CCD05A109142CED0E9
:100F8000AEE700000024F4000010024000093D001C
:100F90008890000020A1070040420F0080841E00BE
:100FA000006CDC02A859000800127A00F8B504466B
:100FB0000068664D810601D400057DD5634E00278B
:100FC000403EB06BC00004D4B06B31040843B06342
:100FD00001275F480168C90511D4016882151143D2
:100FE0000160FFF763FE009005E0FFF75FFE0099E8
:100FF000401A642844D856480068C005F5D53168C1
:1010000003200005626801401040884205D1032397
:10101000A0681B051840884208D09003800F032861
:1010200004D13068800301D50120F8BD286903216F
:101030000904084029D00A40824202D02278920650
:1010400006D4A2680A4082421FD0208800051CD521
:1010500028692A6988430121C9040A432A612A6947
:101060008A432A612861C0050FD5FFF71FFE009053
:1010700008E0FFF71BFE0099411A3648814201D96A
:101080000320F8BD28698005F3D561688803800FC7
:10109000032805D132680005824301400A433260CB
:1010A0002869032261681204114008432861002F57
:1010B00006D0B06B012100E002E009078843B0636D
:1010C0002078C00705D0E868E16880088000084300
:1010D000E8602078800705D5E8680C2188432169FD
:1010E0000843E8602078400706D5E86803218902B4
:1010F000884361690843E8602078000706D5E868FE
:10110000032109038843A1690843E8602088C005DA
:1011100006D5E868032109048843E1690843E860CB
:101120002078400606D5E868012189068843616A6F
:101130000843E8602078000606D5E86803218904A2
:101140008843216A0843E8600020F8BD401002404F
:101150000070004088130000F8B5054653480E465D
:101160000068C007C00FB0420AD250480168490861
:101170004900314301600068C007C00FB0426FD121
:1011800028784B4C800705D5E068F0218843A96892
:101190000843E0602878C00752D06868022817D05A
:1011A000032818D02168012818D08905002957DAAA
:1011B000E168890889000143E160FFF777FD69680C
:1011C0000746022912D003291CD0012926D033E07A
:1011D00021688903EAE721688901E7E74907E5E72C
:1011E000FFF764FDC11B3348814223D8E068000744
:1011F000800F0228F4D123E0FFF758FDC11B2D48D2
:10120000814217D8E0680007800F0328F4D117E067
:10121000FFF74CFDC11B274881420BD8E06800074F
:10122000800F0128F4D10BE0FFF740FDC11B2148DE
:10123000814201D90320F8BDE0680007800FF3D197
:101240001A480168C907C90FB1420BD9016849089A
:101250004900314301600068C007C00FB04201D0AF
:101260000120F8BD2878400706D5E068072109026B
:101270008843E9680843E0602878000707D5E068FC
:101280000721C90288432969C9000843E06000F0CA
:1012900037F8E168084A0906090F515CC840074958
:1012A00008600320FFF720FD0020F8BD0020024069
:1012B00000100240881300009859000838000020F0
:1012C000044805490068C968044A4905490F515C4A
:1012D000C84070473800002000100240B159000893
:1012E000044805490068C968044A8904490F515CEB
:1012F000C84070473800002000100240B159000873
:1013000010B5184AD1680C20084004280BD00828D2
:1013100010D00C2810D050680004410F0120C003E9
:10132000491C884010BD1068C00601D50E4810BD8C
:101330000E4810BD0E4810BD88020E4B000F185C01
:101340000902D368890F491CDB0301D5084A05E06F
:101350001268D20601D5044A00E0044A5043FEF761
:10136000C7FE10BD0010024000093D000024F4003B
:1013700000127A00A8590008F8B504460078FF4D1D
:10138000C0074CD0E8680007800F022807D0E86843
:101390000007800F032809D1E868C00306D5286834
:1013A00080033CD56068002875D038E00120626871
:1013B0000004824203D129680143296011E005231A
:1013C00001211B0489049A422A6802D10A432A6037
:1013D000F1E782432A602A68024000922868884325
:1013E0002860606800280DD0FFF760FC0646E44FD7
:1013F00004E0FFF75BFC801BB8427DD828688003BF
:10140000F7D50CE0FFF752FC0646DD4F04E0FFF78E
:101410004DFC801BB842F0D828688003F7D42078B0
:10142000800741D5E8681F270007800F3F02012889
:1014300007D0E8680007800F032809D1E868C003D7
:1014400006D42868400717D5E068012823D113E0A7
:10145000E068002817D029680922914301432960D8
:10146000FFF724FC064604E0FFF720FC801B02285F
:10147000C3D828684007F7D568682169B8430902CE
:101480000843686010E02868400840002860FFF7C3
:101490000DFC064605E090E0FFF708FC801B0228E3
:1014A000ABD828684007F7D42078C00676D5E8681E
:1014B000B44E0007800F0BD0E06900285DD028688B
:1014C000FF21013108432860FFF7F0FB074644E0A5
:1014D0002868800502D5E06900286ED0606A6968D6
:1014E0003140884212D901F0CDFB0028AED16868A6
:1014F000616AB043084300E0E4E068606868218CFA
:101500000002000A0906084368600FE06968B143F9
:10151000014369606868218C0002000A09060843DB
:101520006860606A01F0AEFB00288FD1606A410BF1
:101530000120C003491C8840E968934A0906090F45
:10154000515CC840914908600320FFF7CDFB25E0BE
:10155000FFF7ACFBC01B02288AD828688005F7D5A6
:101560006868616AB043084368606868218C00025B
:10157000000A09060843686010E02968FF2001306E
:1015800081432960FFF792FB064604E0FFF78EFBDC
:10159000801B022884D828688005F7D420787C4EE8
:1015A000000723D560690028306910D00121084365
:1015B0003061FFF77BFB074605E009E1FFF776FBAB
:1015C000C01B02287ED830698007F7D50EE040089E
:1015D00040003061FFF76AFB074604E0FFF766FB57
:1015E000C01B02286ED830698007F7D420784007E6
:1015F00061D5A86B0027C00005D4A86B012109079D
:101600000843A863012763480168C90511D401682C
:10161000821511430160FFF749FB009005E0FFF7D9
:1016200045FB0099401A64284CD85A480068C00508
:10163000F5D5FF20A2680130824203D13169014310
:10164000316111E001218902002A07D005231B0224
:101650009A4203D132690A433261EFE73269824329
:101660003261306988433061A06800280ED0FFF7EE
:101670001DFB009006E0FFF719FB0099411A404856
:1016800081421FD830698005F5D50DE0FFF70EFBCC
:10169000009006E0FFF70AFB0099411A38488142A2
:1016A00010D830698005F5D4002F04D0A96B012033
:1016B00000078143A9632078800630D53649A069A8
:1016C0004A1400E07DE0002816D0AB6801200343F7
:1016D000AB606B6B03436B63086A10430862FFF7F0
:1016E000E5FA064604E0FFF7E1FA801B022868D815
:1016F000A8688007F7D512E0A86840084000A860F5
:10170000086A90430862FFF7D1FA064604E0FFF743
:10171000CDFA801B022854D8A8688007F7D4A06AA5
:10172000002853D0E9680907890F032950D0012602
:1017300036060228286805D0B0432860FFF7B6FABD
:10174000044640E0B0432860FFF7B0FA074604E0E3
:10175000FFF7ACFAC01B022833D828688001F7D401
:10176000216BE06AEA680843616BFD231B049A431E
:1017700011430843E860286830430FE0001002403E
:101780008813000000E0000098590008380000208D
:101790004010024000700040000001402860FFF748
:1017A00085FA044604E0FFF781FA001B022808D8F6
:1017B00028688001F7D509E0FFF778FA001B0228B6
:1017C00001D90320F8BD28688001F5D40020F8BDB8
:1017D0000120F8BD30B5014620310A78012A15D024
:1017E00001220A7002234B700468CA2363620468F2
:1017F0005323636203689C6820252C439C60006827
:10180000FF2343624A700020087030BD022030BDC3
:1018100010B502F09DFD10BDF8B505460446203513
:10182000287801281DD001202870022068702268C5
:10183000CA205062226853205062FF2001300026E7
:10184000FF2781421CD121688A6882438A60206810
:1018500081680122120391438160FFF727FA00900B
:1018600009E00220F8BDFFF721FA0099411A7D2016
:10187000C00081421BD82068C068C007F3D020E0B8
:10188000206881680122520291438160206881684A
:10189000120191438160FFF709FA00900DE0FFF714
:1018A00005FA0099411A7D20C000814205D92068BF
:1018B0004762032068702E70F8BD2068C0688007FA
:1018C000EDD520684762012068702E700020F8BDB9
:1018D00010B500680B464068C021C94301400002B2
:1018E000000ECC04D870E40E5C708C06A40E0904C3
:1018F000490F9C701970002A0AD101F0FBF9D870C9
:10190000587801F0F7F95870987801F0F3F9987069
:10191000002010BD30B50B460168896A5960016826
:1019200009694904490C9960006804680F48214618
:10193000014088024D04800E18706D0E49065D70DE
:10194000490E99706102490E40242140D970002A45
:101950000AD101F0CFF91870587801F0CBF958701E
:10196000987801F0C7F99870002030BD7F7F7F0024
:1019700070B5040005D0254620356878002802D0CF
:1019800006E0012070BD00202870204600F042F8DB
:10199000022068702168CA2048622168532048628A
:1019A000204601F0BAF9FF210028206803D04162E7
:1019B00004206870E5E78268154B1A40826022684F
:1019C00090686368A669184323693343184390609D
:1019D0002268E06810612068026923891B041A43A9
:1019E00002612068C26880239A43C2602068C26C8A
:1019F00092089200C264E269606902432068C36C85
:101A00001A43C2642068416201206870002070BDE2
:101A1000BFFF8FFF00B599B00420009000200A900E
:101A2000FF20013002906846FFF7A6FC002801D095
:101A3000FEF750FF20200E90C0020F900EA8FFF777
:101A4000B5FA002801D0FEF745FF084801690122D8
:101A5000920411430161002211460220FFF774F93C
:101A60000220FFF75DF919B000BD000040100240F0
:101A7000FEB506460446203630780B46012842D093
:101A8000012030700220707020681D46002720352C
:101A90008068002A39D0400655D5187801F02AF917
:101AA000287801F027F919789878090408435978BB
:101AB000DA78090212041143084329780906084319
:101AC000D969084359690843054699695868084324
:101AD00000902168CA204862216853204862FF2094
:101AE0005A6A0130802182424AD122689368834336
:101AF00093602268D0680840FF388238D060FFF7D2
:101B0000D5F8019029E00220FEBD400600D4DF7028
:101B1000187801F0F7F80204587801F0F3F80002A1
:101B20000243987801F0EEF80243D87800040243AB
:101B3000287801F0E7F800060243D86902435869A3
:101B400002431546C1E7DF70AAE7FFF7AFF8019936
:101B5000411A7D20C00081422AD82068C068C00791
:101B6000F3D02068C56121680098486420688168C6
:101B7000FF2201321143816020688168120130E048
:101B80002068826801235B029A4382602068C268F1
:101B90000A401D495118C160FFF788F801900EE016
:101BA000FFF784F80199411A7D20C000814206D9CF
:101BB0002168FF204862032070703770FEBD2068E6
:101BC000C0688007ECD520680562216800988864A9
:101BD0002068816801225202114381602068816877
:101BE00012011143816009480268012149040A4336
:101BF000026082680A4382602168FF2048620120F7
:101C0000707037700020FEBD7FFDFFFF00040140B3
:101C1000F8B505460446203528780B46012815D02E
:101C200001202870022068705878002A10D001F036
:101C300061F8987801F05EF8D8789E780004064341
:101C40005878197800024903084316E00220F8BDCD
:101C5000C10603D5EF2108400A305870D87801F04A
:101C600051F80604587801F04DF8000206439878C0
:101C700001F048F806431878400306432168CA205B
:101C80004862216853204862204601F046F8002748
:101C9000002811D110480640206846602068C168BD
:101CA00080229143C1602068806880060CD4204661
:101CB00000F08CF8002807D02168FF20486204203B
:101CC00068702F700120F8BD2168FF204862012054
:101CD00068702F700020F8BD3FFFFF00F8B5064682
:101CE0000446203630780D4601280ED00120307091
:101CF00002207070206800278068002A07D0400604
:101D00001AD5287800F0F6FF17E00220F8BD40064B
:101D100000D4EF70287800F0F5FF0204687800F036
:101D2000F1FF00020243A87800F0ECFF0243E878DC
:101D30000004024300920BE0EF702978A8780904B0
:101D400008436978EA7809021204114308430090B5
:101D50002168CA204862216853204862204600F06A
:101D6000DCFF00281FD1184900980840216808604E
:101D70002068816801229204914381602969E868A2
:101D8000084321688A68104388602068C1688022FF
:101D90009143C1602068806880060CD4204600F022
:101DA00015F8002807D02168FF20486204207070D1
:101DB00037700120F8BD2168FF2048620120707053
:101DC00037700020F8BD00007F7F7F0070B50446AB
:101DD0000068C168A0229143C160FEF767FF7D26BD
:101DE0000546F60006E0FEF761FF401BB04201D950
:101DF000032070BD2068C0688006F4D5002070BD47
:101E000070B5040012D002212046403005464174CE
:101E100020680168402291430160204600F04AF8A2
:101E20000021616569742974084670BD012070BD88
:101E300070B5040006D025464035687C0026002891
:101E400002D005E0012070BD2E74204600F033F86A
:101E50000220687420680168402291430160A168F3
:101E6000606822690843E1681143084361690122FF
:101E70000843A169520211400843E1690843216AFD
:101E80000843A16A084321680860A0690421000C86
:101E90000840616A0843216848602168E06A086177
:101EA0002068C16992009143C16166650120687430
:101EB000002070BD70477047F8B50446002768469B
:101EC000078026464036707C012802D0707C22288C
:101ED0007ED100290CD0002A0AD0002B08D0307CFB
:101EE000012875D001203074707C012802D003E0F5
:101EF0000120F8BD322070746765A263A387E38771
:101F00002163A386E386A764E7640125A06A6D03C5
:101F1000A84207D120680168A943016020680168D0
:101F20002943016020680168490603D40168402202
:101F3000114301600121FF20E268C90205308A4295
:101F4000616866D1002904D081420CD1E08E01285D
:101F500009D1206B21680088C860206B801C206339
:101F6000E08E401EE086E08E002843D1A06AA842A1
:101F700046D12068016801221203114301603FE04D
:101F80002068C068A16B0880A06B801CA063B0E0D3
:101F9000002202212046069B00F0DFFE00287DD1B2
:101FA000206B21680088C860206B801C2063E08E55
:101FB000401EE086E08E002808D1A06AA84205D124
:101FC000206801680122120311430160002200E031
:101FD000CCE001212046069B00F0BFFE00287FD107
:101FE0002068C068A16B0880A06B801CA063E08F94
:101FF000401EE087E08E0028CAD1606800287BD1AF
:10200000002201212046069B00F0A7FE002867D190
:10201000B6E7002904D081420BD1E08E012808D117
:10202000206B411C216321680078C860E08E401E4F
:10203000E086E08E002845D1A06AA84205D120683C
:102040000168012212031143016000220121204690
:10205000069B00F082FE002842D12068C068A16B78
:10206000087046E0002202212046069B00F075FE23
:10207000002835D1206B411C216321680078C8609D
:10208000E08E401EE086E08E00280AD1A06AA842B9
:1020900007D1206802680121090300E020E00A431B
:1020A0000260002201212046069B00F056FE002817
:1020B00016D12068C268A06B411CA1630270E08F3A
:1020C000401EE087E08E0028CCD16068002813D144
:1020D000002201212046069B00F03FFE002802D08E
:1020E0000320F8BD08E02068C168A06B421CA26311
:1020F0000170E08F401EE087A06AA8420FD1002245
:1021000001212046069B00F028FE002802D0606DC9
:1021100002210EE02068C068694608800888012214
:1021200080212046069B00F018FE002804D0606D38
:10213000202108436065D3E701207074A06AA8429B
:1021400011D120688168C943C9060CD4616D02228F
:10215000114361650168A943016020680168294352
:1021600001603774C4E637740020BAE70220B8E78C
:1021700070B5040019D02421204660300646417213
:102180002068016849084900016020680025056051
:102190002068456020688560204600F03EF8E566CE
:1021A0007572B5723572002070BD012070BD70B5BA
:1021B000040005D025466035687A002802D006E084
:1021C000012070BD00202872204600F02BF824204A
:1021D000687220680168490849000160606A002847
:1021E00002D0204602F080F9204602F013FA0128BE
:1021F000E7D0206841680922D202914341602068FB
:1022000081682A229143816020680168012211437C
:102210000160204602F0CEF970BD10B503F056FA09
:1022200010BD000010B50448816B01225204114317
:10223000816303F075FA10BD00100240FFB5064639
:1022400004466036707A83B00D46202858D1002DA0
:102250000CD00598002809D00120A1680003814214
:1022600007D12069002804D1E80702D0012007B077
:10227000F0BD307A012843D0012030720020E066A2
:1022800021207072FEF712FD019027464037059815
:1022900038820598788218E0788A401E78820698FD
:1022A0000090002280212046019B02F0CBFA0028FA
:1022B00018D10120A1680003814202D120690028C1
:1022C00012D02168287888626D1C788A0028E3D1B2
:1022D00006980090002240212046019B02F0B2FAAD
:1022E000002808D00320C2E728882168C005C00D57
:1022F0008862AD1CE9E72020707200203072B6E7DA
:102300000220B4E710B5184886B00178002929D119
:102310000121017016480024144A04640260C4615B
:10232000032284619207846042608163C460046216
:1023300044620222C462C2630161042104634161F8
:102340000C48416B4215114341630948FEF7DAFA24
:1023500003200190039005206A4610210294000793
:1023600000F036F806B010BD4A00002000240140FD
:10237000700300200010024010B500F059FA044824
:102380004068804703F078F902490020487010BD8A
:10239000305900084A000020014600200A0A00D0F7
:1023A0000820084A114201D004221043064A114273
:1023B00001D002221043054A114201D001210843F5
:1023C00070470000F0F00000CCCC0000AAAA00008A
:1023D00038B50B231B07C518114B0FD01C152D1B2F
:1023E00018D02D1B19D0A542DD6A05D1082425433C
:1023F000DD62DB6A234007E08024F8E7DC6A012520
:102400002C43DC62DB6A2B40009311601146FEF71F
:1024100085FB38BDDD6A0224E9E7DD6A0424E6E7CE
:102420000010024010B5FFF7B7FF81000248405886
:10243000002800D0804710BD0002002070B51C4667
:1024400015460E460846FFF7A7FF0A49002C0DD097
:1024500080000C50304600F03BFB04460022294629
:10246000FEF772FC2046FEF75BFC70BD0022800088
:102470000A5070BD0002002010B5D2B2FEF710FC69
:1024800010BD000010B5094C607800280CD1FFF792
:1024900039FF07480068804700F026FA00F08EF800
:1024A00003F0F2F80120607010BD00004A00002027
:1024B0003059000870B5410EC0017D220023FDF7A0
:1024C0002DFE054600F072F8044600E000BF00F063
:1024D0006DF8001BA842F9D370BD000070B5054629
:1024E0000C4600222048FFF715FA002229461E4814
:1024F0006668FFF7EDF9002221461B48FFF70AFA4C
:102500006068B042F1D1E878184A01465043C01CD7
:102510008308880726D0164968783D22064650432E
:1025200002463C3A7000801EC1408807D10F8918CE
:10253000800F4910081AC018A978401E08180D49C4
:102540003C2248436178E123514322781B015A43DE
:102550008918A27810180818074A61688002511A71
:10256000401870BD0549D7E740020020B5050000BE
:10257000A0AA990080510100FF03000050554400BB
:102580000320704701480068704700008C0200205B
:1025900000B587B0694605A8FFF7A0FF02490968A2
:1025A00007B0401A00BD00008C02002000B587B0C3
:1025B000694605A8FFF792FF07B000BD10B5084CAB
:1025C000207800280AD100F04BF8FF21013105489E
:1025D000FFF722F900F074F80120207010BD000010
:1025E000400000204002002010B50C4C00210420C7
:1025F00000F05AFA21688868C0040ED5C868C00582
:102600000BD5C86880221040FF388238C860044962
:10261000900248612046FFF7FBF810BD4002002001
:102620000004014070B50446FFF7B2FF211A0B4DBC
:102630000220285EC01C814201D9002100E0012156
:10264000042000F031FA00F01BFA012802D1022028
:10265000285E241A204600F03FF870BD400000209C
:1026600010B51449144886B0002412C01F2101601F
:10267000846004611149446141600838FFF778F9CA
:102680006946CC750120487588750875002205A932
:102690000948FFF7BDFA00940194049400226946AA
:1026A00005480394FFF71AFB0348FFF793F806B0B9
:1026B00010BD00000028004040020020FF03000081
:1026C00010B5044C2046211D1830FFF707FF20608D
:1026D00010BD00008C020020F0B587B00446142223
:1026E0003F4901A8FDF74AFD3D485038406E009033
:1026F00000F07EF83B4802993B4A401AA105890D3B
:10270000081887B2A10A68468078534202E0891807
:10271000401C80B29942FAD26A461579E122120130
:1027200002E0891A6D1CADB29142FAD26A46547920
:1027300002E0641CA4B23C393C29FAD292795118C7
:102740008EB20121890203E07A1A761C97B2B6B2E2
:102750008F42F9D203E03C3E641CB6B2A4B23C2ED8
:10276000F9D203E03C3C6D1CA4B2ADB23C2CF9D2D2
:1027700003E0183D401CADB280B2182DF9D2694675
:10278000C978890769464A7827D01849491E515C9B
:10279000814202D2FDF7ACFC08461249CA1B10491F
:1027A0002C394A60052252068A618E704C700A46A6
:1027B0000D70203210706846C079C8700020C86162
:1027C000FF2248610132C8604A6208610246084639
:1027D0002438FFF74DF907B0F0BD04490C31D5E7B7
:1027E00090020020FF03000080AEFEFFB9590008F0
:1027F00010B506480168C86880221040FF3882384A
:10280000C86051000148FFF707F810BD40020020E2
:1028100010B57D2102F075F84906C009084310BDC6
:1028200010B5410EC0017D220023FDF777FC10BDDD
:1028300070B586B014216846FDF7B9FC1F48FFF754
:10284000DFFA1F48426A81140A434262426A8A439D
:10285000426205260124002536076A46802130465B
:1028600002950194FFF7B4FD002280213046FFF766
:1028700003FE022002906A4640213046FFF7A8FD81
:10288000002240213046FFF7F7FD6A4620213046FE
:102890000295FFF79DFD002220213046FFF7ECFD59
:1028A0000294084C6A4640212046FFF791FD012220
:1028B00040212046FFF7E0FD06B070BDA8020020D1
:1028C000001002400004005001B582B00020C04357
:1028D0000090012301AA02A90248FFF7EDFA684619
:1028E00080880EBDA802002010B586B0142168466D
:1028F000FDF75DFC2E482D4901602F4A2D4B00212C
:10290000126803E05208491C072901D29A42F9D8FB
:102910004A078B07D20FDB0F52011B011A43C9076D
:1029200000D008210024846004610A434461FF212F
:10293000C4600531846241600121490203461833B5
:1029400016C344621D48416B821411434163184809
:10295000FFF76EFA002801D0FDF7BCFF02200190BE
:102960000290049403200524039024076A46202142
:102970002046FFF72DFD6A4640212046FFF728FD3F
:102980006A4680212046FFF723FD01200C4C019070
:1029900002906A4640212046FFF71AFD012240219D
:1029A0002046FFF769FD06B010BD00000030014071
:1029B000A8020020809698003800002000100240F5
:1029C0000004005000BFFDE710B50B480168002966
:1029D00004D000F014F800F02EF810BD4068002874
:1029E00004D000F013F800F027F810BD00F006F84E
:1029F00000F020F810BD000050000020704710B516
:102A000001210020FEF7BCF910BD000010B5EFF366
:102A1000108472B6FFF7B0FC054801680422114328
:102A2000016084F3108801210846FEF7C1F910BD4A
:102A3000007000407047704710B5EFF3108472B615
:102A40000E48016801221143016001684907FCD565
:102A50000168012212061143016001688901FCD559
:102A6000C16803221143C160C1680907890F0329A6
:102A7000FAD1FFF707FD84F3108810BD0010024063
:102A8000EFF3108172B607480268002A01D00020D7
:102A900005E04068002801D0012000E0022081F319
:102AA000108870475000002010B5EFF3108272B606
:102AB000064B00291C6803D0012903D1044300E020
:102AC00084431C6082F3108810BD00005000002079
:102AD000FF220132811A90420CD009DC08280DD067
:102AE00008DC012808D0022806D0042802D105E01D
:102AF0000F221202072070470520704706207047FA
:102B0000704700008307FF22DB0E9A408907090EF9
:102B1000994000280BDA0007000F0838830808489E
:102B20009B001818C36993430B43C3617047830824
:102B300004489B001B1818689043084318607047AE
:102B400000ED00E000E400E0F8B507460C481E4642
:102B5000406B15460C46804722460A4C3946A280F7
:102B60000948FDF70BFB6570A6700120207007A0D7
:102B700002F02EFE3246294607A002F029FEF8BDDB
:102B80003059000844000020000300204F6E5278A6
:102B9000446F6E650A0D00005273736956616C755F
:102BA000653D25642064426D2C20536E7256616C25
:102BB00075653D25640A0D0010B50548406B8047DA
:102BC00004490320087004A002F002FE10BD0000BA
:102BD00030590008440000204F6E52784572726FE1
:102BE000720A0D0010B50548406B80470449022069
:102BF000087004A002F0ECFD10BD00003059000880
:102C0000440000204F6E527854696D656F75740AE8
:102C10000D00000010B50548406B804704490420B2
:102C2000087004A002F0D4FD10BD00003059000867
:102C3000440000204F6E5478446F6E650A0D00000A
:102C400010B50548406B804704490520087004A072
:102C500002F0BEFD10BD0000305900084400002005
:102C60004F6E547854696D656F75740A0D000000DD
:102C700010B5024801F0D0FB10BD00004003002059
:102C80007047000070B517490023CA681206120F7A
:102C900018D18A6B154CD500134A02D51268224010
:102CA00009E08E6B01252D072E438E6312688E6B13
:102CB0002240AE438E63A24204D10321890388429D
:102CC00000D101230A4801684908490019430160FD
:102CD0000068C007C00F984201D0012070BD0020DD
:102CE00070BD00000010024000700040001800009D
:102CF0000020024001090A2200075143000F40183A
:102D0000C0B27047002102E00A38C0B2491C0A284C
:102D1000FAD20907090E0843704770B504460068E7
:102D2000C168490613D40021C943C160FDF7BEFF45
:102D30007D260546F60006E0FDF7B8FF401BB042D1
:102D400001D9032070BD2068C0684006F4D500207A
:102D500070BD10B5FFF748FC10BDF8B51D4616460E
:102D60000F460446FDF7A2FF314626464036009046
:102D700000291ED043E0681C1BD0002D05D0FDF7B4
:102D800095FF0099401AA84213D920684168E022B3
:102D9000914341602068026840218A43026023E039
:102DA00021680A6882430A6021680A6802430A604F
:102DB0001FE02068816838468843DCD124E0681C25
:102DC0001DD0002D06D0FDF771FF01460098081AAE
:102DD000A84214D920684268E0218A4342602068F2
:102DE00001684022914301600120A16A40038142B1
:102DF000D6D001207074002030740320F8BD206804
:102E0000816838468843DAD00020F8BD704700005A
:102E10000149486070470000000000200120704711
:102E200010B50348406840688047801C10BD000012
:102E30000000002001480079704700005C0100207C
:102E4000F3B5024600206D498BB0002A0BD0012A51
:102E50007ED10024486C2546002854D0012855D046
:102E6000022858D155E06548C069FDF777FB074651
:102E700000910C98FDF772FB06900E46302000F092
:102E80006AFC4007800F02D000245D4D01E0002461
:102E90002546272000F05FFC58494007400F098C69
:102EA000401C4018FDF75AFB544A20320992927890
:102EB000012A21D00022524BFDF794F922462B46DD
:102EC000FDF790F93346069AFDF78CF9099A1279C5
:102ED000012A14D000221346FDF784F90322FDF7DE
:102EE00013FB3A46009BFDF797FA0022454BFDF78E
:102EF0002BFA02F073FB7DE000221346DCE7002290
:102F000001239B07E8E700243F4D04E000243F4DE8
:102F100001E03F4D00248F6C0120B840FDF70AFB13
:102F200002460B4620462946FDF776FA02460B4636
:102F300000203349FDF770FA304E044640360D4606
:102F4000F089FDF70BFB0022324BFDF74BF900E057
:102F500052E022462B46FDF7F7F907910890707B67
:102F6000001DFDF7FBFA05910690307B002800D08C
:102F70000220381A8000FDF7F1FA04900C980391B2
:102F8000C000B900401AB17C09014018317C002909
:102F900000D01421401A1C30FDF7E0FA039B049A7C
:102FA000FDF73AFA02F03EF9059B069AFDF7CCF9D7
:102FB000002207460E461346FDF7FCFA02D23846B9
:102FC000314601E0002001460022134BFDF70AF9CB
:102FD00022462B46FDF7B8F9079B089AFDF702F940
:102FE0000022084BFDF7B0F90C4A0D4BFDF7FAF83B
:102FF00002F07CF9FDF7C0FA0DB0F0BD5C010020D5
:103000000000F03F00408F408084FE4080840E41ED
:1030100080841E4100001140000020402B8716D9FB
:10302000CEF7EF3F00207047F8B51D4D1D492860D1
:103030001D4801F077F91C481A49143001F072F963
:1030400019481849283001F06DF9686801680120B5
:10305000884700F0C3FB002000F0E2FC686881684C
:10306000284608308847114E002460002718F05D7C
:1030700000F09EFCB8198178407801F09FF8641C3C
:10308000E4B2112CF1D3002000F092FC064900209C
:1030900068390871686840688047801CF8BD000086
:1030A0000000002055360008C40100204C580008DC
:1030B00010B586B014216846FDF779F80D480190E7
:1030C00002204102029005206A460007FFF780F9BE
:1030D000094C6A4608212046FFF77AF96A46202102
:1030E0002046FFF775F96A4610212046FFF770F970
:1030F00006B010BD000011100004005010B586B0DD
:1031000014216846FDF753F81048FFF781FE104878
:1031100001900220029003200390012105206A46BD
:1031200089020007FFF754F90A4C6A460821204635
:10313000FFF74EF96A4620212046FFF749F96A4613
:1031400010212046FFF744F906B010BD20000020F2
:10315000000011100004005070B5044603680121FE
:103160000520002289020007FFF768F9094D0022B7
:10317000082128466368FFF761F9002220212846CC
:10318000A368FFF75BF9002210212846E368FFF7E8
:1031900055F970BD00040050FFB581B01D461746BB
:1031A0000E460124019800F003FC304600F0C0FBFD
:1031B000052000F035FC0120FDF74AFB01F0A0F8E6
:1031C000064606E0019800F0F6FAB84201DD002458
:1031D00004E0304601F09AF8A842F3D300F02AFE4A
:1031E000204605B0F0BD0000F8B500256846057022
:1031F000904C2079012809D0022859D12046683006
:1032000001F042F9607901287ED102E189484079D4
:10321000002818D001284BD14021122000F0CEFF09
:10322000122000F098FA694608700878814C8006F0
:103230004034002869DA2021122000F0BFFFA07D71
:1032400000287DD092E07B4E20363079012837D19E
:103250003F2000F080FA69460870087880072FD474
:103260000B213E2000F0AAFF10213F2000F0A6FF16
:1032700030465C3001F008F9B079002819D00D20F3
:1032800000F069FA402101430D2000F097FF30461D
:10329000703001F0C1F868480068002803D0006968
:1032A000002800D08047357462487574858745874B
:1032B000F8BD6048903001F0E7F85E480571EAE734
:1032C0005C4C608FE71FF93F002802D1A18F0029D5
:1032D00004D0A28F801AC1B2D0190BE0B0780028B8
:1032E00036D0322000F037FA6087618FA08F091A3C
:1032F000C9B2C01900F058FA608FA0874D487C30E1
:1033000001F0C2F8B07901E087E03CE0002825D068
:103310000D2000F020FA402101430D2000F04EFF67
:103320004448903001F078F84348006800280AD0FB
:103330008768002F07D01222B256618F002300E069
:1033400012E03E48B84735747574A5876587F8BDA7
:10335000384801213A3000F027FAC6E73548257190
:10336000903001F091F8DFE73248057131487C3048
:1033700001F08AF8304800680028E8D00069002889
:10338000E5D08047F8BD192000F0E5F9294E40B29C
:1033900060363070010605D5C043401C0006800E23
:1033A000474201E00006870E1A2000F0D4F9002FF2
:1033B00003DA01110818C01901E0011108188B384F
:1033C0006084132000F0C7F93071102000F0C3F9B9
:1033D00001460D2000F0F2FE3179184800F0E4F9C2
:1033E000A07D002801D11348057112487C3001F0FE
:1033F0004BF8114800680028C4D08568002DC1D062
:1034000000232222F356A25E31790C48A8470CA073
:103410000DE00821122000F0D1FE07482571006858
:103420000028AFD000680028ACD0804707A002F089
:10343000CFF9F8BD5C010020000000205C000020F6
:103440007278446F6E650A0D000000007478446F56
:103450006E650A0D0000000070B5304C25462379DA
:10346000E61F6A79698FA88FF93E2035012B11D0AC
:10347000022B28D1002A26D10A1A23469B8FE97FE6
:10348000304618188A4243DD00F0BEFEA08FE97F67
:1034900040183BE0002A17D0012A14D11F487C3085
:1034A00000F0F2FF8021122000F088FE0020207141
:1034B0001B480068002806D0C068002803D0804759
:1034C00018A002F085F970BD002908D1002806D1A6
:1034D000A87800280FD0322000F03DF96087618F76
:1034E000A08F0A1AA97F8A420BDD801900F05CF9CF
:1034F000A08FA97FCCE7094801213A3000F054F9A8
:10350000EDE7D1B2801900F04FF904E0A08770BD5B
:10351000D1B200F079FE608FF8E700005C01002076
:1035200000000020727854696D654F75740A0D00B3
:1035300070B5294D294C294608462A7940304979E9
:10354000C07C012A04D0022A01D1002902D170BD19
:10355000002916D00129FAD10128F8D10221122020
:1035600000F02CFE20680028F1D040690028EED041
:103570001C2000F0F0F8216880064969800E884719
:1035800070BD154C012620342674607C0028F7D1CC
:103590002046703000F078FF6674112000F0DBF8F0
:1035A00040084042A0741B2000F0D5F806021C2001
:1035B00000F0D1F80643300A0102094A711A51435A
:1035C00080315043090A401868630C2000F0C3F8AA
:1035D0004009207670BD00005C0100200000002042
:1035E000093D000010B51248407900281FD001287D
:1035F0001DD1122000F0AFF80E4CC0070BD00521F2
:10360000122000F0DBFD2068002810D0816900291D
:103610000DD001200AE00421122000F0CFFD206827
:10362000002804D08169002901D00020884710BDFE
:103630005C0100200000002005484079002806D1E8
:1036400003482030017C002901D101210174704719
:103650005C010020F8B52D4D2879012829D00228D9
:1036600026D100F0BBF8002000F0DAF9284E002443
:1036700060002718F05D00F09BF9B8198178407858
:1036800000F09CFD641CE4B2112CF1D3002000F08A
:103690008FF91E484030007F00F0DCF900202871CF
:1036A0001C480068002803D04068002800D08047EC
:1036B000F8BD6879002816D1144E002420363474E1
:1036C0007474AC876C870B213E2000F077FD1021CD
:1036D0003F2000F073FDB07901280AD030462C71EC
:1036E000703000F0D1FE0B4800680028E0D0C068C0
:1036F000DBE70D2000F02FF8402101430D2000F002
:103700005DFD0248903000F087FEECE75C01002090
:103710004C5800080000002070B50025012000F082
:1037200047F9FF21112000F049FD052000F078F94C
:1037300000240120FDF78CF82C2000F00CF8C007C5
:10374000C00FA040641C0543E4B2202CF1D300F06C
:1037500071FB284670BD08B50122694600F004F8E7
:103760006846007808BD0000F8B50E4F15460E46B5
:103770000446002240213846FEF77EFE6006400ED9
:10378000FFF7A2F8002405E00020FFF79DF8305570
:10379000641CE4B2AC42F7D3012240213846FEF764
:1037A0006BFEF8BD000400500A4610B5014600202B
:1037B000FFF7DAFF10BD10B5002804D0012808D0AB
:1037C0000020C04310BD1120FFF7C5FF4008404254
:1037D00010BD1B20FFF7BFFF8B3810BD30B585B083
:1037E00014216846FCF7E3FC012001900320052525
:1037F00000242D07039002946A4601212846FEF713
:10380000E7FD012211462846FEF736FE0120FDF7AE
:103810001FF86A46012128460194FEF7D9FD0620CB
:10382000FDF716F805B030BD73B5394C0646617921
:103830000020002902D0012966D128E00020A087BD
:103840006846334D017961872035A878002809D072
:10385000322000F0B3FC68460279501E3F2806D89B
:10386000EA770AE0012101A800F0CEFCF3E7314637
:10387000284801F0A7FE2020E877E97F304600F0D5
:10388000C3FCA08FE97F4018A087A06A3CE02048D5
:10389000BE254030407D012821D03320FFF75BFF5B
:1038A0002840411C332000F089FC1D213B2000F002
:1038B00085FC68460179164860300171222000F0CD
:1038C0007DFC00210E2000F079FC00210D2000F08D
:1038D00075FC0120FFF73FFF40070AD00EE03320C0
:1038E000FFF739FF28400146332000F067FC19211B
:1038F000DCE700F0B1FA0120FCF7AAFF6846017985
:10390000304600F081FCA06D00F0B8FA7CBD0000EC
:103910005C0100205C0000200349032802D0002045
:10392000087070470120FBE75C0100207047000031
:1039300070B505461048114E856031462846FCF7A3
:10394000D7FB044630466043281A00027110401825
:103950003146FCF7CDFB210244182002010E06205F
:1039600000F02CFC2004010E072000F027FCE1B23F
:10397000082000F023FC70BD5C010020093D000020
:1039800070B50D46044600F013F8002C04D0012C4D
:103990000AD12946232005E004488078002803D175
:1039A0002946322000F00AFC70BD00007C01002096
:1039B00010B504460120FFF7CEFE0106174801D5D9
:1039C000012100E000214171C9B2A14224D044711B
:1039D000012C0FD000F02EFA0120FFF7BCFE4106AB
:1039E000490E012000F0EAFB0021402000F0E6FB38
:1039F00030210EE000F01EFA0120FFF7ACFE80211E
:103A00000143012000F0DAFB0021402000F0D6FB4A
:103A10000021412000F0D2FB10BD00005C0100201D
:103A200070B50B4D0400686801690FD0002088470D
:103A300068684169204688470120FFF78CFEC1086D
:103A4000C9002143012000F0B9FB70BD0120F2E75D
:103A50000000002010B504460120FFF7A9FF05482B
:103A6000002C047701D0342100E01221392000F02D
:103A7000A5FB10BD9C01002070B504460920FFF78E
:103A80006AFE06465A20FFF766FE054671060020CC
:103A9000490EC043844201DA044602E00E2C00DDE8
:103AA0000E24641C090920070901000F01430920A5
:103AB00000F084FB29465A2000F080FB70BD000016
:103AC000F8B54C4C074660790025002802D0012843
:103AD00050D125E0474E40202036B579FFF73BFE18
:103AE0008107890F40200C3100F068FB4120FFF76F
:103AF00032FE3E2108400146C131412000F05EFB0C
:103B00003520FFF728FE8006800EB0771E210D209D
:103B100000F054FB002030747074A087608729E0A7
:103B2000344E4036707D01283DD03320FFF713FE20
:103B3000BE210840411C332000F040FB1D213B20EA
:103B400000F03CFBF07CB57D012836D01F21112010
:103B500000F034FB4020FFF7FEFD8106890E402077
:103B600000F02CFB00210F2000F028FB00210D208D
:103B700000F024FBFF2101311F48FCF718FB012056
:103B80002071002F08D01B4839467C3000F032FCF1
:103B900018487C3000F040FC6079002817D0002DD8
:103BA00024D0052023E03320FFF7D5FD4121014338
:103BB000332000F003FB1921C1E71D21112000F083
:103BC000FDFA4020FFF7C7FD33210140C7E705207C
:103BD000FFF726FF002D08D10648E16A903000F07B
:103BE00009FC0448903000F017FCF8BD0620FFF7F0
:103BF00017FFF8BD5C0100205C000020FFB587B016
:103C000017460D460446139EFFF7D2FE11998548CC
:103C1000090A0691002C1AD0012C74D1814C8764BA
:103C2000456440340A9860731198E08126741498B2
:103C300060741598A0741698E074179820751898F9
:103C400060751998A0750C2F7BD90C277CE0C76193
:103C5000044645611098A06172482030867014991E
:103C6000C170159901711899417119998171119853
:103C700020843846FCF772FC07460B4601913A4611
:103C800000206949FCF7C8FB0322FCF73DFC0490C7
:103C900005911298FCF762FC059B049AFCF754FB13
:103CA0000022624BFCF750FBFCF766FCE0623A46F0
:103CB00000205F49019BFCF7AFFBFCF75DFC84B281
:103CC000210A022000F07AFAE1B2032000F076FA2D
:103CD0002846FCF701FE0146122000F06FFA10980A
:103CE000FCF7FAFD0146132000F068FA252006993A
:103CF00000F064FA1198C1B2262000F05FFA002E9D
:103D000002D0149901E080E0FF21322000F056FA41
:103D10003020FFF720FD6F210840002E01D0002148
:103D200000E080210843159909010143302000F08B
:103D300045FA3120FFF70FFD40210143312062E0B9
:103D4000FFE7062F00D20627002D02D0012D02D05A
:103D500003E00B2F3CD00C2F3AD0002020731D2005
:103D6000FFF7F9FC0A99A801C9000843B10008430C
:103D7000159949000843217B0843C1B21D2000F07A
:103D80001DFA1E20FFF7E7FC0C210840390108430B
:103D900012998905890F0843C1B21E2000F00EFA5E
:103DA0001298C1B21F2000F009FA2020069900F0F5
:103DB00005FA1198C1B2212000F000FA002E03D0BC
:103DC0002220149900F0FAF9E07C012802D00DE0DD
:103DD0000120C3E74B20FFF7BEFC802101434B20AD
:103DE00000F0ECF9217D242000F0E8F9062F0ED038
:103DF0003120FFF7B0FCC108C9003120C91C00F018
:103E0000DDF90A21372000F0D9F90BB0F0BD3120DF
:103E1000FFF7A1FCC108C9003120491D00F0CEF90F
:103E20000C21EFE75C0100200000F03F00408F40D4
:103E300080847E4110B5074800F026FB0548143801
:103E400000F022FB0020FFF7EBFD024900207C3947
:103E5000087110BDD801002010B5074800F014FB10
:103E60000548143800F010FB0120FFF7D9FD024986
:103E700000207C39087110BDD801002010B5014622
:103E8000264800F0B7FA254C683C6079002802D03B
:103E900001282CD119E04020FFF75DFC8107890F34
:103EA0004020103100F08AF94120FFF754FC3E21F8
:103EB0000140412000F082F93520FFF74CFC8106DB
:103EC0001648890E4838817711E014482838C07C9C
:103ED000012815D0F721112000F070F94020FFF7DC
:103EE0003AFC8106890E4020403100F067F902203B
:103EF00020710A4800F090FA0320FFF791FD10BDF1
:103F0000F521112000F05AF94020FFF724FC33215D
:103F10000840014640314020E7E70000C40100208E
:103F2000FFB581B01E460C460C9F0A9D0198FFF715
:103F30003FFD70484068C16820468847390A0198AB
:103F40006D4A009100281BD0012871D120461446EB
:103F500040342070566495640B996173E7810D9924
:103F600021740F991046E174109A22750E9AA2746A
:103F7000119A6275129A82650C2D5AD90C255BE054
:103F8000147303995661D56111615B49104617841A
:103F900020310D9A8A700E9A0A71119A4A711299FB
:103FA00081620398FCF7DAFA0022544BFCF734FAEA
:103FB000FCF7E2FA84B2210A042000F0FFF8E1B233
:103FC000052000F0FBF82846FCF7C8FA02460B462D
:103FD00000204B49FCF720FAFCF7CEFA84B2210A04
:103FE000022000F0EBF8E1B2032000F0E7F8252012
:103FF000009900F0E3F8F9B2262000F0DFF8302055
:10400000FFF7A9FB6F2108400D99002901D000217D
:1040100000E0802108430E9909010143302000F09F
:10402000CDF83120FFF797FB40210143312052E0CA
:1040300053E0062D00D20625002E02D0012E02D01C
:1040400003E00B2D06D00C2D04D000202073012995
:1040500002D00DE00120F9E74B20FFF77CFB802127
:1040600001434B2000F0AAF8217D242000F0A6F89F
:104070001D20FFF770FB0B99B001C90008430D9993
:10408000890008430E9949000843217B0843C1B2C7
:104090001D2000F093F81E20FFF75DFB0007000FC6
:1040A00029010843C1B21E2000F088F820200099A1
:1040B00000F084F8F9B2212000F080F8062D0ED02F
:1040C0003120FFF748FBC108C9003120C91C00F0AE
:1040D00075F80A21372000F071F805B0F0BD3120E5
:1040E000FFF739FBC108C9003120491D00F066F80F
:1040F0000C21EFE7000000205C01002080844E408E
:1041000080847E4130B50D467D211446C90089B0BA
:104110004C43FFF70DFC002007900690039005909C
:10412000019004904B200521800100230291009012
:1041300008941A4629461846FFF7F2FE3120FFF789
:104140000AFBBF210140312000F038F8F021402067
:1041500000F034F8A021412000F030F82146074853
:1041600000F048F90549022068390871034800F059
:1041700053F90320FFF754FC09B030BDC4010020FF
:104180007047000010B50C4C6079002812D001284F
:1041900010D1FA21112000F011F84020FFF7DBFACE
:1041A00081088900402000F009F8032020710720D1
:1041B000FFF736FC10BD00005C01002013B50122A2
:1041C00001A900F001F81CBDF8B50E4F15460E46CA
:1041D0000446002240213846FEF74EF92046802151
:1041E0000843FEF771FB002404E0305DFEF76CFB32
:1041F000641CE4B2AC42F8D3012240213846FEF7F9
:104200003BF9F8BD000400500A4610B501460020F5
:10421000FFF7DAFF10BD10B5FCF74EFD10BD000032
:1042200010B594B014210EA8FBF7C1FF38216846E1
:10423000FBF7BDFF0220009001210A90039180044A
:104240000C9000240001019410210D900B94049116
:104250006846FDF791F8002801D0FCF73BFB1148B8
:10426000816B0204114381630F4801680322D2026B
:104270009143C214891801604168C943C906FBD53E
:104280000F200E9003200F9010941194012112948E
:104290000EA8FCF761FF002801D0FCF71BFB14B04F
:1042A00010BD00000010024000700040104801687E
:1042B000821511430160C1680E4A1140C160016856
:1042C0000D4A114001608168490849008160016818
:1042D0000122920491430160C168FD2212049143BE
:1042E000C160002101610549C0038860704700007A
:1042F000001002400C40FF88F6FFF6FE00ED00E0E3
:1043000010B5FEF753F9FEF783FA10BD70B50546F8
:10431000FEF74CF904462846FEF782FA201AFEF70B
:1043200077FA70BD00220260426002720261C160D1
:104330007047000010B5054A1168002901D000231C
:104340000B720161106000F03FF810BD58000020B2
:1043500070B5FEF717F90446FEF7B2F9031B194CC6
:10436000206800282DD00146002507E016689E42EF
:1043700002D9F61A166000E0156009690A69002A78
:10438000F4D100281DD001692160C068002800D147
:10439000FEE780472068002813D0FEF7F9F80146B1
:1043A00020680268914205D901692160C06800282F
:1043B000EFD1FEE7002804D0017A002901D100F0F6
:1043C00003F870BD5800002070B50446FEF7D8F819
:1043D000054601202072FEF7DBF82168401988426B
:1043E00001D8084603E0FEF7D3F840192060FEF735
:1043F00019F970BD70B505460846FEF711FA044676
:10440000284600F041F8FEF7BBF8844200D204468B
:104410002C606C6070BD0000F8B50400EFF31085EF
:1044200072B62CD0174F3868014602E0A04226D061
:1044300000690028FAD100266068206026720029F1
:104440000CD0FEF7A5F821680918216038680268C9
:10445000914206D22046FFF76DFF10E0FEF730F9DB
:10446000F8E70169002908D022680B689A4201D94F
:104470000846F6E70461216101E00461266185F3E5
:104480001088F8BD5800002070B5EFF3108572B6A3
:10449000144C21680A1E21D000281FD081421BD154
:1044A000087A00260128086903D000280AD0206075
:1044B00014E0002804D00E722060FFF785FF0DE0A5
:1044C000FEF796F9266009E0814203D10869106180
:1044D000002803E00A4609690029F5D185F3108810
:1044E00070BD00005800002010B5818CC90707D0AE
:1044F00001684A6801235B049A43836A1A434A604D
:10450000818C890707D501684A6801231B049A43F7
:10451000C36A1A434A60818C490707D501684A6813
:1045200001239B049A43036B1A434A60818C090759
:1045300007D501684A680123DB039A43436B1A439A
:104540004A60818CC90607D50268916801231B0364
:104550009943836B19439160818C890607D5016863
:104560008A6801235B039A43C36B1A438A60818C78
:10457000490612D503685A6801210905046C8A436B
:1045800022435A60026C8A4207D1026851680323B1
:104590005B059943436C19435160818C090607D52B
:1045A00001684A680123DB04806C9A4302434A6035
:1045B00010BD0000F8B500260446C666FCF776FB81
:1045C000054620680068124F000709D501212B46D7
:1045D000002249052046009700F034F900280DD14B
:1045E0002068006840070BD501212B460022890571
:1045F0002046009700F026F9002801D00320F8BDDE
:10460000202060346072A07226720020F8BD000085
:10461000FFFFFF01FEB50446016880682269E36977
:1046200010436269102700261A4310430A68354672
:10463000784B1A4002430A60206841680322120343
:104640009143E26811434160734A2168A069914235
:1046500001D0226A10438A680B231B029A4302434B
:104660008A606E4A20686E4990420CD1C868800703
:10467000800F06D0012843D002283FD0032826D13E
:1046800024E0012723E0674A90420AD1C8680C2140
:10469000084031D0042833D008282FD00C2816D158
:1046A00014E0614A904227D0604A904224D05A4A8E
:1046B00090420CD1C9680320800201401CD0101523
:1046C000091A1DD0091A19D0814200D108270220E9
:1046D000FCF788FB0190504B514922684039D813B0
:1046E00000929A4235D1002F0CD0022F0DD0042F0A
:1046F00012D0082F1CD113E00027E8E70227E6E7D5
:104700000427E4E7FCF7DCFD08E00868C00601D5F3
:10471000474805E0474803E0FCF7F2FD002873D066
:10472000626851005118814202D81103814201D2BE
:10473000012569E0010E0602500800233018594196
:10474000FBF7ECFC032109023B4A411A914259D97B
:10475000EEE7E26982422DD13B0000F0EAF809065B
:10476000080B24192424241F2400019812E0FCF7CC
:10477000B7FD0FE008686168C00602D548082F4AF7
:1047800001E02F4A48088018FBF7B2FC86B20BE024
:10479000FCF7B6FD616840004A08F4E76168012251
:1047A00048081204EFE70125310909013007400FDD
:1047B000084327E03B0000F0BCF809070A0D061D7E
:1047C000060606290600B3E7FCF77AFD14E0FCF7BD
:1047D00087FD11E008686168C00602D54A081448E0
:1047E00001E014484A081018FBF782FC81B20098D7
:1047F000C16009E0FCF784FD61684A088018FBF796
:1048000077FC80B22168C8602846FEBD61684A080E
:10481000E9E70000F369FFEF00480040003801407D
:104820004010024000440040004C00400050004056
:1048300000093D000024F400FFFC0F0000127A0084
:104840000048E801FFB581B017460E4604460A9DB0
:104850001DE0681C1BD0002D05D0FCF727FA049939
:10486000401AA84213D920680168FF22A13291435F
:104870000160206881684908490081602020603417
:104880006072A07200202072032005B0F0BD206885
:10489000C1693046884304D00020B842D9D00020F6
:1048A000F3E70120F9E710B500F068FF10BD000044
:1048B00037B514460846064B6A46214600F010F903
:1048C00004466946002000F0A7FC20463EBD0000DB
:1048D000195200082021020C01D010211046020AB2
:1048E00001D010460839020901D01046091F82087C
:1048F00001D01046891E420801D0881E7047081A50
:104900007047F8B5040C8BB2264682B25E430D0C9C
:104910001046370C58433604801900217941164659
:104920006E43370C36048019794126466E43891947
:10493000F8BD30B47446641E2578641CAB4200D2C6
:104940001D46635D5B00E31830BC184702E008C8F1
:10495000121F08C1002AFAD170477047002001E0F9
:1049600001C1121F002AFBD170470000F0B51FB42F
:1049700086B00998089A030D0021024314D05148CB
:10498000514A1818504305141198012810981AD04C
:10499000281A401C00264D4F4D4900960191049065
:1049A000002812DA444211E01198012449A3012899
:1049B00001D11098C1430698119A84600360C260C7
:1049C00041600BB0F0BD4042E4E704462105002001
:1049D0003F4A001C51410391029012E0E00707D0CA
:1049E00032463B4601990098FBF7AEFC01910090DE
:1049F00032463B4610461946FBF7A6FC06460F46D4
:104A00006410002CEAD10498039B0028029A0999AB
:104A1000089806DAFBF798FC019B009AFBF794FCD8
:104A200005E0FBF7F9FC019B009AFBF7F5FC044657
:104A30000E460022284BFBF7BDFD03D80020C043E3
:104A4000014607E00022254B20463146FBF7CAFB12
:104A5000FBF796FE102409E0002C0ADB0A22002353
:104A6000FBF75CFB079B30321A55641E02460A4373
:104A7000F2D11122641C079B121B1C19119B012BE4
:104A800003D0012308430ED10AE0084304D01120CB
:104A900010900020119077E71098151A6D1E0BE00A
:104AA0001098824202DD00236D1C03E0824201DA8D
:104AB00000236D1E002BEED0069811998260C16014
:104AC00030C07EE701FCFFFF104D000000001440E5
:104AD0000000F03F300000000000F0430000E03F25
:104AE000FFB597B00646002518E2252877D10024A7
:104AF0002746FD49049400E00443761C32780120E7
:104B0000203A90400842F7D130782A280ED002226D
:104B1000307801463039092916D804990A235943B7
:104B2000303940181443761C0490F1E7189802C8F5
:104B300004911890002904DA0120400304434842FC
:104B4000049002200443761C30782E2814D10420CF
:104B500004437078761C2A2809D11898761C80C8DE
:104B6000189009E00A214F43303FC719761C30786E
:104B7000014630390929F5D930786C2810D006DC87
:104B80004C281AD068280ED06A2817D104E074285F
:104B900013D07A2812D110E00120400504430CE024
:104BA0000121090501E0032109050C4371788142C7
:104BB00003D1012000052418761C761C3078119052
:104BC00066280BD013DC58287DD009DC00287BD068
:104BD0004528F6D04628F4D047281AD1A5E118E098
:104BE000632835D0642870D0652812D19DE17028E3
:104BF0006CD008DC6728F1D069287BD06E280DD0F6
:104C00006F2806D1BAE073282ED0752871D0782885
:104C100059D01A9A199990476D1C7EE16002400F95
:104C2000022809D003280DD00428189801680DD057
:104C30000D60001D189070E11898EA1701680D606A
:104C40004A60F6E7189801680D80F2E70D70F0E70A
:104C500018986A4601781172001D18900020507251
:104C600002A80090012005E0189802C818900020C2
:104C70000091C04361070DD5002101E00199491C55
:104C80000191B94212DA8142F8DB009A515C0029A5
:104C9000F4D10BE0002101E00199491C019181420E
:104CA000FADB019A0099895C0029F5D101990498F1
:104CB0001A9B471A21463846199A00F097FA01992B
:104CC000401945180BE04FE02CE113E04EE000984E
:104CD00000990078491C00911A9A199990470198F7
:104CE000401E0190401CF2D1214638461A9B199A69
:104CF00010E137E00A200021009001916002410F8D
:104D0000022907D0189A01CA1892C217944603299B
:104D100008D00AE01898C01DC108C90005C918913B
:104D2000944607E000B2C2179446042902D140B26B
:104D3000C1178C4600226146944506DA0A460021D6
:104D4000404291418C462D2102E0210504D52B21C2
:104D50006A461173012103E0E10701D02021F7E742
:104D6000029155E00A200AE0102008E0102000908F
:104D70000021042004430191082703E008200021BA
:104D8000019100906002410F022907D0189A01CAD0
:104D9000189200229446032908D008E01898C01DF4
:104DA000C108C90005C91891944603E080B20429DE
:104DB00000D1C0B200210291210729D51199702993
:104DC00006D0009A1021019B4A401A4305D00EE0FC
:104DD00040216A461173012108E06146014306D073
:104DE00030216A4611731199517302210291009A80
:104DF0000821019B4A401A430AD16146014301D16F
:104E0000610705D530216A46117301217F1E029189
:104E10001199582904D035A10E910DA90D910DE0DD
:104E200037A1F9E76146019B009AFBF777F90E9BE2
:104E30008C469B5C0D9A521E0D9213706146014385
:104E4000F0D10D9805A9081A20300190600703D50C
:104E500001200004844300E001270198874201DD1E
:104E6000381A00E0002001990090411802980918B2
:104E70000498401A0490E00306D421461A9B199A1C
:104E8000049800F0B3F94519002706E003A81A9A20
:104E9000C05D199990476D1C7F1C02988742F5DB15
:104EA000E0030CD521461A9B199A049800F09EF94C
:104EB000451904E01A9A3020199990476D1C009901
:104EC000481E00900029F5DC08E00D980D99007847
:104ED000491C0D911A9A199990476D1C0199481E09
:104EE00001900029F1DC63E10928010030313233FF
:104EF0003435363738396162636465660000000016
:104F000030313233343536373839414243444546FF
:104F10000000000000F05AF94519761C307800288E
:104F200000D0E2E528461BB0F0BD600700D406279C
:104F30001898C01DC108C90048680A680831C30F25
:104F4000DB071891190001D09CA108E0210501D5CB
:104F50009BA104E0E10701D09AA100E09AA14300DF
:104F600011985B08109165280CD006DC452809D003
:104F700046281DD0472841D141E0662818D067282F
:104F80003CD13CE00021112F01DB112000E0781C16
:104F90000191009008A911A8FFF7E8FC1399059169
:104FA0000021119A15927F1C12980197009150E0F0
:104FB0000120C00703900120019008A9009711A8C3
:104FC000FFF7D4FC139A149905920022119B0092CA
:104FD00012981593059A0192002901D0104602E01B
:104FE000791C40180190381A01D5019804E040421C
:104FF000401E0090781C0190C01B029043E0012FDE
:1050000000DA01270021112F01DD112000E03846D0
:105010000191009008A911A8FFF7A8FC1399059128
:10502000119A0021129815920091019721070CD432
:105030000599B94201DB019900E00191012904DDE4
:10504000159A491E515C302906D0B84201DA011D7B
:1050500005DA0121029115E00199491EEDE70028CA
:1050600005DC0099411800910199091A03E0019AA1
:10507000411C914200DD01910099401A401C0290B0
:105080000120C0070390200706D4029901988142AD
:1050900002DB0020C043029000206946C87707AFBA
:1050A000012103980337C907884224D002201190B8
:1050B0002B201290039800280CDA404203902D20F8
:1050C000129007E00A210398FBF712F830317F1E97
:1050D000039039701199481E11900029F2DC039851
:1050E0000028EFD1791E12980870307820210840EE
:1050F0004530BF1E387006A8C01BC01D0390109815
:105100000078002800D00120019941180298C017AA
:105110000918039809180498401A401E0490E003E7
:1051200006D421461A9B199A049800F05FF8451995
:1051300010980078002803D01A9A199990476D1C8E
:10514000E00324D521461A9B199A049800F04EF8E2
:1051500045191CE00098002807DB00990598884253
:1051600003DD1598405C199901E0199930201A9ACD
:10517000904700986D1C401C00900298401E0290C1
:10518000002804D11A9A2E20199990476D1C019974
:10519000481E01900029DDDC05E038781A9A7F1C52
:1051A000199990476D1C0399481E03900029F4DC5F
:1051B00021461A9B199A0498ACE600002D000000C5
:1051C0002B0000002000000000000000F8B504469D
:1051D00000251E461746880404D405E039462020E1
:1051E000B0476D1C641EF9D52846F8BDFFB50446CE
:1051F000002581B01E46C80301D5302700E02027D6
:10520000880404D505E038460399B0476D1C641E38
:10521000F9D5284605B0F0BD0A68531C0B60107024
:1052200070470000F8B54A002B4B520DD6182B4A98
:105230000C460546142E2BDA002E12DA284BFAF70C
:10524000D1FF00221346FBF7B5F940D2002C03DA58
:105250000124E40700253AE02046284337D0214CBA
:1052600014E0214F0B46F7403B402B4331D01C4B01
:10527000FAF7B8FF00221346FBF79CF927D2002C5F
:1052800003DD01200005F0400419BC4300251EE0A9
:10529000332E1EDC33460027143BFF43DF403842E9
:1052A00017D00F4BFBF748F800221346FBF782F9A3
:1052B0000DD2002C0ADD142E0CD03420811B0120CD
:1052C00088404019A84200D2641C0546BD432146CF
:1052D0002846F8BD641CF9E701FCFFFF9C750088B7
:1052E0003CE4377E0000F03FFFFF0F00F8B54A00B6
:1052F0002B4B520DD6182B4A0C460546142E2BDA92
:10530000002E12DA284BFAF76DFF00221346FBF746
:1053100051F940D2002C02DB002425463BE060001E
:105320004008284337D0214C14E0214F0B46F7406A
:105330003B402B4331D01C4BFAF754FF002213465D
:10534000FBF738F927D2002C03DA01200005F040E2
:105350000419BC4300251EE0332E1EDC3346002713
:10536000143BFF43DF40384217D00F4BFAF7E4FFFE
:1053700000221346FBF71EF90DD2002C0ADA142E78
:105380000CD03420811B012088404019A84200D253
:10539000641C0546BD4321462846F8BD641CF9E758
:1053A00001FCFFFF9C7500883CE4377E0000F0BFE5
:1053B000FFFF0F008CB001200A90FBF785FCFEF781
:1053C0002FFFFBF723FAFDF75DF86C496C48FEF7F9
:1053D000A9FFC8216A48FFF70DF86948FFF71CF8D4
:1053E00067486849143001606749816067494160D6
:1053F0006749C1606749684D0161A9688847696963
:10540000664888470024664806940126089005945B
:105410000794082002A9019651C1072000906F6AE5
:10542000234622460E213046B847079405200290B5
:105430000820069408940996059603940494009411
:105440000190012307222E6A00211846B0477D20D3
:10545000E96BC00088474A4F524E403F3078030006
:10546000FFF767FA06610466668383610A9800287D
:10547000B0882DD0002855D0414804224A494038F0
:10548000FAF7A0FE00280BD047493D480422491FE7
:105490004038FAF797FE002800D001200A9064E017
:1054A0003748FEF7F1FF50203870492078704E20C1
:1054B000B8704720F8700420B28803E0011F395407
:1054C000401CC0B29042F9D338A000F081F943E00B
:1054D000002827D034492A480422491F4038FAF7C7
:1054E00071FE0028D9D12648FEF7CEFF5020387033
:1054F0004F2078704E20B8704720F8700420B28892
:1055000003E0011F3954401CC0B29042F9D301207E
:10551000FBF79EF91A482A6B31794038904726A04C
:1055200000F056F9347072B63078002822D023E0AB
:105530000A98002819D050203870492078704E20E1
:10554000B8704720F8700420B28803E0011F395476
:10555000401CC0B29042F9D30120FBF779F908480A
:105560002A6B317940389047DCE77D20E96BC00039
:105570008847D7E7FDF728FA62B66FE7712C000875
:1055800040030020152C0008492B0008412C00087E
:10559000E52B0008B92B00083059000800A1BC33E6
:1055A000C0C62D0044000020D65900082E2E2E50D3
:1055B000494E470A0D0000002E2E2E504F4E470A2E
:1055C0000D00000003E00B780370401C491C1346DB
:1055D000521E92B2002BF6D170470000F0B513B402
:1055E00006460199FBF78EF804460D4602460B4627
:1055F00030460199FAF79AFE064601981B4B0F4672
:1056000000280CDA00223046FBF7DAF80CD9002229
:10561000174B30463946FAF7CDFF1DD214E0002271
:105620003046FBF7CDF808D20022124B204629461F
:10563000FAF77CFE04460D460EE000220C4B304685
:105640003946FAF7B7FF07D800220A4B2046294609
:10565000FAF7C8FD04460D46019A69004908D20FC1
:10566000D2072046114303B0F0BD00000000E0BFA8
:105670000000E03F0000F03F10B50248FCF778FD65
:1056800010BD0000D004002010B50F480D49016086
:10569000E1214902416000218160C16001618161B5
:1056A0000C214161FCF783FD002801D0FBF712F9C2
:1056B000002201211C20FBF747FB1C20FBF730FBDD
:1056C00010BD000000440040D004002010B586B09A
:1056D00014216846FAF76BFD1048C26A01210A439B
:1056E000C262C26A0A400592C26A0A43C262C06AC2
:1056F000052408400590032001900020029004201A
:105700002407009069462046FBF708FA082000901D
:1057100069462046FBF702FA06B010BD00100240B1
:1057200030B587B014216846FAF741FD1248C26AC5
:1057300001210A43C262C26A0A400592C26A0A4350
:10574000C262C06A042408400094059002200190BF
:105750000320052502912D070390694604942846ED
:10576000FBF7DCF908200090694604942846FBF713
:10577000D5F907B030BD00000010024010B5114C43
:105780000FE0EFF3108072B60F498918521CD2B2A5
:10579000628080F31088FF232D3301220B48FCF731
:1057A0004DFD20886288801AFF300130C117090E34
:1057B0000918090A0902401A0028E2DC1C20FBF73C
:1057C000A5FA10BD4C000020D0030020D00400201A
:1057D0000FB4F0B5A1B027AAEFF3108472B66846F3
:1057E0002699FFF765F8174DC6B228888119FF2959
:1057F0001548298808D8401832466946FAF7BEFC91
:1058000028888019288012E0FF220132511ACFB275
:1058100029883A4640186946FAF7B0FCF01BC6B230
:105820006846C11932460848FAF7A8FC2E8084F36E
:1058300010881C20FBF77EFA21B0F0BC08BC04B035
:10584000184700004C000020D0030020000C23006B
:105850000D1E000ED2001A01001FAA002407002707
:10586000120028C1002994002AC10030D800358FC9
:10587000003B020040000041300131430123400061
:10588000280A0000170000001C0C00000F00000098
:105890003C0F00000700000050140000160000003C
:1058A0009C1800000E000000781E0000060000009A
:1058B000A028000015000000D43000000D000000FA
:1058C000F03C000005000000405100001400000002
:1058D000A86100000C000000447A000004000000F1
:1058E000E4A200001300000050C300000B00000001
:1058F00024F40000030000008545010012000000B0
:10590000A08601000A00000048E801000200000033
:105910002C8B020011000000400D03000900000064
:1059200090D0030001000000E0930400000000009C
:10593000FD300008B130000829300008352E00087D
:10594000B1390008313900089931000819370008C9
:10595000FD3B0008213F00081D2E0008412E0008D5
:1059600029380008353E0008593E0008C13A0008B1
:105970008541000805410008B7370008BD4100080F
:1059800057370008C9410008693700088139000805
:10599000553A0008212E0008000000000000000019
:1059A0000102030406070809030406080C10182066
:1059B0003000000000010203041F1C1F1E1F1E1FD9
:1059C0001F1E1F1E1F1F1D1F1E1F1E1F1F1E1F1EEF
:1059D0001F50494E4700504F4E470000FC590008E9
:1059E000000000205C0000004C490008585A0008E4
:1059F0005C000020E40800005C4900080000000092
:105A000000000000E9310008593400083135000871
:105A1000E535000839360008000000008141000823
:105A20002530000859310008793A00082D3900085E
:105A30001939000880841E000000000000000000EA
:105A40000000000040000000000000000000000016
:085A500000000000000000004E
:04000005080000C12E
:00000001FF
