:020000040800F2
:1000000028180020D50000089D430008353400085A
:1000100000000000000000000000000000000000E0
:10002000000000000000000000000000A3650008C0
:100030000000000000000000E54E0008AD7C000854
:10004000E7000008E70000082B550008E70000085B
:10005000E7000008E50E0008F50E0008050F00088F
:10006000E7000008E7000008E7000008E7000008D4
:10007000E7000008E7000008E7000008E7000008C4
:10008000E7000008E7000008E700000800000000A3
:10009000E7000008E7000008E7000008E7000008A4
:1000A000E7000008E7000008E700000845830008B3
:1000B000E7000008E7000008E7000008E700000884
:1000C0000348854600F078FC00480047E9940008A2
:1000D000281800200448804704480047FEE7FEE750
:1000E000FEE7FEE7FEE7FEE7497D0008C1000008E5
:1000F00030B50B46014600202022012409E00D46C0
:10010000D5409D4205D31D469540491B2546954047
:1001100040191546521E002DF1DC30BD70B500248B
:100120002546002801DA01244042002901DA012590
:100130004942FFF7DDFFAC4200D04042002C00D026
:10014000494270BDF0B51FB40646002082B0054696
:100150004024019100901BE0019922460F46304651
:1001600000F0F4FA049A059B801A994110D31046C6
:100170001946224600F0DAFA361A8F4101972246D4
:1001800001200021009F00F0D1FA38184D41009065
:100190002046641E0028DFDC019B00982946324679
:1001A00007B0F0BD03460B439B0703D009E008C925
:1001B000121F08C0042AFAD203E00B780370401C17
:1001C000491C521EF9D27047D2B201E00270401CA5
:1001D000491EFBD270470022F6E710B513460A46C7
:1001E00004461946FFF7F0FF204610BD0321001D0D
:1001F000401E037812021A43491EF9D51046704773
:10020000F8B502464A40D40F42004B0052085B0842
:100210009A4202D20246084611464A0023D0C30D34
:100220004A00DDB2120EAD1A202D35DA4902012640
:10023000490AF6058A19002C00D0524220214F1B92
:100240001146B9402A411018C20D9A4221D0002C03
:1002500017D0012D08DCDA05801AD20F8019D207D9
:10026000DBB200F09FFAF8BDDA05801A01234000E6
:100270001B06C01880185A428018CA0F1043490044
:1002800007E04908C2071143DA05801A80194008BF
:10029000801800F07FFAF8BD61000122511A001B9E
:1002A000F7E70122D2075140AAE70122D2075040C6
:1002B000A6E70000F0B507460846584087B0C00FD3
:1002C000049048000E46590040084908BC1A88416D
:1002D00005D2384631461E4617460B4602465800A0
:1002E000400810434CD0300D039040055900400D9C
:1002F000490D0590401A0290402872DA1803012136
:10030000000B09050843019004980092002805D0CD
:1003100001995242002088410092019002984021A8
:100320000A1A0199009800F001FA05460C466B463E
:1003300007CB00F01CFAC0197141039A0E0D00237F
:10034000D71756401A467A40164344D0049A002ADA
:100350002DD0029A012A039A15DC1205C01A914188
:1003600001263605001C7141D20F059ED20700936D
:10037000019202962A46234600F05AFA07B0F0BDD1
:1003800038463146FAE71605224A0F46B218C01A17
:10039000B74101210905001C4F4100187F4111465A
:1003A00018187941E20F10436D19644113E0E20718
:1003B0006D0815436408C2071443039A0126120509
:1003C000C01A91413605001C7141CE0740083043E8
:1003D0004908C01851412A46234600F01CFACDE7CF
:1003E000FFE7049801224000C117121A00238B4135
:1003F00004983146C417381AA141EEE730B40124FD
:10040000E407634030BC55E730B40124E4076140A1
:1004100030BC4FE70000E0FFF0B51FB488B00B9987
:100420000998002448400999C00F490049080991DA
:10043000C0070B990090490049080B910999089849
:10044000A64608431CD00B990A98084318D009986F
:1004500001244000420D4800410D09982405000385
:10046000000B204309900B980003000B20430B90D6
:1004700050181C494018002201901446104605E00F
:10048000002001460DB0F0BD032801DA034600E06C
:1004900003239C46C11A0AAE0AE05F0008ADED5B7B
:1004A0004F00F75B7D430027AA187C41491C5B1E67
:1004B0006145F2DD410004AB5A522104120C0A439B
:1004C000240C401C0828DFDB01980290009970463C
:1004D00001910090059B049A0799069800F0A8F9ED
:1004E000D0E700000DFCFFFFF0B50C465C4085B086
:1004F000E40FE40703944C00002664085900944676
:10050000490802460296224321D062460A431ED081
:100510006200570D4A000E032303550D01240246C5
:100520002C492405781B1B0B360B4018234326430C
:10053000614600901C46501AB44103D30098401CF9
:10054000009002E0921800985B41002803DA002036
:10055000014605B0F0BD0020012109050746864689
:1005600011E064461D46141BB54106D36546521B77
:10057000B341744607430C43A646CD0740084908DB
:10058000284392185B4105460D43EAD110461843B3
:1005900013D06046194650407140084306D060466B
:1005A000101AB34106D20122002306E000220123E3
:1005B000DB0702E00122D243531000987446010584
:1005C000381C6141029C039D0019694100F023F928
:1005D000BFE70000FD03000070B54B005B0803435C
:1005E0000BD04B005C0D002633466542B341D41757
:1005F000AD1AA34102DB0020014670BD1205301880
:10060000514170BD10B500229623114600F0CAF882
:1006100010BD00000EB5C217C10F5040CA074018E8
:100620000021054B0293019200910A460B4600F00F
:10063000FFF803B000BD0000330400000EB505490B
:100640000291002100910A460B46019100F0F0F85A
:1006500003B000BD3304000070B5CD0F4A0009039C
:100660000123090B1B0519430B4BED070024520D09
:100670009A4201DA002070BD074B34339A4203DC02
:100680009A1A00F063F802E00449511888402C439C
:10069000F1D0404270BD0000FF030000CDFBFFFF22
:1006A0004A0009030123090B1B051943094B10B527
:1006B000520D9A4201DA002010BD064B34339A42A3
:1006C00003DC9A1A00F042F810BD03495118884023
:1006D00010BD0000FF030000CDFBFFFFC20FD207DB
:1006E000400040080BD0C10D0723DB01C9184002B0
:1006F0000905400A1143C208400711437047002012
:100700000146704710B5002904DB0124E40740428C
:100710008C412146002B04DB1C460123DB0752429F
:10072000A341994200D1904210BD000010B5202A8B
:1007300004DB0146203A9140002010BD9140202367
:100740009C1A0346E3401943904010BD10B5202A7F
:1007500004DB0846203AD040002110BD0B46D340B0
:10076000D0402024A21A91400843194610BD10B56C
:10077000202A06DBCB170846203A1041C1170B434D
:1007800006E00B461341D0402024A21A91400843B2
:10079000194610BD002904DA401C490001D1400867
:1007A0004000704770B40024050C05D110240004EB
:1007B00002D1002921D01124050E01D100020834F4
:1007C000050F01D10001241D850F01D18000A41C5B
:1007D000002801DB4000641C002908D020252E1BC6
:1007E0000D46F540A14000D00121294308430106F0
:1007F0001B1B000ADB1D02D5002070BC7047DB0507
:10080000181880180029F8DA401C4900F5D170BC8E
:1008100040084000704710B5002B08DA0024401C47
:10082000614192185B411A4301D14008400010BD5C
:10083000F0B51FB482B005460C0003D0084607F09F
:10084000D7FD02E007F0D4FD20300246009021469B
:100850002846FFF76BFF049B059A04460F46184392
:100860001143084314D0184610431BD00098402170
:100870000A1A18460599FFF769FF05460E46009AC1
:1008800005990498FFF752FF084305D0012004E0C2
:100890002046394607B0F0BD0020C11705430E437E
:1008A0002C43374300990E986305401A7905E40AF2
:1008B00000220C43FD0A0A3002D500200146E9E778
:1008C0000105101969410C9C0D9D00196941FFF744
:1008D000A2FFDFE7F8B50546480040080C4628436C
:1008E00004D06000184A400D904201DD2846F8BD52
:1008F00015493539884210DC88420BDB290D20036D
:1009000008432903014305D0E00F1049C0074118EF
:100910000020F8BD00200146F8BD161A4020821BB9
:1009200028462146FFF702FF074600912846214648
:100930003246FFF70BFF3A46009BFFF76CFF32464B
:10094000FFF7F4FEF8BD0000330400000000F03FA4
:100950004A0009030123090B1B0519430A4B10B573
:10096000520D9A4202DA0020014610BD064B343384
:100970009A4203DC9A1AFFF7E9FE10BD034BD21826
:10098000FFF7D4FE10BD0000FF030000CDFBFFFF0A
:1009900010B5002904DB0124E40740428C412146C4
:1009A000002B04DB1C460123DB075242A3418B4290
:1009B00000D1824210BD0000064C0125064E05E024
:1009C000E36807CC2B430C3C98471034B442F7D370
:1009D000FFF77AFBC09F0008E09F000870B58C18F5
:1009E0000578401C6B075B0F01D10378401C2A116E
:1009F00006D10278401C03E006780E70401C491CAA
:100A00005B1EF9D12B0705D40023521E0DD40B70A9
:100A1000491CFAE70378401CCB1A921C03E01D78AE
:100A20000D70491C5B1C521EF9D5A142D8D3002081
:100A300070BD000038B50446064805490068FFF758
:100A400057FB604300E0401E00900028FBD138BDFA
:100A500040420F0038000020F8B504460068816865
:100A60008907890F012902D10168C90722D181684C
:100A7000114A10261140012500290ED18168294311
:100A800081600120FFF7D6FF00F0E4FD07460CE08F
:100A900000F0E0FDC01B0A2807D9A06D3043A06517
:100AA000E06D2843E0650120F8BD20680068C04380
:100AB000C007EDD10020F8BD17000080F0B589B067
:100AC0000C46074610220021684608F061FD694681
:100AD0002246084608F033F9684600788726010662
:100AE000684600290FDA00214318425C5B78520007
:100AF000DB091A434254491C0F29F5DBC17B02462E
:100B0000490071400DE000214318425C5B785200BF
:100B1000DB091A434254491C0F29F5DBC17B02460D
:100B20004900D173E21DF9325169102912D00178C0
:100B300009061BD500214518435C6D785B00ED0963
:100B40002B434354491C0F29F5DBC17B0346490065
:100B5000714019E000216218FF3201325378455C80
:100B6000491C6B4053701029F5DB26E00021451825
:100B7000435C6D785B00ED092B434354491C0F29FE
:100B8000F5DBC17B03464900D973E11D556980231C
:100B9000FA316B54002500E05D5453695B1C5361CE
:100BA000102BF9D300216218FF3201325378455CD3
:100BB000491C6B4053701029F5DB00216218104668
:100BC000FF32E0300132437C5278491C5340437479
:100BD0001029F3DB21461022F13104A808F0C0FCF3
:100BE0002246394604A808F0AAF8102200216846D7
:100BF00008F0CEFC09B0F0BD10B50446102200216B
:100C0000F13008F0C5FCFF20002115300151F02221
:100C1000204608F0BDFC10BD0B4610B50246102161
:100C2000184608F0B7F810BDF0B50446FF308BB099
:100C30000F4601300890E11D4069FA3100911039EA
:100C400015460791002843D010210E1AAE4200D35A
:100C500016460099B2B24018394608F081FC08984F
:100C6000089940698019486110283AD3B54238D0B4
:100C7000002162181046FF32E0300132437C527886
:100C8000491C534043741029F3DB07992246084658
:100C900008F055F8BF19AD1B1AE000202118E0310B
:100CA0004A7C3B5C401C5A404A741028F6DB1022F8
:100CB00002A8079908F054FC02A92246084608F049
:100CC0003EF8102202A9079808F04AFC103D1037A0
:100CD000102DE2D8AAB23946009808F041FC0898D5
:100CE00045610BB0F0BD0000F7B523498022497A79
:100CF000214B511ACDB2197A5B7A8026F31A0A4633
:100D0000DEB2871E491C0124C9B2761E3B0007F0E3
:100D10009EFB09060C060C120C06062B3000164B27
:100D2000AA4224D2154CA05403E0134BB24215DB67
:100D30001DE019720DE0104EAD1EAA4217DA0F4BDE
:100D4000985401985854491CC8B202991954401C2F
:100D50003072002408480121C17108E0074CA054FA
:100D600001986054491CE4E7034BAA42F6D320469D
:100D7000FEBD0220FEBD0000A8000020EE0D0020F8
:100D80007047000000231A4619460EC00249016050
:100D900002494160704700000D093E00AB030500A9
:100DA0003EB50D4C6946E2780A70227D8A70C870A3
:100DB000606B06F0F9FF0190E06B0290E07D694600
:100DC0004870207C04F0E1FB218CE06B4143081A61
:100DD000A16D4018A0653EBDA8000020FFB5002011
:100DE00085B00090054606460190002477000798DC
:100DF0000121C05BA14008422FD028190C2203908A
:100E00005043089A1258002A27D0059A002A01D187
:100E1000490722D00899411808200291085602116A
:100E200000070117069840B204F0BFFD002814D057
:100E30000298407A01010E980818C068002804D072
:100E40000198401CC0B2019007E0009A0F990398E6
:100E500088540098401CC0B20090641CE4B2102C6E
:100E6000C5D31035761CEDB2F6B2102DBDD3109956
:100E700001980870009809B0F0BD000030B587B047
:100E800014216846FFF7A7F9032001900020029083
:100E900003204003104C0090E06A01210843E06207
:100EA000E06A0840059005206946000700F00AFB4B
:100EB000E06A40084000E062606B0125AD05284310
:100EC000606300F08BFA00F099FA00F08FFA606B23
:100ED000A843606307B030BD0010024010B501F0B8
:100EE00097FF10BD10B5012000F0E0FA022000F0DD
:100EF000DDFA10BD10B5042000F0D8FA082000F08B
:100F0000D5FA10BD10B5102000F0D0FA202000F066
:100F1000CDFA402000F0CAFA802000F0C7FAFF2086
:100F2000013000F0C3FA0120400200F0BFFA0120B6
:100F3000800200F0BBFA0120C00200F0B7FA0120E5
:100F4000000300F0B3FA0120400300F0AFFA0120E3
:100F5000800300F0ABFA0120C00300F0A7FA10BD37
:100F6000FEE700000649800009580648091803D02A
:100F7000C14203D000207047012070470220704713
:100F80007C9C0008702FFCFF10B5094A0021CB00A3
:100F9000D458844207D89B189B68834203D9C80061
:100FA0008018007910BD491CC9B21529EFD3FEE79E
:100FB000F89A0008F8B5054604464035287D002615
:100FC000012808D001202875206881688907890FC9
:100FD00001290ED101E00220F8BD0168C90708D03F
:100FE000A06D20210843A065012600202875304609
:100FF000F8BDA16DFF220132914302221143A16588
:10100000C1688907890F0091C16889088900C1609A
:101010002068816892071143816000F01BFB07463E
:101020000EE000F017FBC01B0A2809D9A06D0221B1
:10103000884310210843A065002028750120F8BDD1
:10104000206880680028ECDB2068C168009A1143A2
:10105000C160A06D80088000401CA065C5E700004D
:10106000F8B506460D464036317D01290DD00121E7
:10107000317501688A68520709D5816D20221143B4
:101080008165002030750120F8BD0220F8BD174BA6
:101090006A68D80547109A42154C8A6A2B6812D0A4
:1010A0005B035B0B1A438A622968490305D5A16873
:1010B0000143A1600A20FFF7BDFC2868800312D518
:1010C000A06838430EE05B035B0B9A438A62296891
:1010D000490302D5A1688143A1602868800302D535
:1010E000A068B843A06000203075F8BD0110000072
:1010F000002701400068006C7047000070B50400D4
:1011000006D0A06D264600254036002802D006E015
:10111000012070BDE5653575204600F0D1F8A06D61
:10112000C00603D421688868400705D5A06D10214A
:101130000843A0653575EBE7A06DFF2201329043AF
:1011400002221043A06588688207920F5A48012A3C
:1011500002D10A68D2072BD1032362689B079A4207
:1011600005D05B429A4202D05B009A4209D10A69DB
:10117000920092080A6121680A6963681A430A6149
:101180000CE00A69920092080A6181680F229204B9
:101190009143816081686268114381602168CA68F7
:1011A00018239A43CA602168CA68A3681A43CA60B0
:1011B000816801225206914381608168228F520624
:1011C0001143816020688168C90004D481680122CC
:1011D0001207114381602068C168384A1140C1601C
:1011E0002169E068022923D000210843216A226B8B
:1011F0004903520011430843616B0843A169890305
:101200000843E169C90308432168CA681043C860FC
:10121000A06A0146FF39C23905D0E16A0843216856
:10122000CA681043C860606A0121012802D00BE03F
:101230000421DAE7206A002823D0A06D2022104381
:10124000A065E06D0843E065206C012820681FD090
:101250000169C90703D00169490849000161206893
:101260004169C908C900416120684169E26B1143C5
:101270004161E565A06D80088000401CA0650020EC
:1012800070BD2068C26801231B041A43C260DBE7FB
:101290000269FF239B009A43026120680269636C24
:1012A000E66C1A43A36C33431A4302612068026957
:1012B0000A430261D3E70000002701401902FEFF44
:1012C0007047F8B504464069254640350E46082863
:1012D0000BD02068C068C00709D0A06D202108434A
:1012E000A065002028750120F8BD082700E00C2724
:1012F00000F0B0F9009011E0701C0FD0002E05D066
:1013000000F0A8F90099401AB04207D9A06D042155
:101310000843A065002028750320F8BD20680068F8
:101320003842E9D0A06D012149020843A065206838
:10133000C16809058A0F0C21002A1AD1226A002AE5
:1013400017D10268120714D5826853070122002BB7
:1013500008DB43688B434360A06D1302984310433E
:10136000A06506E0A06D20231843A065E06D104342
:10137000E065A069002801D1206801600020F8BD67
:1013800070B50446216800208968490721D42546A4
:101390004035297D01291CD001212975E1690129E8
:1013A00004D02046FFF758FB002811D1A16D0A4A4E
:1013B0001140FF2201321143A1650021E165297529
:1013C00022681C21116021688A6804231A438A60FC
:1013D00070BD022070BD0000FEF1FFFF02484168B1
:1013E000490849004160704700580140024841687F
:1013F000042291434160704700580140024841680F
:1014000002229143416070470058014070B50024AA
:10141000024620325179022903D00421C1630124FC
:101420003CE001680B680E25AB430B6001680B685C
:101430005B085B000B601A4B0168994201D10121E6
:1014400021E0174B1433994201D110211BE0144BBA
:101450002833994201D1891515E0114B3C3399424B
:1014600001D189140FE00E4B5033994202D1012172
:10147000090408E00A4B6433994202D101210905AD
:1014800001E001210906064B083B59600121517119
:1014900000211171816B002900D08847204670BD62
:1014A0000800024010B501F0E9FB10BD10B5044979
:1014B0004A69024202D04861FFF7F4FF10BD000004
:1014C00000040140F8B500230124A7E027469F400F
:1014D0003A4070D04D68022D01D0122D14D1DD0894
:1014E000AD002D1800952D6A5E07AC46F50E0F264F
:1014F000AE46AE406546B543AC460E697546AE4055
:1015000065462E43009D2E624D68012D05D0022DAB
:1015100003D0112D01D0122D16D185680326AC46BB
:101520005D00AE46AE406546B543AC46CE687546F6
:10153000AE4065462E43866046680D79BE43ED0693
:10154000ED0F9D403543456006685F000325BD40B3
:10155000AE46AE430D79B446AE07B60FBE40654603
:101560002E430660C6687546AE438D68BD40354360
:10157000C5604D68ED0050D52B4D6E6B26436E63F4
:101580009E082A4DB6007519AC46AD689E07360F09
:101590000F27B740BD4305273F07B84201D10027B9
:1015A0001AE0234FB84201D1012715E0214FB8427C
:1015B00002D1022710E030E01F4FB84201D10327CB
:1015C0000AE01E4FB84201D1042705E01C4FB84283
:1015D00001D1052700E00627B7402F436546AF60DD
:1015E000184D2E684F689643FF0300D516432E60B2
:1015F0006E684F689643BF0300D516436E60AE68B1
:101600004F689643FF0200D51643AE60EE684F6800
:101610009643BF0200D51643EE605B1C0A68154670
:10162000DD4000D052E7F8BD00100240000001404C
:101630000004005000080050000C00500010005042
:10164000001C005000040140002A01D08161704755
:101650008162704701480068704700003C0000202C
:1016600002480168491C0160704700003C000020EE
:1016700010B506480168022211430160032000F002
:1016800007F800F007F8002010BD0000002002401D
:101690000020704710B50848816B02041143816334
:1016A00000F02CF800F022F80448016808221143E9
:1016B000016000F013F810BD00100240002002404D
:1016C000C106C90E0120884001490860704700002A
:1016D00000E100E010B502F063FE10BD02480168B1
:1016E0000215114301607047007000400248016814
:1016F00042151143016070470070004002480168C4
:10170000102291430160704700700040F8B54E49C7
:10171000074601250020ED034A4B4B4A4031082F74
:101720007BD00EDC012F48D0022F60D0042F22D1B5
:10173000CC680326B602344065D07F02BC424ED04E
:1017400064E0102F77D00126032436042404202FD0
:1017500009D0FF3F012F0ED1C968214053D074003A
:10176000A1423CD06BE00B6909692140B14203D131
:1017700099052EE02846F8BD01256D04A94203D144
:101780009907F8D53148F8BDA142FCD11168890309
:10179000F9D5116803200005014001200005091A50
:1017A00009D0091A05D0814201D12948F8BD29483C
:1017B000F8BD2948F8BD2948F8BDCC68A407A40F96
:1017C0000AD0022C0BD0012C0ED0032CF4D10969C5
:1017D00089050029CEDBF8BD00F0C2F9F8BD11681B
:1017E0004907FBD51846F8BD00F0CAF9F8BDCC682A
:1017F0000C26344007D0082CF1D0042CF4D00C2C4B
:10180000E5D0F8BD09E000F09BF9FAE70122920269
:101810009442E9D0B442DAD0F3E7C9680324240340
:101820002140F0D001256D036C10A942D7D0A14210
:10183000DAD0E6E7FFE7916B4902E4D4E1E7B14291
:10184000D2D0DEE70024F4000010024088900000AF
:1018500020A1070000093D0040420F0080841E00C7
:10186000F8B504460078594D800672D5574E0027CA
:10187000403EB06BC00004D4B06BA9050843B06310
:10188000012753480168C90511D401688215114325
:101890000160FFF7DFFE009005E0FFF7DBFE009937
:1018A000401A642837D84A480068C005F5D5326820
:1018B0000321090560680A400140914208D0810374
:1018C000890F032904D13168890301D50120F8BDAE
:1018D0002A69032109040A4022D0084090421FD0FF
:1018E000207880061CD528692A6988430121C9040B
:1018F0000A432A612A698A432A612861C0050FD5F3
:10190000FFF7A8FE009008E0FFF7A4FE0099411A37
:101910003048814201D90320F8BD28698005F3D5FC
:1019200061688803800F032805D13268000582436F
:1019300001400A43326028690322616812041140A1
:1019400008432861002F04D0B16B012000078143B8
:10195000B1632078C00705D0E868A16880088000DE
:101960000843E8602078800705D5E8680C218843A3
:10197000E1680843E8602078400706D5E86803215D
:101980008902884321690843E8602078000706D56A
:10199000E86803210903884361690843E8602088F7
:1019A000C00506D5E868032109048843A1690843F6
:1019B000E8602078000606D5E8680321890488439A
:1019C000E1690843E8600020F8BD000040100240D3
:1019D0000070004088130000F8B5054653480E46D5
:1019E0000068C007C00FB0420AD2504801684908D9
:1019F0004900314301600068C007C00FB0426FD199
:101A000028784B4C800705D5E068F0218843A96809
:101A10000843E0602878C00752D06868022817D0D1
:101A2000032818D02168012818D08905002957DA21
:101A3000E168890889000143E160FFF70BFE6968EE
:101A40000746022912D003291CD0012926D033E0F1
:101A500021688903EAE721688901E7E74907E5E7A3
:101A6000FFF7F8FDC11B3348814223D8E068000727
:101A7000800F0228F4D123E0FFF7ECFDC11B2D48B5
:101A8000814217D8E0680007800F0328F4D117E0DF
:101A9000FFF7E0FDC11B274881420BD8E068000733
:101AA000800F0128F4D10BE0FFF7D4FDC11B2148C2
:101AB000814201D90320F8BDE0680007800FF3D10F
:101AC0001A480168C907C90FB1420BD90168490812
:101AD0004900314301600068C007C00FB04201D027
:101AE0000120F8BD2878400706D5E06807210902E3
:101AF0008843E9680843E0602878000707D5E06874
:101B00000721C90288432969C9000843E06000F041
:101B100037F8E168084A0906090F515CC8400749CF
:101B200008600320FFF7B4FD0020F8BD002002404C
:101B30000010024088130000109C000838000020AC
:101B4000044805490068C968044A4905490F515CC1
:101B5000C84070473800002000100240299C00084F
:101B6000044805490068C968044A8904490F515C62
:101B7000C84070473800002000100240299C00082F
:101B800010B5184AD1680C20084004280BD008284A
:101B900010D00C2810D050680004410F0120C00361
:101BA000491C884010BD1068C00601D50E4810BD04
:101BB0000E4810BD0E4810BD88020E4B000F185C79
:101BC0000902D368890F491CDB0301D5084A05E0E7
:101BD0001268D20601D5044A00E0044A5043FEF7D9
:101BE00087FA10BD0010024000093D000024F400F7
:101BF00000127A00209C0008F8B504460078F34DE6
:101C0000C0074CD0E8680007800F022807D0E868BA
:101C10000007800F032809D1E868C00306D52868AB
:101C200080033CD56068002875D038E001206268E8
:101C30000004824203D129680143296011E0052391
:101C400001211B0489049A422A6802D10A432A60AE
:101C5000F1E782432A602A6802400092286888439C
:101C60002860606800280DD0FFF7F4FC0646D84FC6
:101C700004E0FFF7EFFC801BB8427DD828688003A2
:101C8000F7D50CE0FFF7E6FC0646D14F04E0FFF77E
:101C9000E1FC801BB842F0D828688003F7D4207894
:101CA000800741D5E8681F270007800F3F02012801
:101CB00007D0E8680007800F032809D1E868C0034F
:101CC00006D42868400717D5E068012823D113E01F
:101CD000E068002817D02968092291430143296050
:101CE000FFF7B8FC064604E0FFF7B4FC801B0228AF
:101CF000C3D828684007F7D568682169B843090246
:101D00000843686010E02868400840002860FFF73A
:101D1000A1FC064605E090E0FFF79CFC801B022832
:101D2000ABD828684007F7D42078C00676D5E86895
:101D3000A84E0007800F0BD0A06900285DD028684E
:101D4000FF21013108432860FFF784FC074644E087
:101D50002868800502D5A06900286ED0206A6968CD
:101D60003140884212D903F079FB0028AED168686F
:101D7000216AB043084300E0BDE068606868217FE5
:101D80000002000A0906084368600FE06968B14371
:101D9000014369606868217F0002000A0906084360
:101DA0006860206A03F05AFB00288FD1206A410B3B
:101DB0000120C003491C8840E968874A0906090FC9
:101DC000515CC840854908600320FFF761FC25E0AD
:101DD000FFF740FCC01B02288AD828688005F7D589
:101DE0006868216AB043084368606868217F000220
:101DF000000A09060843686010E02968FF200130E6
:101E000081432960FFF726FC064604E0FFF722FC29
:101E1000801B02286FD828688005F7D42078704E80
:101E2000000723D560690028306910D001210843DC
:101E30003061FFF70FFC074605E0C5E0FFF70AFC3D
:101E4000C01B022857D830698007F7D50EE040083C
:101E500040003061FFF7FEFB074604E0FFF7FAFBA6
:101E6000C01B022847D830698007F7D42078400784
:101E700062D5A86B0027C00005D4A86B0121090713
:101E80000843A863012757480168C90511D40168B0
:101E9000821511430160FFF7DDFB009005E0FFF7BD
:101EA000D9FB0099401A642825D84E480068C0051F
:101EB000F5D5FF20A2680130824203D13169014388
:101EC000316111E001218902002A07D005231B029C
:101ED0009A4203D132690A433261EFE732698243A1
:101EE0003261306988433061A06800280FD0FFF765
:101EF000B1FB009007E060E0FFF7ACFB0099411AEE
:101F00003348814259D830698005F5D50DE0FFF797
:101F1000A1FB009006E0FFF79DFB0099411A2C48B9
:101F200081424AD830698005F5D4002F04D0A96BCE
:101F3000012000078143A963606A002842D0E96854
:101F40000907890F03293FD0012636060228286891
:101F500005D0B0432860FFF77DFB04462FE0B04377
:101F60002860FFF777FB074604E0FFF773FBC01B11
:101F7000022822D828688001F7D4E16AA06AEA68BA
:101F80000843216BFD231B049A4311430843E86077
:101F9000286830432860FFF75DFB044604E0FFF744
:101FA00059FB001B022808D828688001F7D509E0F2
:101FB000FFF750FB001B022801D90320F8BD286859
:101FC0008001F5D40020F8BD0120F8BD00100240CA
:101FD0008813000000E00000109C0008380000207A
:101FE000401002400070004030B5014620310A78B0
:101FF000012A15D001220A7002234B700468CA23FB
:10200000636204685323636203689C6820252C4341
:102010009C600068FF2343624A700020087030BD56
:10202000022030BD10B505F0E1FE10BDF8B5054643
:1020300004462035287801281DD001202870022070
:1020400068702268CA205062226853205062FF20C4
:1020500001300026FF2781421CD121688A68824313
:102060008A60206881680122120391438160FFF732
:10207000F1FA009009E00220F8BDFFF7EBFA0099B1
:10208000411A7D20C00081421BD82068C068C0076B
:10209000F3D020E0206881680122520291438160E0
:1020A00020688168120191438160FFF7D3FA0090A4
:1020B0000DE0FFF7CFFA0099411A7D20C000814260
:1020C00005D920684762032068702E70F8BD20682B
:1020D000C0688007EDD520684762012068702E70C7
:1020E0000020F8BD10B500680B464068C021C94308
:1020F00001400002000ECC04D870E40E5C708C0627
:10210000A40E0904490F9C701970002A0AD103F02B
:10211000DDF9D870587803F0D9F95870987803F041
:10212000D5F99870002010BD30B50B460168896A5A
:102130005960016809694904490C9960006804689C
:102140000F482146014088024D04800E18706D0E24
:1021500049065D70490E99706102490E4024214084
:10216000D970002A0AD103F0B1F91870587803F039
:10217000ADF95870987803F0A9F99870002030BD37
:102180007F7F7F0070B5040005D025462035687834
:10219000002802D006E0012070BD002028702046F3
:1021A00000F042F8022068702168CA204862216865
:1021B00053204862204603F09CF9FF210028206844
:1021C00003D0416204206870E5E78268154B1A402D
:1021D0008260226890686368A66918432369334364
:1021E000184390602268E0681061206802692389C2
:1021F0001B041A4302612068C26880239A43C260AC
:102200002068C26C92089200C264E269606902436D
:102210002068C36C1A43C264206841620120687060
:10222000002070BDBFFF8FFF00B595B00420009067
:1022300000200990FF20013002906846FFF7DCFC87
:10224000002801D0FEF78CFE20200D90C0020E90D9
:102250000DA8FFF705FB002801D0FEF781FE084816
:1022600001690122920411430161002211460220FA
:10227000FFF730FA0220FFF723FA15B000BD000087
:1022800040100240FEB506460446203630780B4624
:10229000012842D0012030700220707020681D4655
:1022A000002720358068002A39D0400655D5187897
:1022B00003F00CF9287803F009F9197898780904E3
:1022C00008435978DA78090212041143084329783F
:1022D00009060843D96908435969084305469969BD
:1022E0005868084300902168CA204862216853203A
:1022F0004862FF205A6A0130802182424AD1226816
:102300009368834393602268D0680840FF3882381E
:10231000D060FFF79FF9019029E00220FEBD400642
:1023200000D4DF70187803F0D9F80204587803F06D
:10233000D5F800020243987803F0D0F80243D87829
:1023400000040243287803F0C9F800060243D86964
:102350000243586902431546C1E7DF70AAE7FFF759
:1023600079F90199411A7D20C00081422AD820685C
:10237000C068C007F3D02068C56121680098486430
:1023800020688168FF2201321143816020688168E2
:10239000120130E02068826801235B029A43826068
:1023A0002068C2680A401D495118C160FFF752F900
:1023B00001900EE0FFF74EF90199411A7D20C0000F
:1023C000814206D92168FF2048620320707037706F
:1023D000FEBD2068C0688007ECD5206805622168D2
:1023E000009888642068816801225202114381604C
:1023F0002068816812011143816009480268012147
:1024000049040A43026082680A4382602168FF200F
:1024100048620120707037700020FEBD7FFDFFFF15
:1024200000040140F8B505460446203528780B46DF
:10243000012815D001202870022068705878002AE1
:1024400010D003F043F8987803F040F8D8789E78DD
:10245000000406435878197800024903084316E03F
:102460000220F8BDC10603D5EF2108400A3058709C
:10247000D87803F033F80604587803F02FF80002F8
:102480000643987803F02AF8064318784003064379
:102490002168CA204862216853204862204603F020
:1024A00028F80027002811D110480640206846600F
:1024B0002068C16880229143C160206880688006DE
:1024C0000CD4204600F08CF8002807D02168FF20AB
:1024D0004862042068702F700120F8BD2168FF2039
:1024E0004862012068702F700020F8BD3FFFFF0098
:1024F000F8B506460446203630780D4601280ED041
:102500000120307002207070206800278068002A47
:1025100007D040061AD5287802F0D8FF17E002202D
:10252000F8BD400600D4EF70287802F0D7FF02040F
:10253000687802F0D3FF00020243A87802F0CEFFD1
:102540000243E8780004024300920BE0EF70297820
:10255000A878090408436978EA780902120411434B
:10256000084300902168CA204862216853204862CD
:10257000204602F0BEFF00281FD1184900980840ED
:10258000216808602068816801229204914381607B
:102590002969E868084321688A68104388602068D0
:1025A000C16880229143C1602068806880060CD495
:1025B000204600F015F8002807D02168FF20486267
:1025C0000420707037700120F8BD2168FF20486238
:1025D0000120707037700020F8BD00007F7F7F0001
:1025E00070B504460068C168A0229143C160FFF73E
:1025F00031F87D260546F60006E0FFF72BF8401B74
:10260000B04201D9032070BD2068C0688006F4D5AF
:10261000002070BD70B5040006D025464035687CAA
:102620000026002802D005E0012070BD2E7420464F
:1026300000F032F80220687420680168402291435B
:102640000160A168606822690843E168114308439A
:10265000616901220843A169520211400843E169FE
:102660000843216A0843A16A084321680860A069F9
:102670000421000C0840616A084321684860216811
:10268000E06A08612068C16992009143C161666592
:1026900001206874002070BD7047F8B5044600271B
:1026A0006846078026464036707C012802D0707C40
:1026B00022287ED100290CD0002A0AD0002B08D075
:1026C000307C012875D001203074707C012802D044
:1026D00003E00120F8BD322070746765A263A38710
:1026E000E3872163A386E386A764E7640125A06AE4
:1026F0006D03A84207D120680168A94301602068E2
:1027000001682943016020680168490603D4016813
:102710004022114301600121FF20E268C902053017
:102720008A42616866D1002904D081420CD1E08ED2
:10273000012809D1206B21680088C860206B801CAB
:102740002063E08E401EE086E08E002843D1A06A20
:10275000A84246D12068016801221203114301609A
:102760003FE02068C068A16B0880A06B801CA0635C
:10277000B0E0002202212046069B03F0B9FE0028AB
:102780007DD1206B21680088C860206B801C20638D
:10279000E08E401EE086E08E002808D1A06AA842A4
:1027A00005D1206801680122120311430160002253
:1027B00000E0CCE001212046069B03F099FE0028B2
:1027C0007FD12068C068A16B0880A06B801CA063CB
:1027D000E08F401EE087E08E0028CAD160680028A4
:1027E0007BD1002201212046069B03F081FE0028B8
:1027F00067D1B6E7002904D081420BD1E08E0128D1
:1028000008D1206B411C216321680078C860E08EEC
:10281000401EE086E08E002845D1A06AA84205D17E
:102820002068016801221203114301600022012186
:102830002046069B03F05CFE002842D12068C06859
:10284000A16B087046E0002202212046069B03F09F
:102850004FFE002835D1206B411C21632168007890
:10286000C860E08E401EE086E08E00280AD1A06A93
:10287000A84207D1206802680121090300E020E096
:102880000A430260002201212046069B03F030FE2D
:10289000002816D12068C268A06B411CA163027099
:1028A000E08F401EE087E08E0028CCD160680028D1
:1028B00013D1002201212046069B03F019FE0028B7
:1028C00002D00320F8BD08E02068C168A06B421C5C
:1028D000A2630170E08F401EE087A06AA8420FD17A
:1028E000002201212046069B03F002FE002802D0B0
:1028F000606D02210EE02068C06869460880088883
:10290000012280212046069B03F0F2FD002804D01E
:10291000606D202108436065D3E701207074A06AD0
:10292000A84211D120688168C943C9060CD4616DE1
:102930000222114361650168A943016020680168B2
:10294000294301603774C4E637740020BAE70220D7
:10295000B8E7014660310A7A012A0DD001220A72D5
:1029600024224A720068026802231A43026020206F
:102970004872002008727047022070477047704705
:1029800070B5040005D025466035687A002802D06D
:1029900006E0012070BD00202872204600F026F8D5
:1029A0002420687220680168490849000160606A53
:1029B000002802D0204605F0E5FA204605F078FB15
:1029C0000128E7D0206841680922D2029143416082
:1029D000206881682A229143816020680168012271
:1029E00011430160204605F033FB70BD10B504486B
:1029F000416B012292031143416306F0C1FF10BDF8
:102A000000100240F0B5034660339C7A202C44D17C
:102A100000290BD0002A09D0012584682D03AC427F
:102A200006D10669002E03D1CE0701D00120F0BDEA
:102A30001E7A012E31D001261E72416501464031B9
:102A40000A834A83FF27AC4204D10269002A12D1CB
:102A5000134A0EE07F22002C08D001252D07AC423E
:102A60000AD10469002C04D03F2202E00469002C42
:102A700001D08A8300E08F830021C16622229A72EE
:102A8000197201688A6832438A6000680168FF220F
:102A90002132114301600020F0BD0220F0BD000092
:102AA000FF010000704730B5034660335C7A202C8C
:102AB00023D100290BD0002A09D0012584682D03D9
:102AC000AC4206D10469002C03D1CC0701D001200F
:102AD00030BD1C7A012C10D0C164014640310A82FD
:102AE0004A820021C16621225A7219720068016867
:102AF000802211430160002030BD022030BD7047AC
:102B000010B51248017800291ED101220270114827
:102B10000F49016000210164C161D30781614360F5
:102B200082638160C160016207234162C363026105
:102B3000C1620422426101630748416B421511439F
:102B400041630448FEF7DAFA10BD00006800002077
:102B50000024014074070020001002407CB51E498B
:102B6000064609780020002934D01C484168C94332
:102B70000907FBD41A4C606B65152843606300217C
:102B80001848FEF717FA184800901848019069464F
:102B90001448FEF765FAA0140190694600961148A2
:102BA000FEF75EFA0F48FEF7EBFB0021C9430D4824
:102BB000FEF787FB0B48FEF79DFA0A4980B20A68C8
:102BC0009368022633439360096803220A60616BAD
:102BD000A94361637CBD00006800002000700040D4
:102BE0000010024074070020FFFF070001100000E2
:102BF000014600200A0A00D00820084A114201D0EC
:102C000004221043064A114201D002221043054A11
:102C1000114201D00121084370470000F0F000008C
:102C2000CCCC0000AAAA000038B50B231B07C5189E
:102C3000114B0FD01C152D1B18D02D1B19D0A542E0
:102C4000DD6A05D108242543DD62DB6A234007E005
:102C50008024F8E7DC6A01252C43DC62DB6A2B4028
:102C6000009311601146FEF72DFC38BDDD6A022489
:102C7000E9E7DD6A0424E6E70010024010B5FFF73B
:102C8000B7FF810002484058002800D0804710BD9F
:102C9000FC02002070B51C4615460E460846FFF79C
:102CA000A7FF0A49002C0DD080000C50304601F0DF
:102CB0000DFB044600222946FEF70CFD2046FEF7D8
:102CC000FFFC70BD002280000A5070BDFC02002095
:102CD00010B5D2B2FEF7B8FC10BD000070B50024EC
:102CE0000E48FFF73BFF0E4E0E4D010013D00E486D
:102CF0003246008B5043FDF7FBF9B04201D9FE2468
:102D000009E0A84207D3401BFE2148434B2109019B
:102D1000FDF7EEF9C4B2204670BD00000000024489
:102D2000B80B0000080700006000F81F03494A695B
:102D30000869496A50404840704700004000F81F49
:102D400070B51148FFF70AFF104C01001AD0208B14
:102D50000F4A5043FDF7CCF905460E48FFF7FEFE3B
:102D600068430B49FDF7C4F9618B0522401A120331
:102D70005043E28B511AFDF7D1F90F214902401857
:102D800080B270BD0025E8E7000002446000F81F33
:102D9000B80B0000000004480F494B6A0A69D218BA
:102DA000120EC2714B6A0A69D218120C82710A8A19
:102DB0008B8CD218120A42710A7C8B8CD218027149
:102DC0004A69120EC2704A69120C82708A8A120A0B
:102DD0004270097D017070474000F81F10B50A4C21
:102DE000607800280ED1FFF78BFE08480068804706
:102DF00000F0DCF900F090F806F08AFDFDF7C0FF66
:102E00000120607010BD000068000020A89B000831
:102E100070B5410EC0017D220023FDF793F90546F0
:102E200000F072F8044600E000BF00F06DF8001BEF
:102E3000A842F9D370BD000070B505460C460022CB
:102E40002048FFF771F9002229461E486668FFF7FF
:102E500049F9002221461B48FFF766F96068B04235
:102E6000F1D1E878184A01465043C01C830888070E
:102E700026D0164968783D220646504302463C3A21
:102E80007000801EC1408807D10F8918800F49103B
:102E9000081AC018A978401E08180D493C2248435A
:102EA0006178E123514322781B015A438918A278A3
:102EB00010180818074A61688002511A401870BD3E
:102EC0000549D7E73C030020B5050000A0AA9900FA
:102ED00080510100FF03000050554400032070475B
:102EE00001480068704700008803002000B587B0E3
:102EF000694605A8FFF7A0FF0249096807B0401A14
:102F000000BD00008803002000B587B0694605A811
:102F1000FFF792FF07B000BD10B5084C20780028DD
:102F20000AD100F04BF8FF2101310548FFF77EF888
:102F300000F074F80120207010BD00004000002057
:102F40003C03002010B50C4C0021042000F020FCB4
:102F500021688868C0040ED5C868C0050BD5C8684C
:102F600080221040FF388238C860044990024861CE
:102F70002046FFF757F810BD3C0300200004014035
:102F800070B50446FFF7B2FF211A0B4D0220285EF0
:102F9000C01C814201D9002100E00121042000F081
:102FA000F7FB00F0CDFB012802D10220285E241A95
:102FB000204600F03FF870BD4000002010B51449D5
:102FC000144886B0002412C01F210160846004618F
:102FD0001149446141600838FFF7D4F86946CC755F
:102FE0000120487588750875002205A90948FFF772
:102FF00019FA009401940494002269460548039448
:10300000FFF776FA0348FEF7EFFF06B010BD0000A9
:10301000002800403C030020FF03000010B5044CD2
:103020002046211D1830FFF707FF206010BD00006B
:1030300088030020F0B587B0044614223F4901A858
:10304000FDF7B0F83D485038406E009000F07EF833
:103050003B4802993B4A401AA105890D081887B2DE
:10306000A10A68468078534202E08918401C80B269
:103070009942FAD26A461579E122120102E0891AD0
:103080006D1CADB29142FAD26A46547902E0641CDA
:10309000A4B23C393C29FAD2927951188EB201215E
:1030A000890203E07A1A761C97B2B6B28F42F9D23F
:1030B00003E03C3E641CB6B2A4B23C2EF9D203E05D
:1030C0003C3C6D1CA4B2ADB23C2CF9D203E0183DDF
:1030D000401CADB280B2182DF9D26946C978890773
:1030E00069464A7827D01849491E515C814202D26C
:1030F000FCF7FEFF08461249CA1B10492C394A60EA
:10310000052252068A618E704C700A460D7020327C
:1031100010706846C079C8700020C861FF224861FD
:103120000132C8604A620861024608462438FFF747
:10313000A9F807B0F0BD04490C31D5E78C03002095
:10314000FF03000080AEFEFF319C000810B506486A
:103150000168C86880221040FF388238C86051007A
:103160000148FEF763FF10BD3C03002010B57D2130
:1031700005F055F94906C009084310BD10B5410EC8
:10318000C0017D220023FCF7DDFF10BD01B582B038
:103190000020C0430090012301AA02A90248FFF7C2
:1031A0007CFA684680880EBDA403002010B51C4838
:1031B0001A4901601C4A1B4B0021126803E05208A7
:1031C000491C072901D29A42F9D84A078B07D20F26
:1031D000DB0F52011B011A43C90700D008210A4323
:1031E000C2610021816001614161FF22C16005323D
:1031F00081624260012201625202826141620B4897
:10320000416B8214114341630548FFF703FA00281C
:1032100001D0FDF7A5FE00F00BF810BD0030014015
:10322000A40300208096980038000020001002407F
:1032300010B586B014216846FCF7CDFF022001903E
:1032400002900320039000200524240704906A467E
:1032500020212046FFF7E8FC6A4640212046FFF780
:10326000E3FC6A4680212046FFF7DEFC0121019144
:1032700002916A4610212046FFF7D6FC0122102158
:103280002046FFF725FD06B010BD000070B5EFF336
:10329000108472B60749084E70680918E031CD7F76
:1032A000FF21401CFCF724FF84F31088284671603E
:1032B00070BD00004409002070000020F8B50268CD
:1032C0000446D06911680607360F07D1830605D575
:1032D0008B0603D5204606F07DF8F8BD9368254699
:1032E0006035002E70D0DE07F60FFF2721370F4024
:1032F000374369D0C70706D0CF0504D50127176229
:10330000E26E3A43E266820708D5DA0706D02768FC
:1033100002223A62E26E04273A43E266420708D587
:10332000DA0706D0236804221A62E26E02231A43E7
:10333000E266020709D520220A40324305D02368FD
:1033400008221A62E36E1343E366E26E002AC4D0D9
:10335000800604D5880602D5204606F03BF8E06ECC
:10336000000703D420688068400626D520680168DD
:10337000FF22213291430160206881684908490099
:1033800081602020A87220688168490611D5816873
:10339000402291438160606E00280AD01C498163FD
:1033A000606EFEF733F8002897D0606E816B884717
:1033B000F8BD2046FFF7E3FAF8BD2046FFF7DFFA35
:1033C0000020E066F8BDFFE7C6020BD55B0209D519
:1033D00001200005106220206872A8722046FFF7C5
:1033E000CDFAEFE7030605D50B0603D5204606F018
:1033F00047F8E7E74006E5D54806E3D513682046D9
:1034000040218B43136020216972FFF778FBD9E7D5
:10341000C1930008EFF3108172B6054805C88242D7
:1034200001D0012000E0002081F3108870470000E7
:103430007000002000BFFDE710B508A1095C08A0DE
:1034400006F0C4FA0D480021C17732212030017006
:10345000FF380021013800F02FF910BD4142430030
:1034600073776974636820746F20636C6173732071
:10347000256320646F6E650A0D000000DA060020E7
:1034800010B503A006F0A2FA022000F0C5F810BDA6
:103490004A4F494E45440A0D0000000070B5314DB9
:1034A0002960A86030A006F091FA2E460C363178DB
:1034B0002FA006F08BFA0124315D31A006F086FAC8
:1034C000641C082CF8DB29A006F080FA254E2EA0FB
:1034D0001436317806F07AFA0124315D28A006F01E
:1034E00075FA641C082CF8DB20A006F06FFA1D4E5C
:1034F00029A01C36317806F069FA0124315D2AA032
:1035000006F064FA641C102CF8DB29A006F05EFAC1
:103510002948284901602949416029498160A868F2
:1035200010490068091D08600722234800F082F94D
:10353000214C02260C342670286800782071204621
:1035400000F02EFC0720207028688078207120462B
:1035500000F026FC002020702671204600F020FCA0
:1035600070BD0000780000204F5441410A0D00005A
:103570004465764575693D202530325800000000CD
:103580002D253032580000004170704575693D208E
:1035900025303258000000004170704B65793D20A5
:1035A000253032580000000020253032580000003D
:1035B0000A0A0D00FD420008580B002001430008D4
:1035C0005D43000810B586B00021684601700A48C6
:1035D000019008300290083003901C380068C178D0
:1035E0006846017401A91EC904481EC0684600F05F
:1035F0000DFD06B010BD000084000020480B002027
:103600000EB501216846017000F04EFB6846007956
:10361000012800D000200EBDFEB5064600246946F4
:103620000C70684600F040FB69460879B04221D032
:10363000114F651E002E02D0022E1BD10CE0002877
:1036400018D1084600F0ACFB002803D1B8688169A6
:1036500000200EE02C460DE0002800D02C46022071
:103660000871084600F09CFB0028F3D1B868816916
:10367000022088472046FEBD78000020F8B50024CF
:1036800006460546094FE0360AE029190122084896
:10369000FFF709FA0748295D0155F07FB870641CEF
:1036A000F07FA042F1DC01207870F8BD44000020DA
:1036B000D4080020FB06002070B586B00E460446F4
:1036C00005F098FC002802D0002006B070BD254609
:1036D000E035E87F04A900F09DFD0246002017496F
:1036E000002A07D06A4610700290908108684078DE
:1036F000907311E0E21DF932002E14D001236846C8
:10370000037012780271EA7F828108220294C273E8
:103710000868417868468173684600F02FFA0028EF
:10372000D3D00120D1E76B46187010781871E87F6C
:1037300098810294086840789873EDE7780000203B
:10374000EFF3108172B607480268002A01D000200A
:1037500005E04068002801D0012000E0022081F34C
:10376000108870474801002010B5EFF3108272B640
:10377000064B00295C6803D0012903D1044300E013
:1037800084435C6082F3108810BD00004801002073
:1037900010B5EFF3108272B6064B00291C6803D0F7
:1037A000012903D1044300E084431C6082F31088A4
:1037B00010BD000048010020F8B5174605460A462E
:1037C0001948069C089E0799447183711C0AC471AC
:1037D0001C0C04721B0E437281720B0AC3720B0C19
:1037E0000373090E4173D4B2C4731048FDF704FA91
:1037F00039460E48FDF710FA10220B490B48FDF729
:1038000013FA224629460948FDF70EFA0749C81F50
:10381000FD38FDF753F9064C601CFCF7E7FC2178F6
:10382000000208433060F8BD14010020501200204F
:103830004C110020F8B50E46050017467ED02868CA
:103840000028FBD068680028F8D0A8680028F5D0C8
:10385000104602F08FFD002871D0774C00212666BB
:10386000E565224627741A32117002226274A16340
:10387000217601266676E1746165A1650B216A46B1
:1038800011703846694602F0AEF8002800D00120D9
:1038900020750821684601706946207C02F0A3F873
:1038A000664D05212870684601706946207C02F04B
:1038B0009AF868700C21684601706946207C02F015
:1038C00092F8E8600D21684601706946207C02F09C
:1038D0008AF828610E21684601706946207C02F052
:1038E00082F868610F21684601706946207C02F009
:1038F0007AF8A8611021684601706946207C02F0C0
:1039000072F8E8611321684601706946207C02F074
:103910006AF82F462037787014216846017069468E
:10392000207C02F060F868621521684601706946E3
:10393000207C02F058F838721A2101E077E078E034
:10394000684601706946207C02F04DF838731B21EF
:10395000684601706946207C02F045F878731C21A6
:10396000684601706946207C02F03DF828631D21FD
:10397000684601706946207C02F035F868630021D2
:10398000207C02F0F0FC3E700A2206216A60284684
:103990002972383842600172E968C16029690161A1
:1039A00069694161A9698161E969C1612030067075
:1039B00002F052FD28462249383004F001FA7D21F8
:1039C0002846C900383004F063FA28461D4968309B
:1039D00004F0F6F928461C497C3004F0F1F9284639
:1039E0001A49903004F0ECF928461949CC3004F01B
:1039F000E7F904F0D3F96063284616494C300160BA
:103A00001549816015490161154941601549164DF7
:103A1000C160A9688847E869804705F073FFA6740C
:103A2000296E30468847686B80470020F8BD032028
:103A3000F8BD0A20F8BD0000A8000020280F0020D3
:103A4000254400080D4E0008514D0008B14D0008F6
:103A5000E5430008294C000855460008614B000862
:103A6000154D0008C14B0008A89B0008F8B5044696
:103A70001D4617460E460D48FDF7BEF839460B4861
:103A8000FDF7CAF8F2B221460848FDF7CDF807491C
:103A9000C81FFD38FDF712F8054C601CFCF7A6FBAB
:103AA0002178000208432860F8BD00005012002071
:103AB0004C110020FFB585B00F46044607ADF0223B
:103AC00000211D480E9E05F063FD1B4A1021204673
:103AD00005F060F910220021684605F059FD01212A
:103AE00068460170062239466C46401C05F038FDD8
:103AF00002222946E01D05F033FD0F4A6846089969
:103B000005F01DF910220021684605F041FD022153
:103B10006846017006223946601C05F021FD02222C
:103B20002946E01D05F01CFD034A3146684605F0B4
:103B300006F909B0F0BD00005C110020F8B5174689
:103B40000E4605461C46F02200210B4805F020FDDC
:103B5000094A1021384605F01DF9074A2146284632
:103B600005F0EDF8102E06D321462846024A103102
:103B7000103005F0E4F8F8BD5C110020F0B5044603
:103B800087B002200490002006460190002C78D0D7
:103B90004248816BCA0701D1C80602D5012007B08F
:103BA000F0BD002069460872014614223C4805F029
:103BB000EFFC3B4801214170384841732278002ACC
:103BC00004D0012A0AD0032A26D118E001736B46DB
:103BD0001A7A0126D206D20E403207E0E27B027347
:103BE0006B461A7A0126D206D20E80321A722279D8
:103BF0000192A26800920E25A78965570CE0017317
:103C00006B461A7AE0231A436B461A7262680126E1
:103C100000920A252789655701216A4611752149B5
:103C20000691097B91751D4805A9007C01F0DBFE1A
:103C3000A84200D3054668B2002E1FD0174D29793F
:103C4000002910D16946087306980422007B887306
:103C500003A9287C02F0F5FB002812D01149684620
:103C6000007B203948703B4602A8009A019903F076
:103C700069FF0490002806D00020687104988EE740
:103C8000FFE703208BE706482178017003480122F3
:103C90001A30017811430170F0E70000A8000020FD
:103CA0001C110020100F0020F8B500250446002844
:103CB00018D03949277837480E463836027C3B0001
:103CC00004F0C5FB1E121417191B1E2023252729DB
:103CD000303B394246484A4C4E50525654585A5C32
:103CE0005E6062640320F8BD407C00E0C078207113
:103CF0004DE00079FBE7C06C00E0006D606046E0DD
:103D00002648FBE725481030F8E7807CEFE7C07CC9
:103D1000EDE7192012E020492039486C896CA16038
:103D2000606034E01C49203908467C30C96F406827
:103D30006160A0602BE0172000E016206946087043
:103D4000104601F050FED9E7134820300078CEE746
:103D5000C868D3E70869D1E74869CFE78869CDE744
:103D6000C869CBE77078C2E74878C0E73078BEE72B
:103D70000878BCE7806AC1E7C06ABFE7406ABDE770
:103D80004868BBE7087AB2E7486BB7E702252846E0
:103D9000F8BD0000A8000020F00E0020D00B00208D
:103DA000F0B5002489B00746002806D0934D288F2F
:103DB000C00704D0012009B0F0BD0320FBE7914EFD
:103DC0003A78304620300290407B03908B488C49F3
:103DD000007C130004F03BFB1E102124272A2D3306
:103DE0003C41F744819894A4ABAEB1B4B7BAC9E5ED
:103DF000D6FAFDF7F4F3F2F738796874002804D0A6
:103E0000012804D0022802D102E0486B8047F3E089
:103E10000020687100F0CCFFEEE03879E870EBE04C
:103E200038792871E8E07868E864E5E07868286522
:103E3000E2E07968002972D01022734805E07968C1
:103E40000029F8D070481022103005F089FBD3E02B
:103E50003879A874096E8847CEE03879E874CBE0E9
:103E6000397A6A46117103995171062201A902F04B
:103E7000E8FA002853D06348BA6820387968826429
:103E80004164687C022827D1E878002824D05D4F5F
:103E90000298F037009708214156327A7368287CDF
:103EA00001F08BFD687D3870706A786002983A4640
:103EB000407B3874E87C78740120F874B8742C3234
:103EC0003946287C02F085FA00287DD0B87CF1685C
:103ED00002F002FBF87CE8738EE0397A6A461171D1
:103EE00003995171062201A902F0ABFA00286BD0A8
:103EF0004448BB6820387A688021C2670B507BE059
:103F000079680691012102E07968069100216A46EC
:103F1000117706A901F040FB002855D06CE053E072
:103F20003879411E0E294FD80299087064E07868EC
:103F3000F06061E0786830615EE0786870615BE055
:103F40007868B06158E07868F06155E03A79694680
:103F50000A71052201A902F074FA002834D06846DB
:103F6000017928483830417046E039796A46117144
:103F7000042201A902F065FA002825D068460079DC
:103F8000707039E03A7969460A71082201A902F095
:103F900058FA002818D0684601791A48383001705C
:103FA0002AE039796A461171072201A902F049FA1B
:103FB000002809D06846007930701DE018E011E053
:103FC0000AE006E002E016E0032415E07868A86243
:103FD00012E07868E8620FE00A487968383041609A
:103FE000716009E00748397938300172317203E0B5
:103FF0007868706300E002242046DCE6A800002018
:10400000A89B0008F00E0020D00B0020F0B504465D
:10401000022085B00090002C36D04748008FC007A2
:1040200018D10C220021454805F0B2FA434E012078
:104030007070414D207808271A35002806D00128D5
:104040005DD0022866D0032850D16BE03A48018F3A
:10405000C90602D5012005B0F0BD6168002913D062
:10406000A168002910D0E16800290DD0217C002929
:104070000AD06A46117330481E2203A9007C02F060
:10408000E0F9002802D00AE00320E4E71F21684697
:104090000174294804A9007C01F0A5FC207428784B
:1040A00069463843287020783070234E6068306449
:1040B000A0687064E068B064207C70760020307680
:1040C000087102F0C9F9307E6946401C088102A9D6
:1040D000307C01F03DFA1A49002348701A4619460F
:1040E00001A803F02FFD0090002806D012490020FF
:1040F00048712878F721084028700098ABE72878A5
:104100000022384328702078307011460220FCF7D6
:10411000EBFDE8E73070287838432870A08803F07A
:104120007DFDE0E73070287838432870227BA08836
:10413000A16803F09DFDD6E7A80000203011002003
:10414000F00E0020FEB508AF70CF6F4670C700F0CC
:1041500001F8FEBDFFB50D46002681B01F460124C3
:10416000F0223146294805F013FA284A1021039815
:1041700004F010FE26480A9941718771390AC1710D
:10418000390C0172390E41720B9981720B991F4FD4
:10419000090AC1720B99090C01730B99090E41733D
:1041A000203F18E01A48194AC473641C1146A4B28F
:1041B000203904F0C4FD00203118019A3B5C525CA8
:1041C000401C5A400C9B80B25A541028F4D3103D26
:1041D0001036ADB2F6B2102DE4D2002D13D00B4A3A
:1041E0000B481146C473203904F0A9FD002008E0F3
:1041F000019A3118525C3B5C5A400C9B401C5A544B
:1042000080B2A842F4D305B0F0BD00005C110020DC
:1042100024010020F3B52B4887B00E46427869464A
:104220000A710078284C0876207A617A4018C5B265
:10423000002E32D000216846017221794172206B34
:104240002049039038394A78684602741D4F09782E
:104250004174183F397B817420463030009006ABA2
:1042600001AA02A9207C01F064F9397B68468175B6
:104270000179417509210175E07C002802D00A20EE
:104280006946087505A9207C01F0ADFBC0B27070CD
:10429000A84205D3401B307006E0032009B0F0BDF2
:1042A00030700025257265726846042141562A4601
:1042B000079804F04FF8002801D00020EEE708200E
:1042C000ECE70000280F0020A8000020FF220132A8
:1042D000811A90420CD009DC08280DD008DC012896
:1042E00008D0022806D0042802D105E00F221202CD
:1042F0000720704705207047062070477047000070
:1043000010B504464078C2B000281BD104F072FEFC
:10431000002801D004F05CFEE11DF9318879012804
:1043200010D1E078E0280FD040AB18704A7938AB54
:10433000DA77A11D684605F013F90648806801691F
:104340006846884742B010BD0349204604F058FE35
:10435000F8E7000078000020480B002010B5044664
:10436000007800280CD0012809D16078002806D1F7
:1043700004F040FE002802D0204604F031FE10BDBB
:104380006078002802D0FFF71DF910BD0248806850
:104390004069804710BD0000780000207047000091
:1043A0008307FF22DB0E9A408907090E99400028F7
:1043B0000BDA0007000F0838830808489B0018181C
:1043C000C36993430B43C3617047830804489B0050
:1043D0001B181868904308431860704700ED00E010
:1043E00000E400E010B50B4803F09CFD0A48417959
:1043F000002905D001218173816B042291438163DF
:10440000407C022805D1044810221A30017811435B
:10441000017010BDF40F0020A800002010B504F0BA
:10442000B5FE10BDF8B50027864803F07BFD864D2C
:10443000864C2878C10672D5A16B4A0604D5402265
:10444000914349084900A163020781490026002AD7
:1044500001DBC20711D07E4A143A5378022B02D0F6
:104460004B78022B09D1A36B5B085B00A363267218
:10447000637B537116710127966062793A43714FDD
:10448000503F002A31D1020702D4C10703D12CE0EA
:104490000A78002A06D03978A27A91420ED981078B
:1044A00012D41DE0227E8A724978002903D0617EF1
:1044B0008A4210D214E0A662A6720CE0800703D4F0
:1044C0002672206B401C2063A6726078002802D1FF
:1044D000A06A401CA062A06B40084000A06304E0FA
:1044E000EF210840287000F091FC2878800717D54C
:1044F000574814380179012903D0617B227B91420E
:104500000ED9A67366716178002902D1A16A491C8F
:10451000A162617B4171A06B40084000A0634FE045
:10452000A07B00284CD0208FC00649D4A673607BA6
:10453000217B884231D208282FD8401C6073C007E5
:104540000DD0202168460170397B3E4F8170703F4D
:10455000797841706946207C01F045FA787003F063
:104560002FFA002814D03A480921143841702672D5
:10457000A16B49084900A16366710671617B4171B5
:1045800030497039497881706078002815D017E07B
:104590002878EF210840287012E00121207C01F0EA
:1045A000E2FEA06B40084000A063294826726671B5
:1045B00014380671617B4171E6E7A06A401CA06275
:1045C000A06B810702D502218843A06300280ED08A
:1045D0007D21C9001B4803F05BFC1A4803F06AFC0C
:1045E000287880072DD5607C02281CD01DE0287813
:1045F000C00708D0E06D016815481438884728784E
:104600004008400028702878000707D5E06D8168D1
:104610000F4888472878F721084028702878EF212C
:1046200008402870DCE700F0C3FB2878400704D47A
:10463000E06D41680348A83088472878F921084090
:104640002870F8BD600F0020C2000020A8000020E4
:1046500030110020FFB50446002097B007461290A5
:104660000B9006460790FC48089010300F900020F1
:1046700014901390F948002105460771143D2A81D2
:104680001A98A872F6481922C07BE872E81FF93818
:10469000C77087704771801D04F062FF6F71AF7142
:1046A0002F73E81FF9382F610770EE48406B804781
:1046B000ED4803F037FC20786946087041091898E6
:1046C000E94F401E02901898A83F001F15911190C5
:1046D00001291CD003297DD005297BD007297AD058
:1046E000E91F0120F939487000F03EFDDC48102236
:1046F0001A30017811430170DB480121583803F06A
:10470000C7FBD948583803F0D5FB1BB0F0BDD44ED9
:10471000F078002804D0D449012050314870B3E02B
:104720000298D24D81B26B1C601CB26CFFF706FA86
:1047300068460078287011980BAB81B22846B26C9D
:10474000FFF794F91898C54C28182038417F027F4C
:1047500009021143827FC07F12040A4300060B99AD
:1047600010431434884247D1BB48BB4B10300090F3
:10477000F28B691CB06CFFF79DF96879297900020A
:104780000843A97909040143F164287AE979000210
:104790000843697A09040143A87A00060843306592
:1047A000E87A4106490F00077970000F3872287BBC
:1047B000AF4D0007000F286101D1012028617D2144
:1047C000C9004843286140186861A84869460D300F
:1047D000049001E013E0A2E118981138087504A9CB
:1047E000307C00F0BEFE002060700120F070A04818
:1047F00038304078687079E70720607076E7797B19
:1048000068468173984850300179684641730921A0
:1048100001739348C17C002902D00A216A461173B2
:1048200003A9007C01F0DFF8014618980D3800B2AA
:10483000002800DA0020884200D96CE7A17860786F
:1048400009020143E078864A0004084321790906F9
:1048500001430691126D05209142814917D04E6A9D
:104860000CE0326806998A4207D101211491311D6A
:10487000089110310F91776A0AE0B66A002EF0D1E4
:104880000B2179485030417000F06EFC3DE7CF6A53
:10489000215C6A461170401C0D91235C401C205C19
:1048A00002020807000F08300C9018981A432018CD
:1048B0002038017F079B1943437F1B020B43817FF5
:1048C000C07F09041943000608430790D01B81B23A
:1048D0000122D2030BA81091914212D27F180290AC
:1048E000012111980091019781B22046069B089AF8
:1048F000FEF762FF0B99079888421AD101201390A6
:1049000017E009B201227918120489181691029051
:10491000019111980122009281B22046069B089ACB
:10492000FEF74AFF0B990798884202D10120169F93
:104930001390112069460873494803A9007C01F0CF
:1049400052F81099884205D847490A2050314870DA
:104950002F6199E7139800287DD0434800215030FB
:104960004170149981700D991922C906C90F4171BE
:104970000021801D04F0F4FD00206871374B2F6189
:10498000587001463648016300214172149800288E
:104990000CD03548022150300170716AB94203D100
:1049A000002901D008216EE777621FE015980528DD
:1049B0000DD02B482C4A0021817150321170C06AF1
:1049C000B84211D100280FD0082050705CE724486D
:1049D000254A0121817150321170C06AB84203D159
:1049E000002801D0012012901D48C7621B480078A2
:1049F000012802D10D98800602D5194900200872BD
:104A00000C991898401A001F00285ADD0846615C6E
:104A1000401C189A0C90101A001F134EC0B250364A
:104A20000790F1700D9800292AD0000708D01A9835
:104A30000821C3B20C98401EC2B2204600F0B2FB5F
:104A40000A480121029000910C9801972018069BBA
:104A50000F9A07990EE060E0D00B00201C11002097
:104A6000A8000020A89B0008B80F0020EF0C002031
:104A7000F00E0020FFF766FB1298002817D040E0E8
:104A8000000702D0012012903BE031480290012142
:104A90000C98019700912018069B089A0799FFF738
:104AA00051FB1A980021C3B22948079A11E02849FE
:104AB000B01D079A04F054FD079868710120A87191
:104AC0000CE00D98000706D01A980A46C3B20821D8
:104AD000204600F067FB1298002812D10D9880063E
:104AE00004D51C4901200871287307E019490020EA
:104AF00008711948417B007B814202D9174803F0B5
:104B000011FA154902221A3108781043FB2210408D
:104B1000129A920010430870E8E50C21B1E6611C7E
:104B20000B48189A04F01CFD0C4803211430017046
:104B3000002141700649801D189A04F011FD029869
:104B40006871054802221A30017811430170CDE5E1
:104B5000EF0C00201C110020A8000020F40F002002
:104B600070B5144C607C022803D01348406B80471A
:104B700001E000F01DF911480E4DE27B01461A35A7
:104B8000102614316379002A05D00622002B00D0AC
:104B900042704A700AE00522002B00D042704A7031
:104BA000606D03F001F9A16E884202D3287830438A
:104BB000287070BDA8000020A89B00081C110020D0
:104BC00070B5164C607C022803D01548406B8047B6
:104BD00001E000F0EDF81348104DE27B01461A3574
:104BE000102614316379002A08D00422002B00D04B
:104BF00042704A70607C02280BD170BD0322002BEA
:104C000000D042704A70606D03F0CEF8A16E884209
:104C1000F3D328783043287070BD0000A80000202E
:104C2000A89B00081C110020FEB503F0B7F8354C16
:104C30000646607C022803D03348406B804701E081
:104C400000F0B6F82F4DA0781A35002700282AD09A
:104C50002E48616E03F01CF92C4803F02BF9607CA0
:104C600002280ED02948A16E143003F011F927480C
:104C7000143003F01FF9607C022802D0607900280C
:104C80001FD012206946087202A9207C00F0ABFEFA
:104C9000A16E41181D48503003F0FAF81B485030FF
:104CA00003F008F90DE01A480421477014304170F0
:104CB0002878002801D101202870C0B210210843B3
:104CC00028702878000704D511481430007800288F
:104CD00014D0E775607DA07569460870E07848706B
:104CE0000196207C01F089FB66656079002804D17B
:104CF00007484770A07A401CA072FEBD0120E075F5
:104D0000E8E70000A8000020A89B0008A40F0020EE
:104D10001C11002010B50B48407C022803D00A4823
:104D2000406B804701E000F043F8084902204870DA
:104D300014314870034810221A3001781143017071
:104D400010BD0000A8000020A89B00081C11002036
:104D500070B5144803F0E6F8134C0021114DE173CF
:104D6000607D283528702846BC384278EA70407B40
:104D70002874E07C6874A974E974607C022802D10C
:104D80000A48806B8047074A207C683211464039C8
:104D900001F01FFB0348B438C168A87C01F09CFBFC
:104DA00070BD0000A40F0020A8000020A89B0008F0
:104DB00070B5144803F0B6F8124D134C2835607DD9
:104DC0002E462870F03E706A68602846D038407BD6
:104DD0002874E07C68740120E874617C022900D0AA
:104DE0000020084AA874543211462C39207C01F066
:104DF000F0FA002805D0A87CF16801F06DFBE87C92
:104E0000E07370BDB80F0020A80000201FB518483F
:104E100003F088F8174C1021A06B8843A06320464C
:104E20001A300078000720D51348007800281CD1DC
:104E300001F012FB207E6946401C888103A9207C7A
:104E400000F086FB0A49A0394870002069460871C5
:104E500021790246C9010A4369460A72034602469D
:104E6000009002A901A800F03FF802F0A9FD1FBDC3
:104E7000900F0020A80000203011002010B502F093
:104E800025FE024803F016F810BD00006007002060
:104E9000F0B5064600242046002E01D0002A1ED17F
:104EA0000020F0BD355DAF1E3B0003F0D0FA0916BF
:104EB00014160612140E16061600641C1554E4B2DD
:104EC000401CC0B2335D135400E01554401CC0B206
:104ED00003E0A41C00E0641CE4B2641CE4B28C4255
:104EE000E0D3F0BD70470000F0B50C4687B08446B3
:104EF000002198480C9D069181831E1E1746417122
:104F000000D10025EAB202706146934D09782970FC
:104F10000121009161460978490908D002293FD052
:104F200004293BD007297DD0022007B0F0BD0099AD
:104F300004468183681C0822616C04F01CFBA08B72
:104F40000822083080B2A0832818216C04F013FBDB
:104F5000A08B0830A0838148C06980470146E08368
:104F6000A08B06AB2954401C80B2090A2954401C6E
:104F7000A083C1B27848A26CFEF778FDA08B069999
:104F80002954401C80B20A0A2A54401C80B20A0CE0
:104F90002A54401C80B2090E2954D7E001214171E6
:104FA000C178002969D0012269460A7321786948CD
:104FB000CA0969464A736A4A006B049050780875BA
:104FC0001078487510462030007B8875614813467C
:104FD00030300090303803A9007C521C00F0A9FA50
:104FE00081012078BF22104008435A4920708979F6
:104FF000002905D0574A00219171202108432070D3
:105000005448016D54480A0A417082700A0CC270FB
:10501000090E0171217841714E49098D8171090A8A
:10502000C17100E088E04B49FF30097AFF30401839
:10503000484908254A7A4A49823904F091FA454894
:10504000017A407A0818C1B24248002E01721FD07E
:105050000278002A1CD0C279002A22D00F291DD83C
:1050600020783D4A030940181B010007000F034345
:105070002370537100203B4C07E0072055E7235C69
:1050800053556D1C401CEDB280B28842F7D308E046
:105090003048002905D0C279002A02D0314E017073
:1050A00000272C4C00202F4AE07180322D48FFF75A
:1050B000EFFE6072002801D00120E071002E14D0B4
:1050C0002178002911D0244847556D1CEDB2002FDE
:1050D00027D0A36A002240190092019302901E4A31
:1050E000236D103A3046FFF735F8207806AB2918C3
:1050F000A18300206E46A26A0DC6174A1648203AC0
:10510000236DFEF759FB144AA18B06985054030AED
:1051100052185370030C000E9370D070091DA183B8
:1051200016E000222272A36A401900920A4A0193F3
:105130000290203A236DD5E7002B09D00446002ABF
:1051400006D0681C314604F00BFA2078401CA0837E
:105150000020EAE6A8000020F00B0020A89B000831
:10516000F00E0020EE0D002010B50C484022816B9F
:10517000114381634079002801D0FFF733F90749D3
:1051800012221A310878104308700121044802F0F5
:105190007FFE034802F08EFE10BD0000A800002034
:1051A000600F0020FFB505468BB0A84816460C4698
:1051B000099024E1285D641C801EE4B2030003F022
:1051C00046F90906115E6AA1AED6EFEDEC00A049E2
:1051D00000204870285D0872641CE0B22A5C4A72A4
:1051E000401C4AE000206946087708A90870694613
:1051F000087208732819401E0490301B401C087563
:105200009448924F02798A750999203F0A7B694632
:105210004A757A78CA753A780A76099908AB0A7895
:1052200069464A7603AA02A90192009107AA04A935
:10523000007C01F0A5F80090C043400709D1684602
:10524000007F787008A8007838706846017A09985D
:105250000170002706E0002203200099FBF744FDBF
:105260007F1CFFB268460521007BFAF741FFB84278
:10527000F1D86846007B2018401EC4B2BFE0285D0C
:105280007449641C0122C87282400A840022E4B27C
:1052900011460420B1E0285D4006410F6846417088
:1052A000285D641C0107090F68460170E0B2295CA3
:1052B000401CC0B201912A5C401C12021143C0B2D2
:1052C00001912A5C401C12041143C4B208466421B7
:1052D000484301905F486946007C01F085F801462B
:1052E000C84340070BD168460278099802725748B4
:1052F000019A20384262684642780998427000223A
:1053000005207AE05348FF21006E002804D0006891
:10531000002801D08047014606200E9A6DE0285DE6
:1053200069460874641CE0B20391295C401CC0B259
:1053300000912A5C401C12021143C0B200912A5C09
:10534000401C120411436422514300910021019139
:10535000C0B22A5C401C6946C4B20A723D4803A927
:10536000007C01F01EF800220146072045E0285D80
:10537000641C0007000FE4B2002800D101207D2149
:10538000C900484331497D222039D2000861801884
:1053900000224861114608202FE033E034E0FFE7A7
:1053A000285D00216A46641C11705170E4B28106C8
:1053B00001D501215170C10601D5012111700007ED
:1053C000000F907023481146007C01F031F8401C1A
:1053D00015D06846017809980173684641780998A4
:1053E0004173684680781C49085CFBF70BF9174944
:1053F00000222039086311460920FBF775FCB442EE
:1054000000D2D7E60FB0F0BD285D69460870641C75
:10541000E0B2295C401CC0B201912A5C401C12021F
:105420001143C0B201912A5C401C12041143C4B262
:10543000084664214843019006486946007C00F014
:10544000C9FA002201460A20D7E70000100F002009
:1054500030110020A8000020499C000870B51749B1
:105460000023CA681206120F18D18A6B154CD5009A
:10547000134A02D51268224009E08E6B01252D07E0
:105480002E438E6312688E6B2240AE438E63A2421F
:1054900004D103218903884200D101230A4801680D
:1054A00049084900194301600068C007C00F9842CD
:1054B00001D0012070BD002070BD0000001002402E
:1054C00000700040001800000020024001090A227C
:1054D00000075143000F4018C0B27047002102E09E
:1054E0000A38C0B2491C0A28FAD20907090E084333
:1054F000704770B504460068C168490613D400219E
:10550000C943C160FCF7A6F87D260546F60006E013
:10551000FCF7A0F8401BB04201D9032070BD206801
:10552000C0684006F4D5002070BD10B5FDF70AFD37
:1055300010BD70B51C46049B15460E46072801D0C9
:10554000002070BD22462946304600F057FA70BD53
:1055500010B5072801D0002010BD084600F08AFAD7
:1055600010BD10B5072802D1084600F0A3FA10BDFF
:1055700070B514460D46072801D0D0B270BD1A464A
:105580002146284600F0D0FA70BD10B5072802D198
:10559000084600F0D7FA10BD10B5072801D000204A
:1055A00010BD084600F0EAFA10BD30B502460168A9
:1055B000C07A0C2358430930095C50680B01C45A67
:1055C00000250C33C550507A002809D0907A012864
:1055D00005D1106901466143081A5168C85030BDB1
:1055E000D06800F003F9844200D92046917A00295E
:1055F00002D1117A002903D011694843401AECE71F
:105600005068C55030BD10B50B0914099C4201D338
:10561000914201D3002010BD5A000C07835A240F79
:105620000121A1408B438352012010BD30B50028D9
:105630000AD0002908D0002304E05C000D5B5B1C4D
:105640000553DBB29342F8D330BDFFB50E46194681
:10565000099A029800F0A9F9002824D000242546D0
:105660001DE000236F00F15B0120984001420ED045
:10567000E0180C2148430A994018007A01060A0FE5
:105680000107090F029800F090F901280BD05B1C6C
:10569000DBB2102BE7D310346D1CE4B2EDB20098EE
:1056A0008442DED3002004B0F0BDFEB505461446AA
:1056B0000E465800FAF7C2FF009060000F46083807
:1056C000FAF7A8FF2A463346FAF7A6FE3B46009AA9
:1056D000FAF7F0FD2A463346FAF706FF03F014FC0A
:1056E000FAF7DEFFA04200D9044609980460089842
:1056F000FAF7A4FF009001912046FAF79FFF2A468F
:105700003346FAF789FE0022D243FAF765FF0C46CA
:105710000746022228463146FAF75EFF3A462346FC
:10572000FAF76CFE019B009AFAF768FE03F0ECFBB7
:10573000FAF792FF0A990860FEBD000010B5FAF76B
:105740007DFF02460B4600200149FAF7CDFE10BD51
:105750000000204070B506460846FAF76FFF054680
:1057600001200C46B040FAF755FF2A462346FAF7C7
:10577000BBFE0022014BFAF74FFE70BD00408F4088
:1057800070B514460D464000FAF73CFF2946FAF77B
:105790008CFD2146FAF785FDFAF7A0FF03F0ACFD7A
:1057A000FAF75AFF40B270BDF0B584469646002025
:1057B0006246002A01D0012215E00020F0BD4C0015
:1057C00063461F5B10260024234615469D40BD43BB
:1057D00001D1641CE4B25B1CDBB2B342F5D32018E8
:1057E000491CC0B2C9B27145E9D3F0BD064988422F
:1057F00001D2642070470549884202D27D20C00052
:10580000704703487047000080EE3600803F5C021E
:1058100010270000FFB504460678022083B020560A
:1058200002900325042761786557E75700290BD1BB
:105830000F2801D10F2D02D000260727E75705209A
:105840002056062502906557002E25D0112020569F
:105850006169019100901023E356207AE168029A71
:10586000FFF7F3FE002801D1FD2006401822192180
:10587000A2566156284600F098F8002807D1192052
:105880002056A84201DD054601E0FB200640072E18
:1058900002D1002F00D1A7570499029808700598EB
:1058A000057006980770304607B0F0BD03780022F7
:1058B000032B14D1427813071B0F12068B70120FA3
:1058C0004A7082788A80C3781B021A438A800079E2
:1058D0004206520F0007CA70000F087005221046DA
:1058E000704700288A6000D14A607047FFB50024E5
:1058F000E44381B01F46002552E0019800280FD0F4
:105900000298002844D0039829010E18B06802F0CC
:105910004BFA0146F06881422BD30020F0603DE055
:105920000398290108180090406802F03DFA0646E5
:105930000298002803D00098806802F035FA864269
:1059400002D90098406804E00298002803D000982B
:10595000806802F029FA0099C968814202D80020C3
:1059600000991AE0002919D0081AA04216D204465C
:1059700014E0002812D0B06802F016FAF168081A94
:10598000A0420BD2B06802F00FFAF1680C1A05E0E1
:10599000002403992A0120465118C8606D1CEDB2FD
:1059A000BD42AAD3204605B0F0BD884203DB904239
:1059B00001DC012070470020704770B51C46049B35
:1059C00015460E46072804D122462946304600F0E7
:1059D00071F970BD10B5072801D0002010BD084630
:1059E00000F09AF910BD10B50022072801D010462A
:1059F00010BD084600F0AEF910BD0000FFB504462A
:105A00000F460820092681B02056A6576168196004
:105A100061780025012925D100280BD06168402933
:105A200001D30125002660291CD3C906C90E01290E
:105A300003D017E00021196014E0202269460A70A3
:105A40004870A07A8870684600F084F940B2002857
:105A500008D121780025012904D1054907230A88A6
:105A60001A430A80387003980670284605B0F0BDC6
:105A70003401002070B50588002430212846FAF74B
:105A800037FB00290CD0E8060CD018212846FAF77D
:105A90002FFB002908D0280708D0680708D0052464
:105AA000204670BD0124FBE70224F9E70324F7E751
:105AB0000424F5E7F0B587B0074650206946087220
:105AC000387910282ED100240325264601E0082D20
:105AD00019D23868611C005D00903A68515C090277
