:020000040800F2
:1000000018160020D5000008014500084D350008ED
:1000100000000000000000000000000000000000E0
:100020000000000000000000000000002771000830
:10003000000000000000000011500008E9870008DF
:10004000E7000008E700000857560008E70000082E
:10005000E7000008210F0008310F0008410F0008D9
:10006000E7000008E7000008E7000008E7000008D4
:10007000E7000008E7000008E7000008E7000008C4
:10008000E7000008E7000008E700000800000000A3
:10009000E7000008E7000008E7000008E7000008A4
:1000A000E7000008E7000008E7000008818E00086C
:1000B000958E0008E7000008E7000008E700000848
:1000C0000348854600F078FC004800471DA1000861
:1000D000181600200448804704480047FEE7FEE762
:1000E000FEE7FEE7FEE7FEE785880008C10000089E
:1000F00030B50B46014600202022012409E00D46C0
:10010000D5409D4205D31D469540491B2546954047
:1001100040191546521E002DF1DC30BD70B500248B
:100120002546002801DA01244042002901DA012590
:100130004942FFF7DDFFAC4200D04042002C00D026
:10014000494270BDF0B51FB40646002082B0054696
:100150004024019100901BE0019922460F46304651
:1001600000F0F4FA049A059B801A994110D31046C6
:100170001946224600F0DAFA361A8F4101972246D4
:1001800001200021009F00F0D1FA38184D41009065
:100190002046641E0028DFDC019B00982946324679
:1001A00007B0F0BD03460B439B0703D009E008C925
:1001B000121F08C0042AFAD203E00B780370401C17
:1001C000491C521EF9D27047D2B201E00270401CA5
:1001D000491EFBD270470022F6E710B513460A46C7
:1001E00004461946FFF7F0FF204610BD0321001D0D
:1001F000401E037812021A43491EF9D51046704773
:10020000F8B502464A40D40F42004B0052085B0842
:100210009A4202D20246084611464A0023D0C30D34
:100220004A00DDB2120EAD1A202D35DA4902012640
:10023000490AF6058A19002C00D0524220214F1B92
:100240001146B9402A411018C20D9A4221D0002C03
:1002500017D0012D08DCDA05801AD20F8019D207D9
:10026000DBB200F09FFAF8BDDA05801A01234000E6
:100270001B06C01880185A428018CA0F1043490044
:1002800007E04908C2071143DA05801A80194008BF
:10029000801800F07FFAF8BD61000122511A001B9E
:1002A000F7E70122D2075140AAE70122D2075040C6
:1002B000A6E70000F0B507460846584087B0C00FD3
:1002C000049048000E46590040084908BC1A88416D
:1002D00005D2384631461E4617460B4602465800A0
:1002E000400810434CD0300D039040055900400D9C
:1002F000490D0590401A0290402872DA1803012136
:10030000000B09050843019004980092002805D0CD
:1003100001995242002088410092019002984021A8
:100320000A1A0199009800F001FA05460C466B463E
:1003300007CB00F01CFAC0197141039A0E0D00237F
:10034000D71756401A467A40164344D0049A002ADA
:100350002DD0029A012A039A15DC1205C01A914188
:1003600001263605001C7141D20F059ED20700936D
:10037000019202962A46234600F05AFA07B0F0BDD1
:1003800038463146FAE71605224A0F46B218C01A17
:10039000B74101210905001C4F4100187F4111465A
:1003A00018187941E20F10436D19644113E0E20718
:1003B0006D0815436408C2071443039A0126120509
:1003C000C01A91413605001C7141CE0740083043E8
:1003D0004908C01851412A46234600F01CFACDE7CF
:1003E000FFE7049801224000C117121A00238B4135
:1003F00004983146C417381AA141EEE730B40124FD
:10040000E407634030BC55E730B40124E4076140A1
:1004100030BC4FE70000E0FFF0B51FB488B00B9987
:100420000998002448400999C00F490049080991DA
:10043000C0070B990090490049080B910999089849
:10044000A64608431CD00B990A98084318D009986F
:1004500001244000420D4800410D09982405000385
:10046000000B204309900B980003000B20430B90D6
:1004700050181C494018002201901446104605E00F
:10048000002001460DB0F0BD032801DA034600E06C
:1004900003239C46C11A0AAE0AE05F0008ADED5B7B
:1004A0004F00F75B7D430027AA187C41491C5B1E67
:1004B0006145F2DD410004AB5A522104120C0A439B
:1004C000240C401C0828DFDB01980290009970463C
:1004D00001910090059B049A0799069800F0A8F9ED
:1004E000D0E700000DFCFFFFF0B50C465C4085B086
:1004F000E40FE40703944C00002664085900944676
:10050000490802460296224321D062460A431ED081
:100510006200570D4A000E032303550D01240246C5
:100520002C492405781B1B0B360B4018234326430C
:10053000614600901C46501AB44103D30098401CF9
:10054000009002E0921800985B41002803DA002036
:10055000014605B0F0BD0020012109050746864689
:1005600011E064461D46141BB54106D36546521B77
:10057000B341744607430C43A646CD0740084908DB
:10058000284392185B4105460D43EAD110461843B3
:1005900013D06046194650407140084306D060466B
:1005A000101AB34106D20122002306E000220123E3
:1005B000DB0702E00122D243531000987446010584
:1005C000381C6141029C039D0019694100F023F928
:1005D000BFE70000FD03000070B54B005B0803435C
:1005E0000BD04B005C0D002633466542B341D41757
:1005F000AD1AA34102DB0020014670BD1205301880
:10060000514170BD10B500229623114600F0CAF882
:1006100010BD00000EB5C217C10F5040CA074018E8
:100620000021054B0293019200910A460B4600F00F
:10063000FFF803B000BD0000330400000EB505490B
:100640000291002100910A460B46019100F0F0F85A
:1006500003B000BD3304000070B5CD0F4A0009039C
:100660000123090B1B0519430B4BED070024520D09
:100670009A4201DA002070BD074B34339A4203DC02
:100680009A1A00F063F802E00449511888402C439C
:10069000F1D0404270BD0000FF030000CDFBFFFF22
:1006A0004A0009030123090B1B051943094B10B527
:1006B000520D9A4201DA002010BD064B34339A42A3
:1006C00003DC9A1A00F042F810BD03495118884023
:1006D00010BD0000FF030000CDFBFFFFC20FD207DB
:1006E000400040080BD0C10D0723DB01C9184002B0
:1006F0000905400A1143C208400711437047002012
:100700000146704710B5002904DB0124E40740428C
:100710008C412146002B04DB1C460123DB0752429F
:10072000A341994200D1904210BD000010B5202A8B
:1007300004DB0146203A9140002010BD9140202367
:100740009C1A0346E3401943904010BD10B5202A7F
:1007500004DB0846203AD040002110BD0B46D340B0
:10076000D0402024A21A91400843194610BD10B56C
:10077000202A06DBCB170846203A1041C1170B434D
:1007800006E00B461341D0402024A21A91400843B2
:10079000194610BD002904DA401C490001D1400867
:1007A0004000704770B40024050C05D110240004EB
:1007B00002D1002921D01124050E01D100020834F4
:1007C000050F01D10001241D850F01D18000A41C5B
:1007D000002801DB4000641C002908D020252E1BC6
:1007E0000D46F540A14000D00121294308430106F0
:1007F0001B1B000ADB1D02D5002070BC7047DB0507
:10080000181880180029F8DA401C4900F5D170BC8E
:1008100040084000704710B5002B08DA0024401C47
:10082000614192185B411A4301D14008400010BD5C
:10083000F0B51FB482B005460C0003D0084608F09E
:10084000E1FB02E008F0DEFB20300246009021468A
:100850002846FFF76BFF049B059A04460F46184392
:100860001143084314D0184610431BD00098402170
:100870000A1A18460599FFF769FF05460E46009AC1
:1008800005990498FFF752FF084305D0012004E0C2
:100890002046394607B0F0BD0020C11705430E437E
:1008A0002C43374300990E986305401A7905E40AF2
:1008B00000220C43FD0A0A3002D500200146E9E778
:1008C0000105101969410C9C0D9D00196941FFF744
:1008D000A2FFDFE7F8B50546480040080C4628436C
:1008E00004D06000184A400D904201DD2846F8BD52
:1008F00015493539884210DC88420BDB290D20036D
:1009000008432903014305D0E00F1049C0074118EF
:100910000020F8BD00200146F8BD161A4020821BB9
:1009200028462146FFF702FF074600912846214648
:100930003246FFF70BFF3A46009BFFF76CFF32464B
:10094000FFF7F4FEF8BD0000330400000000F03FA4
:100950004A0009030123090B1B0519430A4B10B573
:10096000520D9A4202DA0020014610BD064B343384
:100970009A4203DC9A1AFFF7E9FE10BD034BD21826
:10098000FFF7D4FE10BD0000FF030000CDFBFFFF0A
:1009900010B5002904DB0124E40740428C412146C4
:1009A000002B04DB1C460123DB075242A3418B4290
:1009B00000D1824210BD0000064C0125064E05E024
:1009C000E36807CC2B430C3C98471034B442F7D370
:1009D000FFF77AFBC4AC0008E4AC000870B58C18D3
:1009E0000578401C6B075B0F01D10378401C2A116E
:1009F00006D10278401C03E006780E70401C491CAA
:100A00005B1EF9D12B0705D40023521E0DD40B70A9
:100A1000491CFAE70378401CCB1A921C03E01D78AE
:100A20000D70491C5B1C521EF9D5A142D8D3002081
:100A300070BD000038B50446064805490068FFF758
:100A400057FB604300E0401E00900028FBD138BDFA
:100A500040420F0038000020F8B504460068816865
:100A60008907890F012902D10168C90722D181684C
:100A7000114A10261140012500290ED18168294311
:100A800081600120FFF7D6FF00F0FCFD07460CE077
:100A900000F0F8FDC01B0A2807D9A06D3043A065FF
:100AA000E06D2843E0650120F8BD20680068C04380
:100AB000C007EDD10020F8BD17000080F0B589B067
:100AC0000C46074610220021684609F087FB69465C
:100AD0002246084608F03DFF684600788726010652
:100AE000684600290FDA00214318425C5B78520007
:100AF000DB091A434254491C0F29F5DBC17B02462E
:100B0000490071400DE000214318425C5B785200BF
:100B1000DB091A434254491C0F29F5DBC17B02460D
:100B20004900D173E21DF9325169102912D00178C0
:100B300009061BD500214518435C6D785B00ED0963
:100B40002B434354491C0F29F5DBC17B0346490065
:100B5000714019E000216218FF3201325378455C80
:100B6000491C6B4053701029F5DB26E00021451825
:100B7000435C6D785B00ED092B434354491C0F29FE
:100B8000F5DBC17B03464900D973E11D556980231C
:100B9000FA316B54002500E05D5453695B1C5361CE
:100BA000102BF9D300216218FF3201325378455CD3
:100BB000491C6B4053701029F5DB00216218104668
:100BC000FF32E0300132437C5278491C5340437479
:100BD0001029F3DB21461022F13104A809F0E6FACE
:100BE0002246394604A808F0B4FE102200216846C7
:100BF00009F0F4FA09B0F0BD10B504461022002146
:100C0000F13009F0EBFAFF20002115300151F022FC
:100C1000204609F0E3FA10BD0B4610B5024610213C
:100C2000184608F0C1FE10BDF0B50446FF308BB089
:100C30000F4601300890E11D4069FA3100911039EA
:100C400015460791002843D010210E1AAE4200D35A
:100C500016460099B2B24018394609F0A7FA08982A
:100C6000089940698019486110283AD3B54238D0B4
:100C7000002162181046FF32E0300132437C527886
:100C8000491C534043741029F3DB07992246084658
:100C900008F05FFEBF19AD1B1AE000202118E031FB
:100CA0004A7C3B5C401C5A404A741028F6DB1022F8
:100CB00002A8079909F07AFA02A92246084608F024
:100CC00048FE102202A9079809F070FA103D10376B
:100CD000102DE2D8AAB23946009809F067FA0898B0
:100CE00045610BB0F0BD0000F7B523498022497A79
:100CF000214B511ACDB2197A5B7A8026F31A0A4633
:100D0000DEB2871E491C0124C9B2761E3B0008F0E2
:100D1000A8F909060C060C120C06062B3000164B1F
:100D2000AA4224D2154CA05403E0134BB24215DB67
:100D30001DE019720DE0104EAD1EAA4217DA0F4BDE
:100D4000985401985854491CC8B202991954401C2F
:100D50003072002408480121C17108E0074CA054FA
:100D600001986054491CE4E7034BAA42F6D320469D
:100D7000FEBD0220FEBD0000B4000020160C0020C5
:100D80007047000000231A4619460EC00249016050
:100D900002494160704700000D093E00AB030500A9
:100DA0003EB50D4C6946E2780A70227D8A70C870A3
:100DB000606B07F097FD0190E06B0290E07D694663
:100DC0004870207C04F093FC218CE06B4143081AAE
:100DD000A16D4018A0653EBDB4000020FFB5002005
:100DE00085B00090054606460190002477000798DC
:100DF0000121C05BA14008422FD028190C2203908A
:100E00005043089A1258002A27D0059A002A01D187
:100E1000490722D00899411808200291085602116A
:100E200000070117069840B204F07DFE002814D098
:100E30000298407A01010E980818C068002804D072
:100E40000198401CC0B2019007E0009A0F990398E6
:100E500088540098401CC0B20090641CE4B2102C6E
:100E6000C5D31035761CEDB2F6B2102DBDD3109956
:100E700001980870009809B0F0BDFFB5002085B05A
:100E8000009005460646019000247700079801214E
:100E9000C05BA14008422FD028190C220390504378
:100EA000089A1258002A27D0059A002A01D149072A
:100EB00022D0089941180820029108560211000713
:100EC0000117069840B204F02EFE002814D00298B4
:100ED000407A01010E980818C068002804D00198D3
:100EE000401CC0B2019007E0009A0F990398885403
:100EF0000098401CC0B20090641CE4B2102CC5D312
:100F00001035761CEDB2F6B2102DBDD310990198B4
:100F10000870009809B0F0BD10B502F009F810BDD6
:100F200010B5012000F0DAFA022000F0D7FA10BD67
:100F300010B5042000F0D2FA082000F0CFFA10BD5E
:100F400010B5102000F0CAFA202000F0C7FA4020A7
:100F500000F0C4FA802000F0C1FAFF20013000F058
:100F6000BDFA0120400200F0B9FA0120800200F031
:100F7000B5FA0120C00200F0B1FA0120000300F030
:100F8000ADFA0120400300F0A9FA0120800300F02F
:100F9000A5FA0120C00300F0A1FA10BDFEE7000091
:100FA0000649800009580648091803D0C14203D0F9
:100FB0000020704701207047022070471CA90008DC
:100FC000702FFCFF0649800009580648091803D015
:100FD000C14203D0002070470120704702207047B3
:100FE00080A90008702FFCFF10B5094A0021CB0032
:100FF000D458844207D89B189B68834203D9C80001
:101000008018007910BD491CC9B21529EFD3FEE73D
:10101000A0A70008F8B5054604464035287D0026FF
:10102000012808D001202875206881688907890F68
:1010300001290ED101E00220F8BD0168C90708D0DE
:10104000A06D20210843A0650126002028753046A8
:10105000F8BDA16DFF220132914302221143A16527
:10106000C1688907890F0091C16889088900C1603A
:101070002068816892071143816000F003FB0746F6
:101080000EE000F0FFFAC01B0A2809D9A06D02216A
:10109000884310210843A065002028750120F8BD71
:1010A000206880680028ECDB2068C168009A114342
:1010B000C160A06D80088000401CA065C5E70000ED
:1010C000F8B506460D464036317D01290DD0012187
:1010D000317501688A68520709D5816D2022114354
:1010E0008165002030750120F8BD0220F8BD174B46
:1010F0006A68D80547109A42154C8A6A2B6812D044
:101100005B035B0B1A438A622968490305D5A16812
:101110000143A1600A20FFF78DFC2868800312D5E7
:10112000A06838430EE05B035B0B9A438A62296830
:10113000490302D5A1688143A1602868800302D5D4
:10114000A068B843A06000203075F8BD0110000011
:10115000002701400068006C7047000070B5040073
:1011600006D0A06D264600254036002802D006E0B5
:10117000012070BDE5653575204600F0D1F8A06D01
:10118000C00603D421688868400705D5A06D1021EA
:101190000843A0653575EBE7A06DFF22013290434F
:1011A00002221043A06588688207920F5A48012ADC
:1011B00002D10A68D2072BD1032362689B079A42A7
:1011C00005D05B429A4202D05B009A4209D10A697B
:1011D000920092080A6121680A6963681A430A61E9
:1011E0000CE00A69920092080A6181680F22920459
:1011F0009143816081686268114381602168CA6897
:1012000018239A43CA602168CA68A3681A43CA604F
:10121000816801225206914381608168228F5206C3
:101220001143816020688168C90004D4816801226B
:101230001207114381602068C168384A1140C160BB
:101240002169E068022923D000210843216A226B2A
:101250004903520011430843616B0843A1698903A4
:101260000843E169C90308432168CA681043C8609C
:10127000A06A0146FF39C23905D0E16A08432168F6
:10128000CA681043C860606A0121012802D00BE0DF
:101290000421DAE7206A002823D0A06D2022104321
:1012A000A065E06D0843E065206C012820681FD030
:1012B0000169C90703D00169490849000161206833
:1012C0004169C908C900416120684169E26B114365
:1012D0004161E565A06D80088000401CA06500208C
:1012E00070BD2068C26801231B041A43C260DBE79B
:1012F0000269FF239B009A43026120680269636CC4
:10130000E66C1A43A36C33431A43026120680269F6
:101310000A430261D3E70000002701401902FEFFE3
:101320007047F8B504464069254640350E46082802
:101330000BD02068C068C00709D0A06D20210843E9
:10134000A065002028750120F8BD082700E00C27C3
:1013500000F098F9009011E0701C0FD0002E05D01D
:1013600000F090F90099401AB04207D9A06D04210D
:101370000843A065002028750320F8BD2068006898
:101380003842E9D0A06D012149020843A0652068D8
:10139000C16809058A0F0C21002A1AD1226A002A85
:1013A00017D10268120714D5826853070122002B57
:1013B00008DB43688B434360A06D130298431043DE
:1013C000A06506E0A06D20231843A065E06D1043E2
:1013D000E065A069002801D1206801600020F8BD07
:1013E00070B50446216800208968490721D4254644
:1013F0004035297D01291CD001212975E169012988
:1014000004D02046FFF728FB002811D1A16D0A4A1D
:101410001140FF2201321143A1650021E1652975C8
:1014200022681C21116021688A6804231A438A609B
:1014300070BD022070BD0000FEF1FFFF70B50024FA
:10144000024620325179022903D00421C1630124CC
:101450003CE001680B680E25AB430B6001680B682C
:101460005B085B000B601A4B0168994201D10121B6
:1014700021E0174B1433994201D110211BE0144B8A
:101480002833994201D1891515E0114B3C3399421B
:1014900001D189140FE00E4B5033994202D1012142
:1014A000090408E00A4B6433994202D1012109057D
:1014B00001E001210906064B083B596001215171E9
:1014C00000211171816B002900D08847204670BD32
:1014D0000800024010B501F061FC10BD10B50449D0
:1014E0004A69024202D04861FFF7F4FF10BD0000D4
:1014F00000040140F8B500230124A7E027469F40DF
:101500003A4070D04D68022D01D0122D14D1DD0863
:10151000AD002D1800952D6A5E07AC46F50E0F261E
:10152000AE46AE406546B543AC460E697546AE4024
:1015300065462E43009D2E624D68012D05D0022D7B
:1015400003D0112D01D0122D16D185680326AC468B
:101550005D00AE46AE406546B543AC46CE687546C6
:10156000AE4065462E43866046680D79BE43ED0663
:10157000ED0F9D403543456006685F000325BD4083
:10158000AE46AE430D79B446AE07B60FBE406546D3
:101590002E430660C6687546AE438D68BD40354330
:1015A000C5604D68ED0050D52B4D6E6B26436E63C4
:1015B0009E082A4DB6007519AC46AD689E07360FD9
:1015C0000F27B740BD4305273F07B84201D1002789
:1015D0001AE0234FB84201D1012715E0214FB8424C
:1015E00002D1022710E030E01F4FB84201D103279B
:1015F0000AE01E4FB84201D1042705E01C4FB84253
:1016000001D1052700E00627B7402F436546AF60AC
:10161000184D2E684F689643FF0300D516432E6081
:101620006E684F689643BF0300D516436E60AE6880
:101630004F689643FF0200D51643AE60EE684F68D0
:101640009643BF0200D51643EE605B1C0A68154640
:10165000DD4000D052E7F8BD00100240000001401C
:101660000004005000080050000C00500010005012
:10167000001C005000040140002A01D08161704725
:101680008162704701480068704700003C000020FC
:1016900002480168491C0160704700003C000020BE
:1016A00010B506480168022211430160032000F0D2
:1016B00007F800F007F8002010BD000000200240ED
:1016C0000020704710B50848816B02041143816304
:1016D00000F040F800F036F8044801680822114391
:1016E000016000F027F810BD001002400020024009
:1016F000C106C90E012088400149086070470000FA
:1017000080E200E0C106C90E01208840014908605E
:101710007047000000E100E0C106C90E01208840CA
:10172000014908607047000000E200E010B502F0D7
:10173000E9FE10BD024801680215114301607047BF
:101740000070004002480168421511430160704773
:101750000070004002480168102291430160704708
:1017600000700040F8B54E49074601250020ED0302
:101770004A4B4B4A4031082F7BD00EDC012F48D01A
:10178000022F60D0042F22D1CC680326B602344049
:1017900065D07F02BC424ED064E0102F77D0012686
:1017A000032436042404202F09D0FF3F012F0ED13B
:1017B000C968214053D07400A1423CD06BE00B6952
:1017C00009692140B14203D199052EE02846F8BDB0
:1017D00001256D04A94203D19907F8D53148F8BD18
:1017E000A142FCD111688903F9D5116803200005D5
:1017F000014001200005091A09D0091A05D08142CB
:1018000001D12948F8BD2948F8BD2948F8BD294823
:10181000F8BDCC68A407A40F0AD0022C0BD0012C71
:101820000ED0032CF4D1096989050029CEDBF8BD5F
:1018300000F0C2F9F8BD11684907FBD51846F8BD9C
:1018400000F0CAF9F8BDCC680C26344007D0082C4B
:10185000F1D0042CF4D00C2CE5D0F8BD09E000F058
:101860009BF9FAE7012292029442E9D0B442DAD01D
:10187000F3E7C968032424032140F0D001256D0358
:101880006C10A942D7D0A142DAD0E6E7FFE7916B0E
:101890004902E4D4E1E7B142D2D0DEE70024F4000B
:1018A000001002408890000020A1070000093D00C0
:1018B00040420F0080841E00F8B504460078594D60
:1018C000800672D5574E0027403EB06BC00004D44E
:1018D000B06BA9050843B063012753480168C905E7
:1018E00011D40168821511430160FFF7CBFE00900F
:1018F00005E0FFF7C7FE0099401A642837D84A4828
:101900000068C005F5D532680321090560680A4002
:101910000140914208D08103890F032904D1316825
:10192000890301D50120F8BD2A69032109040A4071
:1019300022D0084090421FD0207880061CD528690C
:101940002A6988430121C9040A432A612A698A4312
:101950002A612861C0050FD5FFF794FE009008E0CA
:10196000FFF790FE0099411A3048814201D90320C7
:10197000F8BD28698005F3D561688803800F0328C6
:1019800005D132680005824301400A43326028696C
:10199000032261681204114008432861002F04D01B
:1019A000B16B012000078143B1632078C00705D0E7
:1019B000E868A168800880000843E8602078800714
:1019C00005D5E8680C218843E1680843E860207881
:1019D000400706D5E8680321890288432169084346
:1019E000E8602078000706D5E868032109038843EA
:1019F00061690843E8602088C00506D5E8680321CE
:101A000009048843A1690843E8602078000606D5E8
:101A1000E868032189048843E1690843E8600020FD
:101A2000F8BD000040100240007000408813000024
:101A3000F8B5054653480E460068C007C00FB042CF
:101A40000AD25048016849084900314301600068E2
:101A5000C007C00FB0426FD128784B4C800705D526
:101A6000E068F0218843A9680843E0602878C0074F
:101A700052D06868022817D0032818D0216801289E
:101A800018D08905002957DAE168890889000143DF
:101A9000E160FFF7F7FD69680746022912D00329C4
:101AA0001CD0012926D033E021688903EAE72168A8
:101AB0008901E7E74907E5E7FFF7E4FDC11B334884
:101AC000814223D8E0680007800F0228F4D123E088
:101AD000FFF7D8FDC11B2D48814217D8E0680007E9
:101AE000800F0328F4D117E0FFF7CCFDC11B274876
:101AF00081420BD8E0680007800F0128F4D10BE089
:101B0000FFF7C0FDC11B2148814201D90320F8BD68
:101B1000E0680007800FF3D11A480168C907C90FB0
:101B2000B1420BD90168490849003143016000689E
:101B3000C007C00FB04201D00120F8BD287840078F
:101B400006D5E068072109028843E9680843E06098
:101B50002878000707D5E0680721C902884329696A
:101B6000C9000843E06000F037F8E168084A090658
:101B7000090F515CC840074908600320FFF7A0FD2A
:101B80000020F8BD00200240001002408813000031
:101B9000B8A8000838000020044805490068C96852
:101BA000044A4905490F515CC8407047380000207D
:101BB00000100240D1A80008044805490068C9681F
:101BC000044A8904490F515CC8407047380000201E
:101BD00000100240D1A8000810B5184AD1680C20A6
:101BE000084004280BD0082810D00C2810D05068CA
:101BF0000004410F0120C003491C884010BD10683B
:101C0000C00601D50E4810BD0E4810BD0E4810BDCF
:101C100088020E4B000F185C0902D368890F491C1B
:101C2000DB0301D5084A05E01268D20601D5044A53
:101C300000E0044A5043FEF75BFA10BD001002407A
:101C400000093D000024F40000127A00C8A8000832
:101C5000F8B504460078F34DC0074CD0E86800079B
:101C6000800F022807D0E8680007800F032809D1F9
:101C7000E868C00306D5286880033CD56068002862
:101C800075D038E0012062680004824203D12968DF
:101C90000143296011E0052301211B0489049A42B4
:101CA0002A6802D10A432A60F1E782432A602A683F
:101CB00002400092286888432860606800280DD0A0
:101CC000FFF7E0FC0646D84F04E0FFF7DBFC801B83
:101CD000B8427DD828688003F7D50CE0FFF7D2FC26
:101CE0000646D14F04E0FFF7CDFC801BB842F0D888
:101CF00028688003F7D42078800741D5E8681F273B
:101D00000007800F3F02012807D0E8680007800F16
:101D1000032809D1E868C00306D42868400717D50E
:101D2000E068012823D113E0E068002817D0296873
:101D30000922914301432960FFF7A4FC064604E011
:101D4000FFF7A0FC801B0228C3D828684007F7D5FE
:101D500068682169B84309020843686010E0286890
:101D6000400840002860FFF78DFC064605E090E043
:101D7000FFF788FC801B0228ABD828684007F7D4FF
:101D80002078C00676D5E868A84E0007800F0BD0F3
:101D9000A06900285DD02868FF2101310843286030
:101DA000FFF770FC074644E02868800502D5A0696B
:101DB00000286ED0206A69683140884212D903F049
:101DC000E3FB0028AED16868216AB043084300E015
:101DD000BDE068606868217F0002000A09060843C8
:101DE00068600FE06968B143014369606868217FFA
:101DF0000002000A090608436860206A03F0C4FB79
:101E000000288FD1206A410B0120C003491C884063
:101E1000E968874A0906090F515CC840854908608E
:101E20000320FFF74DFC25E0FFF72CFCC01B022828
:101E30008AD828688005F7D56868216AB0430843C6
:101E400068606868217F0002000A0906084368602C
:101E500010E02968FF20013081432960FFF712FC60
:101E6000064604E0FFF70EFC801B02286FD82868A6
:101E70008005F7D42078704E000723D560690028CC
:101E8000306910D0012108433061FFF7FBFB0746A2
:101E900005E0C5E0FFF7F6FBC01B022857D8306904
:101EA0008007F7D50EE0400840003061FFF7EAFBFD
:101EB000074604E0FFF7E6FBC01B022847D830695D
:101EC0008007F7D42078400762D5A86B0027C000B0
:101ED00005D4A86B012109070843A86301275748C7
:101EE0000168C90511D40168821511430160FFF72B
:101EF000C9FB009005E0FFF7C5FB0099401A642874
:101F000025D84E480068C005F5D5FF20A2680130ED
:101F1000824203D131690143316111E0012189021B
:101F2000002A07D005231B029A4203D132690A43D3
:101F30003261EFE732698243326130698843306150
:101F4000A06800280FD0FFF79DFB009007E060E03D
:101F5000FFF798FB0099411A3348814259D83069FC
:101F60008005F5D50DE0FFF78DFB009006E0FFF74B
:101F700089FB0099411A2C4881424AD83069800572
:101F8000F5D4002F04D0A96B012000078143A96379
:101F9000606A002842D0E9680907890F03293FD009
:101FA000012636060228286805D0B0432860FFF7CE
:101FB00069FB04462FE0B0432860FFF763FB074648
:101FC00004E0FFF75FFBC01B022822D828688001CD
:101FD000F7D4E16AA06AEA680843216BFD231B0479
:101FE0009A4311430843E860286830432860FFF7AC
:101FF00049FB044604E0FFF745FB001B022808D814
:1020000028688001F7D509E0FFF73CFB001B022898
:1020100001D90320F8BD28688001F5D40020F8BD5F
:102020000120F8BD001002408813000000E000000D
:10203000B8A800083800002040100240007000409E
:1020400030B5014620310A78012A15D001220A70E4
:1020500002234B700468CA236362046853236362DB
:1020600003689C6820252C439C600068FF23436222
:102070004A700020087030BD022030BD10B506F057
:1020800053FC10BDF8B505460446203528780128D4
:102090001DD001202870022068702268CA2050627A
:1020A000226853205062FF2001300026FF27814222
:1020B0001CD121688A6882438A6020688168012275
:1020C000120391438160FFF7DDFA009009E00220DE
:1020D000F8BDFFF7D7FA0099411A7D20C000814270
:1020E0001BD82068C068C007F3D020E02068816852
:1020F000012252029143816020688168120191435C
:102100008160FFF7BFFA00900DE0FFF7BBFA00997E
:10211000411A7D20C000814205D920684762032012
:1021200068702E70F8BD2068C0688007EDD5206803
:102130004762012068702E700020F8BD10B500685D
:102140000B464068C021C94301400002000ECC0488
:10215000D870E40E5C708C06A40E0904490F9C70C4
:102160001970002A0AD103F047FAD870587803F0A2
:1021700043FA5870987803F03FFA9870002010BD29
:1021800030B50B460168896A5960016809694904DC
:10219000490C9960006804680F4821460140880294
:1021A0004D04800E18706D0E49065D70490E9970D1
:1021B0006102490E40242140D970002A0AD103F05F
:1021C0001BFA1870587803F017FA5870987803F0D3
:1021D00013FA9870002030BD7F7F7F0070B5040037
:1021E00005D0254620356878002802D006E0012079
:1021F00070BD00202870204600F042F80220687070
:102200002168CA204862216853204862204603F0B2
:1022100006FAFF210028206803D04162042068707C
:10222000E5E78268154B1A4082602268906863680F
:10223000A669184323693343184390602268E06815
:1022400010612068026923891B041A430261206817
:10225000C26880239A43C2602068C26C92089200D0
:10226000C264E269606902432068C36C1A43C264B5
:102270002068416201206870002070BDBFFF8FFFA1
:1022800000B595B00420009000200990FF20013097
:1022900002906846FFF7DCFC002801D0FEF77EFEC6
:1022A00020200D90C0020E900DA8FFF705FB00281E
:1022B00001D0FEF773FE0848016901229204114320
:1022C0000161002211460220FFF730FA0220FFF7D9
:1022D00019FA15B000BD000040100240FEB50646D8
:1022E0000446203630780B46012842D00120307059
:1022F0000220707020681D46002720358068002A63
:1023000039D0400655D5187803F076F9287803F0CF
:1023100073F919789878090408435978DA7809022A
:10232000120411430843297809060843D969084370
:10233000596908430546996958680843009021681F
:10234000CA204862216853204862FF205A6A01303F
:10235000802182424AD12268936883439360226835
:10236000D0680840FF388238D060FFF78BF90190C1
:1023700029E00220FEBD400600D4DF70187803F08B
:1023800043F90204587803F03FF9000202439878B9
:1023900003F03AF90243D87800040243287803F0A6
:1023A00033F900060243D8690243586902431546CF
:1023B000C1E7DF70AAE7FFF765F90199411A7D20AF
:1023C000C00081422AD82068C068C007F3D02068C6
:1023D000C56121680098486420688168FF22013245
:1023E0001143816020688168120130E020688268B2
:1023F00001235B029A4382602068C2680A401D493B
:102400005118C160FFF73EF901900EE0FFF73AF96D
:102410000199411A7D20C000814206D92168FF2020
:102420004862032070703770FEBD2068C068800766
:10243000ECD520680562216800988864206881686E
:102440000122520211438160206881681201114308
:10245000816009480268012149040A4302608268D8
:102460000A4382602168FF20486201207070377043
:102470000020FEBD7FFDFFFF00040140F8B50546CA
:102480000446203528780B46012815D001202870F5
:10249000022068705878002A10D003F0ADF89878C0
:1024A00003F0AAF8D8789E78000406435878197883
:1024B00000024903084316E00220F8BDC10603D517
:1024C000EF2108400A305870D87803F09DF80604D0
:1024D000587803F099F800020643987803F094F8CE
:1024E00006431878400306432168CA2048622168E1
:1024F00053204862204603F092F80027002811D1AB
:1025000010480640206846602068C16880229143D8
:10251000C1602068806880060CD4204600F08CF8EA
:10252000002807D02168FF204862042068702F70BF
:102530000120F8BD2168FF204862012068702F70DB
:102540000020F8BD3FFFFF00F8B5064604462036E0
:1025500030780D4601280ED00120307002207070B6
:10256000206800278068002A07D040061AD52878FE
:1025700003F042F817E00220F8BD400600D4EF70E7
:10258000287803F041F80204687803F03DF800026F
:102590000243A87803F038F80243E87800040243C5
:1025A00000920BE0EF702978A87809040843697855
:1025B000EA78090212041143084300902168CA20F6
:1025C0004862216853204862204603F028F800281A
:1025D0001FD1184900980840216808602068816868
:1025E00001229204914381602969E86808432168C7
:1025F0008A68104388602068C16880229143C16066
:102600002068806880060CD4204600F015F8002869
:1026100007D02168FF2048620420707037700120C5
:10262000F8BD2168FF2048620120707037700020DB
:10263000F8BD00007F7F7F0070B504460068C16868
:10264000A0229143C160FFF71DF87D260546F600E4
:1026500006E0FFF717F8401BB04201D9032070BD18
:102660002068C0688006F4D5002070BD70B50400F5
:1026700006D025464035687C0026002802D005E0BB
:10268000012070BD2E74204600F032F802206874DC
:1026900020680168402291430160A1686068226956
:1026A0000843E16811430843616901220843A169B5
:1026B000520211400843E1690843216A0843A16AB4
:1026C000084321680860A0690421000C0840616A81
:1026D0000843216848602168E06A08612068C16990
:1026E00092009143C161666501206874002070BD4D
:1026F0007047F8B5044600276846078026464036EE
:10270000707C012802D0707C22287ED100290CD058
:10271000002A0AD0002B08D0307C012875D0012077
:102720003074707C012802D003E00120F8BD322013
:1027300070746765A263A387E3872163A386E3863A
:10274000A764E7640125A06A6D03A84207D1206849
:102750000168A9430160206801682943016020687D
:102760000168490603D40168402211430160012138
:10277000FF20E268C90205308A42616866D10029FB
:1027800004D081420CD1E08E012809D1206B216850
:102790000088C860206B801C2063E08E401EE086AD
:1027A000E08E002843D1A06AA84246D12068016883
:1027B00001221203114301603FE02068C068A16B51
:1027C0000880A06B801CA063B0E00022022120469C
:1027D000069B04F04FFC00287DD1206B2168008807
:1027E000C860206B801C2063E08E401EE086E08E77
:1027F000002808D1A06AA84205D1206801680122FA
:10280000120311430160002200E0CCE001212046C8
:10281000069B04F02FFC00287FD12068C068A16BC4
:102820000880A06B801CA063E08F401EE087E08ED4
:102830000028CAD1606800287BD1002201212046EF
:10284000069B04F017FC002867D1B6E7002904D0E6
:1028500081420BD1E08E012808D1206B411C2163FD
:1028600021680078C860E08E401EE086E08E002877
:1028700045D1A06AA84205D120680168012212034F
:1028800011430160002201212046069B04F0F2FB67
:10289000002842D12068C068A16B087046E0002281
:1028A00002212046069B04F0E5FB002835D1206B71
:1028B000411C216321680078C860E08E401EE086DC
:1028C000E08E00280AD1A06AA84207D120680268D9
:1028D0000121090300E020E00A43026000220121F7
:1028E0002046069B04F0C6FB002816D12068C2686B
:1028F000A06B411CA1630270E08F401EE087E08E58
:102900000028CCD16068002813D100220121204684
:10291000069B04F0AFFB002802D00320F8BD08E0BE
:102920002068C168A06B421CA2630170E08F401E4A
:10293000E087A06AA8420FD1002201212046069B11
:1029400004F098FB002802D0606D02210EE02068A0
:10295000C068694608800888012280212046069BBD
:1029600004F088FB002804D0606D202108436065D6
:10297000D3E701207074A06AA84211D12068816851
:10298000C943C9060CD4616D022211436165016817
:10299000A943016020680168294301603774C4E6D7
:1029A00037740020BAE70220B8E7014660310A7A9E
:1029B000012A0DD001220A7224224A72006802689C
:1029C00002231A43026020204872002008727047D8
:1029D000022070477047704770B5040005D0254647
:1029E0006035687A002802D006E0012070BD002022
:1029F0002872204600F026F82420687220680168BA
:102A0000490849000160606A002802D0204606F0AB
:102A100057F8204606F0EAF80128E7D02068416818
:102A20000922D20291434160206881682A229143A1
:102A3000816020680168012211430160204606F090
:102A4000A5F870BD10B50448416B012292031143F3
:102A5000416307F0BBFD10BD00100240F0B5034616
:102A600060339C7A202C44D100290BD0002A09D055
:102A7000012584682D03AC4206D10669002E03D1DE
:102A8000CE0701D00120F0BD1E7A012E31D00126E3
:102A90001E724165014640310A834A83FF27AC42DA
:102AA00004D10269002A12D1134A0EE07F22002CC1
:102AB00008D001252D07AC420AD10469002C04D0AE
:102AC0003F2202E00469002C01D08A8300E08F835A
:102AD0000021C16622229A72197201688A68324303
:102AE0008A6000680168FF222132114301600020E2
:102AF000F0BD0220F0BD0000FF0100007047FFB5EF
:102B0000064604466036707A83B00D46202858D1B8
:102B1000002D0CD00598002809D00120A1680003E1
:102B2000814207D12069002804D1E80702D00120A2
:102B300007B0F0BD307A012843D001203072002068
:102B4000E06621207072FEF79DFD01902746403718
:102B5000059838820598788218E0788A401E788235
:102B600006980090002280212046019B06F056F92D
:102B7000002818D10120A1680003814202D12069F8
:102B8000002812D02168287888626D1C788A002875
:102B9000E3D106980090002240212046019B06F0D8
:102BA0003DF9002808D00320C2E728882168C00525
:102BB000C00D8862AD1CE9E72020707200203072E1
:102BC000B6E70220B4E730B5034660335C7A202CC8
:102BD00023D100290BD0002A09D0012584682D03B8
:102BE000AC4206D10469002C03D1CC0701D00120EE
:102BF00030BD1C7A012C10D0C164014640310A82DC
:102C00004A820021C16621225A7219720068016845
:102C1000802211430160002030BD022030BD70478A
:102C200010B51248017800291ED101220270114806
:102C30000F49016000210164C161D30781614360D4
:102C400082638160C160016207234162C3630261E4
:102C5000C1620422426101630748416B421511437E
:102C600041630448FEF77AFA10BD000074000020AA
:102C7000002401409C050020001002407CB51E4944
:102C8000064609780020002934D01C484168C94311
:102C90000907FBD41A4C606B65152843606300215B
:102CA0001848FEF7B7F9184800901848019069468F
:102CB0001448FEF705FAA0140190694600961148E1
:102CC000FEF7FEF90F48FEF78BFB0021C9430D48C4
:102CD000FEF727FB0B48FEF73DFA0A4980B20A6867
:102CE0009368022633439360096803220A60616B8C
:102CF000A94361637CBD00007400002000700040A7
:102D0000001002409C050020FFFF0700011000009A
:102D1000014600200A0A00D00820084A114201D0CA
:102D200004221043064A114201D002221043054AF0
:102D3000114201D00121084370470000F0F000006B
:102D4000CCCC0000AAAA000038B50B231B07C5187D
:102D5000114B0FD01C152D1B18D02D1B19D0A542BF
:102D6000DD6A05D108242543DD62DB6A234007E0E4
:102D70008024F8E7DC6A01252C43DC62DB6A2B4007
:102D8000009311601146FEF7B5FB38BDDD6A0224E1
:102D9000E9E7DD6A0424E6E70010024010B5FFF71A
:102DA000B7FF810002484058002800D0804710BD7E
:102DB0005C03002070B51C4615460E460846FFF71A
:102DC000A7FF0A49002C0DD080000C50304601F0BE
:102DD00035FB044600222946FEF7A8FC2046FEF7F4
:102DE00091FC70BD002280000A5070BD5C03002081
:102DF00010B5D2B2FEF740FC10BD000070B5002443
:102E00000E48FFF73BFF0E4E0E4D010013D00E484B
:102E10003246008B5043FDF76BF9B04201D9FE24D6
:102E200009E0A84207D3401BFE2148434B2109017A
:102E3000FDF75EF9C4B2204670BD000000000244F8
:102E4000B80B0000080700006000F81F03494A693A
:102E50000869496A50404840704700004000F81F28
:102E600070B51148FFF70AFF104C01001AD0208BF3
:102E70000F4A5043FDF73CF905460E48FFF7FEFEAA
:102E800068430B49FDF734F9618B0522401A1203A0
:102E90005043E28B511AFDF741F90F2149024018C6
:102EA00080B270BD0025E8E7000002446000F81F12
:102EB000B80B0000000004480F494B6A0A69D21899
:102EC000120EC2714B6A0A69D218120C82710A8AF8
:102ED0008B8CD218120A42710A7C8B8CD218027128
:102EE0004A69120EC2704A69120C82708A8A120AEA
:102EF0004270097D017070474000F81F10B50A4C00
:102F0000607800280ED1FFF78BFE084800688047E4
:102F100000F0DCF900F090F807F020FBFDF730FF3F
:102F20000120607010BD00007400002050A800084F
:102F300070B5410EC0017D220023FDF703F905465F
:102F400000F072F8044600E000BF00F06DF8001BCE
:102F5000A842F9D370BD000070B505460C460022AA
:102F60002048FFF70DF9002229461E486668FFF742
:102F7000E5F8002221461B48FFF702F96068B042DD
:102F8000F1D1E878184A01465043C01C83088807ED
:102F900026D0164968783D220646504302463C3A00
:102FA0007000801EC1408807D10F8918800F49101A
:102FB000081AC018A978401E08180D493C22484339
:102FC0006178E123514322781B015A438918A27882
:102FD00010180818074A61688002511A401870BD1D
:102FE0000549D7E79C030020B5050000A0AA990079
:102FF00080510100FF03000050554400032070473A
:103000000148006870470000E803002000B587B061
:10301000694605A8FFF7A0FF0249096807B0401AF2
:1030200000BD0000E803002000B587B0694605A890
:10303000FFF792FF07B000BD10B5084C20780028BC
:103040000AD100F04BF8FF2101310548FFF71AF8CB
:1030500000F074F80120207010BD00004000002036
:103060009C03002010B50C4C0021042000F038FC1B
:1030700021688868C0040ED5C868C0050BD5C8682B
:1030800080221040FF388238C860044990024861AD
:103090002046FEF7F3FF10BD9C0300200004014012
:1030A00070B50446FFF7B2FF211A0B4D0220285ECF
:1030B000C01C814201D9002100E00121042000F060
:1030C0000FFC00F0E5FB012802D10220285E241A43
:1030D000204600F03FF870BD4000002010B51449B4
:1030E000144886B0002412C01F210160846004616E
:1030F0001149446141600838FFF770F86946CC75A2
:103100000120487588750875002205A90948FFF750
:10311000B5F900940194049400226946054803948B
:10312000FFF712FA0348FEF78BFF06B010BD000050
:10313000002800409C030020FF03000010B5044C51
:103140002046211D1830FFF707FF206010BD00004A
:10315000E8030020F0B587B0044614223F4901A8D7
:10316000FDF720F83D485038406E009000F07EF8A2
:103170003B4802993B4A401AA105890D081887B2BD
:10318000A10A68468078534202E08918401C80B248
:103190009942FAD26A461579E122120102E0891AAF
:1031A0006D1CADB29142FAD26A46547902E0641CB9
:1031B000A4B23C393C29FAD2927951188EB201213D
:1031C000890203E07A1A761C97B2B6B28F42F9D21E
:1031D00003E03C3E641CB6B2A4B23C2EF9D203E03C
:1031E0003C3C6D1CA4B2ADB23C2CF9D203E0183DBE
:1031F000401CADB280B2182DF9D26946C978890752
:1032000069464A7827D01849491E515C814202D24A
:10321000FCF76EFF08461249CA1B10492C394A6058
:10322000052252068A618E704C700A460D7020325B
:1032300010706846C079C8700020C861FF224861DC
:103240000132C8604A620861024608462438FFF726
:1032500045F807B0F0BD04490C31D5E7EC03002078
:10326000FF03000080AEFEFFD9A8000810B5064895
:103270000168C86880221040FF388238C860510059
:103280000148FEF7FFFE10BD9C03002010B57D2114
:1032900005F0CFFE4906C009084310BD10B5410E28
:1032A000C0017D220023FCF74DFF10BD01B582B0A7
:1032B0000020C0430090012301AA02A90248FFF7A1
:1032C00018FA684680880EBD0404002010B51C481A
:1032D0001A4901601C4A1B4B0021126803E0520886
:1032E000491C072901D29A42F9D84A078B07D20F05
:1032F000DB0F52011B011A43C90700D008210A4302
:10330000C2610021816001614161FF22C16005321B
:1033100081624260012201625202826141620B4875
:10332000416B8214114341630548FFF79FF9002860
:1033300001D0FDF733FE00F00BF810BD0030014066
:1033400004040020809698003800002000100240FD
:1033500010B586B014216846FCF73DFF02200190AD
:1033600002900320039000200524240704906A465D
:1033700020212046FFF7E8FC6A4640212046FFF75F
:10338000E3FC6A4680212046FFF7DEFC0121019123
:1033900002916A4610212046FFF7D6FC0122102137
:1033A0002046FFF725FD06B010BD0000EFF31081A9
:1033B00072B60648064B5A688018FF300130007814
:1033C000521CD2B281F310885A6070476C070020FB
:1033D0007C000020F8B502680446D0691168060731
:1033E000360F07D1830605D58B0603D5204606F098
:1033F0000FFEF8BD936825466035002E70D0DE07BD
:10340000F60FFF2721370F40374369D0C70706D093
:10341000CF0504D501271762E26E3A43E2668207C0
:1034200008D5DA0706D0276802223A62E26E04273E
:103430003A43E266420708D5DA0706D02368042239
:103440001A62E26E02231A43E266020709D52022BD
:103450000A40324305D0236808221A62E36E134300
:10346000E366E26E002AC4D0800604D5880602D541
:10347000204606F0CDFDE06E000703D4206880688A
:10348000400626D520680168FF2221329143016061
:10349000206881684908490081602020A87220685E
:1034A0008168490611D58168402291438160606E30
:1034B00000280AD01C498163606EFDF7BFFF002819
:1034C00097D0606E816B8847F8BD2046FFF783FA7E
:1034D000F8BD2046FFF77FFA0020E066F8BDFFE761
:1034E000C6020BD55B0209D5012000051062202021
:1034F0006872A8722046FFF76DFAEFE7030605D55C
:103500000B0603D5204606F0D5FDE7E74006E5D5D6
:103510004806E3D51368204640218B4313602021E1
:103520006972FFF77CFBD9E7FD9F0008EFF310817C
:1035300072B6054805C8824201D0012000E0002093
:1035400081F31088704700007C00002000BFFDE779
:1035500010B507A1095C07A007F088F80C48002106
:10356000017132214171002100F052F910BD0000BB
:103570004142430073776974636820746F20636C01
:1035800061737320256320646F6E650A0D0000006F
:103590005000002010B503A007F068F8022000F0EA
:1035A000C7F810BD4A4F494E45440A0D00000000BF
:1035B00070B5324D2960A86031A007F057F82E464B
:1035C0000C36317830A007F051F80124315D32A07B
:1035D00007F04CF8641C082CF8DB2AA007F046F82A
:1035E000264E2FA01436317807F040F80124315DC3
:1035F00029A007F03BF8641C082CF8DB21A007F099
:1036000035F81E4E2AA01C36317807F02FF8012419
:10361000315D2BA007F02AF8641C102CF8DB2AA0DF
:1036200007F024F82A48294901602A4941602A49BB
:103630008160A86811490068091D086007222448B4
:1036400000F0A0F9224C02260C342670286800787D
:103650002071204600F04CFC0720207028688078FC
:103660002071204600F044FC002020702671204686
:1036700000F03EFC012000F0D1FE70BD840000206F
:103680004F5441410A0D00004465764575693D205F
:1036900025303258000000002D253032580000003F
:1036A0004170704575693D2025303258000000009A
:1036B0004170704B65793D20253032580000000084
:1036C00020253032580000000A0A0D006D44000821
:1036D0008009002071440008C144000810B586B07C
:1036E0000021684601700A480190083002900830B5
:1036F00003901C380068C1786846017401A91EC98E
:1037000004481EC0684600F029FD06B010BD000048
:1037100090000020700900200EB50121684601705C
:1037200000F06AFB68460079012800D000200EBD39
:10373000FEB50646002469460C70684600F05CFB46
:1037400069460879B04221D0114F651E002E02D083
:10375000022E1BD10CE0002818D1084600F0C8FB4F
:10376000002803D1B868816900200EE02C460DE0E6
:10377000002800D02C4602200871084600F0B8FB53
:103780000028F3D1B8688169022088472046FEBD31
:103790008400002010B54279032A0ED01549322A40
:1037A00019D0612A16D10068807864281DD00020C5
:1037B000487000281BD010A014E00179012909D11C
:1037C00000680078002803D0012801D0022801D128
:1037D000FFF7AEFF10BD0279012AFBD10068007827
:1037E0001040E5E706F042FF10BD0120E0E705A02C
:1037F000F8E70000440000204C4544204F4E0A0DDD
:10380000000000004C4544204F46460A0D000000D1
:1038100030B585B00D46044606F006FA002802D001
:10382000002005B030BD207904A900F09BFD0146C1
:103830000020164A002904D0694608700290888149
:1038400020E0002D16D001216846017061790171D8
:10385000217981812068029008216846C17310682F
:10386000417868468173684600F030FA0028D8D065
:103870000120D6E76946087060790871207988814F
:1038800020680290106840788873ECE7840000207C
:10389000EFF3108172B607480268002A01D00020B9
:1038A00005E04068002801D0012000E0022081F3FB
:1038B00010887047A801002010B5EFF3108272B68F
:1038C000064B00295C6803D0012903D1044300E0C2
:1038D00084435C6082F3108810BD0000A8010020C2
:1038E00010B5EFF3108272B6064B00291C6803D0A6
:1038F000012903D1044300E084431C6082F3108853
:1039000010BD0000A8010020F8B5174605460A467C
:103910001948069C089E0799447183711C0AC4715A
:103920001C0C04721B0E437281720B0AC3720B0CC7
:103930000373090E4173D4B2C4731048FDF75CF9E8
:1039400039460E48FDF768F910220B490B48FDF780
:103950006BF9224629460948FDF766F90749C81F51
:10396000FD38FDF7ABF8064C601CFCF73FFC2178F6
:10397000000208433060F8BD200100207C0F0020C9
:10398000780E0020F8B50E46050017467ED0286850
:103990000028FBD068680028F8D0A8680028F5D077
:1039A000104603F061FA002871D0774C002126669A
:1039B000E565224627741A32117002226274A163EF
:1039C000217601266676E1746165A1650B216A4660
:1039D00011703846694602F076FD002800D00120BB
:1039E00020750821684601706946207C02F06BFD55
:1039F000664D05212870684601706946207C02F0FA
:103A000062FD68700C21684601706946207C02F0F6
:103A10005AFDE8600D21684601706946207C02F07D
:103A200052FD28610E21684601706946207C02F033
:103A30004AFD68610F21684601706946207C02F0EA
:103A400042FDA8611021684601706946207C02F0A1
:103A50003AFDE8611321684601706946207C02F056
:103A600032FD2F4620377870142168460170694670
:103A7000207C02F028FD68621521684601706946C5
:103A8000207C02F020FD38721A2101E077E078E016
:103A9000684601706946207C02F015FD38731B21D1
:103AA000684601706946207C02F00DFD78731C2188
:103AB000684601706946207C02F005FD28631D21DF
:103AC000684601706946207C02F0FDFC68630021B5
:103AD000207C03F0BCF93E700A2206216A60284669
:103AE0002972383842600172E968C1602969016150
:103AF00069694161A9698161E969C1612030067024
:103B000003F06CFA28462249383004F0F7FE7D2194
:103B10002846C900383004F059FF28461D4968304E
:103B200004F0ECFE28461C497C3004F0E7FE2846F1
:103B30001A49903004F0E2FE28461949CC3004F0CE
:103B4000DDFE04F0C9FE6063284616494C30016072
:103B50001549816015490161154941601549164DA6
:103B6000C160A9688847E869804706F0F1FCA6743F
:103B7000296E30468847686B80470020F8BD0320D7
:103B8000F8BD0A20F8BD0000B4000020500D002050
:103B900089450008394F00087D4E0008DD4E0008B9
:103BA00049450008554D0008B94700088D4C0008EC
:103BB000414E0008ED4C000850A80008F8B5044636
:103BC0001D4617460E460D48FDF716F839460B48B8
:103BD000FDF722F8F2B221460848FDF725F807491B
:103BE000C81FFD38FCF76AFF054C601CFCF7FEFAA5
:103BF0002178000208432860F8BD00007C0F0020F7
:103C0000780E0020FFB585B00F46044607ADF022C0
:103C100000211D480E9E06F0E1FA1B4A10212046A5
:103C200005F0C2FE10220021684606F0D7FA0121F5
:103C300068460170062239466C46401C06F0B6FA0A
:103C400002222946E01D06F0B1FA0F4A684608999B
:103C500005F07FFE10220021684606F0BFFA02211F
:103C60006846017006223946601C06F09FFA02225F
:103C70002946E01D06F09AFA034A3146684605F0E7
:103C800068FE09B0F0BD0000880E0020F8B51746A8
:103C90000E4605461C46F02200210B4806F09EFA0F
:103CA000094A1021384605F07FFE074A214628467A
:103CB00005F04FFE102E06D321462846024A103149
:103CC000103005F046FEF8BD880E0020F0B5044621
:103CD00087B002200490002006460190002C78D086
:103CE0004248816BCA0701D1C80602D5012007B03E
:103CF000F0BD002069460872014614223C4806F0D7
:103D00006DFA3B4801214170384841732278002AFE
:103D100004D0012A0AD0032A26D118E001736B4689
:103D20001A7A0126D206D20E403207E0E27B0273F5
:103D30006B461A7A0126D206D20E80321A72227986
:103D40000192A26800920E25A78965570CE00173C5
:103D50006B461A7AE0231A436B461A726268012690
:103D600000920A252789655701216A461175214964
:103D70000691097B91751D4805A9007C02F0A3FB03
:103D8000A84200D3054668B2002E1FD0174D2979EE
:103D9000002910D16946087306980422007B8873B5
:103DA00003A9287C03F007F9002812D011496846BE
:103DB000007B203948703B4602A8009A019904F024
:103DC0005FFC0490002806D00020687104988EE7FC
:103DD000FFE703208BE706482178017003480122A2
:103DE0001A30017811430170F0E70000B4000020A0
:103DF000480E0020380D0020F8B5002504460028A4
:103E000018D03949277837480E463836027C3B00AF
:103E100005F027F91E121417191B1E202325272928
:103E2000303B394246484A4C4E50525654585A5CE0
:103E30005E6062640320F8BD407C00E0C0782071C1
:103E40004DE00079FBE7C06C00E0006D606046E08B
:103E50002648FBE725481030F8E7807CEFE7C07C78
:103E6000EDE7192012E020492039486C896CA160E7
:103E7000606034E01C49203908467C30C96F4068D6
:103E80006160A0602BE0172000E0162069460870F2
:103E9000104602F018FBD9E7134820300078CEE72F
:103EA000C868D3E70869D1E74869CFE78869CDE7F3
:103EB000C869CBE77078C2E74878C0E73078BEE7DA
:103EC0000878BCE7806AC1E7C06ABFE7406ABDE71F
:103ED0004868BBE7087AB2E7486BB7E7022528468F
:103EE000F8BD0000B4000020180D0020F8090020E3
:103EF000F0B5002489B00746002806D0934D288FDE
:103F0000C00704D0012009B0F0BD0320FBE7914EAB
:103F10003A78304620300290407B03908B488C49A1
:103F2000007C130005F09DF81E102124272A2D3354
:103F30003C41F744819894A4ABAEB1B4B7BAC9E59B
:103F4000D6FAFDF7F4F3F2F738796874002804D054
:103F5000012804D0022802D102E0486B8047F3E038
:103F60000020687100F0BAFFEEE03879E870EBE00D
:103F700038792871E8E07868E864E5E078682865D1
:103F8000E2E07968002972D01022734805E0796870
:103F90000029F8D070481022103006F007F9D3E05D
:103FA0003879A874096E8847CEE03879E874CBE098
:103FB000397A6A46117103995171062201A902F0FA
:103FC000FAFF002853D06348BA68203879688264C1
:103FD0004164687C022827D1E878002824D05D4F0E
:103FE0000298F037009708214156327A7368287C8E
:103FF00001F0A1FD687D3870706A786002983A46D9
:10400000407B3874E87C78740120F874B8742C32E2
:104010003946287C02F070FF00287DD0B87CF1681A
:1040200003F01CF8F87CE8738EE0397A6A46117167
:1040300003995171062201A902F0BDFF00286BD03F
:104040004448BB6820387A688021C2670B507BE007
:1040500079680691012102E07968069100216A469B
:10406000117706A901F050FB002855D06CE053E011
:104070003879411E0E294FD80299087064E078689B
:10408000F06061E0786830615EE0786870615BE004
:104090007868B06158E07868F06155E03A7969462F
:1040A0000A71052201A902F086FF002834D0684673
:1040B000017928483830417046E039796A461171F3
:1040C000042201A902F077FF002825D06846007974
:1040D000707039E03A7969460A71082201A902F044
:1040E0006AFF002818D0684601791A4838300170F4
:1040F0002AE039796A461171072201A902F05BFFB3
:10410000002809D06846007930701DE018E011E001
:104110000AE006E002E016E0032415E07868A862F1
:1041200012E07868E8620FE00A4879683830416048
:10413000716009E00748397938300172317203E063
:104140007868706300E002242046DCE6B4000020BA
:1041500050A80008180D0020F8090020F0B504460A
:10416000022085B00090002C36D04748008FC00751
:1041700018D10C220021454806F030F8434E0120AA
:104180007070414D207808271A35002806D0012884
:104190005DD0022866D0032850D16BE03A48018FE9
:1041A000C90602D5012005B0F0BD6168002913D011
:1041B000A168002910D0E16800290DD0217C0029D8
:1041C0000AD06A46117330481E2203A9007C02F00F
:1041D000F2FE002802D00AE00320E4E71F2168462F
:1041E0000174294804A9007C02F06DF92074287834
:1041F00069463843287020783070234E60683064F8
:10420000A0687064E068B064207C7076002030762E
:10421000087102F0E3FE307E6946401C088102A965
:10422000307C01F033FA1A49002348701A461946C7
:1042300001A804F025FA0090002806D012490020B9
:1042400048712878F721084028700098ABE7287853
:104250000022384328702078307011460220FCF785
:1042600043FDE8E73070287838432870A08804F0D0
:1042700073FAE0E73070287838432870227BA088F2
:10428000A16804F093FAD6E7B40000205C0E002089
:10429000180D0020FEB508AF70CF6F4670C700F054
:1042A00001F8FEBDFFB50D46002681B01F46012472
:1042B000F0223146294805F091FF284A1021039841
:1042C00005F072FB26480A9941718771390AC1715C
:1042D000390C0172390E41720B9981720B991F4F83
:1042E000090AC1720B99090C01730B99090E4173EC
:1042F000203F18E01A48194AC473641C1146A4B23E
:10430000203905F026FB00203118019A3B5C525CF5
:10431000401C5A400C9B80B25A541028F4D3103DD4
:104320001036ADB2F6B2102DE4D2002D13D00B4AE8
:104330000B481146C473203905F00BFB002008E040
:10434000019A3118525C3B5C5A400C9B401C5A54F9
:1043500080B2A842F4D305B0F0BD0000880E002062
:1043600030010020F3B52B4887B00E4642786946ED
:104370000A710078284C0876207A617A4018C5B214
:10438000002E32D000216846017221794172206BE3
:104390002049039038394A78684602741D4F0978DD
:1043A0004174183F397B817420463030009006AB51
:1043B00001AA02A9207C01F052F9397B6846817577
:1043C0000179417509210175E07C002802D00A209D
:1043D0006946087505A9207C02F075F8C0B27070B6
:1043E000A84205D3401B307006E0032009B0F0BDA1
:1043F00030700025257265726846042141562A46B0
:10440000079804F051FD002801D00020EEE70820B5
:10441000ECE70000500D0020B400002038B5044641
:104420006846054D04700B226946287C02F0C3FDE6
:10443000002800D02C7538BDB4000020FF220132C6
:10444000811A90420CD009DC08280DD008DC012824
:1044500008D0022806D0042802D105E00F2212025B
:1044600007207047052070470620704770470000FE
:104470001CB504464078002818D105F0D5FB00286B
:1044800001D005F0BFFB607B01280FD1E078E02868
:104490000DD069464871227B0A71A168009805F029
:1044A00085FE054880680169684688471CBD034948
:1044B000204605F0BFFB1CBD8400002070090020D1
:1044C00010B50446007800280CD0012809D1607886
:1044D000002806D105F0A8FB002802D0204605F0F0
:1044E00099FB10BD6078002802D0FFF7F7F810BDE7
:1044F000024880684069804710BD000084000020A9
:10450000704700008307FF22DB0E9A408907090EDF
:10451000994000280BDA0007000F08388308084884
:104520009B001818C36993430B43C361704783080A
:1045300004489B001B181868904308431860704794
:1045400000ED00E000E400E010B50B4804F088FA4C
:104550000A484179002905D001218173816B042229
:1045600091438163407C022805D1044810221A300F
:1045700001781143017010BD1C0E0020B400002012
:1045800010B505F021FC10BDF8B50027874804F0F0
:1045900067FA874D874C2878C10673D5A16B4A0608
:1045A00004D54022914349084900A1637F4902078D
:1045B000D4310026002A01DBC20711D07B4AC03269
:1045C0005378022B02D04B78022B09D1A36B5B08E6
:1045D0005B00A3632672637B53711671012796609B
:1045E00062793A43714F503F002A31D1020702D419
:1045F000C10703D12CE00A78002A06D03978A27AC4
:1046000091420ED9810712D41DE0227E8A72497828
:10461000002903D0617E8A4210D214E0A662A672FD
:104620000CE0800703D42672206B401C2063A67226
:104630006078002802D1A06A401CA062A06B4008EC
:104640004000A06304E0EF210840287000F074FCF3
:104650002878800717D55548C0300179012903D043
:10466000617B227B91420ED9A67366716178002925
:1046700002D1A16A491CA162617B4171A06B400813
:104680004000A0634FE0A07B00284CD0208FC006E4
:1046900049D4A673607B217B884231D208282FD869
:1046A000401C6073C0070DD0202168460170397B23
:1046B0003E4F8170703F797841706946207C01F0EF
:1046C00002FF787003F03CFF002814D0374809211E
:1046D000C03041702672A16B49084900A163667120
:1046E0000671617B41713149703949788170607818
:1046F000002815D017E02878EF210840287012E034
:104700000121207C02F0A3FBA06B40084000A063C5
:10471000264826726671C0300671617B4171E6E7FA
:10472000A06A401CA062A06B810702D502218843C9
:10473000A06300280ED07D21C9001C4804F046F972
:104740001A4804F055F9287880072ED5607C022895
:104750001DD01EE02878C00708D0E06D016813481E
:10476000C030884728784008400028702878000723
:1047700008D5E06D81680D48D43088472878F72146
:10478000084028702878EF2108402870DBE700F007
:10479000A5FB2878400704D4E06D41680348A830A1
:1047A00088472878F92108402870F8BD880D002036
:1047B000CE000020B4000020FFB50646002097B0D0
:1047C0000C4611900146099005460C90FE48079052
:1047D00010300E90002013901290FC480171183890
:1047E000C2811A9A0274FA4AD27B4274C1708170F3
:1047F0004171816001734173817441610170F548B9
:10480000406B8047F148683804F02AF930786946EF
:1048100008704109601E0290201FEF4F1491109004
:1048200001291CD003297DD005297BD007297AD006
:1048300039460120F831487000F02CFDE448102280
:104840001A30017811430170E3480121503004F01F
:10485000BDF8E148503004F0CBF81BB0F0BDDC48A7
:10486000C178002903D0D949012018394EE1D84830
:104870000299DA4D826C89B26B1C701CFFF706FA44
:10488000684600782870109809AB81B2D048826CD5
:104890002846FFF793F928192038417F027F090243
:1048A0001143827FC07F12040A4300060999104316
:1048B000884249D1C448C64E10300090C24BF28B9A
:1048C000691CB06CFFF79EF96879297900020843EA
:1048D000A97909040143F164287AE97900020843BF
:1048E000697A09040143A87A000608433065E87A2A
:1048F0004106490F00077970000F3872287BB84DC8
:104900000007000F286101D1012028617D21C90025
:104910004843286140186861B0480D3004906846EB
:10492000113C01E015E096E1047504A9307C00F02B
:10493000BCFEA6490020143148700120F070A64842
:1049400018304078687079E7A0480721143041702A
:1049500074E7797B684681739C489D4F18380179CC
:104960006846417309210173F87C002802D00A20AF
:104970006946087303A9387C01F0A5FD21460D396D
:1049800009B2002900DA0021814200D96BE7B17831
:10499000707809020143F0788D4A000408433179A8
:1049A000090601430691126D05209142884917D0EE
:1049B0004D6A0CE02A6806998A4207D101211391B9
:1049C000291D079110310E916F6A0AE0AD6A002D22
:1049D000F0D10B217D481838417000F05BFC3CE7BA
:1049E000CF6A315C6A461170401C0B91335C401CED
:1049F000305C02020807000F08300A9030191A4391
:104A00002038017F0C9B1943437F1B020B43817F9E
:104A1000C07F09041943000608430C90D01B81B2E3
:104A20000122D20309A80D91914212D27F18019759
:104A3000029001211098009181B23046069B079A9E
:104A4000FEF762FF09990C9888421AD10120129052
:104A500017E009B201227918120489181591019101
:104A6000029010980122009281B23046069B079A6C
:104A7000FEF74AFF09990C98884202D10120159F40
:104A80001290112069460873514803A9007C01F077
:104A90001AFD0D99884205D84C480A2118384170F2
:104AA00047619AE71298002877D0484800211838C3
:104AB0004170139A82700B9A444BD206D20F427106
:104AC00081600173476142485970016341721398D4
:104AD00000280CD01846022118380170696AB942C2
:104AE00003D1002901D0082176E76F621FE01498F6
:104AF00005280DD0364835490022827118390A70D0
:104B0000C06AB84211D100280FD00820487064E76D
:104B10002F482E4A01218171183A1170C06AB8429B
:104B200003D1002801D0012011902948C7622748ED
:104B30000078012802D10B98800602D52449002074
:104B400008720A98201A001F002852DD0A9D0A9850
:104B50006D1C611B091F305CC9B20F911B491839CC
:104B6000C87000280B9819D0000707D01A980821A0
:104B7000C3B2681EC2B2304600F0AAFB012000900A
:104B8000164C019702947019069B0E9A0F99FFF725
:104B900081FB1198002825D04FE05AE0000702D091
:104BA0000120119049E00D480121029001970091E8
:104BB0007019069B079A0F99FFF76CFB1A98002152
:104BC000C3B206480F9A1CE0F8090020480E0020E6
:104BD000B400002050A80008380D0020170B00205A
:104BE000180D0020264884600F990173012141733C
:104BF0000CE00B98000706D01A980821C3B2304683
:104C00000A9A00F065FB1198002816D10B988006CF
:104C100006D51B490120183108711839887408E03D
:104C200017490020183108711648417B007B8142EA
:104C300003D91348143803F013FF124902221A3122
:104C400008781043FB221040119A9200104308701C
:104C5000F4E50C21BEE6711C22460B4805F0A6FACD
:104C600007480321017000214170074981600299C2
:104C70000173044802211A3002780A430270DDE50C
:104C8000300E0020B4000020170B002070B5144C2B
:104C9000607C022803D01348406B804701E000F09D
:104CA0001DF911480E4DE27B01461A3510261431CC
:104CB0006379002A05D00622002B00D042704A708A
:104CC0000AE00522002B00D042704A70606D03F0AC
:104CD00009FEA16E884202D328783043287070BD47
:104CE000B400002050A80008480E002070B5164CF3
:104CF000607C022803D01548406B804701E000F03B
:104D0000EDF81348104DE27B01461A351026143198
:104D10006379002A08D00422002B00D042704A7028
:104D2000607C02280BD170BD0322002B00D04270A2
:104D30004A70606D03F0D6FDA16E8842F3D32878E7
:104D40003043287070BD0000B400002050A8000857
:104D5000480E0020FEB503F0BFFD364C0646607CD1
:104D6000022803D03448406B804701E000F0B6F8D9
:104D7000304DA0781A35002700282AD02F48616EC0
:104D800003F024FE2D4803F033FE607C02280ED091
:104D90002A48A16E143003F019FE2848143003F09D
:104DA00027FE607C022802D06079002820D01220E3
:104DB0006946087202A9207C01F085FBA16E4118AA
:104DC0001E48503003F002FE1C48503003F010FE25
:104DD0000EE01A4804217C30477014304170287866
:104DE000002801D101202870C0B21021084328708A
:104DF0002878000704D5114890300078002815D095
:104E0000E775607DA07569460870E0784870019686
:104E1000207C02F092F866656079002805D1074889
:104E20007C304770A07A401CA072FEBD0120E07566
:104E3000E7E70000B400002050A80008CC0D0020D7
:104E400010B50B48407C022803D00A48406B8047CD
:104E500001E000F043F8084902204870143148701E
:104E6000034810221A3001781143017010BD000070
:104E7000B400002050A80008480E002070B5144867
:104E800003F0EEFD134C0021114DE173607D2835D8
:104E900028702846BC384278EA70407B2874E07C51
:104EA0006874A974E974607C022802D10A48806B96
:104EB0008047074A207C68321146403902F01CF8CE
:104EC0000348B438C168A87C02F0C8F870BD00007F
:104ED000CC0D0020B400002050A8000870B5144884
:104EE00003F0BEFD124D134C2835607D2E46287010
:104EF000F03E706A68602846D038407B2874E07CB9
:104F000068740120E874617C022900D00020084AFE
:104F1000A874543211462C39207C01F0EDFF002892
:104F200005D0A87CF16802F099F8E87CE07370BDC8
:104F3000E00D0020B40000201FB5194803F090FDDB
:104F4000184C1021A06B8843A06320461A300078CB
:104F5000000721D51248A430007800281CD102F0A7
:104F60003DF8207E6946401C888103A9207C00F022
:104F70008DFB0B49A03948700020694608712179E2
:104F80000246C9010A4369460A7203460246009076
:104F900002A901A800F03EF803F0D2FA1FBD0000FC
:104FA000B80D0020B400002010B503F04FFB0248FC
:104FB00003F01EFD10BD000088050020F0B5064678
:104FC00000242046002E01D0002A1ED10020F0BD72
:104FD000355DAF1E3B0004F044F8091614160612A6
:104FE000140E16061600641C1554E4B2401CC0B220
:104FF000335D135400E01554401CC0B203E0A41C00
:1050000000E0641CE4B2641CE4B28C42E0D3F0BD66
:1050100070470000F0B50C4687B0844600219848E0
:105020000C9D069181831E1E1746417100D10025FB
:10503000EAB202706146934D09782970012100910E
:1050400061460978490908D002293FD004293BD09C
:1050500007297DD0022007B0F0BD00990446818366
:10506000681C0822616C05F0ACF8A08B082208309F
:1050700080B2A0832818216C05F0A3F8A08B08301B
:10508000A0838148C06980470146E083A08B06ABBE
:105090002954401C80B2090A2954401CA083C1B283
:1050A0007848A26CFEF78AFDA08B06992954401C13
:1050B00080B20A0A2A54401C80B20A0C2A54401CAE
:1050C00080B2090E2954D7E001214171C17800292D
:1050D00069D0012269460A7321786948CA0969467C
:1050E0004A736A4A006B04905078087510784875C6
:1050F00010462030007B88756148134630300090A0
:10510000303803A9007C521C00F0A9FA81012078F4
:10511000BF22104008435A4920708979002905D0E0
:10512000574A002191712021084320705448016D95
:1051300054480A0A417082700A0CC270090E01714B
:10514000217841714E49098D8171090AC17100E0D0
:1051500088E04B49FF30097AFF304018484908255C
:105160004A7A4A49823905F021F84548017A407A5D
:105170000818C1B24248002E01721FD00278002ADE
:105180001CD0C279002A22D00F291DD820783D4A90
:10519000030940181B010007000F034323705371DC
:1051A00000203B4C07E0072055E7235C53556D1C5E
:1051B000401CEDB280B28842F7D308E030480029A5
:1051C00005D0C279002A02D0314E017000272C4C44
:1051D00000202F4AE07180322D48FFF7EFFE607209
:1051E000002801D00120E071002E14D02178002980
:1051F00011D0244847556D1CEDB2002F27D0A36A6B
:10520000002240190092019302901E4A236D103A29
:105210003046FFF747F8207806AB2918A183002015
:105220006E46A26A0DC6174A1648203A236DFEF74D
:105230006BFB144AA18B06985054030A5218537002
:10524000030C000E9370D070091DA18316E000229C
:105250002272A36A401900920A4A01930290203AEE
:10526000236DD5E7002B09D00446002A06D0681C20
:10527000314604F09BFF2078401CA0830020EAE622
:10528000B4000020180A002050A80008180D0020C3
:10529000160C002010B50C484022816B114381632D
:1052A0004079002801D0FFF74FF9074912221A313F
:1052B0000878104308700121044803F087FB034875
:1052C00003F096FB10BD0000B4000020880D002004
:1052D000FFB505468BB0A84816460C46099024E158
:1052E000285D641C801EE4B2030003F0BAFE0906C8
:1052F000115E6AA1AED6EFEDEC00A0490020487027
:10530000285D0872641CE0B22A5C4A72401C4AE0C4
:1053100000206946087708A9087069460872087372
:105320002819401E0490301B401C08759448924F69
:1053300002798A750999203F0A7B69464A757A780D
:10534000CA753A780A76099908AB0A7869464A76A6
:1053500003AA02A90192009107AA04A9007C01F006
:105360008BFD0090C043400709D16846007F7870EC
:1053700008A8007838706846017A099801700027FB
:1053800006E0002203200099FBF7AEFC7F1CFFB271
:1053900068460521007BFAF7ABFEB842F1D86846B3
:1053A000007B2018401EC4B2BFE0285D7449641C15
:1053B0000122C87282400A840022E4B2114604200D
:1053C000B1E0285D4006410F68464170285D641CCD
:1053D0000107090F68460170E0B2295C401CC0B2A9
:1053E00001912A5C401C12021143C0B201912A5C57
:1053F000401C12041143C4B2084664214843019082
:105400005F486946007C01F089FD0146C8434007BA
:105410000BD168460278099802725748019A2038E1
:1054200042626846427809984270002205207AE07C
:105430005348FF21006E002804D00068002801D0E6
:105440008047014606200E9A6DE0285D6946087483
:10545000641CE0B20391295C401CC0B200912A5C3C
:10546000401C12021143C0B200912A5C401C12047D
:10547000114364225143009100210191C0B22A5C82
:10548000401C6946C4B20A723D4803A9007C01F081
:105490000DFD00220146072045E0285D641C000741
:1054A000000FE4B2002800D101207D21C90048434B
:1054B00031497D222039D2000861801800224861DC
:1054C000114608202FE033E034E0FFE7285D00219B
:1054D0006A46641C11705170E4B2810601D5012145
:1054E0005170C10601D5012111700007000F9070A5
:1054F00023481146007C01F04FFD401C15D0684642
:1055000001780998017368464178099841736846A3
:1055100080781C49085CFBF775F817490022203990
:10552000086311460920FBF7DFFBB44200D2D7E63F
:105530000FB0F0BD285D69460870641CE0B2295CBC
:10554000401CC0B201912A5C401C12021143C0B23F
:1055500001912A5C401C12041143C4B20846642124
:105560004843019006486946007C00F0F9FA0022A1
:1055700001460A20D7E70000380D00205C0E00200D
:10558000B4000020F1A8000870B517490023CA68CC
:105590001206120F18D18A6B154CD500134A02D58A
:1055A0001268224009E08E6B01252D072E438E6381
:1055B00012688E6B2240AE438E63A24204D1032157
:1055C0008903884200D101230A480168490849003B
:1055D000194301600068C007C00F984201D0012044
:1055E00070BD002070BD000000100240007000403F
:1055F000001800000020024001090A220007514360
:10560000000F4018C0B27047002102E00A38C0B253
:10561000491C0A28FAD20907090E0843704770B5D9
:1056200004460068C168490613D40021C943C1601B
:10563000FCF728F87D260546F60006E0FCF722F880
:10564000401BB04201D9032070BD2068C0684006ED
:10565000F4D5002070BD10B5FDF704FD10BD70B588
:105660001C46049B15460E46052803D0072807D084
:10567000002070BD22462946304600F081FA70BDF8
:1056800022462946304600F02DFF70BD10B5052892
:1056900003D0072805D0002010BD084600F0ACFA62
:1056A00010BD084600F05AFF10BD10B5052805D002
:1056B000072802D1084600F071FF10BD084600F02F
:1056C000BBFA10BD70B514460D46052803D0072857
:1056D00007D0D0B270BD1A462146284600F0E6FA3F
:1056E00070BD1A462146284600F092FF70BD10B5E5
:1056F000052805D0072802D1084600F097FF10BD05
:10570000084600F0DBFA10BD10B5052803D00728C5
:1057100005D0002010BD084600F0ECFA10BD084688
:1057200000F0A0FF10BD30B502460168C07A0C231E
:1057300058430930095C50680B01C45A00250C33EA
:10574000C550507A002809D0907A012805D11069F7
:1057500001466143081A5168C85030BDD06800F056
:1057600003F9844200D92046917A002902D1117AA6
:10577000002903D011694843401AECE75068C5502E
:1057800030BD10B50B0914099C4201D3914201D3DD
:10579000002010BD5A000C07835A240F0121A1409C
:1057A0008B438352012010BD30B500280AD0002958
:1057B00008D0002304E05C000D5B5B1C0553DBB2EA
:1057C0009342F8D330BDFFB50E461946099A0298A8
:1057D00000F0A9F9002824D0002425461DE000236C
:1057E0006F00F15B0120984001420ED0E0180C21BF
:1057F00048430A994018007A01060A0F0107090F69
:10580000029800F090F901280BD05B1CDBB2102B42
:10581000E7D310346D1CE4B2EDB200988442DED3BD
:10582000002004B0F0BDFEB5054614460E465800F3
:10583000FAF704FF009060000F460838FAF7EAFE16
:105840002A463346FAF7E8FD3B46009AFAF732FD5E
:105850002A463346FAF748FE04F070F9FAF720FFBB
:10586000A04200D90446099804600898FAF7E6FEB9
:10587000009001912046FAF7E1FE2A463346FAF7F6
:10588000CBFD0022D243FAF7A7FE0C4607460222C0
:1058900028463146FAF7A0FE3A462346FAF7AEFD0F
:1058A000019B009AFAF7AAFD04F048F9FAF7D4FE32
:1058B0000A990860FEBD000010B5FAF7BFFE024667
:1058C0000B4600200149FAF70FFE10BD00002040F2
:1058D00070B506460846FAF7B1FE054601200C46AB
:1058E000B040FAF797FE2A462346FAF7FDFD00225C
:1058F000014BFAF791FD70BD00408F4070B5144622
:105900000D464000FAF77EFE2946FAF7CEFC214606
:10591000FAF7C7FCFAF7E2FE04F00CFBFAF79CFE7C
:1059200040B270BDF0B58446964600206246002A1B
:1059300001D0012215E00020F0BD4C0063461F5B42
:1059400010260024234615469D40BD4301D1641C0A
:10595000E4B25B1CDBB2B342F5D32018491CC0B2E1
:10596000C9B27145E9D3F0BD0649884201D264202D
:1059700070470549884202D27D20C0007047034825
:105980007047000080EE3600803F5C021027000068
:10599000FFB504460678022083B020560290032506
:1059A000042761786557E75700290BD10F2801D1EB
:1059B0000F2D02D000260727E75705202056062581
:1059C00002906557002E25D0112020566169019163
:1059D00000901023E356207AE168029AFFF7F3FE65
:1059E000002801D1FD20064018221921A256615637
:1059F000284600F098F8002807D119202056A84220
:105A000001DD054601E0FB200640072E02D1002FF4
:105A100000D1A75704990298087005980570069858
:105A20000770304607B0F0BD03780022032B14D175
:105A3000427813071B0F12068B70120F4A70827880
:105A40008A80C3781B021A438A8000794206520F6B
:105A50000007CA70000F0870052210467047002822
:105A60008A6000D14A607047FFB50024E44381B0EA
:105A70001F46002552E0019800280FD00298002808
:105A800044D0039829010E18B06802F02BFF01469C
:105A9000F06881422BD30020F0603DE0039829019B
:105AA00008180090406802F01DFF06460298002882
:105AB00003D00098806802F015FF864202D9009852
:105AC000406804E00298002803D00098806802F043
:105AD00009FF0099C968814202D8002000991AE0A4
